:1000000000000320D1010000C13B0300793B030045
:10001000793B0300793B0300793B0300793B030004
:10002000793B0300793B0300793B0300C13B0300AC
:10003000C13B0300793B030041290300452A03002B
:10004000C13B0300C13B0300C13B0300C13B0300B4
:10005000C13B0300C13B0300C13B0300C13B0300A4
:10006000C13B0300C13B0300C13B0300C13B030094
:10007000C13B0300C13B0300C13B0300C13B030084
:10008000C13B0300C13B0300C13B0300C13B030074
:10009000C13B0300C13B0300C13B0300C13B030064
:1000A000513D02005D3D0200C13B0300C13B030026
:1000B000C13B0300C13B0300C13B03008147030078
:1000C000C13B03006D660300C13B03009967030059
:1000D000C13B0300E54D0300C13B0300C13B0300EE
:1000E000C13B0300C13B0300C13B0300C13B030014
:1000F000C13B0300C13B0300C13B0300C13B030004
:10010000C92D0300DD2D0300F12D0300052E030092
:10011000C13B030009560300C13B0300C13B030080
:10012000C13B0300C13B0300C13B0300C13B0300D3
:10013000C13B0300C13B0300C13B0300C13B0300C3
:10014000C13B0300C13B030055530300C13B030007
:10015000C13B0300C13B0300C13B0300C13B0300A3
:10016000C13B0300C13B0300693D0200C13B0300EA
:10017000C13B0300C13B0300C13B0300C13B030083
:10018000C13B030091AA0200C13B0300C13B030035
:10019000C13B0300C13B030091680300C13B030066
:1001A000C13B0300C13B0300C13B0300C13B030053
:1001B000C13B0300C13B0300C13B0300C13B030043
:1001C000C13B0300C13B0300C13B0300C13B030033
:1001D0005C4B4CF2205210B51A804DF628121A8052
:1001E00000BF00BF33F0F0FC574B4FF030621A6095
:1001F000564A9A60564ADA60564B4FF470021A60BB
:10020000554B564A1A60564B1A78110703D51A787F
:1002100042F008021A70534B5349AA221A70534AEB
:10022000534B8B4204D252F8040F43F8040BF8E707
:10023000504B514900228B4202D243F8042BFAE77B
:100240004E494F4A002352F8230041F8230001335E
:10025000742BF8D14B4B4C4A802103F8011B93427D
:10026000FBD14A4B454A1A60494B8A221A70A3F5C2
:10027000805324225A70A0221A709A799207FCD5D2
:100280009A79D406FCD4434A937903F00C03082BE3
:10029000FAD1414B60221A7002331A78802AFCD1BD
:1002A0003C4B01221A715D225A719A799006FCD555
:1002B0009979384A4906FBD5384B394919600021EC
:1002C000596020231370937903F00C030C2BFAD19F
:1002D000344B354A1A60354A354C136813F4807331
:1002E00003D123604FF4A8531360324B324A1A6093
:1002F00000225A60072243F8042C304AC3F80C2D20
:1003000062B634F077F92368DA0705D52C4833F064
:100310002FFF2C4B2C4A1A602C4B1B785B0609D5FF
:10032000284C294B22689A4204D1254833F020FFFB
:10033000002323603AF014FB33F04CFC33F07AFBDB
:10034000FEE700BF0E20054030800440823F0400DD
:100350000100002B88ED00E0002008E0030000858C
:1003600002D0074000E00740D018FF1F5C6C04007B
:10037000400CFF1FD018FF1F70B5FF1F0002FF1FAA
:100380000000000000E400E064E400E008ED00E0AC
:10039000005006400040064001E007404480044011
:1003A0000000060204800440C010070010D0034083
:1003B00014D0034014E000E01FBF02000000202022
:1003C000EDF8255E1CE00340A5C3945A00F00740F9
:1003D000FFFFFFFFFFFFFFFFFFFFFFFFFFFFFFFF2D
:1003E000FFFFFFFFFFFFFFFFFFFFFFFFFFFFFFFF1D
:1003F000FFFFFFFFFFFFFFFFFFFFFFFFFFFFFFFF0D
:10040000FFFFFFFFFFFFFFFFFFFFFFFFDEF9FFFF23
:1004100010B5054C237833B9044B13B10448AFF33E
:1004200000800123237010BDD018FF1F00000000C2
:10043000586C0400084B10B51BB108490848AFF3CD
:1004400000800848036803B910BD074B002BFBD0A0
:10045000BDE81040184700BF00000000D418FF1F7F
:10046000586C0400D018FF1F0000000000207047E7
:10047000027C02F0080202F0FF0332B1C36A406A54
:10048000181A48BF6FF0004070471846704700BF09
:10049000006A7047C06970470369C268934204D21A
:1004A000591C82680161D05C7047036853F80C3CAA
:1004B00003444FF0FF301A7C42F002021A74704776
:1004C00003690B60704700BF00207047C3688B4210
:1004D00086BF016101200020704700BF0B680361E7
:1004E000704700BF006970470020704701207047C7
:1004F000034BD8691A79431E5002A3FB00017047D1
:100500006419FF1F10B5074C04F1200032F078FF8A
:1005100004F1100032F074FF2046BDE8104032F0C4
:100520006FBF00BF1C1FFF1F10B50446403032F0E4
:1005300067FF04F1300032F063FF04F1200032F075
:100540005FFF04F1100032F05BFF204632F058FFED
:10055000204610BD10B5044632F052FF204610BDB3
:1005600070B500F5E0451435064655B100F5EC448C
:100570006434A54205D0103C204632F041FFA5422C
:10058000F9D106F52D542C3454B106F5AF451C3580
:10059000AC4205D0103D284632F032FFAC42F9D1D2
:1005A00006F514551C352DB1103C204632F028FFBD
:1005B000A542F9D106F5F6540C342CB1103D28466D
:1005C00032F01EFFAC42F9D106F5C3551C352DB1F2
:1005D000103C204632F014FFA542F9D1304670BDE0
:1005E00010B5044600F5807032F00AFF204610BDB9
:1005F00010B5044632F0C6FB204610BD10302BF07B
:100600005DBB00BF00B583B002AB012203F8011D42
:10061000103019462BF052FB03B05DF804FB00BF0D
:1006200050302BF04BBB00BF33F09CBD04302CF09E
:10063000A7BB00BF10302BF083BA00BF08302BF0EF
:100640007FBA00BF30B5394C23680F2B83B008DD6B
:10065000374B1B68022B4FD036482FF089F903B077
:1006600030BD344D28462FF0DBFC42F6E063013B01
:10067000FDD1314B2268B5F9981023F812102F4B99
:100680002268B5F99C1023F812102D4B2268B5F999
:10069000A01023F812102B4B2268B5F98C1023F808
:1006A0001210294B2268B5F9901023F81210274B2D
:1006B0002268B5F9941023F81210254B2268B5F979
:1006C000A41023F81210234B2268B5F9A81023F8C0
:1006D0001210214B2268B5F9AC1023F812101F4BF1
:1006E0002268D5F8B01043F8221023680133236044
:1006F0000F4B1B68022BAFD1194C2378002BABD1C9
:100700000C482FF0E7FA207023782BB1154A164BCE
:1007100012680192019A1A6042F6E063013BFDD132
:1007200004482FF025F903B030BD00BF48A7FF1FD4
:10073000E81DFF1FAC20FF1F3C9FFF1F5C9FFF1F9A
:100740007C9FFF1F7426FF1FA8A4FF1F9826FF1F72
:10075000901EFF1FB01EFF1FD01EFF1F2419FF1F7A
:10076000E51DFF1F90A8FF1F9426FF1F38B5074CFB
:1007700020462CF095F9024620794102A1FB024562
:10078000D31701FB03552046294638BD6419FF1FC6
:1007900000B583B001220DF1070110302AF056FF99
:1007A00001280CBF9DF807004FF0FF3003B05DF843
:1007B00004FB00BF10302BF04DB800BF0C302BF005
:1007C000B9B900BF08302CF04DBB00BF04302CF08D
:1007D00049BB00BF08302CF033BB00BF04302CF005
:1007E0002FBB00BF0C302AF0C7BD00BF08302CF073
:1007F00039BA00BF04302CF0EDBA00BF002A2CDD5E
:100800002DE9F843002516460F460446A8466068C1
:1008100020B935F055FC60600028FAD030F8083B6C
:10082000721BC3F140099145A8BF9146791918443C
:100830004A4633F007F961680B884B449BB2402B62
:100840004D440B8003D0AE42E1DCBDE8F8830420C8
:1008500034F098FEC4F80480F5E770470A4A0B4B61
:1008600070B402F19800D2F88C60D2F89050D2F8AF
:1008700094401E8007C85D809C80D880198100202C
:100880005A8170BC704700BFAC20FF1FE4A6FF1F59
:100890000368D0ED016AD3ED007A82680B68C869FD
:1008A00010B48C68002C67EEA66A0FDD02EB8401A1
:1008B0008000F1EE666AB2EC017AD3ED007AE6EEE2
:1008C000877A8A42C3ED007A0344F4D15DF8044B81
:1008D000704700BF10B44C68426A036892ED007A1A
:1008E0000A68002C09DD03EB8401F3EC017A67EE62
:1008F000277A9942E2EC017AF7D15DF8044B704710
:100900002DE9F043C56F95B0FDB1DFF8BC9004460A
:10091000636FAB424DD3267D26B304F1140805EB7B
:100920008501090140462BF009F8694640465022EE
:100930002AF08CFE9DF80E1094F8802052B1029B94
:10094000E36719B9E56F002DE2D10025284615B0FF
:10095000BDE8F083E36F606F01338342E36728BF34
:10096000E267EEE74FF47A7744F20223144A15491E
:100970008DF810608DF811608DF804608DF80C60B2
:1009800004A804AE0297CDF800902AF0FDFD0FCE2A
:1009900004F1140847460FC70FCE0FC730689DF803
:1009A0000410029A9DF80C3038602172E2602374C2
:1009B000B5E70021502268463AF030FC0021BBE741
:1009C00020380400A01DFF1F38300400436F9942F7
:1009D0003FD82DE9F041057D94B00F46044685B11E
:1009E00000F1140807EB8701090140462AF0A6FF31
:1009F0004046502269462AF029FE019814B0BDE80D
:100A0000F0814FF47A7E144E144A15498DF8105037
:100A100044F202238DF811508DF804508DF80C50DB
:100A200004A804AD0096CDF808E02AF0ADFD0FCD86
:100A300004F1140846460FC60FCD0FC628689DF86E
:100A40000410029A9DF80C3030602172E260237429
:100A5000C8E70020704700BF383004002038040089
:100A6000A01DFF1F2DE9F0470C46416F8C4294B04A
:100A7000924699464FD8067D054626B300F11408E4
:100A800004EB8401090140462AF058FF50226946D0
:100A900040462AF0DBFD50460DF10E01009D9DF809
:100AA0000C403BF08BF81C9B1D602CB9019BC9F8D6
:100AB000003014B0BDE8F0874FF0FF33C9F80030C4
:100AC00014B0BDE8F0874FF47A7E1A4F1A4A1B49DA
:100AD0008DF8106044F202238DF811608DF80460E7
:100AE0008DF80C6004A804AE0097CDF808E02AF059
:100AF0004BFD0FCE05F1140847460FC70FCE0FC7A9
:100B000030689DF80410029A9DF80C303860297204
:100B1000EA602B74B4E75022002168463AF07EFB6D
:100B200050460DF10E013BF049F81C9A002313606A
:100B3000BCE700BF3830040020380400A01DFF1FB0
:100B40002DE9F0470446A2B05030D4F86CA02AF04A
:100B5000DDFBE56B636F9D4273D8267D002E48D088
:100B600004F1140805EB8501090140460DF138092F
:100B70002AF0E4FE4946502240462AF067FDE56B24
:100B8000237DCDF83CA01BBB334E344A34498DF84D
:100B900014304FF47A778DF815308DF808308DF8D1
:100BA0001030019644F2022305A805AE03972AF0FF
:100BB000EBFC0FCE47460FC70FCE0FC730689DF82E
:100BC0000810039A9DF8103038602172E260237497
:100BD00005EB8501090140462AF0B0FE4946404632
:100BE00050222BF06BF86FF00103E36322B0BDE8F5
:100BF000F0874FF47A7E184F184A19498DF84860EB
:100C000044F202238DF849608DF83C608DF8446011
:100C100012A812AE0E97CDF840E02AF0B5FC0FCE28
:100C200004F1140847460FC70FCE0FC730689DF870
:100C30003C10109A9DF8443038602172E2602374B1
:100C400090E70DF138094846502200213AF0E6FAC3
:100C500004F1140894E700BF383004002038040081
:100C6000A01DFF1FF0B5436F9942E5B0144600F296
:100C7000A880077D05460E46002F00F0D68000F1C3
:100C8000140706EB8601090138462AF057FE69462B
:100C9000502238462AF0DAFC009E002E00F09680A2
:100CA0006B6FB342C0F0A7802B7D002B00F0F78064
:100CB00006EB8601090138462AF040FE14A95022AD
:100CC00038462AF0C3FC149E002E00F09A806B6F09
:100CD0009E4200F2DB802B7D002B00F0188106EB9A
:100CE0008601090138462AF029FE502228A93846F3
:100CF0002AF0ACFC289E002E00F0CD806B6FB34232
:100D0000C0F0FC802B7D002B00F0398106EB8601C2
:100D1000090138462AF012FE50223CA938462AF032
:100D200095FC3C9E002E00F0EE806B6FB342C0F04D
:100D30001D812B7D002B00F0518106EB86010901FE
:100D400038462AF0FBFD50A9384650222AF07EFC96
:100D50005099002900F00F8128462246FFF782FFB4
:100D600020463AF08DFF231813F8013C2F2B02D0B8
:100D7000B24B1B8823520DF5A77120463AF01EFD99
:100D800020463AF07DFF231813F8013C2F2B02D0A8
:100D9000AA4B1B8823520DF1FE0120463AF00EFDAE
:100DA00020463AF06DFF231813F8013C2F2B02D098
:100DB000A24B1B8823520DF1AE0120463AF0FEFCF7
:100DC00022E05022002168463AF028FA9B4B1B880B
:100DD000238020463AF054FF231813F8013C2F2BB0
:100DE00002D0964B1B88235220460DF10E013AF09B
:100DF000E5FC65B0F0BD502200210DEB02003AF099
:100E00000DFA8E4B1B88238020463AF039FF2318B9
:100E100013F8013C2F2B02D0884B1B8823520DF175
:100E20005E0120463AF0CAFCD3E74FF47A7CDFF843
:100E300018E2834A83498DF8507144F2022354A882
:100E40008DF851718DF844718DF84C71CDF848C111
:100E5000CDF840E12AF098FB0DF5A87EBEE80F0022
:100E600005F11407BC46ACE80F00BEE80F00ACE883
:100E70000F00DEF800009DF84411529A9DF84C31A5
:100E8000CCF800002972EA602B74FAE650220021A7
:100E900028A83AF0C3F9694B1B88238080E74FF4F8
:100EA0007A7CDFF8A4E1664A66498DF850318DF806
:100EB00051318DF844318DF84C3154A844F202235D
:100EC000CDF848C1CDF840E12AF05EFB0DF5A87ED3
:100ED000BEE80F00BC46ACE80F00BEE80F00ACE86F
:100EE0000F00DEF800009DF84411529A9DF84C3135
:100EF000CCF800002972EA602B74D9E65022002158
:100F00003CA83AF08BF94D4B1B88238038E74FF40F
:100F10007A7CDFF834E14A4A4A498DF850318DF83D
:100F200051318DF844318DF84C3154A844F20223EC
:100F3000CDF848C1CDF840E12AF026FB0DF5A87E9A
:100F4000BEE80F00BC46ACE80F00BEE80F00ACE8FE
:100F50000F00DEF800009DF84411529A9DF84C31C4
:100F6000CCF800002972EA602B74B8E65022002108
:100F700050A83AF053F9314B1B882380F0E64FF428
:100F80007A7CDFF8C4E02E4A2E498DF850318DF876
:100F900051318DF844318DF84C3154A844F202237C
:100FA000CDF848C1CDF840E12AF0EEFA0DF5A87E63
:100FB000BEE80F00BC46ACE80F00BEE80F00ACE88E
:100FC0000F00DEF800009DF84411529A9DF84C3154
:100FD000CCF800002972EA602B7497E64FF47A7C13
:100FE000DFF864E0164A17498DF850318DF8513119
:100FF0008DF844318DF84C3154A844F20223CDF8D9
:1010000048C1CDF840E12AF0BFFA0DF5A87EBEE850
:101010000F00BC46ACE80F00BEE80F00ACE80F00C4
:10102000DEF800009DF84411529A9DF84C31CCF83E
:1010300000002972EA602B747FE600BF303804009C
:1010400020380400A01DFF1F38300400F8B54368A5
:101050008B420446164608D003680D461BB153F870
:10106000040C39F01BFD15B925606660F8BDB5F1BB
:10107000804F0DD2AD0005F1100039F007FD074695
:1010800058B120F00F0310331D4643F8040CEBE772
:101090004FF0FF3032F020FEECE7002DE4D04FF0AF
:1010A000FF3032F019FE3D46DEE700BF2DE9F04F7C
:1010B00090F878500126ADF54F7D044680F87960B0
:1010C000002D00F05182636F002B00F014824FF06E
:1010D000000AD14607E0636F09F101094B450AF1A7
:1010E000500A40F208824B45F6D3257D002D00F0D2
:1010F000DC8104F11408514640462AF01FFC02A985
:10110000502240462AF0A2FA9DF81430002BE2D07B
:101110009DF81530002BDED1E36B4B4504D194F8DC
:101120003830002B00F00381B9F1000F00F0CC80C3
:10113000636F4B45C0F00A82257D8EAE002D00F016
:101140003482814B0093514640462AF0F7FB16A9A2
:10115000502240462AF07AFA169D002D00F0FE81BA
:10116000636FAB42C0F0CB81277D002F00F03E8241
:1011700005EB8501090140462AF0E0FB2AA950222F
:1011800040462AF063FA2A9D002D00F0BD81636F6E
:10119000AB42C0F0AF82277D002F00F0B68205EB96
:1011A0008501090140462AF0C9FB3EA9502240466C
:1011B0002AF04CFA3E9D002D00F0A182636FAB42F5
:1011C000C0F08D82277D002F00F0668205EB85013F
:1011D000090140462AF0B2FB52A9502240462AF0AB
:1011E00035FA529D002D00F07F82636FAB42C0F054
:1011F000AF82277D002F00F0BF8205EB850109013A
:1012000066AD40462AF09AFB2946502240462AF015
:101210001DFA2D68002D00F0A082636FAB42C0F074
:10122000A282277D002F00F0CA8205EB850109010B
:101230007AAF40462AF082FB3946502240462AF0D7
:1012400005FA3968002900F0948232462046FFF7FB
:1012500009FD30463AF014FD0DF237252B5C2F2B9B
:1012600002D03A4B1B8833520DF5FB7130463AF0F1
:10127000A5FA30463AF004FD2B5C2F2B02D0334BFD
:101280001B8833520DF5D37130463AF097FA304649
:101290003AF0F6FC2B5C2F2B02D02C4B1B883352E0
:1012A0000DF5AB7130463AF089FA30463AF0E8FC79
:1012B0002B5C2F2B02D0254B1B8833520DF58371ED
:1012C00030463AF07BFA24E18EAE2F2333801E4B5A
:1012D00000937AAF04F1500528462AF017F84FF032
:1012E000000B3246009939604FF47A765B46184914
:1012F000BE607EA887F810B087F811B087F804B0F8
:1013000087F80CB07EAE2AF03FF90FCE0FC50FCE96
:101310000FC530683979BA683B7B286084F838B0EB
:10132000C4F83C9084F84410A26484F84C3094F8DB
:101330005030002B3FF4CFAE04F15003002666ADD1
:101340009B46CDF804A061E038300400303804003A
:10135000A01DFF1F524514BF012353463B73BE60BF
:1013600008BFEB6AC7F8009018BF5346002640221A
:101370000DF246216AA87B607E732AF0BFFD636F81
:1013800094F814E0009301336367BEF1000F2ED18F
:101390004FF47A7C44F20223A64AA749A74E8DF85F
:1013A000F8E17EA88DF8F9E18DF8ECE18DF8F4E133
:1013B000CDF8F0C17A962AF0E7F80DF5FC7EBEE88C
:1013C0000F00C446ACE80F00BEE80F00ACE80F0009
:1013D0000DF5F47ADEF800009AF80410DAF8082027
:1013E0009AF80C30CCF800002172E2602374009E61
:1013F00006EB8601090140462AF0A0FA3946502240
:1014000040462AF05BFC6AA829F080FF8B4B2B60DA
:101410004FF0000A4FF47A735246AB6059466AA8FF
:1014200085F810A085F811A085F804A085F80CA017
:101430002AF040FB2B7C8EAF03F07002002B89D189
:10144000257DDDF804A0039601238DF8153015BB2A
:101450008DF848528DF849528DF83C528DF844521F
:10146000764D744A74498E9544F202234FF47A778C
:1014700092A892AD90972AF087F80FCD47460FC7F4
:101480000FCD0FC78EAE28683179B268337B3860D4
:101490002172E2602374514640462AF04FFA02A9B5
:1014A000404650222AF00AFC15E68DF848528DF885
:1014B00049528DF83C528DF84452604D5D4A5E4968
:1014C0008E954FF47A7744F2022392A892AD9097CA
:1014D0002AF05AF80FCD04F1140847460FC70FCD74
:1014E0000FC78EAE28683179B268337B38602172BD
:1014F000E2602374FFE50DF54F7DBDE8F08F5022CB
:1015000000212AA839F08AFE2F2333807AAF0DF20A
:10151000372530463AF0B4FB2B5C2F2B02D0484BDA
:101520001B8833520DF1B60130463AF047F9304688
:101530003AF0A6FB2B5C2F2B02D0414B1B88335279
:101540000DF1660130463AF039F9C3E65022002128
:1015500016A839F063FE394B00938EAE2F233380EB
:101560007AAF0DF23725E2E780F8786031493248EA
:101570002AF0A4F98EAF94F814E03D602F23BD60EB
:101580007D603E737D736667ADF84632BEF1000F35
:1015900058D004F11409002148462AF0CFF9394601
:1015A000484650222AF08AFB8DE54FF47A7735744D
:1015B000757435713573214D1E4A1F49356044F2EB
:1015C0000223B76092A892AD29F0DEFF0FCD474607
:1015D0000FC70FCD0FC728683179B268337B174D1D
:1015E000386000952172E2602374ACE54FF47A7E96
:1015F0003774777437713773009F0E4A0E4937601E
:1016000044F20223C6F808E092A892AF29F0BCFF8A
:101610000FCFC646AEE80F000FCFAEE80F00386818
:101620003179B268337BCEF800002172E260237416
:101630009EE500BF20380400A01DFF1F38300400C5
:10164000303804006F4D704A70497A954FF47A76BD
:1016500044F202237EA87EAD7C968DF8F8E18DF8E9
:10166000F9E18DF8ECE18DF8F4E129F08DFF0FCD73
:1016700004F114094E460FC60FCD0FC60DF5F478D0
:10168000286898F80410D8F8082098F80C303060D2
:101690002172E26023747EE74FF47A7E37747774A8
:1016A00037713773009F584A5849376044F2022314
:1016B000C6F808E092A892AF29F066FF0FCFC646A1
:1016C000AEE80F000FCFAEE80F0038683179B2688E
:1016D000337BCEF800002172E260237476E550225D
:1016E000002152A839F09AFD2F2333807AAF0DF2F2
:1016F0003725CCE5502200213EA839F08FFD2F235D
:1017000033807AAF0DF23725CFE54FF47A7E377408
:10171000777437713773009F3B4A3C49376044F216
:101720000223C6F808E092A892AF29F02DFF0FCF50
:10173000C646AEE80F000FCFAEE80F00386831792B
:10174000B268337BCEF800002172E260237426E594
:101750005022002166A839F061FD2F2333807AAF33
:101760000DF2372585E57AAF38465022002139F051
:1017700055FD2F2333806CE54FF47A7E37747774F0
:1017800037713773009F204A2049376044F20223A3
:10179000C6F808E092A892AF29F0F6FE0FCFC64631
:1017A000AEE80F000FCFAEE80F0038683179B268AD
:1017B000337BCEF800002172E26023741DE54FF404
:1017C0007A7E3774777437713773009F0E4A0F49EA
:1017D000376044F20223C6F808E092A892AF29F0DD
:1017E000D3FE0FCFC646AEE80F000FCFAEE80F0016
:1017F00038683179B268337BCEF800002172E2603C
:10180000237412E53830040020380400A01DFF1FA7
:1018100038B5044608460D463AF032FA23680246C7
:1018200029465B68204698470546204631F01AFB5A
:10183000284438BD38B50446103039F027F905463C
:1018400030B120F00F031033184643F8045C38BD64
:101850000CB9204638BD4FF0FF3032F03DFA284633
:1018600038BD00BF2DE9F043047D8FB007460E461A
:1018700091467CB100F1140806EB8601090140464F
:101880002AF05CF84946404650222AF017FA0FB079
:10189000BDE8F0834FF47A7E124D134A13498DF858
:1018A000144044F202238DF815408DF808408DF85D
:1018B000104005A805AC0195CDF80CE029F064FEB8
:1018C0000FCC07F1140845460FC50FCC0FC5206893
:1018D0009DF80810039A9DF8103028603972FA605C
:1018E0003B74C9E73830040020380400A01DFF1FF6
:1018F0002DE9F0434B6F93428FB080463CD30E7D71
:101900000D46144686B101F1140904EB8401090166
:1019100048462AF013F848465022414629F096FEE0
:1019200040460FB0BDE8F0834FF47A7E164F174A59
:1019300017498DF8146044F202238DF815608DF874
:1019400008608DF8106005A805AE0197CDF80CE091
:1019500029F01AFE0FCE05F114094F460FC70FCE1E
:101960000FC730689DF80810039A9DF81030386052
:101970002972EA602B74C8E75022002139F04EFC2E
:1019800040460FB0BDE8F083383004002038040032
:10199000A01DFF1F2DE9F04F01EB810AB1F1FF3FC0
:1019A0004FEA0A1AADF2C44D8846DFF878B3044610
:1019B00014BFD1464FF0000920E004F11406494657
:1019C000304629F0BBFF502230460DEB020129F0D2
:1019D0003DFE50220DEB0201684632F033F89DF8CF
:1019E0000C202046002A42D0019B1946002B3ED0F5
:1019F00023681B6B9847002800F01B81B8F1FF3F5C
:101A000002D0636F98452BD8257D002DD5D14FF49A
:101A10007A7644F20223C04AC0498DF8D0538DF83B
:101A2000D1538DF8C4538DF8CC53F4A8F4ADF2968D
:101A3000CDF8C0B329F0A8FD0FCD04F11406B646C9
:101A4000AEE80F000FCDAEE80F00F0AF286839798F
:101A5000BA683B7BCEF800002172E2602374AEE7E7
:101A6000502200210DEB020039F0D8FBB1E7B8F1AC
:101A7000FF3F00F0EA80B8F1000F00F01081636FC3
:101A8000984500F2A281257DF0AF002D00F0E280A4
:101A900004F114065146304629F050FF50223046DA
:101AA00028A929F0D3FD289A002A00F094813CA8A7
:101AB0002146FFF71DFF3C9A002A00F0D48150A870
:101AC0002146FFF715FF509A002A00F0E48164A830
:101AD0002146FFF70DFF649A002A00F0D78178A80D
:101AE0002146FFF705FF789A002A00F0D9818CA8DB
:101AF0002146FFF7FDFE8C9A002A00F0D681A0A8AF
:101B00002146FFF7F5FEA09A002A00F0D381B4A881
:101B10002146FFF7EDFEB49A002A00F0D081C8A854
:101B20002146FFF7E5FEC89A002A00F0CD810DF5A9
:101B30005C7921464846FFF7DBFED9F80010002902
:101B400000F0C7813A462046FFF78CF838463AF055
:101B500097F80DF2BF352B5C2F2B02D0704B1B88F2
:101B60003B520DF27E31384639F028FE38463AF0C5
:101B700087F82B5C2F2B02D0694B1B883B520DF250
:101B80002E31384639F01AFE38463AF079F82B5C97
:101B90002F2B02D0624B1B883B520DF2DE213846C0
:101BA00039F00CFE38463AF06BF82B5C2F2B02D044
:101BB0005B4B1B883B520DF28E21384639F0FEFDFF
:101BC00038463AF05DF82B5C2F2B02D0544B1B8823
:101BD0003B520DF23E21384639F0F0FD38463AF0DE
:101BE0004FF82B5C2F2B02D04D4B1B883B520DF531
:101BF000F771384639F0E2FD38463AF041F82B5C8F
:101C00002F2B02D0464B1B883B520DF5CF71384627
:101C100039F0D4FD38463AF033F82B5C2F2B02D044
:101C20003F4B1B883B520DF5A771384639F0C6FD76
:101C30001DE100200DF2C44DBDE8F08F029BC99359
:101C4000C8AA59462046FFF70DFE01200DF2C44DEB
:101C5000BDE8F08F4FF47A7E324E2F4A2F493D7403
:101C600044F202237D743D713D73C7F808E0F4A887
:101C7000F4AD3E6029F088FC0FCD04F11406B646A1
:101C8000AEE80F000FCDAEE80F0028683979BA68CA
:101C90003B7BCEF800002172E2602374FAE6F0AFDD
:101CA0002F233B80002A00F08B8000250DF55C7906
:101CB0003A4648462B4619498DF870538DF87153B2
:101CC00029F062FC0028B4D0484629F00BFE002819
:101CD000AFD0257DDDF800B000238DF80E30002D4B
:101CE00000F0978004F114065146304629F026FE94
:101CF00050226946304629F0E1FFC8A85A462146DD
:101D0000FFF7F6FDC99DA84598D0002D9DD0DFF8BE
:101D100014A00DF55C791EE020380400A01DFF1F03
:101D2000303804003830040005EB850109013046E5
:101D300029F004FE50224946304629F087FC502203
:101D40004946C8A831F07EFECA9B984558D01D462A
:101D5000002B3FF47AAF636F9D422BD8277D002F75
:101D6000E2D14FF47A7E44F202235B4A5B498DF85C
:101D7000E0728DF8E1728DF8D4728DF8DC72B8A83B
:101D8000B8AFCDF8D8E2CDF8D0A229F0FDFB0FCF47
:101D9000B646AEE80F000FCFAEE80F0038689DF8EA
:101DA000D412B69A9DF8DC32CEF800002172E260BF
:101DB0002374B9E750220021484639F02FFABEE7D4
:101DC0003946464829F07AFD81E75022002128A8AB
:101DD00039F024FAF0AF2F233B800DF2BF3538469F
:101DE00039F04EFF2B5C2F2B02D03D4B1B883B5212
:101DF0000DF1AE01384639F0E1FC9DF80C2051E7B9
:101E0000029BCA932046C8AA2946FFF72BFD012052
:101E100010E74FF47A77334E2F4A30498DF88053CC
:101E200044F202238DF881538DF874538DF87C535E
:101E3000E0A8E0ADDE97DC9629F0A6FB0FCD04F11B
:101E4000140637460FC70FCD0FC70DF55C7928680C
:101E500099F80410D9F8082099F80C3038602172EC
:101E6000E260237440E72F233B800DF2BF353846F4
:101E700039F006FF2B5C2F2B02D0194B1B883B52ED
:101E80000DF1FE01384639F099FCA8E72F233B807D
:101E90000DF2BF35B0E62F233B800DF2BF35B9E61A
:101EA0002F233B800DF2BF3598E62F233B800DF2A8
:101EB000BF3585E62F233B800DF2BF3572E62F2319
:101EC0003B800DF2BF355FE62F233B800DF2BF351F
:101ED0004CE62F233B8039E620380400A01DFF1F6D
:101EE00030380400383004002DE9F047C36B8B42D2
:101EF000ADF5387D04D190F83830934200F0CC80B5
:101F0000914688460646002900F09880436F994222
:101F100000F21981047D78AD002C00F02281DFF8F9
:101F200040A300F1140408EB88010901204629F0C0
:101F300005FD69465022204629F088FB009F002FAE
:101F400000F00981736FBB42C0F0D58096F814E0B1
:101F5000BEF1000F00F0A48007EB870109012046C5
:101F600029F0ECFC14A95022204629F06FFB149FA5
:101F7000002F00F0C680736FBB42C0F0188196F846
:101F800014E0BEF1000F00F0378107EB8701090173
:101F9000204629F0D3FC5022204628A929F056FBE0
:101FA000289A002A00F008813CA83146FFF7A0FCDF
:101FB0003C9A002A00F01A8150A83146FFF798FC9D
:101FC000509A002A00F00C8164AF31463846FFF782
:101FD0008FFC3968002900F03A812A463046FEF726
:101FE00041FE284639F04CFE0DF2DF14235C2F2B06
:101FF00002D0984B1B882B520DF5CF71284639F033
:10200000DDFB284639F03CFE235C2F2B02D0914BA0
:102010001B882B520DF5A771284639F0CFFB2846B7
:1020200039F02EFE235C2F2B02D08A4B1B882B52BB
:102030000DF1FE01284639F0C1FBC2E078AD2F2337
:10204000DFF81CA22B8064AF06F15004204629F073
:102050005DF900212A464FF47A754B46397479743C
:1020600039713973BD607C49C7F800A068A868ADB4
:1020700029F08AFA0FCD0FC40FCD0FC42868397923
:10208000BA683B7B2060C6F83C8086F8389086F8BA
:102090004410B26486F84C300DF5387DBDE8F08709
:1020A0004FF47A7C44F202236C4A6B4985F810E0C5
:1020B00085F811E085F804E085F80CE0C5F808C063
:1020C0007CA8C5F800A029F05FFA0DF5F87EBEE8FF
:1020D0000F00A446ACE80F00BEE80F00ACE80F000C
:1020E000DEF800002979AA682B7BCCF80000317259
:1020F000F260337430E7502200210DEB020039F01A
:102100008DF82F232B8064AF0DF2DF14284639F0B1
:10211000B7FD235C2F2B02D04E4B1B882B520DF1A9
:102120005E01284639F04AFB284639F0A9FD235CB8
:102130002F2B02D0474B1B882B520DF10E01284646
:1021400039F03CFB80E750220021684639F066F800
:10215000DFF80CA178AD2F232B8064AF0DF2DF14D4
:10216000E2E74FF47A773D4A3B492C7444F202236C
:102170006C742C712C73AF60DFF8E4A0C5F800A07C
:102180007CA87CAF29F000FA0FCF06F11404A64614
:10219000AEE80F000FCFAEE80F0038682979AA68C3
:1021A0002B7BCEF800003172F2603374BBE6502214
:1021B000002128A839F032F82F232B8064AF0DF2CC
:1021C000DF14284639F05CFD235C2F2B02D0214B15
:1021D0001B882B520DF1AE01284639F0EFFA95E736
:1021E0002F232B8064AF0DF2DF140AE72F232B80FF
:1021F00064AF0DF2DF1412E74FF47A7C44F202234D
:10220000164A154985F810E085F811E085F804E0D4
:1022100085F80CE0C5F808C07CA8C5F800A029F036
:10222000B3F90DF5F87EBEE80F00A446ACE80F0048
:10223000BEE80F00ACE80F00DEF800002979AA68BC
:102240002B7BCCF800003172F26033749DE62F23B3
:102250002B80C6E630380400A01DFF1F2038040084
:1022600038300400F8B50446174650340022069E64
:102270001D46FFF739FE3946204629F05FFB3246FE
:1022800029462046BDE8F84029F0E0B92DE9F0479D
:102290009A464B1CADF5986D0446904600F094802C
:1022A000436F99420D4600F2C180267D01EB810902
:1022B0004FEA0919002E00F08E8004F114064946F9
:1022C000304629F03BFB304669465022E94629F06A
:1022D000BDF9504639F0D4FC3E2805D900273846D0
:1022E0000DF5986DBDE8F087421C51460DF15E007A
:1022F00031F0A8FB676F267D14957B1C6367002374
:102300001593D9F80430169301238DF85C808DF86D
:102310005D30002E00F07A8104F1140607EB87018E
:102320000901304629F00AFB14A95022304629F051
:10233000C5FC237DC9F804706BBB4FF47A7CDFF8D1
:1023400038E3CB4ACB498DF8D0338DF8D1338DF8B3
:10235000C4338DF8CC33F4A844F20223CDF8C8C3BB
:10236000CDF8C0E329F010F90DF5747EBEE80F003A
:10237000B446ACE80F00BEE80F00ACE80F00DEF892
:1023800000009DF8C413F29A9DF8CC33CCF80000FD
:102390002172E260237405EB85010901304629F0C2
:1023A000CDFA49463046502229F088FCB8F1000F9A
:1023B00043D1204644F202223946FFF795FD3846C4
:1023C0000DF5986DBDE8F087267D4FF000094D466C
:1023D000002E7FF472AFA84FA54AA649F0974FF49C
:1023E0007A7E44F20223F4A8F4AF8DF8D0638DF81E
:1023F000D1638DF8C4638DF8CC63CDF8C8E329F0C0
:10240000C3F80FCF04F11406B646AEE80F000FCFA5
:10241000AEE80F0038689DF8C413F29A9DF8CC33EB
:10242000CEF800002172E260237448E7684650222B
:102430000021E94638F0F2FE4BE7002F00F0208142
:102440003A4628A82146FFF753FA289A002A00F0B6
:1024500030813CA82146FFF74BFA3C9A002A00F055
:10246000218150A82146FFF743FA509A002A00F034
:10247000278164A82146FFF73BFA649A002A00F0FE
:10248000268178A82146FFF733FA789A002A00F0CF
:1024900025818CA82146FFF72BFA8C9A002A00F0A0
:1024A0002481A0A82146FFF723FAA09A002A00F071
:1024B0002381B4A82146FFF71BFAB49A002A00F042
:1024C0002281C8A82146FFF713FAC89A002A00F013
:1024D0002181DCAE21463046FFF70AFA3168F0ADC3
:1024E000002900F01E8120462A46FEF7BBFB284645
:1024F00039F0C6FB0DF2BF34235C2F2B02D05F4BAB
:102500001B882B520DF27E31284639F057F92846A8
:1025100039F0B6FB235C2F2B02D0584B1B882B5273
:102520000DF22E31284639F049F9284639F0A8FB3A
:10253000235C2F2B02D0514B1B882B520DF2DE2136
:10254000284639F03BF9284639F09AFB235C2F2BBB
:1025500002D04A4B1B882B520DF28E21284639F0AF
:102560002DF9284639F08CFB235C2F2B02D0434BEE
:102570001B882B520DF23E21284639F01FF92846C0
:1025800039F07EFB235C2F2B02D03C4B1B882B5257
:102590000DF5F771284639F011F9284639F070FB2E
:1025A000235C2F2B02D0354B1B882B520DF5CF719E
:1025B000284639F003F9284639F062FB235C2F2BBB
:1025C00002D02E4B1B882B520DF5A771284639F0EF
:1025D000F5F8284639F054FB235C2F2B02D0274B0B
:1025E0001B882B520DF1FE01284639F0E7F82846EA
:1025F00039F046FB235C2F2B02D0204B1B882B523B
:102600000DF1AE01284639F0D9F83DE04FF47A7C5F
:10261000DFF864E0164A17498DF8D06344F20223CC
:10262000F4A88DF8D1638DF8C4638DF8CC63CDF830
:10263000C8C3CDF8C0E328F0A7FF0DF5747EBEE84F
:102640000F0004F11406B446ACE80F00BEE80F001A
:10265000ACE80F00DEF800009DF8C413F29A9DF874
:10266000CC33CCF800002172E260237456E600BF40
:1026700020380400A01DFF1F38300400303804004B
:10268000F0AD2F232B80DCAE00242A4630460123F8
:1026900025493470747028F019FF38460DF5986D8F
:1026A000BDE8F087F0AD2F232B80DCAE0DF2BF34F8
:1026B0008FE7F0AD2F232B80DCAE0DF2BF3496E711
:1026C000F0AD2F232B80DCAE0DF2BF3473E7F0ADFD
:1026D0002F232B80DCAE0DF2BF345EE7F0AD2F234D
:1026E0002B80DCAE0DF2BF3449E7F0AD2F232B80F9
:1026F000DCAE0DF2BF3434E7F0AD2F232B80DCAE1F
:102700000DF2BF341FE7F0AD2F232B80DCAE0DF2AE
:10271000BF340AE7F0AD2F232B80DCAE0DF2BF34BF
:10272000F5E62F232B80E2E6A01DFF1F436F9942A1
:1027300000F20D812DE9F04F057DC5B00E4604462F
:10274000002D00F0D88000F114074FEA860A0AEB4A
:1027500006010901384629F0F1F81CA95022384633
:1027600028F074FF9DF87C3013B19DF87D5015B1B1
:1027700045B0BDE8F08F2A4631462046FFF7B4FB4E
:1027800094F85030002BF3D004F15003DFF8C891D7
:10279000019356E0594512BF01225A460D9B3295CE
:1027A00018BF5B468DF8CC20002540220DF1CE01EC
:1027B00006A831938DF8CD50309629F09FFB656FB8
:1027C00094F814E06B1C6367BEF1000F2BD14FF43B
:1027D0007A7C44F202235E4A5E498DF84CE013A8ED
:1027E0008DF84DE08DF840E08DF848E0CDF844C01C
:1027F000CDF83C9028F0C8FE0DF14C0EBEE80F005D
:10280000BC46ACE80F00BEE80F00ACE80F00DEF8F5
:1028100000009DF84010119A9DF84830CCF8000057
:102820002172E260237405EB85010901384629F025
:1028300085F8502230A9384629F040FA06A828F039
:1028400065FD4FF0000B5A460199CDF808904FF402
:102850007A7806A88DF818B08DF819B08DF80CB0FC
:102860008DF814B0CDF8108029F024F99DF81820C7
:10287000DFF8E4E002F07001002A8BD194F814C074
:102880001D9501238DF87D30BCF1000F25D144F258
:1028900002232F4A2F49CDF8C0E034A834AD8DF87B
:1028A000D0C08DF8D1C08DF8C4C0CDF8C8808DF8E7
:1028B000CCC028F069FE0FCDBE46AEE80F000FCDAC
:1028C000AEE80F0028689DF8C410329A9DF8CC300D
:1028D000CEF800002172E26023740AEB06010901C0
:1028E000384629F02BF81CA93846502229F0E6F981
:1028F00045B0BDE8F08F4FF47A77154A15498DF849
:10290000D05044F202238DF8D1508DF8C4508DF888
:10291000CC5034A8DFF84090329734ADCDF8C09059
:1029200028F032FE0FCD04F11407BE46AEE80F00CA
:102930000FCDAEE80F0028689DF8C410329A9DF8BC
:10294000CC30CEF800002172E2602374FDE67047BF
:1029500020380400A01DFF1F38300400F0B590F8A7
:102960007860A3B004460D466EB30DB36B1C4DD01A
:1029700029462046FFF7DAFE636F01229D4284F864
:10298000802000F2A780267D05EB85052D01002E15
:1029900047D004F114062946304628F0CFFF3046D0
:1029A00050220EA928F052FE0F9BE36723B0F0BD22
:1029B00094F87930002B5FD00022012384F8802026
:1029C000E36723B0F0BD012780F87870434944489D
:1029D00028F074FF94F814E08DF844702F23676793
:1029E0000E9610960F968DF84560ADF84630BEF104
:1029F000000F45D004F114060021304628F09EFF58
:102A0000304650220EA929F059F9AEE700212046A0
:102A1000FFF78CFE267D012384F880300025002EF0
:102A2000B7D1304F2D4A2E490E974FF47A7E44F29B
:102A3000022312A812AF8DF848608DF849608DF816
:102A40003C608DF84460CDF840E028F09DFD0FCF4C
:102A500004F11406B646AEE80F000FCFAEE80F0043
:102A600038689DF83C10109A9DF84430CEF800006C
:102A70002172E26023748EE72046FEF717FB9BE786
:102A80004FF47A77174E154A1549039744F20223FB
:102A900005A805AF8DF814E08DF815E08DF808E075
:102AA0008DF810E0019628F06FFD0FCF04F11406A9
:102AB000B646AEE80F000FCFAEE80F0038689DF8BD
:102AC0000810039A9DF81030CEF800002172E260E1
:102AD000237491E70023E36723B0F0BD203804009E
:102AE000A01DFF1F383004002DE9F0410B7882B0A3
:102AF0000446002B4CD008460E4639F0C1F8257A22
:102B000001308DF80200002D52D0E3680133E360FC
:102B10003278002A37D0002705E0E3680233E3600B
:102B200016F8012F4AB3ADF80620002DF5D16068E4
:102B300020B933F0C5FA60600028FAD030F8083BBD
:102B4000C5F10202C3F140089045A8BF9046184461
:102B50000DF106035919424630F074FF61680B8885
:102B600043449BB2402B45440B801CD0012DDEDD3D
:102B700016F8012F257A002AD5D10023ADF80430AC
:102B8000002D66D0E3680233E36002B0BDE8F08157
:102B9000057A8DF80330002D31D0C3680133C3604E
:102BA00002B0BDE8F081042032F0ECFC6760DDE7A4
:102BB0002F46606820B933F083FA60600028FAD0AD
:102BC00030F8083BC5F10102C3F140089045A8BFA9
:102BD000904618440DF102035919424630F032FF75
:102BE00061680B8843449BB2402B45440B802BD03B
:102BF000002DDEDD3278257A002A8CD1BDE72E4605
:102C0000606820B933F05CFA60600028FAD030F8D0
:102C1000083BC5F10102C3F140079742A8BF174620
:102C200018440DF1030359193A4630F00BFF61685F
:102C30000B883B449BB2402B3D440B8032D0002D8F
:102C4000DEDD02B0BDE8F081042032F09BFC67605D
:102C5000CEE72E46606820B933F032FA6060002873
:102C6000FAD030F8083BC5F10202C3F140079742A1
:102C7000A8BF1746184401AB59193A4630F0E2FE96
:102C800061680B883B449BB2402B3D440B8004D0D1
:102C9000012DDFDD02B0BDE8F081042032F072FCCE
:102CA0006660F5E7042032F06DFC6660C7E700BFA0
:102CB000F0B5057A91B064230446ADF82630002DB6
:102CC00000F08480C36806220233C3600F9204338D
:102CD0006422E360ADF824200233E3607C4920469F
:102CE000FFF702FF257A0023ADF82230002D00F017
:102CF000F980E3680233E3600433E3600233E360A6
:102D00000233E3600233E3600233E3600233E360E3
:102D10000233E360023341F20802E360ADF81220AF
:102D20000233E360023341F20B02E360ADF80E20A0
:102D3000023341F20C02E360ADF80C20023341F2A1
:102D40000D02E360ADF80A20023341F21402E360A1
:102D5000ADF80820023341F21502E360ADF8062019
:102D600002330022E3600D9204330122E3600C92EF
:102D700004334DF20242E360ADF804200233002236
:102D8000E3600B9204330222E3600A9204334FF4AF
:102D90004052E360ADF80220023343F20102E360E7
:102DA000ADF800200233E36020464A49FFF79CFE5D
:102DB00020464949FFF798FE20464849FFF794FE10
:102DC00020464749FFF790FE11B0F0BD2E466068DF
:102DD00020B933F075F960600028FAD030F8083B6C
:102DE000C5F10202C3F140079742A8BF1746184435
:102DF0000DF1260359193A4630F024FE61680B881C
:102E00003B449BB2402B3D440B805BD0012DDEDD6B
:102E1000257A06230F932E46002D40F0D982606854
:102E200020B933F04DF960600028FAD030F8083B43
:102E3000C5F10402C3F140079742A8BF17461844E2
:102E40000FAB59193A4630F0FDFD61680B883B44E1
:102E50009BB2402B3D440B802AD0032DDFDD257A29
:102E60006423ADF824302E46002D40F0B382606814
:102E700020B933F025F960600028FAD030F8083B1B
:102E8000C5F10202C3F140079742A8BF1746184494
:102E900009AB59193A4630F0D5FD61680B883B44BF
:102EA0009BB2402B3D440B8007D0012DDFDD15E7A1
:102EB000042032F067FB6660CFE7042032F062FB4B
:102EC0006660F2E7042032F05DFB66609EE700BFBB
:102ED00034380400483804005038040058380400DE
:102EE0005C3804002E46606820B933F0E9F8606071
:102EF0000028FAD030F8083BC5F10202C3F14007C0
:102F00009742A8BF174618440DF1220359193A46B3
:102F100030F098FD61680B883B449BB2402B3D44E8
:102F20000B8000F04C82012DDDDD257A0E230E93FF
:102F30002E46002D40F05082606820B933F0C0F872
:102F400060600028FAD030F8083BC5F10402C3F1F4
:102F500040079742A8BF174618440EAB59193A4686
:102F600030F070FD61680B883B449BB2402B3D44C0
:102F70000B8000F01F82032DDEDD257A41F2010374
:102F8000ADF820302E46002D40F02882606820B930
:102F900033F096F860600028FAD030F8083BC5F1AD
:102FA0000202C3F140079742A8BF1746184408AB76
:102FB00059193A4630F046FD61680B883B449BB294
:102FC000402B3D440B8000F0F081012DDEDD257AA1
:102FD00041F20203ADF81E302E46002D40F0008273
:102FE000606820B933F06CF860600028FAD030F8DF
:102FF000083BC5F10202C3F140079742A8BF17463C
:1030000018440DF11E0359193A4630F01BFD616852
:103010000B883B449BB2402B3D440B8000F0C081A9
:10302000012DDDDD257A41F20303ADF81C302E467B
:10303000002D40F0D781606820B933F041F860601E
:103040000028FAD030F8083BC5F10202C3F140076E
:103050009742A8BF1746184407AB59193A4630F0B3
:10306000F1FC61680B883B449BB2402B3D440B80D4
:1030700000F09181012DDEDD257A41F20403ADF8E7
:103080001A302E46002D40F0AF81606820B933F031
:1030900017F860600028FAD030F8083BC5F102024A
:1030A000C3F140079742A8BF174618440DF11A0311
:1030B00059193A4630F0C6FC61680B883B449BB214
:1030C000402B3D440B8000F06181012DDDDD257A30
:1030D00041F20503ADF818302E46002D40F08681F0
:1030E000606820B932F0ECFF60600028FAD030F858
:1030F000083BC5F10202C3F140079742A8BF17463B
:10310000184406AB59193A4630F09CFC61680B88AC
:103110003B449BB2402B3D440B8000F03281012D9B
:10312000DEDD257A41F20603ADF816302E46002D7D
:1031300040F05E81606820B932F0C2FF6060002814
:10314000FAD030F8083BC5F10202C3F140079742BC
:10315000A8BF174618440DF1160359193A4630F026
:1031600071FC61680B883B449BB2402B3D440B8053
:1031700000F00281012DDDDD257A41F20703ADF873
:1031800014302E46002D40F03581606820B932F0B1
:1031900097FF60600028FAD030F8083BC5F10202C2
:1031A000C3F140079742A8BF1746184405AB591909
:1031B0003A4630F047FC61680B883B449BB2402B99
:1031C0003D440B8000F0D380012DDEDD237A41F2F7
:1031D0000802ADF81220002B40F00E8102220DF102
:1031E00012012046FDF70AFB257A41F20903ADF8EA
:1031F00010302E46002D40F00181606820B932F079
:103200005FFF60600028FAD030F8083BC5F1020289
:10321000C3F140079742A8BF1746184404AB591999
:103220003A4630F00FFC61680B883B449BB2402B60
:103230003D440B8000F09680012DDEDD237A41F2C3
:103240000B02ADF80E20002B40F0DA8002220DF1C7
:103250000E012046FDF7D2FA237A41F20C02ADF8B6
:103260000C20002B40F0CE80022203A92046FDF75F
:10327000C5FA237A41F20D02ADF80A20002B40F086
:10328000C38002220DF10A012046FDF7B7FA237A26
:1032900041F21402ADF80820002B40F0B780022262
:1032A00002A92046FDF7AAFA257A41F21503ADF8E6
:1032B0000630002D40F0AC8002220DF106012046C0
:1032C000FDF79CFA237A0D95002B40F0A380042291
:1032D0000DA92046FDF792FA237A01220C92002BC9
:1032E00040F09A8004220CA92046FDF787FA257A3F
:1032F0004DF20243ADF80430002D40F08F800222E1
:1033000001A92046FDF77AFA237A0B95002B40F0AD
:10331000878004220BA92046FDF770FA237A022544
:103320000A95002B7ED104220AA92046FDF766FAF1
:10333000237A4FF44052ADF80220002B46D12A46A2
:103340000DF102012046FDF759FA237A43F20102FA
:10335000ADF80020002B37D12A4669462046FDF7FC
:103360004DFA21E5042032F00DF9666064E704208F
:1033700032F008F9666027E7042032F003F966604E
:10338000F8E6042032F0FEF86660C8E6042032F069
:10339000F9F8666099E6042032F0F4F8666069E6B0
:1033A000042032F0EFF866603AE6042032F0EAF8E2
:1033B00066600AE6042032F0E5F86660DBE504208A
:1033C00032F0E0F86660AEE5E368EBE4E368E3E47E
:1033D000E3687CE4E3687FE4E3688DE4E3688DE41C
:1033E000E3688DE4E3688DE4E3688DE4E3688DE4ED
:1033F000E3688DE4E3688DE4E36891E4E36891E4D5
:10340000E36895E4E36899E4E3689DE4E368A1E494
:10341000E368A5E4E368A7E4E368A9E4E368ADE44E
:10342000E368AFE4E368B1E4F0B504460068AE4A8F
:1034300003681B68934289B040F06C810423257AAD
:10344000ADF80630002D57D0E3680233E360206802
:10345000A64A03685B68934240F054810223257AB0
:10346000ADF80A30002D00F0E680E3680022023358
:10347000E360ADF808200233E36020689C4A0368EB
:103480009B68934240F044819A4BD8691A79431E55
:103490005002A3FB0001257ACDE90601002D00F0C2
:1034A000A380E3680833E3602068934A0368DB681D
:1034B000934240F035818F4D284629F0F1FA2A7960
:1034C0005502C117A5FB002305FB01331046194621
:1034D000257A04900591002D36D0E3680833E36027
:1034E0000433E36020468549FFF7FEFA204684490D
:1034F000FFF7FAFA09B0F0BD2E46606820B932F045
:10350000DFFD60600028FAD030F8083BC5F1020208
:10351000C3F140079742A8BF174618440DF10603B0
:1035200059193A4630F08EFA61680B883B449BB2D9
:10353000402B3D440B8002D0012DDEDD87E70420C7
:1035400032F020F86660F7E72E46606820B932F066
:10355000B7FD60600028FAD030F8083BC5F10802DA
:10356000C3F140079742A8BF1746184404AB591946
:103570003A4630F067FA61680B883B449BB2402BB7
:103580003D440B802BD0072DDFDD257A4FF0FF3334
:103590000393002D40F0C6802E46606820B932F0BB
:1035A0008FFD60600028FAD030F8083BC5F10402B6
:1035B000C3F140079742A8BF1746184403AB5919F7
:1035C0003A4630F03FFA61680B883B449BB2402B8F
:1035D0003D440B8000F08380032DDEDD82E7042074
:1035E00031F0D0FF6660CEE72E46606820B932F039
:1035F00067FD60600028FAD030F8083BC5F108028A
:10360000C3F140079742A8BF1746184406AB5919A3
:103610003A4630F017FA61680B883B449BB2402B66
:103620003D440B8002D0072DDFDD3DE7042031F063
:10363000A9FF6660F7E72E46606820B932F040FDCA
:1036400060600028FAD030F8083BC5F10202C3F1EF
:1036500040079742A8BF174618440DF10A035919AD
:103660003A4630F0EFF961680B883B449BB2402B3F
:103670003D440B8029D0012DDEDD257A0023ADF8F5
:1036800008302E46002D4FD1606820B932F018FD69
:1036900060600028FAD030F8083BC5F10202C3F19F
:1036A00040079742A8BF1746184402AB59193A463B
:1036B00030F0C8F961680B883B449BB2402B3D4415
:1036C0000B8007D0012DDFDDD7E6042031F05AFF53
:1036D0006660D0E7042031F055FF6660F2E7042011
:1036E00031F050FF666077E7E9040000ED04000068
:1036F000F10400006419FF1F6D070000603804002A
:103700008C3F0400984700287FF4A8AE0123A6E66A
:103710009847C0E69847012300287FF490AE8DE6D5
:103720009847D5E6E368DBE6E368A4E62DE9F04FC9
:10373000037AA5B004460092002B00F0E880002335
:103740000293DFF8CC92AF4B0193E3680433E3605C
:103750002568019A2B681B69934240F07D8195F89A
:103760007860002E00F05881009E002E37D195F829
:103770007930002B00F05C820022012385F8802044
:10378000EB67DFF8908225682B685B694B4561D158
:10379000EE6F0EB30DF1400B6B6FB342C0F089803A
:1037A0002F7D002F5AD005F1140A06EB860109017E
:1037B000504628F0C3F850465022594627F046FF9D
:1037C0009DF84E0095F880206AB3129BEB670028A5
:1037D00032D1EE6F002EDFD125B0BDE8F08F731C23
:1037E00000F0F18131462846FEF7A0FF6B6F012201
:1037F0009E4285F8802000F2908106EB860A2E7D9D
:103800004FEA0A1A002E00F0EB8105F11408514628
:10381000404628F093F84046502210A927F016FFA2
:10382000119BEB67ADE7EB6F696F01338B42EB6781
:1038300028BFEA670028CCD0002ECDD0257A039689
:10384000002D3DD0E36825680433E3602B685B6995
:103850004B459DD0284698470646EDE74FF47A7EC3
:1038600044F20223684A69498DF850708DF851700E
:103870008DF844708DF84C7014A814AFCDF848E062
:10388000CDF8408027F080FE0FCF05F1140AD64610
:10389000AEE80F000FCFAEE80F003B68CEF8003067
:1038A0009DF844302B72129BEB609DF84C302B74CA
:1038B0007BE750220021584637F0B0FC002081E71A
:1038C0002E46606820B932F0FBFB60600028FAD019
:1038D00030F8083BC5F10402C3F140079742A8BF86
:1038E0001746184403AB59193A4630F0ABF86168F3
:1038F0000B883B449BB2402B3D440B8002D0032DF0
:10390000DFDD40E7042031F03DFE6660F7E73D4B28
:10391000056801931A462B681B69934240F08C811D
:1039200095F87860002E00F0D680009A1346002AA1
:1039300040F0968095F87930002B00F081810022CC
:10394000012385F88020EB672568DFF8C4902B6899
:10395000DFF8C0A05B694B454FF0000B40F0F480EE
:10396000EE6F2EB30DF140086B6F9E4200F21F8187
:103970002F7D002F00F0EC8005F1140706EB860187
:103980000901384627F0DAFF38465022414627F031
:103990005DFE9DF84E0095F88020002A00F0BF8063
:1039A000129BEB67002840F0C480EE6F002EDBD145
:1039B000257ACDF808B0002D7FF4C7AE2E4660689A
:1039C00020B932F07DFB60600028FAD030F8083B67
:1039D000C5F10402C3F140079742A8BF1746184437
:1039E00002AB59193A4630F02DF861680B883B4418
:1039F0009BB2402B3D440B8000F0E080032DDEDDC8
:103A0000A6E600BF5D29000020380400A01DFF1FAE
:103A10000109000038300400012785F878709E49BC
:103A20009E4827F04BFF2F238DF84C70109612966E
:103A300011968DF84D60ADF84E302E7D6F6716B340
:103A400005F114080021404627F078FF4046502237
:103A500010A928F033F987E600992846984790E6A0
:103A6000013214BF1E46002631462846FEF75EFE90
:103A7000012385F880303246294610A8FDF738FF2B
:103A8000119BEB6760E74FF47A7E854F824A83494A
:103A90008DF81C6044F202238DF81D608DF81060D3
:103AA0008DF8186007A807AE0397CDF814E027F04B
:103AB0006BFD0FCE05F1140847460FC70FCE0FC799
:103AC00033683B609DF810302B72059BEB609DF8CE
:103AD00018302B74B6E7012785F878706E496F4867
:103AE00027F0ECFE2F238DF84C701096129611964D
:103AF0008DF84D60ADF84E302E7D6F67002E00F0D2
:103B0000A38005F114080021404627F017FF404626
:103B1000502210A928F0D2F807E7002381E6EB6FC6
:103B2000696F01338B42EB6728BFEA6700283FF4D7
:103B30003CAF002E3FF43CAF25682B685B694B45DA
:103B40000BF1010B3FF40CAF284698470646F0E70F
:103B50004FF47A7E44F202234F4A50498DF8507058
:103B600014A88DF851708DF844708DF84C70CDF814
:103B700048E0CDF840A027F007FD0DF1500EBEE85B
:103B80000F0005F11407BC46ACE80F00BEE80F00BB
:103B9000ACE80F00DEF80030CCF800309DF844307F
:103BA0002B72129BEB609DF84C302B74E6E6502292
:103BB0000021404637F032FB0020ECE6042031F0D3
:103BC000E1FC66601AE700212846FEF7AFFD2E7D76
:103BD000012385F880304FF0000A002E7FF415AEE7
:103BE0004FF47A7E2E4F2C4A2C498DF8506044F2C7
:103BF00002238DF851608DF844608DF84C6014A854
:103C000014AE1097CDF848E027F0BEFC0FCE05F1BA
:103C1000140847460FC70FCE0FC733683B609DF8A7
:103C200044302B72129BEB609DF84C302B74EEE508
:103C30002846FDF73BFA9FE528460099984783E61A
:103C40002846FDF733FA7AE64FF47A7E144F124A8B
:103C500012498DF81C6044F202238DF81D608DF826
:103C600010608DF8186007A807AE0397CDF814E030
:103C700027F08AFC0FCE05F1140847460FC70FCE78
:103C80000FC733683B609DF810302B72059BEB60CB
:103C90009DF818302B7436E720380400A01DFF1F54
:103CA000383004002DE9F047D0F800803F4BD8F8B9
:103CB0000020D2F818909945E4B0044640F05783AC
:103CC000D8F8743099420E465DD898F81470002FD9
:103CD00000F0568308F1140924AD06EB86010DF1BE
:103CE00040080901484627F029FE4846414650222F
:103CF00027F0ACFC05AF98F80C60D8F800900DF1F7
:103D00004E01284637F05AFFC7F80090002E4AD0DF
:103D10004FF0FF3304AE3360237A01220692002B6A
:103D200048D0E3680433E3600233E3600233E360C6
:103D30000433E3600233E3600433E3600433E3609D
:103D40000433E3600433E3600433E3600433E3608B
:103D50000433E3600233E3600433E3600433E3607D
:103D600029462046FEF7C0FE20461149FEF7BCFE5C
:103D700020460F49FEF7B8FE20460D49FEF7B4FE77
:103D800064B0BDE8F0870DF14008502200214046A4
:103D900024AD37F043FA05AF28460DF14E0137F058
:103DA0000DFF00233B60D8F80430B3E7650A00003C
:103DB0008C3F040098469946606820B932F080F93B
:103DC00060600028FAD030F8083BC8F10402C3F163
:103DD000400A9245A8BF9246184406AB03EB08017F
:103DE00052462FF02FFE61680B8853449BB2402B44
:103DF000D0440B8000F08782B8F1030FDCDD33681C
:103E0000227A013343F2010318BF0023ADF80C30CE
:103E1000002A40F0E48290469146606820B932F072
:103E20004FF960600028FAD030F8083BC8F1020270
:103E3000C3F1400A9245A8BF9246184403AB03EB76
:103E4000080152462FF0FEFD61680B8853449BB277
:103E5000402BD0440B8000F05082B8F1010FDCDD24
:103E6000237A0022ADF80A20002B40F0BA8298464F
:103E70009946606820B932F023F960600028FAD0D2
:103E800030F8083BC8F10202C3F1400A9245A8BFCE
:103E9000924618440DF10A0303EB080152462FF035
:103EA000D1FD61680B8853449BB2402BD0440B80FA
:103EB00000F01D82B8F1010FDBDD237A32680E922B
:103EC000002B40F0908298469946606820B932F005
:103ED000F7F860600028FAD030F8083BC8F1040217
:103EE000C3F1400A9245A8BF924618440EAB03EBBB
:103EF000080152462FF0A6FD61680B8853449BB21F
:103F0000402BD0440B8000F0EC81B8F1030FDCDDD6
:103F1000237A0022ADF80820002B40F066829846F4
:103F20009946606820B932F0CBF860600028FAD07A
:103F300030F8083BC8F10202C3F1400A9245A8BF1D
:103F40009246184402AB03EB080152462FF07AFD6B
:103F500061680B8853449BB2402BD0440B8000F027
:103F6000BA81B8F1010FDCDD237A00220D92002B1B
:103F700040F03D8298469946606820B932F0A0F83A
:103F800060600028FAD030F8083BC8F10402C3F1A1
:103F9000400A9245A8BF924618440DAB03EB0801B6
:103FA00052462FF04FFD61680B8853449BB2402B63
:103FB000D0440B8000F08981B8F1030FDCDD237A57
:103FC00000220C92002B40F01482984699466068BB
:103FD00020B932F075F860600028FAD030F8083B5C
:103FE000C8F10402C3F1400A9245A8BF92461844A2
:103FF0000CAB03EB080152462FF024FD61680B88DF
:1040000053449BB2402BD0440B8000F09481B8F114
:10401000030FDCDD237A00220B92002B40F0EB81B2
:1040200098469946606820B932F04AF860600028E6
:10403000FAD030F8083BC8F10402C3F1400A9245B7
:10404000A8BF924618440BAB03EB080152462FF071
:10405000F9FC61680B8853449BB2402BD0440B8021
:1040600000F06381B8F1030FDCDD237A00220A92AD
:10407000002B40F0C28198469946606820B932F022
:104080001FF860600028FAD030F8083BC8F104023D
:10409000C3F1400A9245A8BF924618440AAB03EB0D
:1040A000080152462FF0CEFC61680B8853449BB246
:1040B000402BD0440B8000F03281B8F1030FDCDDDF
:1040C000237A00220992002B40F099819846994664
:1040D000606820B931F0F4FF60600028FAD030F851
:1040E000083BC8F10402C3F1400A9245A8BF9246BA
:1040F000184409AB03EB080152462FF0A3FC61689A
:104100000B8853449BB2402BD0440B8000F00181BC
:10411000B8F1030FDCDD237A00220892002B40F077
:10412000708198469946606820B931F0C9FF606097
:104130000028FAD030F8083BC8F10402C3F1400A65
:104140009245A8BF9246184408AB03EB08015246BB
:104150002FF078FC61680B8853449BB2402BD0440D
:104160000B8000F0F480B8F1030FDCDD237A3A68AD
:104170000792002B40F047811F469846606820B99F
:1041800031F09EFF60600028FAD030F8083BC7F19C
:104190000402C3F140099145A8BF9146184407ABFA
:1041A000D9194A462FF04EFC61680B884B449BB2EC
:1041B000402B4F440B8000F0C480032FDEDD3368BA
:1041C000267AA3F1FF33B3FA83F35B09ADF80E301F
:1041D0003746002E40F01981606820B931F070FF39
:1041E00060600028FAD030F8083BC6F10202C3F143
:1041F00040089045A8BF904618440DF10E03991948
:1042000042462FF01FFC61680B8843449BB2402B51
:1042100046440B8000F0A180012EDDDD0DF1400849
:10422000267A0023C8F800303746002E40F0D580AB
:10423000606820B931F044FF60600028FAD030F89F
:10424000083BC6F10402C3F140099145A8BF91465D
:1042500008EB060118444A462FF0F4FB61680B880E
:104260004B449BB2402B4E440B8029D0032EDFDD04
:10427000267A00230F93002E40F0AD803746606809
:1042800020B931F01DFF60600028FAD030F8083BFB
:10429000C6F10402C3F140089045A8BF90461844F7
:1042A0000FAB991942462FF0CDFB61680B88434450
:1042B0009BB2402B46440B8054D0032EDFDD4FE5EC
:1042C000042031F05FF96760D0E7042031F05AF93B
:1042D000C4F8049070E6042031F054F9C4F8049056
:1042E0003FE6042031F04EF9C4F804900DE60420B6
:1042F00031F048F9C4F80490DCE5042031F042F9CB
:10430000C4F80490A9E5042031F03CF9C4F8049005
:1043100072E5042031F036F9C4F80490F8E6042080
:1043200031F030F9C4F80490C7E6042031F02AF9DE
:10433000C4F8049096E6042031F024F9C4F80490FF
:1043400065E6042031F01EF9C4F8048035E7042046
:1043500031F018F9C4F8049005E7042031F012F99F
:10436000676059E7042031F00DF96760A5E704AEF6
:1043700024AD05AF404633462A460097C847CBE4F4
:1043800024ADDFF894E0224A22492F744FF47A7C5E
:1043900044F202236F742F712F7328A828AFC5F839
:1043A00000E0C5F808C027F0EFF80FCF08F11409B6
:1043B000CE46AEE80F000FCFAEE80F003B68CEF858
:1043C00000302B7988F80830AB68C8F80C302B7BAC
:1043D00088F8103081E4E368C0E4E368BCE4E36893
:1043E000A2E4E368A2E4E368A2E4E368A2E4E36889
:1043F000A2E4E368A2E4E368A2E4E368A2E4E36879
:10440000A2E4E368A2E4E368A2E4E368A2E400BFF4
:1044100020380400A01DFF1F383004002DE9F04FA4
:10442000DFF8F0A17649DAF8003008688C8899B096
:104430000A460C930C9B0B931D46DAF800300D9343
:104440000D9B109052F8080F12909188ADF84440DF
:104450005A1BB2F57A6F4FF00003ADF84C10ADF86F
:104460005030ADF85230ADF85430ADF85830ADF8AA
:104470005A30ADF85C3080F0BE809B46BDF94230CA
:104480000893BDF944300993BDF94A300A93BDF948
:104490004C30BDF94080BDF948505A4ECDF81CB0A3
:1044A0005F460DF150099B46D6F8C00030F050F839
:1044B00054482BF0B5FD06F1980007C8089B8045CD
:1044C000A8BF80468542B8BF05468B42A8BF0B46B1
:1044D0001C460A9B8B42B8BF0B461946099B934268
:1044E000A8BF134693451846B8BF93460AB223B2F5
:1044F0000A92144602B20FFA88F82DB210460893B9
:104500000FFA8BFBADF84230079B0992ADF84A4099
:10451000ADF84080ADF8485041462A46ADF8440019
:10452000ADF84CB00024511A0DF1580E01EBD171C9
:10453000A2EB61012EF8143004EB840209B24FF6AD
:10454000FF7329F8141002200393C2EB0212B36820
:104550000190009304970297643201344FF4BE73C4
:1045600029482CF085FA032C08D012AA10A939F991
:10457000143032F9142031F91410D4E7BDF9503059
:10458000BDF9582007939A4228D0DAF800200E92FD
:104590000E9B0B93DAF800200F920F9A0B9C1B4B8B
:1045A00019481968C2F57A6222442EF05FF9DAF8E8
:1045B00000200D920D9A121BB2F57A6FFFF474AFC2
:1045C000DDF81CB0BDF95200BDF954201049A1F826
:1045D00000B048808A8019B0BDE8F08FBDF9521054
:1045E000BDF95A209142D0D1BDF95410BDF95C20DB
:1045F0009142CAD1CEE71A4618469B46E6E700BF6D
:10460000C0310400AC20FF1FF026FF1F041EFF1F57
:10461000A8A7FF1F90A8FF1F2DE9F047D24BD34D4D
:104620001968DFF88083D24EDFF87CA388B0284673
:104630002EF0EEF8CF4B284619682EF0E9F8CE4B55
:10464000284619682EF0E4F8CC4B284619682EF05D
:10465000DFF84046002124F001FE40464FF6E071AD
:1046600024F0E6FD04A8C64902242EF009FFF368F1
:10467000009304A91E23A0222846029401942BF043
:10468000F1FF04A82EF0BCFE04A8BE492EF0F8FEEF
:10469000F368029404A9A0228DE8180028468C2310
:1046A0002BF0E0FF04A82EF0ABFE04A8B6492EF0D4
:1046B000E7FEB368002704A950228DE818002846B9
:1046C0003C2302972BF0CEFF04A82EF099FE04A8FD
:1046D000AE492EF0D5FEB2680297502304A98DE8AA
:1046E000140028461A462BF0BDFF04A82EF088FEC1
:1046F00004A8A7492EF0C4FEB36804A950228DE88F
:104700009800284664232BF0ADFF04A82EF078FE15
:1047100004A8A0492EF0B4FEF368029404A9A022D4
:104720008DE818002846FA232BF09CFF04A82EF0F1
:1047300067FE04A898492EF0A3FEB368029404A96A
:10474000A0228DE8180028464FF488732BF08AFFCA
:1047500004A82EF055FE04A890492EF091FEB368EF
:1047600004A905228DE8980028464FF497732BF092
:1047700079FF04A82EF044FE04A889492EF080FE9B
:10478000B368052204A98DE8980028464FF4A17368
:104790002BF068FF04A82EF033FE40464FF6FF7161
:1047A00024F046FDDAF80000DFF8008235F0DAFC8C
:1047B0004FF00109B368009341EC100B3C232846ED
:1047C000F0220194CDF8089004212CF0B5F9DAF824
:1047D000040035F0C7FCB36841EC100B8DE81802FB
:1047E00028465023F02204212CF0A6F9DAF808001C
:1047F000DFF8BCA135F0B6FCB36841EC100B8DE8D6
:10480000180228466423F02204212CF095F9D8F8E8
:10481000000035F0A7FCB36841EC100B8DE8980060
:104820002846AA23052206212CF086F9D8F8040090
:1048300035F098FCB368029441EC100B8DE8180039
:104840002846AA23A02206212CF076F9D8F80800E1
:1048500035F088FCB36841EC100B8DE8180228464F
:10486000AA2340F23B1206212CF066F9D8F80C007E
:1048700035F078FCB36841EC100B8DE898002846C1
:10488000BE23052206212CF057F9D8F8100035F088
:1048900069FCB368029441EC100B8DE818002846BF
:1048A000BE23A02206212CF047F9D8F8140035F0D9
:1048B00059FCB36841EC100B8DE818022846BE2362
:1048C00040F23B1206212CF037F9D8F8180035F0E9
:1048D00049FCB36841EC100B8DE898002846D223C0
:1048E000052206212CF028F9D8F81C0035F03AFCF6
:1048F000B368029441EC100B8DE818002846D223CF
:10490000A02206212CF018F9D8F8200035F02AFC56
:10491000B36841EC100B8DE818022846D22340F210
:104920003B1206212CF008F9DAED007AB368FDEEAF
:10493000E77A8DE8980017EE901A28464FF497739F
:1049400050222CF035F8DAED017AB3680093FDEED1
:10495000E77A284617EE901A029701944FF497735E
:104960008C222CF025F825E0C49FFF1FF026FF1FA6
:10497000AC20FF1FC89FFF1FCC9FFF1FF81EFF1F0B
:104980006838040080380400983804009C3804001B
:10499000A0380400503D0400A4380400B8380400D6
:1049A000C0380400D41FFF1F98A7FF1FD825FF1F82
:1049B00088A6FF1FDAED027AB3680093FDEEE77A6E
:1049C000284617EE901A4FF49773C8220297019465
:1049D0002BF0EEFFDAF80C0035F0C4FBB36841ECC5
:1049E000100B8DE89800494628464FF497734FF412
:1049F00082722CF0A1F8DAED047AB3680093FDEE30
:104A0000E77A284617EE901A029701944FF4A173A3
:104A100050222BF0CDFFDAED057AB3680093FDEE5E
:104A2000E77A284617EE901A029701944FF4A17383
:104A30008C222BF0BDFFDAED067AB3680093FDEE11
:104A4000E77A284617EE901A4FF4A173C82202970E
:104A500001942BF0ADFFDAF81C0035F083FBB3684E
:104A600041EC100B8DE89800494628464FF4A1739D
:104A70004FF482722CF060F808B0BDE8F08700BFF8
:104A8000F0B53E4C3E4E3F4D89B020464FF6FF718B
:104A900024F0CEFB2046002124F0E0FB04A83A4994
:104AA00002242EF0EDFCB368009304A94FF4977331
:104AB0008C222846029401942BF0D4FD04A82EF0F9
:104AC0009FFC04A831492EF0DBFCB368029404A9D2
:104AD000C8228DE8180028464FF497732BF0C2FDCA
:104AE00004A82EF08DFC04A829492EF0C9FCB36857
:104AF000029404A94FF487728DE8180028464FF4F9
:104B000097732BF0AFFD04A82EF07AFC04A821497E
:104B10002EF0B6FCB368002704A90A228DE818001D
:104B2000284640F2411302972BF09CFD04A82EF07A
:104B300067FC04A818492EF0A3FCB36804A90A2254
:104B40008DE8980028464FF4AA732BF08BFD04A83B
:104B50002EF056FC04A811492EF092FCB3682846AA
:104B60008DE8980004A940F267130A222BF07AFD21
:104B700004A82EF045FC09B0F0BD00BFD41FFF1FF4
:104B8000AC20FF1FF026FF1F10680400B43F040094
:104B9000C8380400CC380400D8380400E4380400D5
:104BA00070B54A4C4A4D4B4E84B020462BF038FA33
:104BB0002846002124F03CFB4FF4BD7340F2411223
:104BC0002846009378214FF4967324F039FD284647
:104BD000002124F043FB28464FF6E071022524F023
:104BE00027FBA368D4F88C100093304602950195FA
:104BF00040F241138C222BF0DBFEA368D4F8901016
:104C000002958DE82800304640F24113C8222BF06F
:104C1000CFFEA368D4F8941002958DE828003046A2
:104C200040F241134FF487722BF0C2FEA368D4F810
:104C3000981002958DE8280030464FF4AA738C2214
:104C40002BF0B6FEA368D4F89C1002958DE82800DE
:104C500030464FF4AA73C8222BF0AAFEA368D4F8FA
:104C6000A01002958DE8280030464FF4AA734FF447
:104C700087722BF09DFEA368D4F8A41002958DE8EE
:104C80002800304640F267138C222BF091FEA36877
:104C9000D4F8A81002958DE82800304640F267133A
:104CA000C8222BF085FEA36800933046D4F8AC10E0
:104CB0000295019540F267134FF487722BF078FE4E
:104CC000782004B0BDE870402FF042BCAC20FF1F3C
:104CD000D41FFF1FF026FF1F38B5844B844C1B6880
:104CE0001F2B00F09980834D02E01B78002B64D1CC
:104CF000D4F8C0002FF02CFC7D482BF091F9D4F8AB
:104D00008C107D482EF006F901227C497C4826F063
:104D1000D5FFD4F8901078482EF0FCF8012277499E
:104D2000774826F0CBFFD4F8941073482EF0F2F8B1
:104D300001227249724826F0C1FFD4F898106E48DB
:104D40002EF0E8F801226D496D4826F0B7FFD4F83F
:104D50009C1069482EF0DEF801226849684826F068
:104D6000ADFFD4F8A01064482EF0D4F801226349B6
:104D7000634826F0A3FFD4F8A4105F482EF0CAF8C9
:104D800001225E495E4826F099FFD4F8A8105A48DF
:104D90002EF0C0F801225949594826F08FFFD4F867
:104DA000AC1055482EF0B6F853482EF05BF8554835
:104DB00024F018FF544B002897D0012153482DF0C0
:104DC000E7FC28602B68022B92D1514B4F481968A1
:104DD0002DF01EFD94F8F9004FF47A724FF44871EB
:104DE0002EF03CFA4B4B494819682DF021FD4A4BF7
:104DF0001B78002B73D1494B444819682DF018FDDE
:104E0000474B424819682DF013FD464A464947482A
:104E1000BDE838402DF06CBF6425D4F8C0002FF0F9
:104E200097FB33482BF0FCF8D4F88C1032482EF066
:104E300071F801223149324826F040FFD4F8901031
:104E40002D482EF067F801222C492D4826F036FF18
:104E5000D4F8941028482EF05DF8012227492848FC
:104E600026F02CFFD4F8981023482EF053F8012296
:104E70002249234826F022FFD4F89C101E482EF029
:104E800049F801221D491E4826F018FFD4F8A01049
:104E900019482EF03FF801221849194826F00EFF54
:104EA000D4F8A41014482EF035F801221349144800
:104EB00026F004FFD4F8A8100F482EF02BF801229A
:104EC0000E490F4826F0FAFED4F8AC100A482EF02E
:104ED00021F809482DF0C6FF013D9ED17AE7144B19
:104EE0000A4819682DF0A4FC8AE700BFE81DFF1FDF
:104EF000AC20FF1FA49FFF1F141EFF1FF0380400EB
:104F0000241EFF1F3020FF1F1C9FFF1FF026FF1FC6
:104F1000C89FFF1FC49FFF1FFD1DFF1FF81EFF1F1F
:104F20007822FF1FDF707200397800000825FF1F0C
:104F3000CC9FFF1F2DE9F043A9B0002104A82EF05B
:104F40009FFA0021404824F073F94FF4C3731922EB
:104F50000093A0214FF496733B4824F071FB00218D
:104F6000394824F07BF94FF6FF71374824F060F997
:104F70000021364826F0E2FC002400236D220CA913
:104F8000324826F02BFC002804F10104F5DC002156
:104F90002E48DFF8C88026F0D1FC651E002703E00C
:104FA000002E05F1FF3541DD00236D220CA92748B5
:104FB00026F014FC022C0646F2DD142DF0DC0CA9C0
:104FC00008A82EF05DFA08A904A82EF02DFB08A869
:104FD0002EF016FA1E4908A82EF052FA08A904A8C5
:104FE0002EF022FC814608A82EF00AFAA9F102034D
:104FF00008A8002204A92EF029FC07EBC703D8F863
:1050000004200092002102205B000291193308A9BC
:105010000190A0220F482BF025FB08A82EF0F0F9F4
:10502000002E07F1010705F1FF35BDDC0A48037CBE
:105030001B0703D5C16A103026F080FC04A82EF0AF
:10504000DFF929B0BDE8F083D41FFF1F241EFF1F26
:10505000F4380400F026FF1F141EFF1FAC20FF1FB2
:10506000F0B52DED048B91B004A800212EF008FAC4
:10507000634D802422460A23624908A82BF07AF95E
:1050800008A904A82EF0D0FA08A82EF0B9F9002338
:10509000092201A904A82EF0ADFB1022002101A8CD
:1050A00038F088FA203445F8040BA4B205202FF01C
:1050B0004FFAE02CDED1544F80253E4600242919BA
:1050C000890089B24F482BF043F901340520A6EC42
:1050D000010A2FF03DFA032CF1D10835ADB2A02D15
:1050E00007F10C07E9D1494F494E08AD4FF4407420
:1050F000B6EE009A214643482BF02AF904F120012C
:1051000089B2404885ED000AB0EE408A2BF020F9C4
:105110000520F0EE408A85ED040A2FF019FA78EEAA
:10512000687A38EE288A043467EE897A28EE098A8C
:10513000A4B2B4F5447F05F10405E7EC017AA6ECCE
:10514000018AD7D1334D4FF4806440F20C4621469A
:105150002C482BF0FDF804340520A5EC010AA4B27C
:105160002FF0F6F9B442F2D12B4F4FF484753E463E
:1051700000242919890089B222482BF0E9F801346A
:105180000520A6EC010A2FF0E3F9032CF1D1083534
:10519000ADB2B5F5907F07F10C07E8D11F4D4FF484
:1051A0004074214617482BF0D3F804340520A5ECB1
:1051B000010AA4B22FF0CCF9B4F5437FF1D14FF43A
:1051C000006110482BF0C4F8154BBDEEC00A052055
:1051D00083ED000A2FF0BCF94FF4066109482BF06B
:1051E000B7F8104BBDEEC00A052083ED000A2FF082
:1051F000AFF904A82EF004F911B0BDEC048BF0BD9A
:105200003CA7FF1FAC20FF1F2C25FF1FCCA4FF1FB6
:105210001C20FF1F98A7FF1FD825FF1FBCA6FF1F3C
:10522000B824FF1F1C19FF1FF0B51A4C1A4A8BB087
:10523000204603234FF480612BF0D4F8174B1E68EF
:105240005D6898681A695969D3F80CE09F690196FE
:105250000295DE691D6A03900592069101AA204617
:1052600003234FF48461CDF810E007970896099561
:105270002BF0B8F804AA204603234FF488612BF0E2
:10528000B1F82046032307AA4FF48C612BF0AAF84B
:105290000BB0F0BDAC20FF1F98A7FF1FD825FF1F44
:1052A00030B5184C8BB0054643F6E711204623F085
:1052B000BFFF40F2DF132046009340F2CF1240F2CE
:1052C0003F13002124F0BCF9294606A82EF0ECF883
:1052D0000D4B0E485B68009343F6E7154FF6FF74DD
:1052E0000222032306A902920193A0224FF4E8733D
:1052F000049503942BF014FA06A82EF081F80BB055
:1053000030BD00BFD41FFF1FAC20FF1FF026FF1FC2
:1053100010B50B4C82B02046002123F089FF4FF4DA
:10532000E77320460093132240F23F13002124F03C
:1053300087F9044802B0BDE810402DF06BB900BFFA
:10534000D41FFF1FF026FF1F2DE9F04F4B4DDFF854
:1053500044B16968AA68EB6897B006462868069663
:105360000FAC0FC46969AA69286907C444490022BF
:105370000E2309920B6091460BAC0FAB03EB0908AF
:10538000404B03EB8903079301264FF0000A099B6A
:10539000022B20464FF03A0555D018F8017B3946CC
:1053A0002EF008F90122DBF81030049245F2713238
:1053B0003146059701920393069A02942B46009575
:1053C00031482CF09FFA079B43F8040B20460793C3
:1053D0002EF016F898F80D30294908930F682046EA
:1053E00019462EF0E7F8089BDBF810200593002102
:1053F00045F27133019304912B4631460392029496
:10540000069A009520482CF07DFA4F441D4B0AF176
:10541000010A43F8270020462DF0F2FFBAF1050FEC
:1054200009F1010906F14106B1D1099B069A013340
:105430004132032B099306929FD1144B00221A701C
:1054400017B0BDE8F08FBAF1040FA6D110492EF0C5
:1054500017F8DBF80830039301253A231F20019049
:10546000CDF814A00294069A04953146009306489C
:105470002CF048FA20462DF0C3FFDEE7303204005E
:10548000BC24FF1F50A5FF1FF026FF1F8022FF1F17
:1054900024390400AC20FF1F2DE9F04F1F4BDFF82B
:1054A00084B059681A8991B00746186809AB03C3DC
:1054B0001A80002307930CAD4FF0010A45F27139B1
:1054C000079A09AB9E180124B04618F8016B2846CC
:1054D00031462EF06FF8DBF810300393442221465A
:1054E00000923A233A460596CDF810A00295CDF8E1
:1054F00004900B482CF006FA413428462DF080FF2A
:10550000B4F5A37FE1D1079B05330A2B079307F17D
:105510004B07D5D111B0BDE8F08F00BF4C3204006D
:10552000F026FF1FAC20FF1F2DE9F04F464A474CE5
:105530009BB0142307468C46136004F1200E10AE76
:1055400020686168A268E36835460FC51034744569
:105550002E46F5D12068616803C6BCF1000F68D102
:105560003B4B0A93DFF8F4B0069700230B930CAC87
:105570000B9F0A9B079310AA02EB0708012518F856
:10558000016B204631462EF015F845F2713ADBF8F2
:10559000103005964FF038090122294604920393F2
:1055A000069A02943A238DE800062A482CF0AAF9BC
:1055B000079B43F8040B204607932DF021FF224957
:1055C00098F813300A68099319462046BB180893C7
:1055D00000262DF0EFFFDBF81020099B05932946EC
:1055E00003923A23069ACDF804A0CDF800900294D5
:1055F000049618482CF086F9154A089B413542F864
:10560000230020462DF0FCFEB5F5A37F07F101072E
:10561000B5D10A9A0B9B14320A92069A05333F328F
:10562000142B0B930692A3D10B4B1E701BB0BDE83D
:10563000F08F5F238DF85A308DF85B308DF85C3039
:105640008DF85D308CE700BFBC24FF1F583204008A
:1056500050A5FF1FF026FF1F8022FF1FAC20FF1F59
:105660002DE9F04F794DDFF80CA22B688DB0042B9B
:105670004FF000010CBF6FF018030B46064674484C
:10568000079340F22F140DBF4FF0F9084FF4A474A4
:105690004FF48978DF2716BFF8274FF0A9094FF09C
:1056A000C20923F0C5FD9AF800300BB1002E58D185
:1056B0004FF487734A468C216548009723F0C0FF5A
:1056C0004FF4877300944246A021614823F0B8FF4D
:1056D0002B68042B00F090804FF6FF715C485D4F03
:1056E00023F0A6FD00215A4823F0B8FD5A4B186854
:1056F00034F038FD0124FB6900934FF0060B41ECB8
:10570000100B40F21B124B46214654480294CDF830
:1057100004B02BF011FA524B186834F023FDFA69EB
:10572000009241EC100B4346CDF804B002942146A0
:1057300040F21B1249482BF0FFF92B68042B47D08D
:105740009AF800303BB1012E6BD0022E15D0042EFA
:1057500013D0032E31D064202EF0FAFE0DB0BDE838
:10576000F08F079A3A481346A933009372324FF4E8
:1057700087738C2123F064FF9AE708A839492DF03C
:105780007FFEFB69009300254FF47844079B049546
:1057900001200622723308A902900192039440F27C
:1057A00009122E482AF0BCFF08A82DF029FE64201B
:1057B0002EF0CEFE0DB0BDE8F08F08A82A492DF0DE
:1057C0005FFEFB6900934FF478454FF6FF74DDE709
:1057D000264B186834F0C6FC0294FA68079B032530
:1057E00041EC100B8DE8240003F5A87321468322B9
:1057F0001A482BF0A1F9A3E7079A154802F5B377E9
:1058000002F5A874224600978323472123F018FF4E
:10581000009722464FF48B73E4210D4823F010FFCC
:105820005AE7134B186834F09DFCFA69079B009205
:10583000062241EC100B01927233029640F20912DB
:10584000022106482BF078F985E700BFE81DFF1F0D
:10585000D41FFF1FAC20FF1F38A7FF1FF026FF1F1C
:105860008C20FF1F2C39040030390400BC9FFF1F1F
:105870000426FF1F8822FF1F2DE9F04FAB4EAC48D6
:105880003368AC4C95B0042B0BBF4FF0970E4FF024
:10589000B00EAB27C4270CBF41225A22CDF824E01A
:1058A0000C970BBF4FF0470E4FF0600EE7274FF4F9
:1058B000807740F24B13CDF820E00E920A9708BF94
:1058C000FB2277461ABF4FF48A729E464FF4997EA8
:1058D000CDF81CE00D9207BF6FF0180E64227D22F8
:1058E0004FF0000E4BF6F7510BBFE227FB274FF0AE
:1058F000E1084FF0FA080BBF4FF092094FF0AB09E7
:105900004FF0910A4FF0AA0A0CBF4FF0420B4FF034
:105910005B0BCDF83CE040F231150B9218BF4FF411
:10592000A57523F085FC0E9A00924FF498730F2111
:105930007F4823F021FF5A46CDF800B04FF498730A
:105940000F217B4823F018FF5246CDF800A04FF4FA
:1059500098730F21764823F00FFF4A46CDF8009048
:105960004FF498730F21724823F006FF4246CDF89A
:1059700000804FF498730F216D4823F0FDFE3A46E6
:1059800000974FF498730F21694823F0F5FE2A46DB
:1059900000954FF498730F21654823F0EDFE079AA8
:1059A00000924FF498730F21614823F0E5FE62499D
:1059B00010A82DF065FD0025236900934FF6E078CF
:1059C0000327089B5D4804950F2210A90295CDF886
:1059D0000C8001972AF0A4FE10A82DF011FD584963
:1059E00010A82DF04DFD2269099B5448049510A97B
:1059F0008DE88400CDF80C800F2202952AF090FEED
:105A000010A82DF0FDFC4F4910A82DF039FD22699A
:105A10000A9B4A48049510A98DE88400CDF80C80B3
:105A20000F2202952AF07CFE10A82DF0E9FC4649D1
:105A300010A82DF025FD4FF0040B4FF6FF7AA26958
:105A40000B9B00924FF001094FF4987210A93B484C
:105A50000495CDF80CA0CDF80890CDF804B02AF04C
:105A60005FFE10A82DF0CCFCB02110A82DF0A2FDF7
:105A7000A2690C9B3148049510A98DE80408CDF863
:105A80000CA04FF49872CDF808902AF049FE10A8A7
:105A90002DF0B6FCB02110A82DF08CFDA2690D9B55
:105AA000009210A94FF498722448CDF804B00495E0
:105AB000CDF80CA0CDF808902AF032FE10A82DF0F9
:105AC0009FFC33685B4502D015B0BDE8F08F0F9B9B
:105AD0001E4910A803F5A8762DF0D2FCE2680092CA
