:1000000000000320D1010000D14A0100894A01000B
:10001000894A0100894A0100894A0100894A010090
:10002000894A0100894A0100894A0100D14A010038
:10003000D14A0100894A0100E13E0100E53F01008B
:10004000D14A0100D14A0100D14A0100D14A010040
:10005000D14A0100D14A0100D14A0100D14A010030
:10006000D14A0100D14A0100D14A0100D14A010020
:10007000D14A0100D14A0100D14A0100D14A010010
:10008000D14A0100D14A0100D14A0100D14A010000
:10009000D14A0100D14A0100D14A0100D14A0100F0
:1000A000BD9B0000C99B0000D14A0100D14A01005C
:1000B000D14A0100D14A0100D14A0100395601005C
:1000C000D14A010051760100D14A01007D7701003B
:1000D000D14A01009D5C0100D14A0100D14A0100D2
:1000E000D14A0100D14A0100D14A0100D14A0100A0
:1000F000D14A0100D14A0100D14A0100D14A010090
:10010000897401009D740100B1740100C57401007F
:10011000D14A0100C1640100D14A0100D14A010065
:10012000D14A0100D14A0100D14A0100D14A01005F
:10013000D14A0100D14A0100D14A0100D14A01004F
:10014000D14A0100D14A01000D620100D14A0100EB
:10015000D14A0100D14A0100D14A0100D14A01002F
:10016000D14A0100D14A0100D59B0000D14A0100CB
:10017000D14A0100D14A0100D14A0100D14A01000F
:10018000D14A010059FC0000D14A0100D14A0100C6
:10019000D14A0100D14A010075780100D14A01001D
:1001A000D14A0100D14A0100D14A0100D14A0100DF
:1001B000D14A0100D14A0100D14A0100D14A0100CF
:1001C000D14A0100D14A0100D14A0100D14A0100BF
:1001D0005C4B4CF2205210B51A804DF628121A8052
:1001E00000BF00BF14F078FC574B4FF030621A602C
:1001F000564A9A60564ADA60564B4FF470021A60BB
:10020000554B564A1A60564B1A78110703D51A787F
:1002100042F008021A70534B5349AA221A70534AEB
:10022000534B8B4204D252F8040F43F8040BF8E707
:10023000504B514900228B4202D243F8042BFAE77B
:100240004E494F4A002352F8230041F8230001335E
:10025000742BF8D14B4B4C4A802103F8011B93427D
:10026000FBD14A4B454A1A60494B8A221A70A3F5C2
:10027000805324225A70A0221A709A799207FCD5D2
:100280009A79D406FCD4434A937903F00C03082BE3
:10029000FAD1414B60221A7002331A78802AFCD1BD
:1002A0003C4B01221A715D225A719A799006FCD555
:1002B0009979384A4906FBD5384B394919600021EC
:1002C000596020231370937903F00C030C2BFAD19F
:1002D000344B354A1A60354A354C136813F4807331
:1002E00003D123604FF4A8531360324B324A1A6093
:1002F00000225A60072243F8042C304AC3F80C2D20
:1003000062B615F0D3F82368DA0705D52C4814F047
:100310008BFE2C4B2C4A1A602C4B1B785B0609D5A4
:10032000284C294B22689A4204D1254814F07CFEBF
:10033000002323601AF050FB14F0D4FB14F002FBEE
:10034000FEE700BF0E20054030800440823F0400DD
:100350000100002B88ED00E0002008E0030000858C
:1003600002D0074000E00740C818FF1F7C51020080
:10037000400CFF1FC818FF1F0036FF1F0002FF1FA1
:100380000000000000E400E064E400E008ED00E0AC
:10039000005006400040064001E007404480044011
:1003A0000000060204800440C010070010D0034083
:1003B00014D0034014E000E01FBF02000000202022
:1003C000C333905E1CE00340A5C3945A00F007407D
:1003D000FFFFFFFFFFFFFFFFFFFFFFFFFFFFFFFF2D
:1003E000FFFFFFFFFFFFFFFFFFFFFFFFFFFFFFFF1D
:1003F000FFFFFFFFFFFFFFFFFFFFFFFFFFFFFFFF0D
:10040000FFFFFFFFFFFFFFFFFFFFFFFFDEF9FFFF23
:1004100010B5054C237833B9044B13B10448AFF33E
:1004200000800123237010BDC818FF1F00000000CA
:1004300078510200084B10B51BB108490848AFF3CA
:1004400000800848036803B910BD074B002BFBD0A0
:10045000BDE81040184700BF00000000CC18FF1F87
:1004600078510200C818FF1F0000000000207047EC
:10047000027C02F0080202F0FF0332B1C36A406A54
:10048000181A48BF6FF0004070471846704700BF09
:100490000020704701207047034BD8691A79431E2A
:1004A0005002A3FB00017047901BFF1F14F0B6BD64
:1004B00000B583B001220DF10701103010F062F990
:1004C00001280CBF9DF807004FF0FF3003B05DF826
:1004D00004FB00BF103010F059BA00BF103010F00C
:1004E000C5BB00BF103010F0C7BB00BF00B583B064
:1004F00002AB012203F8011D1030194610F0BCFBBD
:1005000003B05DF804FB00BF503010F0B5BB00BF76
:1005100038B5074C204611F0A1FA02462079410275
:10052000A1FB0245D31701FB03552046294638BDE0
:10053000901BFF1F002A2CDD2DE9F84300251646ED
:100540000F460446A846606820B916F015FD6060A5
:100550000028FAD030F8083B721BC3F140099145DE
:10056000A8BF9146791918444A4614F0F3F9616816
:100570000B884B449BB2402B4D440B8003D0AE42C2
:10058000E1DCBDE8F883042015F058FFC4F80480CE
:10059000F5E770472DE9F043C56F95B0FDB1DFF881
:1005A000BC900446636FAB424DD3267D26B304F165
:1005B000140805EB85010901404610F05BFA694615
:1005C0004046502210F0DEF89DF80E1094F880207E
:1005D00052B1029BE36719B9E56F002DE2D1002506
:1005E000284615B0BDE8F083E36F606F01338342A6
:1005F000E36728BFE267EEE74FF47A7744F202231D
:10060000144A15498DF810608DF811608DF804605A
:100610008DF80C6004A804AE0297CDF8009010F09D
:100620004FF80FCE04F1140847460FC70FCE0FC77F
:1006300030689DF80410029A9DF80C3038602172E1
:10064000E2602374B5E70021502268461AF0CEFD1F
:100650000021BBE778160200CC1FFF1F001002002C
:10066000436F99423FD82DE9F041057D94B00F4684
:10067000044685B100F1140807EB870109014046E3
:1006800010F0F8F940465022694610F07BF80198C6
:1006900014B0BDE8F0814FF47A7E144E144A154927
:1006A0008DF8105044F202238DF811508DF804504B
:1006B0008DF80C5004A804AD0096CDF808E00FF0BA
:1006C000FFFF0FCD04F1140846460FC60FCD0FC62D
:1006D00028689DF80410029A9DF80C303060217251
:1006E000E2602374C8E70020704700BF00100200DA
:1006F00078160200CC1FFF1F2DE9F0470C46416F12
:100700008C4294B0924699464FD8067D054626B352
:1007100000F1140804EB84010901404610F0AAF925
:1007200050226946404610F02DF850460DF10E015A
:10073000009D9DF80C401BF0D1F91C9B1D602CB94D
:10074000019BC9F8003014B0BDE8F0874FF0FF33CB
:10075000C9F8003014B0BDE8F0874FF47A7E1A4F24
:100760001A4A1B498DF8106044F202238DF811607B
:100770008DF804608DF80C6004A804AE0097CDF8E5
:1007800008E00FF09DFF0FCE05F1140847460FC794
:100790000FCE0FC730689DF80410029A9DF80C30F8
:1007A00038602972EA602B74B4E750220021684651
:1007B0001AF01CFD50460DF10E011BF08FF91C9A2A
:1007C00000231360BCE700BF00100200781602008F
:1007D000CC1FFF1F2DE9F0470446A2B05030D4F8DB
:1007E0006CA00FF035FEE56B636F9D4273D8267DDC
:1007F000002E48D004F1140805EB8501090140469C
:100800000DF1380910F036F94946502240460FF0F4
:10081000B9FFE56B237DCDF83CA01BBB334E344ABA
:1008200034498DF814304FF47A778DF815308DF8FF
:1008300008308DF81030019644F2022305A805AE69
:1008400003970FF03DFF0FCE47460FC70FCE0FC7E0
:1008500030689DF80810039A9DF8103038602172B6
:10086000E260237405EB85010901404610F002F9AE
:1008700049464046502210F0FFF96FF00103E36350
:1008800022B0BDE8F0874FF47A7E184F184A194914
:100890008DF8486044F202238DF849608DF83C6081
:1008A0008DF8446012A812AE0E97CDF840E00FF01C
:1008B00007FF0FCE04F1140847460FC70FCE0FC72E
:1008C00030689DF83C10109A9DF8443038602172D1
:1008D000E260237490E70DF1380948465022002168
:1008E0001AF084FC04F1140894E700BF0010020021
:1008F00078160200CC1FFF1F2DE9F043047D8FB056
:1009000007460E4691467CB100F1140806EB8601BD
:100910000901404610F0AEF849464046502210F01A
:10092000ABF90FB0BDE8F0834FF47A7E124D134A55
:1009300013498DF8144044F202238DF815408DF8C8
:1009400008408DF8104005A805AC0195CDF80CE0E5
:100950000FF0B6FE0FCC07F1140845460FC50FCCBB
:100960000FC520689DF80810039A9DF81030286084
:100970003972FA603B74C9E7001002007816020071
:10098000CC1FFF1F2DE9F0434B6F93428FB0804681
:100990003CD30E7D0D46144686B101F1140904EBDB
:1009A00084010901484610F065F848465022414646
:1009B0000FF0E8FE40460FB0BDE8F0834FF47A7EBA
:1009C000164F174A17498DF8146044F202238DF828
:1009D00015608DF808608DF8106005A805AE0197C8
:1009E000CDF80CE00FF06CFE0FCE05F114094F4668
:1009F0000FC70FCE0FC730689DF80810039A9DF8F7
:100A0000103038602972EA602B74C8E75022002148
:100A10001AF0ECFB40460FB0BDE8F0830010020076
:100A200078160200CC1FFF1F2DE9F041436F994259
:100A3000E4B0144677D8077D05460E46002F00F037
:100A4000A78000F1140806EB86010901404610F06A
:100A500011F86946502240460FF094FE009E002E89
:100A600066D06B6FB34279D32B7D002B00F0C5802D
:100A700006EB8601090140460FF0FCFF502240467C
:100A800014A90FF07FFE149A002A6DD0294628A8D9
:100A9000FFF778FF289A002A00F0AB8029463CA88F
:100AA000FFF770FF3C9A002A00F09F80294650A86B
:100AB000FFF768FF5099002900F0C88028462246B9
:100AC000FFF7B2FF20461BF07BF8231813F8013C18
:100AD0002F2B02D05F4B1B8823520DF5A7712046A8
:100AE0001AF006FE20461BF06BF8231813F8013CA1
:100AF0002F2B02D0574B1B8823520DF1FE012046AD
:100B00001AF0F6FD20461BF05BF8231813F8013CA1
:100B10002F2B02D04F4B1B8823520DF1AE012046E4
:100B20001AF0E6FD23E05022002168461AF05EFB31
:100B3000484B1B88238020461BF042F8231813F8EB
:100B4000013C2F2B02D0434B1B88235220460DF132
:100B50000E011AF0CDFD64B0BDE8F08150220021F5
:100B60000DEB02001AF042FB3A4B1B882380204613
:100B70001BF026F8231813F8013C2F2B02D0354B1D
:100B80001B8823520DF15E0120461AF0B1FDD2E719
:100B9000DFF8CCE0304A31498DF850714FF47A7C5F
:100BA00044F202238DF851718DF844718DF84C7127
:100BB00054A854AFCDF840E1CDF848C10FF080FD06
:100BC0000FCF05F11408C646AEE80F000FCFAEE810
:100BD0000F0038689DF84411529A9DF84C31CEF8B8
:100BE00000002972EA602B742DE71A4B1B882380C2
:100BF00078E7184B1B88238084E7194F164A17495A
:100C00008DF850314FF47A7E8DF851318DF84431A2
:100C10008DF84C31509744F2022354A854AFCDF8CC
:100C200048E10FF04DFD0FCFC646AEE80F000FCFE5
:100C3000AEE80F0038689DF84411529A9DF84C3187
:100C4000CEF800002972EA602B7411E7014B1B8873
:100C5000238037E78816020078160200CC1FFF1F9A
:100C6000001002002DE9F047B1F1FF3F01EB8109CF
:100C70004FEA0919ADF5986D8846DFF81CA30446C4
:100C800008BF4FF0000920E004F114074946384638
:100C90000FF0F0FE502238460DEB02010FF072FD0E
:100CA00050220DEB0201684613F054FE9DF80C2013
:100CB0002046002A40D0019B1946002B3CD02368D7
:100CC0001B6B9847002800F00B81B8F1FF3F02D062
:100CD000636F984529D8257D002DD5D14FF47A76BC
:100CE00044F20223A94AAA498DF8D0538DF8D15372
:100CF0008DF8C4538DF8CC53F4A8F4ADF296CDF82A
:100D0000C0A30FF0DDFC0FCD04F114073E460FC663
:100D10000FCD0FC628689DF8C413F29A9DF8CC3306
:100D200030602172E2602374B0E7502200210DEBA5
:100D300002001AF05BFAB3E7B8F1FF3F00F0DC8085
:100D4000B8F1000F00F07D81424628A82146FFF748
:100D500019FE289A002A00F0D4803CA82146FFF70B
:100D600011FE3C9A002A00F0798150A82146FFF735
:100D700009FE509A002A00F08B8164A82146FFF7F3
:100D800001FE649A002A00F07D8178A82146FFF7D1
:100D9000F9FD789A002A00F081818CA82146FFF79E
:100DA000F1FD8C9A002A00F07F81A0A82146FFF770
:100DB000E9FDA09A002A00F07D81B4A82146FFF742
:100DC000E1FDB49A002A00F07B81C8A82146FFF714
:100DD000D9FDC89A002A00F079810DF55C79214689
:100DE0004846FFF7CFFDD9F80010F0AD002900F01C
:100DF00073812A462046FFF717FE28461AF0E0FEC8
:100E00000DF2BF36335C2F2B02D0624B1B882B5266
:100E10000DF27E3128461AF06BFC28461AF0D0FEFF
:100E2000335C2F2B02D05B4B1B882B520DF22E31E3
:100E300028461AF05DFC28461AF0C2FE335C2F2BC0
:100E400002D0544B1B882B520DF2DE2128461AF09B
:100E50004FFC28461AF0B4FE335C2F2B02D04D4BCA
:100E60001B882B520DF28E2128461AF041FC284691
:100E70001AF0A6FE335C2F2B02D0464B1B882B5258
:100E80000DF23E2128461AF033FC28461AF098FE4F
:100E9000335C2F2B02D03F4B1B882B520DF5F77183
:100EA00028461AF025FC28461AF08AFE335C2F2BC0
:100EB00002D0384B1B882B520DF5CF7128461AF003
:100EC00017FC28461AF07CFE335C2F2B02D0314BE6
:100ED0001B882B520DF5A77128461AF009FCC2E0B9
:100EE00000200DF5986DBDE8F087029BC993C8AA54
:100EF00031462046FFF700FD01200DF5986DBDE855
:100F0000F087F0AD2F232B800DF2BF3628461AF064
:100F100057FE335C2F2B02D01E4B1B882B520DF13A
:100F2000AE0128461AF0E4FB9DF80C20002A00F0E0
:100F3000838000260DF55C792A46484633461449DD
:100F40008DF870638DF871630FF0BAFB0028C7D07D
:100F500048460FF063FD0028C2D0009E00236A4679
:100F6000414620468DF80E30FFF7C6FC3246C8A831
:100F70002146FFF707FDC99DA845B6D0002DBBD07F
:100F8000DFF814A00DF55C7920E000BF78160200B0
:100F9000CC1FFF1F881602000010020004F1140786
:100FA00005EB8501090138460FF064FD38465022F3
:100FB00049460FF0E7FB50224946C8A813F0CAFC87
:100FC000CA9B984541D01D46002B95D0636FAB421C
:100FD0002CD3267D002EE1D14FF47A7744F2022300
:100FE0003F4A40498DF8E0628DF8E1628DF8D462A5
:100FF0008DF8DC62B8A8B8AEB697CDF8D0A20FF0E5
:101000005FFB0FCE04F11407BE46AEE80F000FCE13
:10101000AEE80F0030689DF8D412B69A9DF8DC3225
:10102000CEF800002172E2602374B9E7502200215B
:1010300048461AF0DBF8BEE729462A480FF0DAFCEA
:1010400089E7F0AD2F232B8070E7029BCA932046DF
:10105000C8AA2946FFF750FC012042E7F0AD2F2334
:101060002B800DF2BF3628461AF0AAFD335C2F2BD9
:1010700002D01D4B1B882B520DF1FE0128461AF0A1
:1010800037FB43E7F0AD2F232B800DF2BF360AE785
:10109000F0AD2F232B800DF2BF3612E7F0AD2F23DA
:1010A0002B800DF2BF36F0E6F0AD2F232B800DF232
:1010B000BF36DCE6F0AD2F232B800DF2BF36C8E63D
:1010C000F0AD2F232B800DF2BF36B4E6F0AD2F2309
:1010D0002B800DF2BF36A0E62F232B808DE600BFBC
:1010E00078160200CC1FFF1F881602002DE9F04F72
:1010F000C36B8B42ADF5397D04D190F83830934203
:1011000000F0A980914688460646002975D0436FB5
:10111000994200F2C680047D78AD002C00F0CF80AB
:10112000DFF834A200F1140B08EB880109015846DE
:101130000FF0A0FC5022584669460FF023FB009A9E
:10114000002A00F0B68014A83146FFF71BFC149A61
:10115000002A00F0848028A83146FFF713FC289A63
:10116000002A00F0CF803CA83146FFF70BFC3C9AE8
:10117000002A00F0E18050A83146FFF703FC509AA6
:10118000002A00F0D38064AF31463846FFF7FAFBFF
:101190003968002900F0D6802A463046FFF744FC23
:1011A00028461AF00DFD0DF2DF14235C2F2B02D020
:1011B000664B1B882B520DF5CF7128461AF098FA12
:1011C00028461AF0FDFC235C2F2B02D05F4B1B88B6
:1011D0002B520DF5A77128461AF08AFA28461AF004
:1011E000EFFC235C2F2B02D0584B1B882B520DF1A8
:1011F000FE0128461AF07CFA89E078AD2F23DFF84B
:1012000058A12B8064AF06F1500420460FF020F95E
:1012100000212A464FF47A754B4639747974397136
:101220003973BD604A49C7F800A068A868AD0FF0DF
:1012300047FA0FCD0FC40FCD0FC428683979BA68AB
:101240003B7B2060C6F83C8086F8389086F84410D6
:10125000B26486F84C300DF5397DBDE8F08F2F2350
:101260002B8064AF0DF2DF1428461AF0A9FC235C32
:101270002F2B02D0354B1B882B520DF15E012846D7
:101280001AF036FA28461AF09BFC235C2F2B02D06A
:101290002E4B1B882B520DF10E0128461AF028FA0E
:1012A000B1E750220021684619F0A0FFDFF8A8A09E
:1012B00078AD2F232B8064AF0DF2DF14E2E74FF4FB
:1012C0007A77244A22492C7444F202236C742C71DC
:1012D0002C73AF60DFF880A0C5F800A07CA87CACC0
:1012E0000FF0EEF90FCC06F1140B5F460FC70FCCD1
:1012F0000FC720682979AA682B7B38603172F260A9
:10130000337411E72F232B8064AF0DF2DF142846CE
:101310001AF056FC235C2F2B02D00C4B1B882B524F
:101320000DF1AE0128461AF0E3F99DE72F232B803B
:1013300064AF0DF2DF1443E72F232B8064AF0DF26F
:10134000DF144BE72F232B802AE700BF881602000B
:10135000CC1FFF1F7816020000100200F8B50446EB
:10136000174650340022069E1D46FFF7BFFE394641
:1013700020460FF07FFB324629462046BDE8F84064
:101380000FF000BA2DE9F0479A464B1CADF5986D69
:101390000446904600F09480436F99420D4600F257
:1013A000C180267D01EB81094FEA0919002E00F06A
:1013B0008E8004F11406494630460FF05BFB304640
:1013C00069465022E9460FF0DDF950461AF0F8FB65
:1013D0003E2805D9002738460DF5986DBDE8F08701
:1013E000421C51460DF15E0013F0B4FA676F267D82
:1013F00014957B1C636700231593D9F8043016936A
:1014000001238DF85C808DF85D30002E00F07A812C
:1014100004F1140607EB8701090130460FF02AFB9F
:1014200014A9502230460FF027FC237DC9F8047020
:101430006BBB4FF47A7CDFF838E3CB4ACB498DF8AD
:10144000D0338DF8D1338DF8C4338DF8CC33F4A874
:1014500044F20223CDF8C8C3CDF8C0E30FF030F951
:101460000DF5747EBEE80F00B446ACE80F00BEE890
:101470000F00ACE80F00DEF800009DF8C413F29AEC
:101480009DF8CC33CCF800002172E260237405EBA8
:101490008501090130460FF0EDFA494630465022E9
:1014A0000FF0EAFBB8F1000F43D1204644F20222CC
:1014B0003946FFF71BFE38460DF5986DBDE8F087FD
:1014C000267D4FF000094D46002E7FF472AFA84FE5
:1014D000A54AA649F0974FF47A7E44F20223F4A875
:1014E000F4AF8DF8D0638DF8D1638DF8C4638DF8B7
:1014F000CC63CDF8C8E30FF0E3F80FCF04F1140686
:10150000B646AEE80F000FCFAEE80F0038689DF882
:10151000C413F29A9DF8CC33CEF800002172E26039
:10152000237448E7684650220021E94619F05EFE20
:101530004BE7002F00F020813A4628A82146FFF70C
:1015400021FA289A002A00F030813CA82146FFF7B2
:1015500019FA3C9A002A00F0218150A82146FFF791
:1015600011FA509A002A00F0278164A82146FFF75B
:1015700009FA649A002A00F0268178A82146FFF72C
:1015800001FA789A002A00F025818CA82146FFF7FD
:10159000F9F98C9A002A00F02481A0A82146FFF7CF
:1015A000F1F9A09A002A00F02381B4A82146FFF7A0
:1015B000E9F9B49A002A00F02281C8A82146FFF771
:1015C000E1F9C89A002A00F02181DCAE21463046BC
:1015D000FFF7D8F93168F0AD002900F01E812046F0
:1015E0002A46FFF721FA28461AF0EAFA0DF2BF342C
:1015F000235C2F2B02D05F4B1B882B520DF27E31C8
:1016000028461AF075F828461AF0DAFA235C2F2BD0
:1016100002D0584B1B882B520DF22E3128461AF05F
:1016200067F828461AF0CCFA235C2F2B02D0514BD6
:101630001B882B520DF2DE2128461AF059F8284655
:101640001AF0BEFA235C2F2B02D04A4B1B882B5278
:101650000DF28E2128461AF04BF828461AF0B0FAFF
:10166000235C2F2B02D0434B1B882B520DF23E21C3
:1016700028461AF03DF828461AF0A2FA235C2F2BD0
:1016800002D03C4B1B882B520DF5F77128461AF0FF
:101690002FF828461AF094FA235C2F2B02D0354BF2
:1016A0001B882B520DF5CF7128461AF021F82846D9
:1016B0001AF086FA235C2F2B02D02E4B1B882B525C
:1016C0000DF5A77128461AF013F828461AF078FA93
:1016D000235C2F2B02D0274B1B882B520DF1FE01D0
:1016E00028461AF005F828461AF06AFA235C2F2BD0
:1016F00002D0204B1B882B520DF1AE01284619F069
:10170000F7FF3DE04FF47A7CDFF864E0164A1749B2
:101710008DF8D06344F20223F4A88DF8D1638DF8DC
:10172000C4638DF8CC63CDF8C8C3CDF8C0E30EF028
:10173000C7FF0DF5747EBEE80F0004F11406B44631
:10174000ACE80F00BEE80F00ACE80F00DEF80000C8
:101750009DF8C413F29A9DF8CC33CCF800002172A6
:10176000E260237456E600BF78160200CC1FFF1F0C
:101770000010020088160200F0AD2F232B80DCAE93
:1017800000242A46304601232549347074700EF037
:1017900039FF38460DF5986DBDE8F087F0AD2F2381
:1017A0002B80DCAE0DF2BF348FE7F0AD2F232B8002
:1017B000DCAE0DF2BF3496E7F0AD2F232B80DCAE0C
:1017C0000DF2BF3473E7F0AD2F232B80DCAE0DF2AA
:1017D000BF345EE7F0AD2F232B80DCAE0DF2BF34BB
:1017E00049E7F0AD2F232B80DCAE0DF2BF3434E798
:1017F000F0AD2F232B80DCAE0DF2BF341FE7F0AD30
:101800002F232B80DCAE0DF2BF340AE7F0AD2F237F
:101810002B80DCAE0DF2BF34F5E62F232B80E2E601
:10182000CC1FFF1F2DE9F04F90F878400126C5B07E
:10183000054680F87960002C00F00E816B6F002B5C
:1018400000F007814FF00008474606E06B6F013754
:10185000BB4208F1500840F2FC80BB42F7D32C7D1C
:10186000002C00F0CC8005F11406414630460FF004
:1018700001F91CA9502230460EF084FF9DF87C30FF
:10188000002BE3D09DF87D40002CDFD12246394665
:101890002846FFF72BFC95F85030002BD6D0A246F7
:1018A00005F15009019758E0A2420CBF23460123DD
:1018B000019A08BF0D9C30928DF8CC304022002355
:1018C0000DF1CE0106A831948DF8CD30CDF8C8A029
:1018D0000FF0F2FA6C6F95F814E0631C6B67BEF1C1
:1018E000000F2BD14FF47A7C44F202237D4A7E49CB
:1018F0007E4F8DF84CE013A88DF84DE08DF840E058
:101900008DF848E0CDF844C00F970EF0D9FE0DF1E8
:101910004C0EBEE80F00B446ACE80F00BEE80F0066
:10192000ACE80F00DEF800009DF84010119A9DF819
:101930004830CCF800002972EA602B7404EB840173
:10194000090130460FF096F8502230A930460FF0CA
:1019500093F906A8A2460EF07BFD0024634B029388
:1019600022464FF47A7B494606A88DF818408DF838
:1019700019408DF80C408DF81440CDF810B00FF0E0
:1019800035F99DF8183003F07002002B8CD12C7DB6
:10199000019FCDF874A001238DF87D302CBB8DF80C
:1019A000D0408DF8D1408DF8C4408DF8CC404F4CDC
:1019B0004C4A4D49309444F2022334A834ACCDF85B
:1019C000C8B00EF07DFE0FCCB646AEE80F000FCCCF
:1019D000AEE80F0020689DF8C410329A9DF8CC3014
:1019E000CEF800002972EA602B74414630460FF0B1
:1019F00041F81CA9304650220FF03EF926E78DF839
:101A0000D0408DF8D1408DF8C4408DF8CC40374C93
:101A1000344A354930944FF47A7644F2022334A89C
:101A200034AC32960EF04CFE0FCC05F11406B646DF
:101A3000AEE80F000FCCAEE80F0020689DF8C41090
:101A4000329A9DF8CC30CEF800002972EA602B74EF
:101A50000BE745B0BDE8F08F80F878602149224857
:101A60000EF0C8FF2F7D30942F23329431948DF8DF
:101A7000CC608DF8CD406E67ADF8CE305FB105F12A
:101A80001407002138460EF0F5FF3846502230A9E1
:101A90000FF0F2F8D2E6154C124A13491C944FF499
:101AA0007A7644F2022320A820AC8DF880708DF85D
:101AB00081708DF874708DF87C701E960EF000FEAB
:101AC0000FCC05F114073E460FC60FCC0FC6206899
:101AD0009DF874101E9A9DF87C3030602972EA607F
:101AE0002B74CEE778160200CC1FFF1F00100200F7
:101AF000436F994200F2CC802DE9F04F057DC3B0D1
:101B00000F460446002D00F09A8000F1140907EBFF
:101B10008701090148460EF0ADFF1AA95022484638
:101B20000EF030FE9DF8743013B19DF8755015B16C
:101B300043B0BDE8F08F2A4639462046FFF7D6FA73
:101B400094F85030002BF3D0DFF850A1A84604F1F0
:101B5000500B50E0002A14BF012300238DF8C4303D
:101B60004FF0400208BF0B9B309518BF00230DF1CA
:101B7000C60104A82F932E978DF8C5800FF09CF90D
:101B8000656F267D6B1C63673EBB4FF47A7E44F223
:101B90000223404A40498DF844608DF845608DF835
:101BA00038608DF8406011A811AECDF83CE0CDF85A
:101BB00034A00EF085FD0FCECE46AEE80F000FCE5E
:101BC000AEE80F0030689DF838100F9A9DF840304D
:101BD000CEF800002172E260237405EB8501090153
:101BE00048460EF047FF50222EA948460FF044F811
:101BF00004A80EF02DFC4FF47A730022594604A875
:101C000002938DF810808DF811808DF804808DF886
:101C10000C80CDF800A00EF0E9FF9DF8103003F025
:101C20007002002B96D101231AAA394620461B9533
:101C30008DF87530FEF760FE43B0BDE8F08F4FF4CD
:101C40007A76144A14498DF8C85044F202238DF86C
:101C5000C9508DF8BC508DF8C45032A8DFF83CA0B4
:101C6000309632ADCDF8B8A00EF02AFD0FCD04F1BC
:101C700014094E460FC60FCD0FC628689DF8BC103C
:101C8000309A9DF8C43030602172E26023743EE7E0
:101C9000704700BF78160200CC1FFF1F0010020023
:101CA000F0B590F87860A3B004460D466EB30DB35E
:101CB0006B1C4DD029462046FFF71AFF636F0122A7
:101CC0009D4284F8802000F2A780267D05EB8505E3
:101CD0002D01002E47D004F11406294630460EF09F
:101CE000C9FE304650220EA90EF04CFD0F9BE36753
:101CF00023B0F0BD94F87930002B5FD0002201238F
:101D000084F88020E36723B0F0BD012780F8787065
:101D1000434944480EF06EFE94F814E08DF8447088
:101D20002F2367670E9610960F968DF84560ADF8D5
:101D30004630BEF1000F45D004F1140600213046B4
:101D40000EF098FE304650220EA90EF095FFAEE739
:101D500000212046FFF7CCFE267D012384F8803049
:101D60000025002EB7D1304F2D4A2E490E974FF443
:101D70007A7E44F2022312A812AF8DF848608DF8E3
:101D800049608DF83C608DF84460CDF840E00EF07D
:101D900097FC0FCF04F11406B646AEE80F000FCF44
:101DA000AEE80F0038689DF83C10109A9DF844305A
:101DB000CEF800002172E26023748EE72046FFF720
:101DC00031FD9BE74FF47A77174E154A1549039773
:101DD00044F2022305A805AF8DF814E08DF815E054
:101DE0008DF808E08DF810E001960EF069FC0FCF39
:101DF00004F11406B646AEE80F000FCFAEE80F00B0
:101E000038689DF80810039A9DF81030CEF800004D
:101E10002172E260237491E70023E36723B0F0BDF1
:101E200078160200CC1FFF1F001002002DE9F041C0
:101E30000B7882B00446002B4BD008460E4619F0B2
:101E4000BFFE257A01308DF80200002D50D0E368E6
:101E50000133E3603278002A36D0002705E0E368DA
:101E60000233E36016F8012F4AB3ADF80620002DC7
:101E7000F5D1606820B915F07FF860600028FAD0CD
:101E800030F8083BC5F10202C3F140089045A8BFF5
:101E9000904618440DF106035919424612F05AFDB6
:101EA00061680B8843449BB2402B45440B801AD099
:101EB000012DDEDD16F8012F257A002AD5D1002369
:101EC000ADF804303DB3E3680233E36002B0BDE82F
:101ED000F081027A8DF80330AAB1C3680133C36080
:101EE00002B0BDE8F081042014F0A8FA6760DFE7D3
:101EF00001220DF102012046FEF71CFB3278257A03
:101F0000002AAAD1DBE701220DF10301FEF712FB43
:101F100002B0BDE8F0812E46606820B915F02CF8BB
:101F200060600028FAD030F8083BC5F10202C3F126
:101F300040079742A8BF1746184401AB59193A46C3
:101F400012F008FD61680B883B449BB2402B3D4476
:101F50000B8004D0012DDFDD02B0BDE8F08104204C
:101F600014F06CFA6660F5E730B5037A91B0642539
:101F70000446ADF82650002B00F0A680C368062268
:101F80000233C3600F9204336422E360ADF824206F
:101F90000233E3605A492046FFF748FF237A0022C4
:101FA000ADF82220002B00F0B580E3680E2202334A
:101FB000E3600E92043341F20102E360ADF82020A9
:101FC000023341F20202E360ADF81E20023341F217
:101FD0000302E360ADF81C20023341F20402E36027
:101FE000ADF81A20023341F20502E360ADF8182083
:101FF000023341F20602E360ADF81620023341F2EB
:102000000702E360ADF81420023341F20802E360F6
:10201000ADF81220023341F20902E360ADF810205E
:10202000023341F20B02E360ADF80E20023341F2BD
:102030000C02E360ADF80C20023341F20D02E360C4
:10204000ADF80A20023341F21402E360ADF8082033
:10205000023341F21502E360ADF80620023300229C
:10206000E3600D9204330122E3600C9204334DF2DD
:102070000242E360ADF8042002330022E3600B92D9
:1020800004330222E3600A9204334FF44052E360C7
:10209000ADF80220023343F20102E360ADF8002004
:1020A0000233E36020461749FFF7C0FE2046164979
:1020B000FFF7BCFE20461549FFF7B8FE204614493D
:1020C000FFF7B4FE11B030BD02220DF12601FEF77C
:1020D00031FA237A06220F92002B40F03581042238
:1020E0000FA92046FEF726FA237AADF82450002BDC
:1020F00040F02C81022209A92046FEF71BFA49E78D
:102100008C160200A0160200A8160200B0160200EB
:10211000B416020002220DF122012046FEF70AFA4F
:10212000237A0E220E92002B40F0128104220EA977
:102130002046FEF7FFF9237A41F20102ADF8202094
:10214000002B40F00781022208A92046FEF7F2F991
:10215000237A41F20202ADF81E20002B40F0FC80F1
:1021600002220DF11E012046FEF7E4F9237A41F226
:102170000302ADF81C20002B40F0F080022207A9DA
:102180002046FEF7D7F9237A41F20402ADF81A206F
:10219000002B40F0E58002220DF11A012046FEF7E7
:1021A000C9F9237A41F20502ADF81820002B40F05E
:1021B000D980022206A92046FEF7BCF9237A41F213
:1021C0000602ADF81620002B40F0CE8002220DF161
:1021D00016012046FEF7AEF9237A41F20702ADF868
:1021E0001420002B40F0C280022205A92046FEF7F1
:1021F000A1F9237A41F20802ADF81220002B40F039
:10220000B78002220DF112012046FEF793F9237ADE
:1022100041F20902ADF81020002B40F0AB80022201
:1022200004A92046FEF786F9237A41F20B02ADF8A5
:102230000E20002B40F0A08002220DF10E0120465E
:10224000FEF778F9237A41F20C02ADF80C20002B4E
:1022500040F09480022203A92046FEF76BF9237A0E
:1022600041F20D02ADF80A20002B40F089800222D5
:102270000DF10A012046FEF75DF9237A41F21402BE
:10228000ADF80820002B7DD1022202A92046FEF7DE
:1022900051F9257A41F21503ADF80630002D73D1BE
:1022A00002220DF106012046FEF744F9237A0D952E
:1022B000002B6BD104220DA92046FEF73BF9237AAF
:1022C00001220C92002B63D104220CA92046FEF7B8
:1022D00031F9257A4DF20243ADF80430002D59D181
:1022E000022201A92046FEF725F9237A0B95002B3F
:1022F00052D104220BA92046FEF71CF9237A0225AD
:102300000A95002B4AD104220AA92046FEF712F9A9
:10231000237A4FF44052ADF802209BB92A460DF1C2
:1023200002012046FEF706F9237A43F20102ADF8D6
:1023300000202BB92A4669462046FEF7FBF8B1E695
:10234000E368ADE6E368A5E6E3681CE6E3681FE63C
:10235000E3682FE6E36833E6E36837E6E3683BE6E5
:10236000E3683FE6E36843E6E36847E6E3684BE695
:10237000E3684FE6E36853E6E36857E6E3685BE645
:10238000E3685FE6E36863E6E36867E6E36869E6F7
:10239000E3686BE6E3686FE6E36871E6E36873E6BB
:1023A00030B504460068514A03681B68934289B0FF
:1023B00040F08F800422237AADF80620002B54D001
:1023C000E3680233E3602068494A03685B6893422C
:1023D0007AD10223257AADF80A30002D62D0E36865
:1023E00000220233E360ADF808200233E360206886
:1023F000404A03689B68934264D13F4BD8691A797D
:10240000431E5002A3FB0001237ACDE90601002BF5
:1024100042D0E3680833E3602068384A0368DB6829
:1024200093425CD1344D28460FF018FB2A795502AF
:10243000C117A5FB002305FB013310461946237A7B
:1024400004900591C3B1E3684FF0FF320833E360B5
:1024500003920433E36020462949FFF7E7FC204656
:102460002849FFF7E3FC09B030BD02220DF1060157
:102470002046FEF75FF8A6E7082204A92046FEF7EB
:1024800059F8237A4FF0FF32039253BB042203A979
:102490002046FEF74FF8DEE7082206A92046FEF7A1
:1024A00049F8B9E702220DF10A012046FEF742F889
:1024B000237AADF80850B3B9022202A92046FEF7EC
:1024C00039F894E798479FE79847002881D101237E
:1024D00080E79847012200287FF46DAF6AE79847AC
:1024E000ADE7E368B5E7E3687FE700BF910400006C
:1024F0009504000099040000901BFF1F11050000C7
:10250000B8160200942702002DE9F04F037AA5B017
:1025100004460092002B00F0D68000230293DFF8DF
:10252000A492A54B0193E3680433E3602568019A04
:102530002B681B69934240F0698195F87860002E02
:1025400000F04481009A1346002A35D195F879307D
:10255000002B00F006820022012385F88020EB6723
:10256000DFF8648225682B685B694B454ED1EE6FBE
:10257000FEB10DF1400B6B6F9E4276D82F7D002F80
:1025800048D005F1140A06EB8601090150460EF009
:1025900071FA5046502259460EF0F4F89DF84E005C
:1025A00095F88020DAB1129BEB6708BBEE6F002E26
:1025B000E1D125B0BDE8F08F013208BF00231946F4
:1025C00028461E46FFF794FA012385F880303246EC
:1025D000294610A8FEF7D6F9119BEB67C0E7EB6F11
:1025E000696F01338B42EB6728BFEA670028DDD0B3
:1025F000002EDED0257A0396002D3DD0E3682568B5
:102600000433E3602B685B694B45B0D0284698479C
:102610000646EDE74FF47A7E44F20223674A6849A2
:102620008DF850708DF851708DF844708DF84C70A5
:1026300014A814AFCDF848E0CDF840800EF040F873
:102640000FCF05F1140AD646AEE80F000FCFAEE863
:102650000F003B68CEF800309DF844302B72129B7F
:10266000EB609DF84C302B748DE7502200215846CA
:1026700018F0BCFD002093E72E46606820B914F0E6
:102680007BFC60600028FAD030F8083BC5F10402FA
:10269000C3F140079742A8BF1746184403AB591926
:1026A0003A4612F057F961680B883B449BB2402BC5
:1026B0003D440B8002D0032DDFDD53E7042013F0EF
:1026C000BDFE6660F7E73C4B056801931A462B6830
:1026D0001B69934240F0498195F87860002E00F024
:1026E000D480009A002A40F0958095F87930002B2C
:1026F00000F03F810022012385F88020EB672568E8
:10270000DFF8C0902B68DFF8C0A05B694B454FF045
:10271000000B40F0E780EE6F2EB30DF140086B6FB9
:10272000B342C0F012812F7D002F00F0DF8005F151
:10273000140706EB8601090138460EF09BF938466E
:10274000502241460EF01EF89DF84E0095F880206C
:10275000002A00F0B280129BEB67002840F0B7809F
:10276000EE6F002EDBD1257ACDF808B0002D7FF476
:10277000DAAE2E46606820B914F0FEFB60600028D7
:10278000FAD030F8083BC5F10402C3F14007974284
:10279000A8BF1746184402AB59193A4612F0DAF8A6
:1027A00061680B883B449BB2402B3D440B8000F09A
:1027B000D380032DDEDDB9E6A11C000078160200EF
:1027C000CC1FFF1F9505000000100200012785F8AF
:1027D00078706A496A480EF00DF92F238DF84C7015
:1027E0001096129611968DF84D60ADF84E302E7DF4
:1027F0006F6716B305F11408002140460EF03AF950
:102800004046502210A90EF037FA9BE60099284660
:102810009847A5E6511C14BF1646002631462846A7
:10282000FFF766F9012385F880303246294610A863
:10283000FEF7A8F8119BEB6761E74FF47A7E514FE2
:102840004E4A4F498DF81C6044F202238DF81D60FA
:102850008DF810608DF8186007A807AE0397CDF8C3
:1028600014E00DF02DFF0FCE05F1140847460FC7F9
:102870000FCE0FC733683B609DF810302B72059B5D
:10288000EB609DF818302B74B6E7012785F8787057
:102890003A493B480EF0AEF82F238DF84C70109655
:1028A000129611968DF84D60ADF84E30314610AA53
:1028B0006F672846FEF720F813E7EB6F696F013367
:1028C0008B42EB6728BFEA6700283FF449AF002E30
:1028D0003FF449AF25682B685B694B450BF1010B51
:1028E0003FF419AF284698470646F0E74FF47A7E42
:1028F00044F20223214A22498DF8507014A88DF821
:1029000051708DF844708DF84C70CDF848E0CDF8DA
:1029100040A00DF0D5FE0DF1500EBEE80F0005F100
:102920001407BC46ACE80F00BEE80F00ACE80F008F
:10293000DEF80030CCF800309DF844302B72129B4A
:10294000EB609DF84C302B74F3E65022002140469A
:1029500018F04CFC0020F9E6042013F06FFD6660CF
:1029600027E72846FEF75EFFF5E5284600999847D9
:10297000C5E62846FEF756FFBCE600BF7816020003
:10298000CC1FFF1F001002002DE9F0430446006831
:10299000AA4B026895699D42E5B040F0228110ADD6
:1029A0000A4624AF01462846FDF7ECFF38460DF1F4
:1029B0004E0119F093F80DF114082B7B2A68C8F822
:1029C0000020002B63D16B68049304AE237A0122AC
:1029D0000692002B5ED0E368326804330132E36074
:1029E00000F00A810022ADF80C2002330022E360DF
:1029F000ADF80A2002333268E3600E9204330022FD
:102A0000E360ADF8082002330022E3600D92043346
:102A10000022E3600C9204330022E3600B92043343
:102A20000022E3600A9204330022E3600992043337
:102A30000022E36008920433D8F80020E360079294
:102A40003268A2F1FF32B2FA82F252090433E36033
:102A5000ADF80E2002330022E3602A600433002226
:102A6000E3600F920433E36039462046FFF7DEF956
:102A700020467349FFF7DAF920467149FFF7D6F986
:102A800020466F49FFF7D2F965B0BDE8F0834FF0FB
:102A9000FF3399E706A904222046FDF74BFD336872
:102AA00094F80890013343F2010318BF0023ADF8F6
:102AB0000C30B9F1000F40F0A88003A90222204693
:102AC000FDF738FD237AADF80A90002B40F09F8087
:102AD00002220DF10A012046FDF72CFD237A32680F
:102AE0000E92002B40F095800EA904222046FDF79F
:102AF00021FD237AADF80890002B40F08C8002A9CC
:102B000002222046FDF716FD237ACDF83490002BE3
:102B100040F083800DA904222046FDF70BFD237AA7
:102B2000CDF83090002B7AD10CA904222046FDF775
:102B300001FD237ACDF82C90002B72D10BA9042231
:102B40002046FDF7F7FC237ACDF82890002B6AD1B8
:102B50000AA904222046FDF7EDFC237ACDF8249043
:102B6000002B62D109A904222046FDF7E3FC237A59
:102B7000CDF82090002B5AD1042208A92046FDF759
:102B8000D9FC237AD8F800200792002B51D107A94D
:102B900004222046FDF7CEFC336894F80880A3F1A8
:102BA000FF33B3FA83F35B09ADF80E30B8F1000FD1
:102BB00041D10DF10E0102222046FDF7BBFC267A21
:102BC000C5F80080FEB9294604222046FDF7B2FC74
:102BD000237A0F96ABB90FA904222046FDF7AAFC71
:102BE00042E704AE24AF0DF1140833463A46CDF85F
:102BF0000080A84710ADE9E643F20102ADF80C20D1
:102C0000F3E6E3682EE7E36828E7E368EDE6E368C8
:102C1000F0E6E368F2E6E368F5E6E368F7E6E36822
:102C2000F9E6E368FBE6E368FDE6E368FFE6E368F0
:102C300001E7E36804E7E3680CE700BFF90600007A
:102C400094270200002A31D02DE9F04104460F46B6
:102C500016464FF00008606828B9042013F046FBC0
:102C600060600028F9D0418805886D1AB54228BFF8
:102C7000354637B1083001442A46384611F06AFE1D
:102C80002F446068438802882B449BB29A42A6EB8B
:102C90000506438003D0002EDDD1BDE8F08114F09D
:102CA0008BF9C4F80480002ED5D1F6E7704700BF39
:102CB0002DE9F04385B0904606460F46684611461A
:102CC0000A2299460C9C0D9D11F0E6FC694650487D
:102CD00011F034FD684611F06DFCB8F1090F40F3B6
:102CE00086800A223946684611F0D6FC6946494872
:102CF00011F024FD684611F05DFC092F67DD0A2202
:102D00003146684611F0C8FC6946434811F016FD8B
:102D1000684611F04FFC092E49DD0A222946684613
:102D200011F0BAFC69463D4811F008FD684611F003
:102D300041FC092D2BDD0A222146684611F0ACFC2E
:102D40006946374811F0FAFC684611F033FC092C4B
:102D50000EDC3449684611F06DFC3149684611F0CB
:102D60002DFD01462E4811F0E1FC684611F022FCD1
:102D70000A224946684611F08FFC69462A4811F03C
:102D8000DDFC684611F016FC05B0BDE8F08325496E
:102D9000684611F04FFC2149684611F00FFD0146CD
:102DA0001E4811F0C3FC684611F004FCC3E71D493E
:102DB000684611F03FFC1849684611F0FFFC0146D7
:102DC000154811F0B3FC684611F0F4FBA5E715496E
:102DD000684611F02FFC0F49684611F0EFFC0146E0
:102DE0000C4811F0A3FC684611F0E4FB87E70D499D
:102DF000684611F01FFC0649684611F0DFFC0146E9
:102E0000034811F093FC684611F0D4FB69E700BF5A
:102E10001C28FF1F5819FF1F2819FF1F4C1AFF1FDE
:102E2000EC19FF1FC0160200F027FF1F2DE9F04329
:102E300083B00CF033FADFF86490DFF86480C9F8EF
:102E400000000CF01BFAC8F800000CF007FA0F4F56
:102E50000F4E38600CF032FA30600CF03FFA0D4D36
:102E600028600CF04BFA2B6836680B4DD9F800201F
:102E7000D8F80010044638688DE8480023462C60D6
:102E8000FFF716FF03B0BDE8F08300BF7C19FF1FFA
:102E90007419FF1F7819FF1F9027FF1F6828FF1F55
:102EA0006C19FF1F70B5FA208AB012F0ADFABD4B55
:102EB000BD49BE4800241C600BF0A6FD4FF6E07132
:102EC000BA480AF0E3FE2146B8480AF0F5FE0A23A4
:102ED00042F20E72B649B5480094AA250BF01AFCCE
:102EE00045F27131B1480AF0D1FE009596232822AF
:102EF0000A21AE480AF05EFF4FF4A07629460095FD
:102F00004FF49B732822A9480AF054FFE623BE22FF
:102F10005A21A64800960AF04DFF4FF6FF71A348CC
:102F20000AF0B4FE0095962328220A219F480BF050
:102F300057F8294600954FF49B7328229B480BF0C5
:102F40004FF8E623BE225A21984800960BF048F825
:102F5000A9254BF6F75195480AF098FE0095952360
:102F600029220B2191480BF03BF8009540F23513D4
:102F70002922AB218D480BF033F840F23F13BF22DA
:102F800000935B21E52389480BF02AF84FF6FF7187
:102F900086480AF07BFE45F2713184480AF08CFEC7
:102FA0003C2310228349814800940BF0B3FB5A2341
:102FB000282281497D4800940BF0ACFB3C23D022B1
:102FC0007E497A4800940BF0A5FB5A23B8227C492D
:102FD000764800940BF09EFB7823B0227949734821
:102FE00000940BF097FBD223802277496F4800941E
:102FF0000BF090FBF02360226E496C4800940BF0BC
:1030000089FB214669480AF057FE704B1D78002D58
:1030100058D14FF4784165480AF038FE40F2591310
:103020000A226B49614800950BF074FB0CF09AF989
:10303000022858D04FF478415C480AF027FE00235C
:1030400000930A224FF4B973624958480BF062FBAF
:1030500002AC06AD40F2BD1200924FF49B730A2100
:1030600052480BF0B7F85C4950480BF0CDFC5B4977
:10307000204611F0DFFA5A49204611F09FFB002646
:103080000146284611F0EAFA29464FF4E17342F26C
:103090000E72009645480BF0A7FB284611F08AFAFD
:1030A000204611F087FA40F2D11342F20E720096D8
:1030B0004C493E480BF02EFB3B493C480BF0A4FC2E
:1030C0000AB070BD4FF4FC6138480AF0DFFD40F2F1
:1030D00059130A224449354800940BF01BFB0CF0AD
:1030E00041F90228A6D1FFF7A1FE002640F2FF71A8
:1030F0002E480AF0CBFD4FF4B9730A2200963B49E3
:103100002A480BF007FB02AC4FF6FF7127480AF084
:10311000BDFD2046364911F0A1FA2046354911F08F
:1031200055FB354911F04AFB324911F04FFB334949
:1031300011F044FB06AD0146284611F08FFA4FF41A
:10314000C3730A222946009618480BF04DFB284607
:1031500011F030FA204611F02DFA2046284911F0DE
:103160007DFA2046274911F031FB274911F026FB53
:10317000244911F02BFB254911F020FB014628467C
:1031800011F06CFA29464FF4CD730A2200960748D5
:103190000BF02AFB284611F00DFA204611F00AFA2E
:1031A00058E700BF1828FF1F50330200001AFF1F06
:1031B000C4160200D4160200E0160200E81602004F
:1031C000F0160200F8160200041702008C1BFF1F05
:1031D0000C1702002C170200D82E02005417020010
:1031E000D819FF1F701702002017020040170200B5
:1031F000F027FF1F50170200EC19FF1F4C1AFF1F8A
:103200002819FF1FB02602005819FF1F1C28FF1F96
:103210002DE9F0438FB006A8002111F00BFA03AF9F
:10322000DFF86480C7F18005C7F1E0090DF11606EB
:103230003C46281911F03EFB04F8010BB442F8D1CA
:1032400039460AA811F0F6F90AA906A811F076FA8B
:103250000AA811F0AFF900230922694606A811F067
:10326000C3FA10220021684619F09EFE203548F866
:10327000040B052012F0C8F84D45D9D106A811F06D
:1032800099F90FB0BDE8F0839424FF1F2DE9F04FAA
:10329000064683B0544800270BF0CEFDE8B9002F56
:1032A000F8D045F2713151480AF006FD00244FF67E
:1032B000FF714E480AF0EAFC4FF4D873E9224C49FA
:1032C0004A4800940BF026FA484821460AF0F4FCDC
:1032D00045480BF0B1FD0028E1D043480BF0CEFC8F
:1032E00041480BF0BFFD81463F480BF0FDFD002E2D
:1032F000804630DDA9F10A04701C5A220123282CD3
:10330000A2F1280105D8884503DB9045DCBF1D46A6
:1033100001270133834202F13202F0D14FF0580B02
:103320004FF0340A0124A5424FF000012F4808BF96
:103330004FF4FC610AF0AAFC0134CDF800B052460B
:1033400030230C2129480AF035FDA6420AF1320A41
:103350000BF1320BE7DAA9F1F009B9F1460F9ED86B
:10336000A8F5D278B8F1320F99D8002F92D045F253
:1033700071311E480AF0A0FC00244FF6FF711B4873
:103380000AF084FC4FF4D873E922009418491748D6
:103390000BF0C0F9214615480AF08EFC214613486F
:1033A0000AF074FC40F2991300931E224FF49B73B1
:1033B0000A210E480AF072FE45F271310B480AF0FC
:1033C00065FC4FF4EA7300934FF4CE724FF49A7396
:1033D000DE2106480AF0EEFC4FF4FA7012F014F801
:1033E000284603B0BDE8F08FA827FF1F001AFF1F73
:1033F00088170200002A12DDF8B50546002017469E
:103400000E460446315D2844013411F06DFAE4B2F1
:103410000A2011F0F9FFBC422046F3DBF8BD7047EB
:10342000F0B5002A8BB018DD0E46920002A906EB1B
:10343000020E0F4656F8044B019401AB3C4613F8BC
:10344000015B04F8015B8B42F9D1764507F1040773
:10345000F0D1FFF7CFFF0BB0F0BD920002A9F8E763
:10346000F0B5A74C0FCCB7B01EAD0FC50FCC0FC534
:1034700094E80F0004F1100685E80F000FCE2AAD86
:103480000FC50FCE0FC596E80F00403485E80F003A
:103490000FCC16AD0FC594E80F0000270024059748
:1034A000069785E80F0097488DF810408DF8114079
:1034B0000AF082FB94499348944E0BF0A5FA4FF61C
:1034C000E07190480AF0E2FB462342F20E72904906
:1034D0008C4800940BF01EF921460AA811F0AAF8B6
:1034E000334606F10C000EAA13F8011B02F8011B6B
:1034F0009842F9D10C220EA92020FFF77BFF07ADDF
:103500002024204611F0D6F901342C2C05F8010BAB
:10351000F7D107A90EA811F08DF80EA90AA811F08D
:103520000DF90EA811F046F800230C2207A90AA8ED
:1035300011F05AF9754907A818F066F90546642094
:1035400011F062FF734B0EAA581D13F8011B02F80D
:10355000011B9842F9D105220EA90020FFF74AFF6E
:10356000642011F051FF1EAF4FF400743A68D7F891
:1035700004E0BB680E922046203403220EA9A4B2B8
:10358000CDF83CE01093FFF74BFFB4F5207F07F137
:103590000C07EBD16420002411F036FF04220EA9A1
:1035A0004FF440700E940F9410941194FFF738FF6D
:1035B00004220EA94FF448700E940F9410941194A5
:1035C000FFF72EFF642011F01FFF2AAF4FF4806435
:1035D0003A68D7F804E0BB680E92204620340322F4
:1035E0000EA9A4B2CDF83CE01093FFF719FFB4F593
:1035F000906F07F10C07EBD1642011F005FF737990
:10360000302B0CD000234FF4C06003220EA90E9380
:103610000F931093FFF704FF642011F0F5FEF37A87
:10362000302B08D04FF40060012205A9FFF7F8FE07
:10363000642011F0E9FE012206A94FF40660FFF7AD
:10364000EFFE642011F0E0FE16AE4FF4E064326845
:1036500073680E922046203402220EA9A4B20F9362
:10366000FFF7DEFEB4F5F06F06F10806EFD136ACD9
:103670000126022204A94FF42060FFF7BBFE04F8E4
:10368000CC6D324621464FF41060FFF7B3FE324650
:10369000214640F60110FFF7ADFE3246214640F6C6
:1036A0000510FFF7A7FE324621464FF41160FFF7E1
:1036B000A1FEADB94FF4784112480AF0E7FA00953F
:1036C000462342F20E7214490E480BF023F840F6DE
:1036D000B83011F099FE0AA810F06CFF37B0F0BDB9
:1036E0004FF4FC6107480AF0D1FA0023009342F23C
:1036F0000E724623094903480BF00CF8E7E700BFB8
:1037000058100200001AFF1F50330200440CFF1F24
:1037100090170200580CFF1FB01702009C17020000
:103720002DE9F04FC94883B00AF046FA4FF4FA7019
:1037300011F06AFEC649C54800240BF065F94FF642
:10374000E071C2480AF0A2FA234642F20E720094D7
:10375000C049BE480AF0DEFF4FF4EB7545F2713107
:10376000BA480AF093FA4FF49B734FF4CD72DC2100
:10377000B64800950AF01EFB4FF6FF71B3480AF0F9
:1037800085FA4FF49B734FF4CD72DC21AF4800955E
:103790000AF026FC4BF6F751AC480AF077FA40F2F3
:1037A000D51340F29B120093DD2140F23513A74858
:1037B0000AF016FC40F2FF71A4480AF067FA1E23D3
:1037C0000A220094A449A1480AF0A4FF4FF6FF7111
:1037D0009E480AF05BFA00943E233C229F499B4896
:1037E0000AF098FF009470233C229D4997480AF004
:1037F00091FF0094A2233C229A4994480AF08AFF40
:103800004FF6FF7191480AF041FA322404F128037F
:10381000224600930A2132238C480AF0E1FB04F18E
:1038200027030093621C31230B21323487480AF0AE
:10383000D7FBC82CEAD10320FFF728FD02288A4CC9
:1038400000F0AD83032800F0A683012800F00F8369
:103850000025002640F2FF717C480AF017FA1E236B
:103860000A220096814979480AF054FF4FF6FF7109
:1038700076480AF00BFA3E233C2200967C497348B6
:103880000AF048FF7B4971480BF0BEF83E23CC227A
:10389000009679496D480AF03DFF6D496B480BF081
:1038A000B3F8009670233C22744968480AF032FF4E
:1038B0000096A2233C22724964480AF02BFF4FF67F
:1038C000FF7162480AF0E2F9322606F12803324617
:1038D00000930A2132235D480AF082FB06F1270398
:1038E0000093721C31230B21323658480AF078FBC2
:1038F000C82EEAD10320FFF7C9FC022800F0458357
:10390000032800F04583012801D13123E37000260C
:1039100040F2FF714D480AF0B9F91E230A220096C1
:1039200058494A480AF0F6FE4FF6FF7147480AF038
:10393000ADF900963E233C22534944480AF0EAFE82
:1039400070233C220096514940480AF0E3FE4FF6AE
:10395000FF713E480AF09AF94FF05A0A32231A468C
:103960000A213A48CDF800A04FF059090AF038FB77
:103970004FF08C08312333220B213448CDF80090CE
:103980000AF02EFB8B27322364220A212F48CDF820
:1039900000800AF025FB312365220B212B4800977C
:1039A0000AF01EFB0220FFF771FC0128064600F01A
:1039B0006982022806D14FF0310B84F804B0002D43
:1039C00000F00682002540F2FF7120480AF05EF9FF
:1039D0001E230A222E491D4800950AF09BFE4FF631
:1039E000FF711A480AF052F93E233C222949174830
:1039F00000950AF08FFE70233C222749134800955A
:103A00000AF088FE4FF6FF7110480AF03FF93223A2
:103A10005A2200920A211A460C480AF0E1FA592368
:103A20000093332231230B2108480AF0D9FA8C2362
:103A30000093642232230A2104480AF0D1FA8B232E
:103A40000093652231230B2128E000BF001AFF1FDD
:103A500050330200BC170200CC170200DC17020032
:103A6000C41A0200E8170200440CFF1FF0170200FE
:103A7000FC170200D82E02000818020014180200D9
:103A8000201802002418020038180200481802000A
:103A9000501802006018020068180200B7480AF0C7
:103AA0009FFA0220FFF7F2FB012800F0E8810228CC
:103AB00001D13223A371002540F2FF71AF480AF013
:103AC000E5F81E230A22AE49AC4800950AF022FE12
:103AD0004FF6FF71A9480AF0D9F83E233C22A949C4
:103AE000A64800950AF016FE70233C22A649A3487A
:103AF00000950AF00FFE4FF6FF71A0480AF0C6F8D5
:103B000032235A2200920A211A469C480AF068FA87
:103B100059230093332231230B2198480AF060FA8D
:103B20008C230093642232230A2194480AF058FA25
:103B30008B230093652231230B2190480AF050FA21
:103B40000220FFF7A3FB012800F09681022801D193
:103B50003123E3718D4B8E4A19688E4800230CF097
:103B6000AFFD8D4B05461870002840F097818948BD
:103B70000CF06EFC294681480AF088F840F2DF1309
:103B800000931E224FF49B730A217C480AF086FAA8
:103B9000422731232D22302640F2FF7177482770CB
:103BA000A37023726672A2720AF070F8462342F282
:103BB0000E720095794971480AF0ACFD4FF6FF711D
:103BC0006E480AF063F80095642342F20E7274495D
:103BD0006A480AF09FFD4FF0DC0A4FF0CD094FF024
:103BE000BE08AA279B268C2500246E4963480AF04C
:103BF0000BFF2B460A226C49604800940AF08AFDAC
:103C000033460A2269495D4800940AF083FD3B4629
:103C10000A226749594800940AF07CFD43460A226B
:103C20006449564800940AF075FD4B460A226249E1
:103C3000524800940AF06EFD53460A225F494F48ED
:103C400000940AF067FD5E494C480AF0DDFE4FF42F
:103C5000EB7545F2713149480AF018F84FF49B733F
:103C60004FF4C3720095AA2144480AF0A3F84FF418
:103C7000484142480AF00AF896234FF4C37200956F
:103C80000A213E480AF096F84FF6FF713B4809F0CA
:103C9000FDFF00954FF49B734FF4C372AA21374880
:103CA0000AF09EF996234FF4C37200950A21334817
:103CB0000AF096F940F2D5154BF6F7512F4809F066
:103CC000E5FF40F2351340F28712AB212B480095F7
:103CD0000AF086F9952340F287120B2127480095B8
:103CE0000AF07EF94FF6FF71244809F0CFFF45F244
:103CF0007131224809F0E0FF4FF4D373D0223149EB
:103D00001E4800940AF006FD4FF448411B4809F094
:103D1000D3FF2D49194800944FF4D37320220AF0A1
:103D2000F9FC2146154809F0C7FF28480BF084F834
:103D30000028FAD025480AF0A1FF24480BF092F899
:103D4000044622480BF0D0F8A0F59B70A028A4F1FF
:103D50000A03EAD88C2BA4F1AA0403D98C2CE4D84A
:103D6000FFF77EFB054809F027FFC82011F04CFB48
:103D700003B0BDE8F04FFFF795B800BF001AFF1F72
:103D8000701802008018020088180200DC28FF1F4B
:103D9000941802004028FF1F481AFF1FAC180200A9
:103DA000440CFF1FD82E0200CC180200F4180200A9
:103DB0001C1902003C190200641902008C1902004F
:103DC00050330200A8190200B0190200A827FF1FF3
:103DD00040F2FF71744809F059FF1E230A2273490B
:103DE000714800950AF096FC4FF6FF716E4809F095
:103DF0004DFF3E233C226E496B4800950AF08AFC39
:103E000070233C226B49684800950AF083FC4FF60A
:103E1000FF71654809F03AFF32231A460A216248C9
:103E2000CDF800A00AF0DCF85B4633220B215E4897
:103E3000CDF800900AF0D4F8322364220A215A48BF
:103E4000CDF800800AF0CCF85B4665220B2156487D
:103E500000970AF0C5F83046FFF718FA012819D084
:103E600002287FF4AFAD544B83F805B0AAE53023A8
:103E70000546E3726371ECE43023E3716AE63123B3
:103E8000A37118E6312323714B4A002D7FF49AADBC
:103E9000537197E5484A3023537193E50023062276
:103EA0004649474800250CF035FD40F2FF713E4879
:103EB00009F0ECFE3C230A22009542493A480AF0F8
:103EC00029FC4FF6FF71384809F0E0FE5A230A2218
:103ED0003A49009534480AF01DFC39480CF0B8FA0C
:103EE0002946314809F0D2FE40F2DF1300931E222A
:103EF0004FF49B730A212C480AF0D0F84227312353
:103F00002D22302640F2FF7127482770A3702372BC
:103F10006672A27209F0BAFE462342F20E72009552
:103F2000294921480AF0F6FB4FF6FF711E4809F0B7
:103F3000ADFE642342F20E7200951F491A480AF042
:103F4000E9FB40F2FF71184809F0A0FE8C2342F211
:103F50000E7200951D4914480AF0DCFB4FF6FF7104
:103F6000114809F093FE0095AA2342F20E721349FC
:103F70000D480AF0CFFB4FF4917A40F213194FF439
:103F80008278F027E126D2252EE63223E370BEE4C4
:103F90003323E370BBE43323E372002559E4322377
:103FA000E372002555E400BF001AFF1FB819020094
:103FB000C4190200CC190200440CFF1F580CFF1F4B
:103FC0004028FF1F9C180200AC180200BC18020019
:103FD000F8B52723294C2A4E2322054601211846ED
:103FE0003370227011F0E6F93078002111F0CEF92B
:103FF0002078012111F0DEF92078002111F026F857
:10400000322D28D0332D14D0312D00D0F8BD1D4ACB
:104010001D481E4E1E4C1F491F4B1060822741F247
:10402000941500204FF4B4723760256008601A6060
:10403000F8BD164A164E174C1249174B64201060F3
:1040400046F2A817022510204FF4C8723760256089
:1040500008601A60F8BD0D4A0D4E0E4C09490E4B12
:104060006420106046F2A81700254FF480704FF4CA
:1040700083723760256008601A60F8BDD419FF1F8D
:10408000A124FF1FB019FF1FD0010100A427FF1FAB
:104090004019FF1F0C20FF1FD019FF1F08B511F09A
:1040A00041FF064B0021187810F0D0FF044B00218F
:1040B0001878BDE8084011F069B900BFD419FF1F96
:1040C000A124FF1F10B5314BDB7A322B82B004469E
:1040D0002CD0332B02D12E480EF0BEFDFA2011F069
:1040E00093F9FFF7DBFF4FF478412A4809F0CEFD42
:1040F0000023009327482849962342F20E720AF0C3
:1041000009FBA01F08280FD8DFE800F0141F2A0EB3
:104110000E0E0E3505000023009342F20E72C823E6
:104120001E491C480AF0F6FA02B010BD1C480BF0FC
:10413000C9FAD3E70023009342F20E72C82319494B
:1041400014480AF0E7FA02B010BD0023009342F2CF
:104150000E72C82314490F480AF0DCFA02B010BDF1
:104160000023009342F20E72C823104909480AF056
:10417000D1FA02B010BD0023009342F20E72C823A0
:104180000B4904480AF0C6FA02B010BD440CFF1FE8
:104190001825FF1F001AFF1F94240200281A02008E
:1041A000A824FF1FD4190200E8190200001A020017
:1041B000141A0200FFFFFFFF30B57D4A7D4B1078D7
:1041C00089B0002401211C7011F0E0F87A4BDB7AF1
:1041D000322B49D0332B44D1784BC821187810F0BA
:1041E00035FFAA2342F20E727549764800940AF010
:1041F00091FAD02342F20E727349724800940AF089
:1042000089FA724972480EF06DFC40F2DC5011F0F0
:10421000FBF8642203A96E480EF064FDA0425FDB48
:104220006C4B6D4C18789DF80C30237015F0EAFF3C
:104230009FED5D0B41EC110B13F092FC51EC100B58
:1042400016F02EFB2378654A183BDBB2192B107051
:1042500000F2A380624A22FA03F3DB0740F19D805B
:104260000124204609B030BD0094AA2342F20E7208
:10427000534954480AF04EFAD02342F20E72524982
:10428000009450480AF046FA4FF47A6011F0BCF8F6
:1042900040F2124011F0C2FD4FF4FA7011F0B4F880
:1042A000504951480BF0ECF8072405464FF4FA70DA
:1042B000EDB911F0A9F84B494B480BF0E1F8013C7E
:1042C0000546F3D121463F4809F0E0FCEC2300937A
:1042D000AA224FF49B730A213A4809F0DFFE9DB9E8
:1042E0000620FFF7EFFE0024204609B030BD002174
:1042F000344809F0CBFCEC230093AA224FF49B73C3
:104300000A21304809F0CAFE00240094AA23A02202
:1043100036492C480AF0FEF9D023A0222A490094FD
:1043200028480AF0F7F940F6B83011F06DF84FF46C
:10433000FA7011F069F82C480BF04CF90F2504467F
:104340004FF4FA70DCB911F05FF827480BF042F92E
:10435000013D0446F4D129461A4809F097FCEC23A4
:104360000093AA224FF49B730A21164809F096FE87
:10437000002C7FF475AF0720FFF7A4FE71E7002142
:10438000104809F083FCEC230093AA224FF49B739E
:104390000A210C4809F082FE63E70E20FFF792FE27
:1043A00000245EE7AFF30080000000000000004042
:1043B000A124FF1F1020FF1F440CFF1FD419FF1F53
:1043C000401A0200001AFF1F541A0200000EFF1FBD
:1043D0001825FF1FCC19FF1FA024FF1F1428FF1F43
:1043E00001400102502E0200A824FF1F641A02009F
:1043F0002DE9F0472DED048B90B0B2EE040A0121B7
:1044000007A810F05DF907A90BA810F027F9D34908
:104410000BA810F0DBF9014603A810F01FF90BA858
:1044200010F0C8F807A810F0C5F84FF6FF71CC4897
:1044300009F02CFC03A90BA810F010F900230BA91C
:104440000093EA224FF4B473C5480AF0CDF90BA8E3
:1044500010F0B0F80220FFF7AFFE002840F01E81F8
:104460000124C04E9FEDC09ADFF83083DFEDBF8A94
:104470009FEDBF8A37464FF02009002514B3BD4891
:104480000AF0DAFC0028F9D0002DF7D1B9480AF07B
:10449000F5FBB8480AF0E6FC8246B6480AF024FD6F
:1044A0006FF4D27318443A28E8D8AAF10A03562BBD
:1044B00000F28580B04B09224FEA49091A600125B4
:1044C000002CDCD14FF4FA71A6480EF01DFB002839
:1044D000C0F2988097F8D1314BB1DFF89CA2DAF89E
:1044E00000300133032BCAF8003000F3AF80D6ED63
:1044F000726AF4EEC96AF1EE10FA5CDD9F4B96ED3C
:10450000737A93ED006ADFF898E29FED9D5AF6EE1C
:10451000007A37EE277AB8EEC66A07EE909AF8EE80
:10452000E75A77EE067AFDEEE77A17EE903A83FBCC
:1045300008011944DA17C2EB21224FF4B47101FBD0
:104540001233CB1A5EF8232007EE102AB8EEC77A92
:1045500027EE267A87EE286A26EE257AC7EE087AB5
:1045600077EE857AFDEEE77A17EE901A4A1EB2F5DD
:104570009F7F84D2834ADFED847A52F8233007EE9E
:10458000103AB8EEC77A67EE266A86EEA87A67EE2A
:10459000255A85EE887A77EEC77AFDEEE77A17EE30
:1045A000902AA2F11503B3F59F7FBFF468AF6C4862
:1045B00009F090FB63E7012010F026FF5FE7AAF106
:1045C0007503562B08D86C4B09EBD97909224FEAB1
:1045D00069091A60012551E7AAF1E00ABAF1560FFC
:1045E0003FF64CAF5F480EF037FBFA2010F00CFF9F
:1045F000FFF754FD03A80FF0DDFF10B0BDEC048BF6
:10460000BDE8F08764220BA956480EF06BFB00282A
:10461000FFF635AF4FF47A72214652480EF01AFC7D
:104620000028C0F2C88021464D4809F02FFB4FF406
:10463000A973009315224FF49F730121484809F094
:104640002DFD4FF47A7010F0DFFE18E72146444844
:1046500009F01CFB4FF4A9731522009301214FF4BC
:104660009F733F4809F01AFD4FF494613C4809F0EC
:104670000DFB0323B422A021394809F0F7FBDAF837
:104680000030082B00F39C8025464FF6E07134483B
:1046900009F0FCFA0023CAF8003028E74FF6E07171
:1046A0002F4809F0F3FA394B1B78183B0024192BDB
:1046B0003FF6D7AE01A252F823F000BFA547000095
:1046C000634400006344000063440000634400004E
:1046D000634400006344000063440000634400003E
:1046E000634400006344000063440000634400002E
:1046F000634400004947000063440000374700005E
:10470000634400006344000063440000634400000D
:1047100063440000634400006344000063440000FD
:104720002547000000944FF4C3730A2218490C482F
:1047300009F0F0FF95E600944FF4C3730A2215497F
:10474000074809F0E7FF8CE600944FF4C3730A2290
:104750001149034809F0DEFF83E600BF781A020022
:10476000001AFF1F1825FF1F0000C84200401C460A
:1047700000007A44A827FF1F0C25FF1F540CFF1FC1
:1047800000002043B028020000003443A024FF1F93
:10479000B01A0200901A0200A01A0200B7600BB60D
:1047A000D810020000944FF4C3730A221E491F4818
:1047B00009F0B0FF55E60820FFF784FC01245EE60F
:1047C00007EE909A9FED1A0AF8EEE77A012180EE43
:1047D000270A07A80FF074FF07A90BA80FF03EFFE8
:1047E00014490BA80FF0F2FF014603A80FF09EFF3B
:1047F0000BA80FF0DFFE07A80FF0DCFE4FF6FF71ED
:104800000A4809F043FA03A90BA80FF027FF009408
:104810004FF4B473EA220BA9044809F0E5FF0BA892
:104820000FF0C8FE31E700BF801A0200001AFF1F18
:104830000000A043781A02002DE9F04F2DED028B05
:1048400093B0B2EE040A01210AA80FF039FF0AA9B9
:104850000EA80FF003FFAB490EA80FF0B7FF0146FB
:1048600006A80FF0FBFE0EA80FF0A4FE0AA80FF09A
:10487000A1FE4FF6FF71A44809F008FA002406A92A
:104880000EA80FF0EBFE4FF4B473EA220EA99E4877
:10489000009409F0A9FF0EA80FF08CFE4FF6E0710E
:1048A000994809F0F3F9984800944FF4C3730A2229
:1048B000964909F02FFF2046FFF77EFC002840F0C4
:1048C000E1800124DFF86082DFF860A2DFF8609207
:1048D000DFED8F8AC3462027002504B38D480AF0F8
:1048E000ABFA0028F9D0002DF7D18A480AF0C6F9B2
:1048F00088480AF0B7FA064686480AF0F5FA6FF4D7
:10490000D27318443A28E8D8A6F10A03562B66D881
:1049100009237F00C8F800300125002CDED104A84F
:104920000DF10F027C490AF0E1FD9DF80F30002BDC
:10493000D4D004A80AF036FD00285CD104A80AF0FF
:1049400033FD04A8B0EE408A0AF034FD00EB80008D
:10495000400080B264283ED9704B1B6898423ADA16
:10496000F6EE007A38EE278A6D4BFDEEC87A17EE28
:10497000906A53F8262002FB00F28AFB0213D2173A
:10498000C2EB233307FB03F389FB0321DB17C3EBE4
:10499000A11101F19F03B3F59F7F01F1A0019DD209
:1049A000604B53F8263003FB00F08AFB0023C0174E
:1049B000C0EB233307FB03F389FB0302DB17A3EBF5
:1049C000A21202F19F03B3F59F7F87D2B4324E4803
:1049D00009F080F982E7012010F016FD7EE7A6F1CC
:1049E0007503562B3AD807EBD77709237F10C8F801
:1049F0000030012571E7D8F800300133032BC8F8E7
:104A000000309BDD2146404809F040F94FF4A9737E
:104A10001522009301214FF49F733B4809F03EFBA0
:104A20004FF49461384809F031F90323B422A021EE
:104A3000354809F01BFA4FF6FF71334809F026F9A3
:104A4000DBF80030082B2CDC25464FF6E0712E48B1
:104A500009F01CF90023C8F800306FE7E03E562E3D
:104A60003FF63BAF2C480AF02DFEFA2010F0CCFCAC
:104A7000FFF714FB06A80FF09DFD13B0BDEC028BF1
:104A8000BDE8F08F4FF47A7010F0BEFC22480AF0B7
:104A9000E3FD00287FF416AF0820FFF713FB012485
:104AA00010E707EE907AB8EEE70A012188EE800A57
:104AB0000AA80FF005FE0AA90EA80FF0CFFD1149B4
:104AC0000EA80FF083FE014606A80FF02FFE0EA8D9
:104AD0000FF070FD0AA80FF06DFD4FF6FF710A4848
:104AE00009F0D4F806A90EA80FF0B8FD00944FF411
:104AF000B473EA220EA9044809F076FE0EA80FF05E
:104B000059FDA2E7781A0200001AFF1FC01A02001E
:104B10000000A043A827FF1FA824FF1F4019FF1F64
:104B2000D8100200B02802000C25FF1FAD8BDB68F7
:104B3000D34D621070B5714882B009F03DF87049EC
:104B40006E4840F2DF1409F05FFF45F271316B48A7
:104B500009F09CF80094602340F2A5120A216748EE
:104B600009F028F90094CB2340F2A512752163487F
:104B700009F020F94FF49B7340F2A5120094E02154
:104B80005E4809F017F94FF6FF715C4809F07EF8AE
:104B90000094602340F2A5120A21584809F020FA37
:104BA0000094CB2340F2A5127521544809F018FA5D
:104BB0004FF49B7340F2A5120094E0214F4809F096
:104BC0000FFA4FF4EF744BF6F7514C4809F05EF8CA
:104BD00000945F234FF4D3720B21484809F000FA88
:104BE0000094CA234FF4D3727621444809F0F8F9AF
:104BF00040F235134FF4D3720094E1213F4809F09D
:104C0000EFF945F271313D48002409F055F84FF6AF
:104C1000FF713A4809F03AF84FF4DD732D22394913
:104C20003648009409F076FD4FF4DD73982236493A
:104C30003248009409F06EFD4FF4DD73EB223349E6
:104C40002E48009409F066FD21462C4809F034F8FE
:104C500013254FF6FF71294809F018F84FF4AD7687
:104C60002A462146009540F23F13244809F0B2FA43
:104C700032462146009640F23F13204809F0AAFA36
:104C80002A460096234621461C4809F0A3FA40F222
:104C90003F132A461946009618481D4E1D4D09F02F
:104CA00099FA23462146E122144808F0DFFF032346
:104CB000B422A021114809F0D9F84FF6E0710F484D
:104CC00008F0E4FF00944FF4B4730A2212490B4831
:104CD00034702C6009F01EFD104BDB7A332B08D0AA
:104CE000322B01D002B070BD02B0BDE87040FFF7BA
:104CF000A3BD02B0BDE87040FFF77ABB001AFF1FEA
:104D000050330200D01A020050170200D41A0200D9
:104D10000C28FF1F0C25FF1FDC1A0200440CFF1F8C
:104D200030B55B4883B008F047FF0A21594804F0CA
:104D30005BFF4FF4FA70002410F066FB4FF6E07151
:104D4000534808F0A3FF0A2342F20E72524950481A
:104D5000009409F0DFFC4FF6FF714D4808F096FF14
:104D60004E494B4809F050FE1E2342F20E724C4948
:104D70004748009409F0CEFC282342F20E724949BC
:104D80004348009409F0C6FC322342F20E724649B1
:104D90003F48009409F0BEFC412342F20E724349A1
:104DA0003B48009409F0B6FC4B2342F20E72404996
:104DB0003748009409F0AEFC3E49354809F024FE1E
:104DC0004FF4A27364221421324804F065FF4FF6B9
:104DD000FF712F480A2508F059FF02212D4805F0E0
:104DE000C7FF2A46DC2334492A48009506F08EFE88
:104DF0000C232A46009331492648EB2306F086FE11
:104E00000E232A4600932E492248FC2306F07EFEFC
:104E100012232A4600932B491E4840F2111306F034
:104E200075FE16232A46009327491A4840F2291393
:104E300006F06CFE1C232A4600932449154840F2D4
:104E4000471306F063FE4FF49A734FF4BE7250217D
:104E5000104804F021FF4FF49F734FF4BE72B42149
:104E60000C4804F019FF40F2FF71094808F00EFFEA
:104E700000944FF4E67342F20E721549044809F0AB
:104E800049FC144809F0D8FF0028FAD003B030BD1F
:104E9000001AFF1F681BFF1FEC1A0200D82E020029
:104EA000001B0200281B0200501B0200781B02009E
:104EB000A01B020050330200C41B0200D81B0200DA
:104EC000EC1B0200001C0200141C0200281C020043
:104ED0003C1C0200A827FF1FF0B52DED028B85B00A
:104EE0004FF6FF715A48002608F0D0FE594958483D
:104EF0000096642342F20E7209F00CFC56480CF046
:104F000065FF4FF4FC610446514808F0BFFE002CD9
:104F100000F08580642342F20E7250494C4800969E
:104F200009F0F8FB4FF47A7010F06EFA4FF6FF714B
:104F3000474808F0ABFE642342F20E7248494448E9
:104F4000009609F0E7FBA0230096B02245494048AF
:104F500009F0E0FB444BDF6A3F0B36D007EE907A56
:104F60009FED428AF8EEE78A4FF480553403012220
:104F70000DF10F013E480BF005FC0123012808BF8D
:104F80009DF80F20344818BFFF2221461C440CF026
:104F9000D3FEAC42EBD107EE906AF8EEE77A20221E
:104FA00067EE887A002387EEA87A01920093013693
:104FB000A0238022264805F58055FDEEC77A17EE1E
:104FC000901A09F031FCBE42D0D1002428480BF0E1
:104FD0003FFAA0238022009426491D4809F09AFB3D
:104FE0004FF4FC611A4808F051FE0094642342F229
:104FF0000E722149164809F08DFB782342F20E7299
:105000001E490094124809F085FB40F6B83010F0B4
:10501000FBF9FFF785FE05B0BDEC028BF0BD4FF448
:1050200078410B4808F032FE642342F20E721449B4
:105030000094074809F06EFB0D480BF009FA4FF495
:105040007A6010F0E1F905B0BDEC028BF0BD00BF55
:10505000001AFF1F501C02005C1AFF1F601C020098
:10506000741C0200881C02003028FF1F0000C84288
:105070004028FF1F8C1C0200901C0200A41C020090
:10508000B01C0200FFFFFFFF2DE9F043C64FC748E9
:1050900083B000243C6008F08FFD4FF4FA7010F0EC
:1050A000B3F9C349C14809F0AFFC4FF6E071BF48FE
:1050B00008F0ECFD0A2342F20E72BE49BB48009490
:1050C00009F028FBBC480CF02BFE4FF6E0710546BA
:1050D000B64808F0DBFD28230A22B849B3480094FB
:1050E00009F018FB4FF6FF71B04808F0CFFDC5F38B
:1050F0000743EF2BEDB200944FF03C034FF0320228
:1051000000F07481AE49A94809F004FB4FF47841DE
:10511000A64808F0BBFDD22342F20E720094A949C2
:10512000A24809F0F7FAA849A04809F06DFC4FF62B
:10513000FF719E4808F0AAFD0094E62342F20E7229
:10514000A2499A4809F0E6FA0094F52342F20E7259
:105150009F49964809F0DEFA00944FF4827342F2B8
:105160000E729C49914809F0D5FA91498F4809F08F
:105170004BFC01244FF6E0718C48002608F086FDB8
:1051800050230A2294498948009609F0C3FA8748B7
:105190004FF6FF7108F07AFDA5F11100C3B2092B9B
:1051A00076D815F03FF89FED7E0B41EC110B12F015
:1051B000D7FC51EC100B15F04BFB20230146009659
:1051C000019332226423794809F02EFB6423009670
:1051D0001A468249754809F09DFA1A2D98BF012692
:1051E00010D8012303FA05F515F0F86840F0248182
:1051F00015F4401940F04B8115F4602F40F03181D7
:10520000002E4ED04FF4EB7545F27131674808F02F
:105210003DFD00954FF49B734FF4CD72AA21634876
:1052200008F0C8FD4FF6FF71604808F02FFD0095AB
:105230004FF49B734FF4CD72AA215C4808F0D0FE66
:105240004BF6F751594808F021FD40F2D51340F2D2
:105250009B120093AB2140F23513544808F0C0FE76
:1052600045F27131514808F027FD00254FF6FF71D6
:105270004E4808F00BFD00954FF4D873D0225849E2
:105280004A4809F047FA2946484808F015FD08E061
:105290000096642332224A49444809F03BFA1A2D09
:1052A0009FD94FF4EB754FF4484140483E4E08F00B
:1052B000EDFC96234FF4CD7200950A213B4808F08F
:1052C00079FD4FF6FF71394808F0E0FC96234FF462
:1052D000CD7200950A21354808F082FE4BF6F75151
:1052E000324808F0D3FC40F2D51340F29B120093F1
:1052F0000B2195232D4808F073FE4FF448412B48AD
:1053000008F0DAFC00254FF6FF71284808F0BEFCD3
:105310004FF4D873202233492448009509F0FAF954
:105320002946224808F0C8FC01233B602E4809F0BA
:1053300083FD0028FAD02C4809F0A0FC2A4809F087
:1053400091FD0546284809F0CFFDA0F59B70A028E7
:10535000ECD8A5F10A038C2B4DD83B68012B11D05A
:10536000022BE3D10021114808F090FC40F2DF133A
:10537000009328224FF49B730A210C4808F08EFEFC
:10538000FFF7AAFD094808F017FCC82010F03CF808
:1053900003B0BDE8F043FDF785BD00BFAFF300806B
:1053A00000000000000000401828FF1F001AFF1F27
:1053B00050330200C01C02005C1AFF1FD41C020004
:1053C000EC1C0200F41C0200D82E0200001D02009A
:1053D000201D0200481D02005C1D02006C1D020021
:1053E00088170200B0190200A827FF1F6549664808
:1053F00009F090F9BEE6AA3D8C2D97D800216248AD
:10540000DFF8BC8108F042FC40F2DF130093282251
:105410004FF49B730A215C4808F040FE4FF4FA7089
:105420000FF0F2FF3B68012B6DD0022B7FF47EAFB3
:1054300056480BF00DF8A5E7002540F2FF715248E1
:1054400008F024FC009596230A2251494E4809F0A1
:1054500061F90095AA230A224E494B4809F05AF9EE
:10546000CEE64FF47841484808F010FCCDF80090A3
:1054700096230A224849444809F04CF9CDF8009097
:10548000AA230A224549404809F044F909E74FF6A2
:10549000E0713D4808F0FAFBCDF8008096230A221F
:1054A0003D49394809F036F9CDF80080AA230A228F
:1054B0003B49354809F02EF9CDF80080BE230A2279
:1054C0003849314809F026F9D2230A22CDF8008064
:1054D00035492D4809F01EF940F2FF712A4808F0BD
:1054E000D5FBCDF80080F0230A222949264809F08F
:1054F00011F9CDF800804FF482730A222549224821
:1055000009F008F97CE6294B294A19681F4800234D
:105510000BF0D6F80546002854D14FF478411A48CC
:1055200008F0B4FB3C2342F20E7222491648009563
:1055300009F0F0F84FF6FF71134808F0A7FB5A2363
:1055400042F20E721C491048009509F0E3F86E23F0
:1055500042F20E7216490C48009509F0DBF88223DE
:1055600042F20E7215490848009509F0D3F8074831
:105570000AF06EFF41F288300FF046FFC8F8005085
:1055800000E700BFE41C0200001AFF1F4028FF1FB5
:10559000CC1D0200E01D0200741D0200881D0200E7
:1055A000981D0200AC1D0200C01D0200DC28FF1F78
:1055B000EC1D0200FC1D0200041E0200101E020071
:1055C0001828FF1F002502234FF6FF718048336023
:1055D00008F05CFB28230A227E497D48009509F0EB
:1055E00099F83C230A227C497948009509F092F801
:1055F0007A49774809F008FA64230A2278497448FE
:10560000009509F087F873230A22764970480095BF
:1056100009F080F882230A2273496D48009509F049
:1056200079F891230A2271496948009509F072F8C6
:10563000A0230A226E496648009509F06BF8AF2353
:105640000A226C496248009509F064F86A4960488A
:1056500009F0DAF94FF4EB784FF448415C4808F070
:1056600015FB4FF49B734FF4CD72AA215848CDF827
:10567000008008F09FFB4FF6FF71554808F006FBCD
:105680004FF49B734FF4CD72AA215148CDF800809E
:1056900008F0A6FC40F2D5194BF6F7514C4808F03B
:1056A000F5FA40F2351340F29B12AB214848CDF891
:1056B000009008F095FC4FF44841454808F0FCFA8A
:1056C0004FF6FF71424808F0E1FA4FF4D873C02258
:1056D0004A493F48009509F01DF829463C4808F022
:1056E000EBFA4FF494613A4808F0D0FA96234FF45D
:1056F000CD720A213648CDF8008008F05BFB4FF6EA
:10570000FF71334808F0C2FA96234FF4CD720A2194
:105710002F48CDF8008008F063FC4BF6F7512C4879
:1057200008F0B4FA952340F29B120B212848CDF8DB
:10573000009008F055FC4FF49461254808F0BCFA3D
:105740004FF6FF71224808F0A1FA2D492048009534
:105750004FF4D873302208F0DDFF29461C4808F0CA
:10576000ABFA002C3FF4E2AD4FF47841184808F052
:105770008DFAD22342F20E7200952249144808F0A5
:10578000C9FF1649124809F03FF94FF6FF7110485A
:1057900008F07CFA0095E62342F20E721A490C4892
:1057A00008F0B8FF0095F52342F20E721749084839
:1057B00008F0B0FF00954FF4827342F20E72144964
:1057C000034808F0A7FF0C49014809F01DF9ADE5B1
:1057D000001AFF1F1C1E0200301E0200D82E0200FD
:1057E000441E0200681E02008C1E0200B41E02004D
:1057F000D01E0200F81E020050330200B019020051
:10580000E8160200F41C0200001D0200081F02003E
:105810002C1F020070B5104E82B001F10A030C4635
:1058200005460093A1F10A0200F10A03A0F10A0162
:10583000304608F0A5FB6B1D2246691F30460094D8
:1058400008F0C8FC631D00933046621F2B462946B2
:1058500008F0C0FC02B070BD001AFF1F2DE9F04730
:10586000DFF8BCA0274F82B04FF00009FF231A4693
:105870001946254808F0FAF9DAF80030CDF800901A
:1058800042F20E722149204808F044FF1D4809F0F9
:10589000D3FA0028FAD01C48DAF80030CDF800908E
:1058A00042F20E721A49002608F034FF15483446B9
:1058B000354641F2883809F0BFFAF0B14545114844
:1058C0000DD1144B1449154AA3FB0404A3FB060392
:1058D000240B1B0B0C60136002B0BDE8F08709F0CD
:1058E00043FBB7F90020B7F90230064801351444EC
:1058F0001E4409F0A1FA0028E0D141F288339D420C
:10590000B4D1DEE7A827FF1F001AFF1F3C1F0200CB
:10591000481F02005917B7D1E418FF1FEC26FF1FDC
:105920000420FF1F70B5FF2382B005460E461446C3
:1059300019461A461C4808F099F931462846FFF7DF
:1059400069FF00231A46FF21174808F0A3F9FFF763
:1059500085FFFF231A461946134808F087F9134BB1
:1059600013491B6810480022009242F20E7208F0A0
:10597000D1FE50231A4619460B4808F077F93146F4
:105980002846FFF747FF0B480B4A0C490C4B0068B1
:10599000126841F8240043F824200A4809F04CFA20
:1059A0000028FAD102B070BD001AFF1F0420FF1FAB
:1059B000541F0200E418FF1FEC26FF1FE818FF1F0A
:1059C0000819FF1FA827FF1F08B5084809F034FA77
:1059D0000028FAD1054809F02FFA0028FAD0034828
:1059E00009F02AFA0028FAD108BD00BFA827FF1F36
:1059F0000F4970B44C223026782555240023CA72F2
:105A00000E704D708C720B7301F10902013100F0C0
:105A10000F03092B03F1370496BF30331470137052
:105A2000013A8A424FEA1010F1D170BC704700BFB2
:105A30008824FF1F30B50023784D794883B01A467B
:105A4000FF2108F013F92B68754800220D21013B56
:105A50000091114608F022FBFF231A4619467048B0
:105A600008F004F900231A46FF216D4808F012F9E6
:105A70002B686B480E2200210C46013B009208F077
:105A8000A9FB012342F20E7266496548009408F0B2
:105A900041FE234622462146614808F0FBF82B6868
:105AA0000094DC2B4FF01E0371D042F20E725E495F
:105AB0005B4808F02FFE322322465C495848009488
:105AC00008F028FE3E23224659495548009408F024
:105AD00021FE4A23224657495148009408F01AFEF5
