:1000000000000320D1010000D54A01008D4A010003
:100010008D4A01008D4A01008D4A01008D4A010080
:100020008D4A01008D4A01008D4A0100D54A010028
:10003000D54A01008D4A0100E53E0100E93F01007B
:10004000D54A0100D54A0100D54A0100D54A010030
:10005000D54A0100D54A0100D54A0100D54A010020
:10006000D54A0100D54A0100D54A0100D54A010010
:10007000D54A0100D54A0100D54A0100D54A010000
:10008000D54A0100D54A0100D54A0100D54A0100F0
:10009000D54A0100D54A0100D54A0100D54A0100E0
:1000A000C19B0000CD9B0000D54A0100D54A01004C
:1000B000D54A0100D54A0100D54A01003D5601004C
:1000C000D54A010055760100D54A0100817701002B
:1000D000D54A0100A15C0100D54A0100D54A0100C2
:1000E000D54A0100D54A0100D54A0100D54A010090
:1000F000D54A0100D54A0100D54A0100D54A010080
:100100008D740100A1740100B5740100C97401006F
:10011000D54A0100C5640100D54A0100D54A010055
:10012000D54A0100D54A0100D54A0100D54A01004F
:10013000D54A0100D54A0100D54A0100D54A01003F
:10014000D54A0100D54A010011620100D54A0100DB
:10015000D54A0100D54A0100D54A0100D54A01001F
:10016000D54A0100D54A0100D99B0000D54A0100BB
:10017000D54A0100D54A0100D54A0100D54A0100FF
:10018000D54A01005DFC0000D54A0100D54A0100B6
:10019000D54A0100D54A010079780100D54A01000D
:1001A000D54A0100D54A0100D54A0100D54A0100CF
:1001B000D54A0100D54A0100D54A0100D54A0100BF
:1001C000D54A0100D54A0100D54A0100D54A0100AF
:1001D0005C4B4CF2205210B51A804DF628121A8052
:1001E00000BF00BF14F07AFC574B4FF030621A602A
:1001F000564A9A60564ADA60564B4FF470021A60BB
:10020000554B564A1A60564B1A78110703D51A787F
:1002100042F008021A70534B5349AA221A70534AEB
:10022000534B8B4204D252F8040F43F8040BF8E707
:10023000504B514900228B4202D243F8042BFAE77B
:100240004E494F4A002352F8230041F8230001335E
:10025000742BF8D14B4B4C4A802103F8011B93427D
:10026000FBD14A4B454A1A60494B8A221A70A3F5C2
:10027000805324225A70A0221A709A799207FCD5D2
:100280009A79D406FCD4434A937903F00C03082BE3
:10029000FAD1414B60221A7002331A78802AFCD1BD
:1002A0003C4B01221A715D225A719A799006FCD555
:1002B0009979384A4906FBD5384B394919600021EC
:1002C000596020231370937903F00C030C2BFAD19F
:1002D000344B354A1A60354A354C136813F4807331
:1002E00003D123604FF4A8531360324B324A1A6093
:1002F00000225A60072243F8042C304AC3F80C2D20
:1003000062B615F0D5F82368DA0705D52C4814F045
:100310008DFE2C4B2C4A1A602C4B1B785B0609D5A2
:10032000284C294B22689A4204D1254814F07EFEBD
:10033000002323601AF050FB14F0D6FB14F004FBEA
:10034000FEE700BF0E20054030800440823F0400DD
:100350000100002B88ED00E0002008E0030000858C
:1003600002D0074000E00740C818FF1F7C51020080
:10037000400CFF1FC818FF1F0036FF1F0002FF1FA1
:100380000000000000E400E064E400E008ED00E0AC
:10039000005006400040064001E007404480044011
:1003A0000000060204800440C010070010D0034083
:1003B00014D0034014E000E01FBF02000000202022
:1003C0000B33905E1CE00340A5C3945A00F0074035
:1003D000FFFFFFFFFFFFFFFFFFFFFFFFFFFFFFFF2D
:1003E000FFFFFFFFFFFFFFFFFFFFFFFFFFFFFFFF1D
:1003F000FFFFFFFFFFFFFFFFFFFFFFFFFFFFFFFF0D
:10040000FFFFFFFFFFFFFFFFFFFFFFFFDEF9FFFF23
:1004100010B5054C237833B9044B13B10448AFF33E
:1004200000800123237010BDC818FF1F00000000CA
:1004300078510200084B10B51BB108490848AFF3CA
:1004400000800848036803B910BD074B002BFBD0A0
:10045000BDE81040184700BF00000000CC18FF1F87
:1004600078510200C818FF1F0000000000207047EC
:10047000027C02F0080202F0FF0332B1C36A406A54
:10048000181A48BF6FF0004070471846704700BF09
:100490000020704701207047034BD8691A79431E2A
:1004A0005002A3FB00017047901BFF1F14F0B8BD62
:1004B00000B583B001220DF10701103010F064F98E
:1004C00001280CBF9DF807004FF0FF3003B05DF826
:1004D00004FB00BF103010F05BBA00BF103010F00A
:1004E000C7BB00BF103010F0C9BB00BF00B583B060
:1004F00002AB012203F8011D1030194610F0BEFBBB
:1005000003B05DF804FB00BF503010F0B7BB00BF74
:1005100038B5074C204611F0A3FA02462079410273
:10052000A1FB0245D31701FB03552046294638BDE0
:10053000901BFF1F002A2CDD2DE9F84300251646ED
:100540000F460446A846606820B916F017FD6060A3
:100550000028FAD030F8083B721BC3F140099145DE
:10056000A8BF9146791918444A4614F0F5F9616814
:100570000B884B449BB2402B4D440B8003D0AE42C2
:10058000E1DCBDE8F883042015F05AFFC4F80480CC
:10059000F5E770472DE9F043C56F95B0FDB1DFF881
:1005A000BC900446636FAB424DD3267D26B304F165
:1005B000140805EB85010901404610F05DFA694613
:1005C0004046502210F0E0F89DF80E1094F880207C
:1005D00052B1029BE36719B9E56F002DE2D1002506
:1005E000284615B0BDE8F083E36F606F01338342A6
:1005F000E36728BFE267EEE74FF47A7744F202231D
:10060000144A15498DF810608DF811608DF804605A
:100610008DF80C6004A804AE0297CDF8009010F09D
:1006200051F80FCE04F1140847460FC70FCE0FC77D
:1006300030689DF80410029A9DF80C3038602172E1
:10064000E2602374B5E70021502268461AF0CEFD1F
:100650000021BBE778160200CC1FFF1F001002002C
:10066000436F99423FD82DE9F041057D94B00F4684
:10067000044685B100F1140807EB870109014046E3
:1006800010F0FAF940465022694610F07DF80198C2
:1006900014B0BDE8F0814FF47A7E144E144A154927
:1006A0008DF8105044F202238DF811508DF804504B
:1006B0008DF80C5004A804AD0096CDF808E010F0B9
:1006C00001F80FCD04F1140846460FC60FCD0FC632
:1006D00028689DF80410029A9DF80C303060217251
:1006E000E2602374C8E70020704700BF00100200DA
:1006F00078160200CC1FFF1F2DE9F0470C46416F12
:100700008C4294B0924699464FD8067D054626B352
:1007100000F1140804EB84010901404610F0ACF923
:1007200050226946404610F02FF850460DF10E0158
:10073000009D9DF80C401BF0D1F91C9B1D602CB94D
:10074000019BC9F8003014B0BDE8F0874FF0FF33CB
:10075000C9F8003014B0BDE8F0874FF47A7E1A4F24
:100760001A4A1B498DF8106044F202238DF811607B
:100770008DF804608DF80C6004A804AE0097CDF8E5
:1007800008E00FF09FFF0FCE05F1140847460FC792
:100790000FCE0FC730689DF80410029A9DF80C30F8
:1007A00038602972EA602B74B4E750220021684651
:1007B0001AF01CFD50460DF10E011BF08FF91C9A2A
:1007C00000231360BCE700BF00100200781602008F
:1007D000CC1FFF1F2DE9F0470446A2B05030D4F8DB
:1007E0006CA00FF037FEE56B636F9D4273D8267DDA
:1007F000002E48D004F1140805EB8501090140469C
:100800000DF1380910F038F94946502240460FF0F2
:10081000BBFFE56B237DCDF83CA01BBB334E344AB8
:1008200034498DF814304FF47A778DF815308DF8FF
:1008300008308DF81030019644F2022305A805AE69
:1008400003970FF03FFF0FCE47460FC70FCE0FC7DE
:1008500030689DF80810039A9DF8103038602172B6
:10086000E260237405EB85010901404610F004F9AC
:1008700049464046502210F001FA6FF00103E3634D
:1008800022B0BDE8F0874FF47A7E184F184A194914
:100890008DF8486044F202238DF849608DF83C6081
:1008A0008DF8446012A812AE0E97CDF840E00FF01C
:1008B00009FF0FCE04F1140847460FC70FCE0FC72C
:1008C00030689DF83C10109A9DF8443038602172D1
:1008D000E260237490E70DF1380948465022002168
:1008E0001AF084FC04F1140894E700BF0010020021
:1008F00078160200CC1FFF1F2DE9F043047D8FB056
:1009000007460E4691467CB100F1140806EB8601BD
:100910000901404610F0B0F849464046502210F018
:10092000ADF90FB0BDE8F0834FF47A7E124D134A53
:1009300013498DF8144044F202238DF815408DF8C8
:1009400008408DF8104005A805AC0195CDF80CE0E5
:100950000FF0B8FE0FCC07F1140845460FC50FCCB9
:100960000FC520689DF80810039A9DF81030286084
:100970003972FA603B74C9E7001002007816020071
:10098000CC1FFF1F2DE9F0434B6F93428FB0804681
:100990003CD30E7D0D46144686B101F1140904EBDB
:1009A00084010901484610F067F848465022414644
:1009B0000FF0EAFE40460FB0BDE8F0834FF47A7EB8
:1009C000164F174A17498DF8146044F202238DF828
:1009D00015608DF808608DF8106005A805AE0197C8
:1009E000CDF80CE00FF06EFE0FCE05F114094F4666
:1009F0000FC70FCE0FC730689DF80810039A9DF8F7
:100A0000103038602972EA602B74C8E75022002148
:100A10001AF0ECFB40460FB0BDE8F0830010020076
:100A200078160200CC1FFF1F2DE9F041436F994259
:100A3000E4B0144677D8077D05460E46002F00F037
:100A4000A78000F1140806EB86010901404610F06A
:100A500013F86946502240460FF096FE009E002E85
:100A600066D06B6FB34279D32B7D002B00F0C5802D
:100A700006EB8601090140460FF0FEFF502240467A
:100A800014A90FF081FE149A002A6DD0294628A8D7
:100A9000FFF778FF289A002A00F0AB8029463CA88F
:100AA000FFF770FF3C9A002A00F09F80294650A86B
:100AB000FFF768FF5099002900F0C88028462246B9
:100AC000FFF7B2FF20461BF07BF8231813F8013C18
:100AD0002F2B02D05F4B1B8823520DF5A7712046A8
:100AE0001AF006FE20461BF06BF8231813F8013CA1
:100AF0002F2B02D0574B1B8823520DF1FE012046AD
:100B00001AF0F6FD20461BF05BF8231813F8013CA1
:100B10002F2B02D04F4B1B8823520DF1AE012046E4
:100B20001AF0E6FD23E05022002168461AF05EFB31
:100B3000484B1B88238020461BF042F8231813F8EB
:100B4000013C2F2B02D0434B1B88235220460DF132
:100B50000E011AF0CDFD64B0BDE8F08150220021F5
:100B60000DEB02001AF042FB3A4B1B882380204613
:100B70001BF026F8231813F8013C2F2B02D0354B1D
:100B80001B8823520DF15E0120461AF0B1FDD2E719
:100B9000DFF8CCE0304A31498DF850714FF47A7C5F
:100BA00044F202238DF851718DF844718DF84C7127
:100BB00054A854AFCDF840E1CDF848C10FF082FD04
:100BC0000FCF05F11408C646AEE80F000FCFAEE810
:100BD0000F0038689DF84411529A9DF84C31CEF8B8
:100BE00000002972EA602B742DE71A4B1B882380C2
:100BF00078E7184B1B88238084E7194F164A17495A
:100C00008DF850314FF47A7E8DF851318DF84431A2
:100C10008DF84C31509744F2022354A854AFCDF8CC
:100C200048E10FF04FFD0FCFC646AEE80F000FCFE3
:100C3000AEE80F0038689DF84411529A9DF84C3187
:100C4000CEF800002972EA602B7411E7014B1B8873
:100C5000238037E78816020078160200CC1FFF1F9A
:100C6000001002002DE9F047B1F1FF3F01EB8109CF
:100C70004FEA0919ADF5986D8846DFF81CA30446C4
:100C800008BF4FF0000920E004F114074946384638
:100C90000FF0F2FE502238460DEB02010FF074FD0A
:100CA00050220DEB0201684613F056FE9DF80C2011
:100CB0002046002A40D0019B1946002B3CD02368D7
:100CC0001B6B9847002800F00B81B8F1FF3F02D062
:100CD000636F984529D8257D002DD5D14FF47A76BC
:100CE00044F20223A94AAA498DF8D0538DF8D15372
:100CF0008DF8C4538DF8CC53F4A8F4ADF296CDF82A
:100D0000C0A30FF0DFFC0FCD04F114073E460FC661
:100D10000FCD0FC628689DF8C413F29A9DF8CC3306
:100D200030602172E2602374B0E7502200210DEBA5
:100D300002001AF05BFAB3E7B8F1FF3F00F0DC8085
:100D4000B8F1000F00F07D81424628A82146FFF748
:100D500019FE289A002A00F0D4803CA82146FFF70B
:100D600011FE3C9A002A00F0798150A82146FFF735
:100D700009FE509A002A00F08B8164A82146FFF7F3
:100D800001FE649A002A00F07D8178A82146FFF7D1
:100D9000F9FD789A002A00F081818CA82146FFF79E
:100DA000F1FD8C9A002A00F07F81A0A82146FFF770
:100DB000E9FDA09A002A00F07D81B4A82146FFF742
:100DC000E1FDB49A002A00F07B81C8A82146FFF714
:100DD000D9FDC89A002A00F079810DF55C79214689
:100DE0004846FFF7CFFDD9F80010F0AD002900F01C
:100DF00073812A462046FFF717FE28461AF0E0FEC8
:100E00000DF2BF36335C2F2B02D0624B1B882B5266
:100E10000DF27E3128461AF06BFC28461AF0D0FEFF
:100E2000335C2F2B02D05B4B1B882B520DF22E31E3
:100E300028461AF05DFC28461AF0C2FE335C2F2BC0
:100E400002D0544B1B882B520DF2DE2128461AF09B
:100E50004FFC28461AF0B4FE335C2F2B02D04D4BCA
:100E60001B882B520DF28E2128461AF041FC284691
:100E70001AF0A6FE335C2F2B02D0464B1B882B5258
:100E80000DF23E2128461AF033FC28461AF098FE4F
:100E9000335C2F2B02D03F4B1B882B520DF5F77183
:100EA00028461AF025FC28461AF08AFE335C2F2BC0
:100EB00002D0384B1B882B520DF5CF7128461AF003
:100EC00017FC28461AF07CFE335C2F2B02D0314BE6
:100ED0001B882B520DF5A77128461AF009FCC2E0B9
:100EE00000200DF5986DBDE8F087029BC993C8AA54
:100EF00031462046FFF700FD01200DF5986DBDE855
:100F0000F087F0AD2F232B800DF2BF3628461AF064
:100F100057FE335C2F2B02D01E4B1B882B520DF13A
:100F2000AE0128461AF0E4FB9DF80C20002A00F0E0
:100F3000838000260DF55C792A46484633461449DD
:100F40008DF870638DF871630FF0BCFB0028C7D07B
:100F500048460FF065FD0028C2D0009E00236A4677
:100F6000414620468DF80E30FFF7C6FC3246C8A831
:100F70002146FFF707FDC99DA845B6D0002DBBD07F
:100F8000DFF814A00DF55C7920E000BF78160200B0
:100F9000CC1FFF1F881602000010020004F1140786
:100FA00005EB8501090138460FF066FD38465022F1
:100FB00049460FF0E9FB50224946C8A813F0CCFC83
:100FC000CA9B984541D01D46002B95D0636FAB421C
:100FD0002CD3267D002EE1D14FF47A7744F2022300
:100FE0003F4A40498DF8E0628DF8E1628DF8D462A5
:100FF0008DF8DC62B8A8B8AEB697CDF8D0A20FF0E5
:1010000061FB0FCE04F11407BE46AEE80F000FCE11
:10101000AEE80F0030689DF8D412B69A9DF8DC3225
:10102000CEF800002172E2602374B9E7502200215B
:1010300048461AF0DBF8BEE729462A480FF0DCFCE8
:1010400089E7F0AD2F232B8070E7029BCA932046DF
:10105000C8AA2946FFF750FC012042E7F0AD2F2334
:101060002B800DF2BF3628461AF0AAFD335C2F2BD9
:1010700002D01D4B1B882B520DF1FE0128461AF0A1
:1010800037FB43E7F0AD2F232B800DF2BF360AE785
:10109000F0AD2F232B800DF2BF3612E7F0AD2F23DA
:1010A0002B800DF2BF36F0E6F0AD2F232B800DF232
:1010B000BF36DCE6F0AD2F232B800DF2BF36C8E63D
:1010C000F0AD2F232B800DF2BF36B4E6F0AD2F2309
:1010D0002B800DF2BF36A0E62F232B808DE600BFBC
:1010E00078160200CC1FFF1F881602002DE9F04F72
:1010F000C36B8B42ADF5397D04D190F83830934203
:1011000000F0A980914688460646002975D0436FB5
:10111000994200F2C680047D78AD002C00F0CF80AB
:10112000DFF834A200F1140B08EB880109015846DE
:101130000FF0A2FC5022584669460FF025FB009A9A
:10114000002A00F0B68014A83146FFF71BFC149A61
:10115000002A00F0848028A83146FFF713FC289A63
:10116000002A00F0CF803CA83146FFF70BFC3C9AE8
:10117000002A00F0E18050A83146FFF703FC509AA6
:10118000002A00F0D38064AF31463846FFF7FAFBFF
:101190003968002900F0D6802A463046FFF744FC23
:1011A00028461AF00DFD0DF2DF14235C2F2B02D020
:1011B000664B1B882B520DF5CF7128461AF098FA12
:1011C00028461AF0FDFC235C2F2B02D05F4B1B88B6
:1011D0002B520DF5A77128461AF08AFA28461AF004
:1011E000EFFC235C2F2B02D0584B1B882B520DF1A8
:1011F000FE0128461AF07CFA89E078AD2F23DFF84B
:1012000058A12B8064AF06F1500420460FF022F95C
:1012100000212A464FF47A754B4639747974397136
:101220003973BD604A49C7F800A068A868AD0FF0DF
:1012300049FA0FCD0FC40FCD0FC428683979BA68A9
:101240003B7B2060C6F83C8086F8389086F84410D6
:10125000B26486F84C300DF5397DBDE8F08F2F2350
:101260002B8064AF0DF2DF1428461AF0A9FC235C32
:101270002F2B02D0354B1B882B520DF15E012846D7
:101280001AF036FA28461AF09BFC235C2F2B02D06A
:101290002E4B1B882B520DF10E0128461AF028FA0E
:1012A000B1E750220021684619F0A0FFDFF8A8A09E
:1012B00078AD2F232B8064AF0DF2DF14E2E74FF4FB
:1012C0007A77244A22492C7444F202236C742C71DC
:1012D0002C73AF60DFF880A0C5F800A07CA87CACC0
:1012E0000FF0F0F90FCC06F1140B5F460FC70FCCCF
:1012F0000FC720682979AA682B7B38603172F260A9
:10130000337411E72F232B8064AF0DF2DF142846CE
:101310001AF056FC235C2F2B02D00C4B1B882B524F
:101320000DF1AE0128461AF0E3F99DE72F232B803B
:1013300064AF0DF2DF1443E72F232B8064AF0DF26F
:10134000DF144BE72F232B802AE700BF881602000B
:10135000CC1FFF1F7816020000100200F8B50446EB
:10136000174650340022069E1D46FFF7BFFE394641
:1013700020460FF081FB324629462046BDE8F84062
:101380000FF002BA2DE9F0479A464B1CADF5986D67
:101390000446904600F09480436F99420D4600F257
:1013A000C180267D01EB81094FEA0919002E00F06A
:1013B0008E8004F11406494630460FF05DFB30463E
:1013C00069465022E9460FF0DFF950461AF0F8FB63
:1013D0003E2805D9002738460DF5986DBDE8F08701
:1013E000421C51460DF15E0013F0B6FA676F267D80
:1013F00014957B1C636700231593D9F8043016936A
:1014000001238DF85C808DF85D30002E00F07A812C
:1014100004F1140607EB8701090130460FF02CFB9D
:1014200014A9502230460FF029FC237DC9F804701E
:101430006BBB4FF47A7CDFF838E3CB4ACB498DF8AD
:10144000D0338DF8D1338DF8C4338DF8CC33F4A874
:1014500044F20223CDF8C8C3CDF8C0E30FF032F94F
:101460000DF5747EBEE80F00B446ACE80F00BEE890
:101470000F00ACE80F00DEF800009DF8C413F29AEC
:101480009DF8CC33CCF800002172E260237405EBA8
:101490008501090130460FF0EFFA494630465022E7
:1014A0000FF0ECFBB8F1000F43D1204644F20222CA
:1014B0003946FFF71BFE38460DF5986DBDE8F087FD
:1014C000267D4FF000094D46002E7FF472AFA84FE5
:1014D000A54AA649F0974FF47A7E44F20223F4A875
:1014E000F4AF8DF8D0638DF8D1638DF8C4638DF8B7
:1014F000CC63CDF8C8E30FF0E5F80FCF04F1140684
:10150000B646AEE80F000FCFAEE80F0038689DF882
:10151000C413F29A9DF8CC33CEF800002172E26039
:10152000237448E7684650220021E94619F05EFE20
:101530004BE7002F00F020813A4628A82146FFF70C
:1015400021FA289A002A00F030813CA82146FFF7B2
:1015500019FA3C9A002A00F0218150A82146FFF791
:1015600011FA509A002A00F0278164A82146FFF75B
:1015700009FA649A002A00F0268178A82146FFF72C
:1015800001FA789A002A00F025818CA82146FFF7FD
:10159000F9F98C9A002A00F02481A0A82146FFF7CF
:1015A000F1F9A09A002A00F02381B4A82146FFF7A0
:1015B000E9F9B49A002A00F02281C8A82146FFF771
:1015C000E1F9C89A002A00F02181DCAE21463046BC
:1015D000FFF7D8F93168F0AD002900F01E812046F0
:1015E0002A46FFF721FA28461AF0EAFA0DF2BF342C
:1015F000235C2F2B02D05F4B1B882B520DF27E31C8
:1016000028461AF075F828461AF0DAFA235C2F2BD0
:1016100002D0584B1B882B520DF22E3128461AF05F
:1016200067F828461AF0CCFA235C2F2B02D0514BD6
:101630001B882B520DF2DE2128461AF059F8284655
:101640001AF0BEFA235C2F2B02D04A4B1B882B5278
:101650000DF28E2128461AF04BF828461AF0B0FAFF
:10166000235C2F2B02D0434B1B882B520DF23E21C3
:1016700028461AF03DF828461AF0A2FA235C2F2BD0
:1016800002D03C4B1B882B520DF5F77128461AF0FF
:101690002FF828461AF094FA235C2F2B02D0354BF2
:1016A0001B882B520DF5CF7128461AF021F82846D9
:1016B0001AF086FA235C2F2B02D02E4B1B882B525C
:1016C0000DF5A77128461AF013F828461AF078FA93
:1016D000235C2F2B02D0274B1B882B520DF1FE01D0
:1016E00028461AF005F828461AF06AFA235C2F2BD0
:1016F00002D0204B1B882B520DF1AE01284619F069
:10170000F7FF3DE04FF47A7CDFF864E0164A1749B2
:101710008DF8D06344F20223F4A88DF8D1638DF8DC
:10172000C4638DF8CC63CDF8C8C3CDF8C0E30EF028
:10173000C9FF0DF5747EBEE80F0004F11406B4462F
:10174000ACE80F00BEE80F00ACE80F00DEF80000C8
:101750009DF8C413F29A9DF8CC33CCF800002172A6
:10176000E260237456E600BF78160200CC1FFF1F0C
:101770000010020088160200F0AD2F232B80DCAE93
:1017800000242A46304601232549347074700EF037
:101790003BFF38460DF5986DBDE8F087F0AD2F237F
:1017A0002B80DCAE0DF2BF348FE7F0AD2F232B8002
:1017B000DCAE0DF2BF3496E7F0AD2F232B80DCAE0C
:1017C0000DF2BF3473E7F0AD2F232B80DCAE0DF2AA
:1017D000BF345EE7F0AD2F232B80DCAE0DF2BF34BB
:1017E00049E7F0AD2F232B80DCAE0DF2BF3434E798
:1017F000F0AD2F232B80DCAE0DF2BF341FE7F0AD30
:101800002F232B80DCAE0DF2BF340AE7F0AD2F237F
:101810002B80DCAE0DF2BF34F5E62F232B80E2E601
:10182000CC1FFF1F2DE9F04F90F878400126C5B07E
:10183000054680F87960002C00F00E816B6F002B5C
:1018400000F007814FF00008474606E06B6F013754
:10185000BB4208F1500840F2FC80BB42F7D32C7D1C
:10186000002C00F0CC8005F11406414630460FF004
:1018700003F91CA9502230460EF086FF9DF87C30FB
:10188000002BE3D09DF87D40002CDFD12246394665
:101890002846FFF72BFC95F85030002BD6D0A246F7
:1018A00005F15009019758E0A2420CBF23460123DD
:1018B000019A08BF0D9C30928DF8CC304022002355
:1018C0000DF1CE0106A831948DF8CD30CDF8C8A029
:1018D0000FF0F4FA6C6F95F814E0631C6B67BEF1BF
:1018E000000F2BD14FF47A7C44F202237D4A7E49CB
:1018F0007E4F8DF84CE013A88DF84DE08DF840E058
:101900008DF848E0CDF844C00F970EF0DBFE0DF1E6
:101910004C0EBEE80F00B446ACE80F00BEE80F0066
:10192000ACE80F00DEF800009DF84010119A9DF819
:101930004830CCF800002972EA602B7404EB840173
:10194000090130460FF098F8502230A930460FF0C8
:1019500095F906A8A2460EF07DFD0024634B029384
:1019600022464FF47A7B494606A88DF818408DF838
:1019700019408DF80C408DF81440CDF810B00FF0E0
:1019800037F99DF8183003F07002002B8CD12C7DB4
:10199000019FCDF874A001238DF87D302CBB8DF80C
:1019A000D0408DF8D1408DF8C4408DF8CC404F4CDC
:1019B0004C4A4D49309444F2022334A834ACCDF85B
:1019C000C8B00EF07FFE0FCCB646AEE80F000FCCCD
:1019D000AEE80F0020689DF8C410329A9DF8CC3014
:1019E000CEF800002972EA602B74414630460FF0B1
:1019F00043F81CA9304650220FF040F926E78DF835
:101A0000D0408DF8D1408DF8C4408DF8CC40374C93
:101A1000344A354930944FF47A7644F2022334A89C
:101A200034AC32960EF04EFE0FCC05F11406B646DD
:101A3000AEE80F000FCCAEE80F0020689DF8C41090
:101A4000329A9DF8CC30CEF800002972EA602B74EF
:101A50000BE745B0BDE8F08F80F878602149224857
:101A60000EF0CAFF2F7D30942F23329431948DF8DD
:101A7000CC608DF8CD406E67ADF8CE305FB105F12A
:101A80001407002138460EF0F7FF3846502230A9DF
:101A90000FF0F4F8D2E6154C124A13491C944FF497
:101AA0007A7644F2022320A820AC8DF880708DF85D
:101AB00081708DF874708DF87C701E960EF002FEA9
:101AC0000FCC05F114073E460FC60FCC0FC6206899
:101AD0009DF874101E9A9DF87C3030602972EA607F
:101AE0002B74CEE778160200CC1FFF1F00100200F7
:101AF000436F994200F2CC802DE9F04F057DC3B0D1
:101B00000F460446002D00F09A8000F1140907EBFF
:101B10008701090148460EF0AFFF1AA95022484636
:101B20000EF032FE9DF8743013B19DF8755015B16A
:101B300043B0BDE8F08F2A4639462046FFF7D6FA73
:101B400094F85030002BF3D0DFF850A1A84604F1F0
:101B5000500B50E0002A14BF012300238DF8C4303D
:101B60004FF0400208BF0B9B309518BF00230DF1CA
:101B7000C60104A82F932E978DF8C5800FF09EF90B
:101B8000656F267D6B1C63673EBB4FF47A7E44F223
:101B90000223404A40498DF844608DF845608DF835
:101BA00038608DF8406011A811AECDF83CE0CDF85A
:101BB00034A00EF087FD0FCECE46AEE80F000FCE5C
:101BC000AEE80F0030689DF838100F9A9DF840304D
:101BD000CEF800002172E260237405EB8501090153
:101BE00048460EF049FF50222EA948460FF046F80D
:101BF00004A80EF02FFC4FF47A730022594604A873
:101C000002938DF810808DF811808DF804808DF886
:101C10000C80CDF800A00EF0EBFF9DF8103003F023
:101C20007002002B96D101231AAA394620461B9533
:101C30008DF87530FEF760FE43B0BDE8F08F4FF4CD
:101C40007A76144A14498DF8C85044F202238DF86C
:101C5000C9508DF8BC508DF8C45032A8DFF83CA0B4
:101C6000309632ADCDF8B8A00EF02CFD0FCD04F1BA
:101C700014094E460FC60FCD0FC628689DF8BC103C
:101C8000309A9DF8C43030602172E26023743EE7E0
:101C9000704700BF78160200CC1FFF1F0010020023
:101CA000F0B590F87860A3B004460D466EB30DB35E
:101CB0006B1C4DD029462046FFF71AFF636F0122A7
:101CC0009D4284F8802000F2A780267D05EB8505E3
:101CD0002D01002E47D004F11406294630460EF09F
:101CE000CBFE304650220EA90EF04EFD0F9BE3674F
:101CF00023B0F0BD94F87930002B5FD0002201238F
:101D000084F88020E36723B0F0BD012780F8787065
:101D1000434944480EF070FE94F814E08DF8447086
:101D20002F2367670E9610960F968DF84560ADF8D5
:101D30004630BEF1000F45D004F1140600213046B4
:101D40000EF09AFE304650220EA90EF097FFAEE735
:101D500000212046FFF7CCFE267D012384F8803049
:101D60000025002EB7D1304F2D4A2E490E974FF443
:101D70007A7E44F2022312A812AF8DF848608DF8E3
:101D800049608DF83C608DF84460CDF840E00EF07D
:101D900099FC0FCF04F11406B646AEE80F000FCF42
:101DA000AEE80F0038689DF83C10109A9DF844305A
:101DB000CEF800002172E26023748EE72046FFF720
:101DC00031FD9BE74FF47A77174E154A1549039773
:101DD00044F2022305A805AF8DF814E08DF815E054
:101DE0008DF808E08DF810E001960EF06BFC0FCF37
:101DF00004F11406B646AEE80F000FCFAEE80F00B0
:101E000038689DF80810039A9DF81030CEF800004D
:101E10002172E260237491E70023E36723B0F0BDF1
:101E200078160200CC1FFF1F001002002DE9F041C0
:101E30000B7882B00446002B4BD008460E4619F0B2
:101E4000BFFE257A01308DF80200002D50D0E368E6
:101E50000133E3603278002A36D0002705E0E368DA
:101E60000233E36016F8012F4AB3ADF80620002DC7
:101E7000F5D1606820B915F081F860600028FAD0CB
:101E800030F8083BC5F10202C3F140089045A8BFF5
:101E9000904618440DF106035919424612F05CFDB4
:101EA00061680B8843449BB2402B45440B801AD099
:101EB000012DDEDD16F8012F257A002AD5D1002369
:101EC000ADF804303DB3E3680233E36002B0BDE82F
:101ED000F081027A8DF80330AAB1C3680133C36080
:101EE00002B0BDE8F081042014F0AAFA6760DFE7D1
:101EF00001220DF102012046FEF71CFB3278257A03
:101F0000002AAAD1DBE701220DF10301FEF712FB43
:101F100002B0BDE8F0812E46606820B915F02EF8B9
:101F200060600028FAD030F8083BC5F10202C3F126
:101F300040079742A8BF1746184401AB59193A46C3
:101F400012F00AFD61680B883B449BB2402B3D4474
:101F50000B8004D0012DDFDD02B0BDE8F08104204C
:101F600014F06EFA6660F5E730B5037A91B0642537
:101F70000446ADF82650002B00F0A680C368062268
:101F80000233C3600F9204336422E360ADF824206F
:101F90000233E3605A492046FFF748FF237A0022C4
:101FA000ADF82220002B00F0B580E3680E2202334A
:101FB000E3600E92043341F20102E360ADF82020A9
:101FC000023341F20202E360ADF81E20023341F217
:101FD0000302E360ADF81C20023341F20402E36027
:101FE000ADF81A20023341F20502E360ADF8182083
:101FF000023341F20602E360ADF81620023341F2EB
:102000000702E360ADF81420023341F20802E360F6
:10201000ADF81220023341F20902E360ADF810205E
:10202000023341F20B02E360ADF80E20023341F2BD
:102030000C02E360ADF80C20023341F20D02E360C4
:10204000ADF80A20023341F21402E360ADF8082033
:10205000023341F21502E360ADF80620023300229C
:10206000E3600D9204330122E3600C9204334DF2DD
:102070000242E360ADF8042002330022E3600B92D9
:1020800004330222E3600A9204334FF44052E360C7
:10209000ADF80220023343F20102E360ADF8002004
:1020A0000233E36020461749FFF7C0FE2046164979
:1020B000FFF7BCFE20461549FFF7B8FE204614493D
:1020C000FFF7B4FE11B030BD02220DF12601FEF77C
:1020D00031FA237A06220F92002B40F03581042238
:1020E0000FA92046FEF726FA237AADF82450002BDC
:1020F00040F02C81022209A92046FEF71BFA49E78D
:102100008C160200A0160200A8160200B0160200EB
:10211000B416020002220DF122012046FEF70AFA4F
:10212000237A0E220E92002B40F0128104220EA977
:102130002046FEF7FFF9237A41F20102ADF8202094
:10214000002B40F00781022208A92046FEF7F2F991
:10215000237A41F20202ADF81E20002B40F0FC80F1
:1021600002220DF11E012046FEF7E4F9237A41F226
:102170000302ADF81C20002B40F0F080022207A9DA
:102180002046FEF7D7F9237A41F20402ADF81A206F
:10219000002B40F0E58002220DF11A012046FEF7E7
:1021A000C9F9237A41F20502ADF81820002B40F05E
:1021B000D980022206A92046FEF7BCF9237A41F213
:1021C0000602ADF81620002B40F0CE8002220DF161
:1021D00016012046FEF7AEF9237A41F20702ADF868
:1021E0001420002B40F0C280022205A92046FEF7F1
:1021F000A1F9237A41F20802ADF81220002B40F039
:10220000B78002220DF112012046FEF793F9237ADE
:1022100041F20902ADF81020002B40F0AB80022201
:1022200004A92046FEF786F9237A41F20B02ADF8A5
:102230000E20002B40F0A08002220DF10E0120465E
:10224000FEF778F9237A41F20C02ADF80C20002B4E
:1022500040F09480022203A92046FEF76BF9237A0E
:1022600041F20D02ADF80A20002B40F089800222D5
:102270000DF10A012046FEF75DF9237A41F21402BE
:10228000ADF80820002B7DD1022202A92046FEF7DE
:1022900051F9257A41F21503ADF80630002D73D1BE
:1022A00002220DF106012046FEF744F9237A0D952E
:1022B000002B6BD104220DA92046FEF73BF9237AAF
:1022C00001220C92002B63D104220CA92046FEF7B8
:1022D00031F9257A4DF20243ADF80430002D59D181
:1022E000022201A92046FEF725F9237A0B95002B3F
:1022F00052D104220BA92046FEF71CF9237A0225AD
:102300000A95002B4AD104220AA92046FEF712F9A9
:10231000237A4FF44052ADF802209BB92A460DF1C2
:1023200002012046FEF706F9237A43F20102ADF8D6
:1023300000202BB92A4669462046FEF7FBF8B1E695
:10234000E368ADE6E368A5E6E3681CE6E3681FE63C
:10235000E3682FE6E36833E6E36837E6E3683BE6E5
:10236000E3683FE6E36843E6E36847E6E3684BE695
:10237000E3684FE6E36853E6E36857E6E3685BE645
:10238000E3685FE6E36863E6E36867E6E36869E6F7
:10239000E3686BE6E3686FE6E36871E6E36873E6BB
:1023A00030B504460068514A03681B68934289B0FF
:1023B00040F08F800422237AADF80620002B54D001
:1023C000E3680233E3602068494A03685B6893422C
:1023D0007AD10223257AADF80A30002D62D0E36865
:1023E00000220233E360ADF808200233E360206886
:1023F000404A03689B68934264D13F4BD8691A797D
:10240000431E5002A3FB0001237ACDE90601002BF5
:1024100042D0E3680833E3602068384A0368DB6829
:1024200093425CD1344D28460FF01AFB2A795502AD
:10243000C117A5FB002305FB013310461946237A7B
:1024400004900591C3B1E3684FF0FF320833E360B5
:1024500003920433E36020462949FFF7E7FC204656
:102460002849FFF7E3FC09B030BD02220DF1060157
:102470002046FEF75FF8A6E7082204A92046FEF7EB
:1024800059F8237A4FF0FF32039253BB042203A979
:102490002046FEF74FF8DEE7082206A92046FEF7A1
:1024A00049F8B9E702220DF10A012046FEF742F889
:1024B000237AADF80850B3B9022202A92046FEF7EC
:1024C00039F894E798479FE79847002881D101237E
:1024D00080E79847012200287FF46DAF6AE79847AC
:1024E000ADE7E368B5E7E3687FE700BF910400006C
:1024F0009504000099040000901BFF1F11050000C7
:10250000B8160200942702002DE9F04F037AA5B017
:1025100004460092002B00F0D68000230293DFF8DF
:10252000A492A54B0193E3680433E3602568019A04
:102530002B681B69934240F0698195F87860002E02
:1025400000F04481009A1346002A35D195F879307D
:10255000002B00F006820022012385F88020EB6723
:10256000DFF8648225682B685B694B454ED1EE6FBE
:10257000FEB10DF1400B6B6F9E4276D82F7D002F80
:1025800048D005F1140A06EB8601090150460EF009
:1025900073FA5046502259460EF0F6F89DF84E0058
:1025A00095F88020DAB1129BEB6708BBEE6F002E26
:1025B000E1D125B0BDE8F08F013208BF00231946F4
:1025C00028461E46FFF794FA012385F880303246EC
:1025D000294610A8FEF7D6F9119BEB67C0E7EB6F11
:1025E000696F01338B42EB6728BFEA670028DDD0B3
:1025F000002EDED0257A0396002D3DD0E3682568B5
:102600000433E3602B685B694B45B0D0284698479C
:102610000646EDE74FF47A7E44F20223674A6849A2
:102620008DF850708DF851708DF844708DF84C70A5
:1026300014A814AFCDF848E0CDF840800EF042F871
:102640000FCF05F1140AD646AEE80F000FCFAEE863
:102650000F003B68CEF800309DF844302B72129B7F
:10266000EB609DF84C302B748DE7502200215846CA
:1026700018F0BCFD002093E72E46606820B914F0E6
:102680007DFC60600028FAD030F8083BC5F10402F8
:10269000C3F140079742A8BF1746184403AB591926
:1026A0003A4612F059F961680B883B449BB2402BC3
:1026B0003D440B8002D0032DDFDD53E7042013F0EF
:1026C000BFFE6660F7E73C4B056801931A462B682E
:1026D0001B69934240F0498195F87860002E00F024
:1026E000D480009A002A40F0958095F87930002B2C
:1026F00000F03F810022012385F88020EB672568E8
:10270000DFF8C0902B68DFF8C0A05B694B454FF045
:10271000000B40F0E780EE6F2EB30DF140086B6FB9
:10272000B342C0F012812F7D002F00F0DF8005F151
:10273000140706EB8601090138460EF09DF938466C
:10274000502241460EF020F89DF84E0095F880206A
:10275000002A00F0B280129BEB67002840F0B7809F
:10276000EE6F002EDBD1257ACDF808B0002D7FF476
:10277000DAAE2E46606820B914F000FC60600028D4
:10278000FAD030F8083BC5F10402C3F14007974284
:10279000A8BF1746184402AB59193A4612F0DCF8A4
:1027A00061680B883B449BB2402B3D440B8000F09A
:1027B000D380032DDEDDB9E6A11C000078160200EF
:1027C000CC1FFF1F9505000000100200012785F8AF
:1027D00078706A496A480EF00FF92F238DF84C7013
:1027E0001096129611968DF84D60ADF84E302E7DF4
:1027F0006F6716B305F11408002140460EF03CF94E
:102800004046502210A90EF039FA9BE6009928465E
:102810009847A5E6511C14BF1646002631462846A7
:10282000FFF766F9012385F880303246294610A863
:10283000FEF7A8F8119BEB6761E74FF47A7E514FE2
:102840004E4A4F498DF81C6044F202238DF81D60FA
:102850008DF810608DF8186007A807AE0397CDF8C3
:1028600014E00DF02FFF0FCE05F1140847460FC7F7
:102870000FCE0FC733683B609DF810302B72059B5D
:10288000EB609DF818302B74B6E7012785F8787057
:102890003A493B480EF0B0F82F238DF84C70109653
:1028A000129611968DF84D60ADF84E30314610AA53
:1028B0006F672846FEF720F813E7EB6F696F013367
:1028C0008B42EB6728BFEA6700283FF449AF002E30
:1028D0003FF449AF25682B685B694B450BF1010B51
:1028E0003FF419AF284698470646F0E74FF47A7E42
:1028F00044F20223214A22498DF8507014A88DF821
:1029000051708DF844708DF84C70CDF848E0CDF8DA
:1029100040A00DF0D7FE0DF1500EBEE80F0005F1FE
:102920001407BC46ACE80F00BEE80F00ACE80F008F
:10293000DEF80030CCF800309DF844302B72129B4A
:10294000EB609DF84C302B74F3E65022002140469A
:1029500018F04CFC0020F9E6042013F071FD6660CD
:1029600027E72846FEF75EFFF5E5284600999847D9
:10297000C5E62846FEF756FFBCE600BF7816020003
:10298000CC1FFF1F001002002DE9F0430446006831
:10299000AA4B026895699D42E5B040F0228110ADD6
:1029A0000A4624AF01462846FDF7ECFF38460DF1F4
:1029B0004E0119F093F80DF114082B7B2A68C8F822
:1029C0000020002B63D16B68049304AE237A0122AC
:1029D0000692002B5ED0E368326804330132E36074
:1029E00000F00A810022ADF80C2002330022E360DF
:1029F000ADF80A2002333268E3600E9204330022FD
:102A0000E360ADF8082002330022E3600D92043346
:102A10000022E3600C9204330022E3600B92043343
:102A20000022E3600A9204330022E3600992043337
:102A30000022E36008920433D8F80020E360079294
:102A40003268A2F1FF32B2FA82F252090433E36033
:102A5000ADF80E2002330022E3602A600433002226
:102A6000E3600F920433E36039462046FFF7DEF956
:102A700020467349FFF7DAF920467149FFF7D6F986
:102A800020466F49FFF7D2F965B0BDE8F0834FF0FB
:102A9000FF3399E706A904222046FDF74BFD336872
:102AA00094F80890013343F2010318BF0023ADF8F6
:102AB0000C30B9F1000F40F0A88003A90222204693
:102AC000FDF738FD237AADF80A90002B40F09F8087
:102AD00002220DF10A012046FDF72CFD237A32680F
:102AE0000E92002B40F095800EA904222046FDF79F
:102AF00021FD237AADF80890002B40F08C8002A9CC
:102B000002222046FDF716FD237ACDF83490002BE3
:102B100040F083800DA904222046FDF70BFD237AA7
:102B2000CDF83090002B7AD10CA904222046FDF775
:102B300001FD237ACDF82C90002B72D10BA9042231
:102B40002046FDF7F7FC237ACDF82890002B6AD1B8
:102B50000AA904222046FDF7EDFC237ACDF8249043
:102B6000002B62D109A904222046FDF7E3FC237A59
:102B7000CDF82090002B5AD1042208A92046FDF759
:102B8000D9FC237AD8F800200792002B51D107A94D
:102B900004222046FDF7CEFC336894F80880A3F1A8
:102BA000FF33B3FA83F35B09ADF80E30B8F1000FD1
:102BB00041D10DF10E0102222046FDF7BBFC267A21
:102BC000C5F80080FEB9294604222046FDF7B2FC74
:102BD000237A0F96ABB90FA904222046FDF7AAFC71
:102BE00042E704AE24AF0DF1140833463A46CDF85F
:102BF0000080A84710ADE9E643F20102ADF80C20D1
:102C0000F3E6E3682EE7E36828E7E368EDE6E368C8
:102C1000F0E6E368F2E6E368F5E6E368F7E6E36822
:102C2000F9E6E368FBE6E368FDE6E368FFE6E368F0
:102C300001E7E36804E7E3680CE700BFF90600007A
:102C400094270200002A31D02DE9F04104460F46B6
:102C500016464FF00008606828B9042013F048FBBE
:102C600060600028F9D0418805886D1AB54228BFF8
:102C7000354637B1083001442A46384611F06CFE1B
:102C80002F446068438802882B449BB29A42A6EB8B
:102C90000506438003D0002EDDD1BDE8F08114F09D
:102CA0008DF9C4F80480002ED5D1F6E7704700BF37
:102CB0002DE9F04385B0904606460F46684611461A
:102CC0000A2299460C9C0D9D11F0E8FC694650487B
:102CD00011F036FD684611F06FFCB8F1090F40F3B2
:102CE00086800A223946684611F0D8FC6946494870
:102CF00011F026FD684611F05FFC092F67DD0A22FE
:102D00003146684611F0CAFC6946434811F018FD87
:102D1000684611F051FC092E49DD0A222946684611
:102D200011F0BCFC69463D4811F00AFD684611F0FF
:102D300043FC092D2BDD0A222146684611F0AEFC2A
:102D40006946374811F0FCFC684611F035FC092C47
:102D50000EDC3449684611F06FFC3149684611F0C9
:102D60002FFD01462E4811F0E3FC684611F024FCCB
:102D70000A224946684611F091FC69462A4811F03A
:102D8000DFFC684611F018FC05B0BDE8F08325496A
:102D9000684611F051FC2149684611F011FD0146C9
:102DA0001E4811F0C5FC684611F006FCC3E71D493A
:102DB000684611F041FC1849684611F001FD0146D2
:102DC000154811F0B5FC684611F0F6FBA5E715496A
:102DD000684611F031FC0F49684611F0F1FC0146DC
:102DE0000C4811F0A5FC684611F0E6FB87E70D4999
:102DF000684611F021FC0649684611F0E1FC0146E5
:102E0000034811F095FC684611F0D6FB69E700BF56
:102E10001C28FF1F5819FF1F2819FF1F4C1AFF1FDE
:102E2000EC19FF1FC0160200F027FF1F2DE9F04329
:102E300083B00CF035FADFF86490DFF86480C9F8ED
:102E400000000CF01DFAC8F800000CF009FA0F4F52
:102E50000F4E38600CF034FA30600CF041FA0D4D32
:102E600028600CF04DFA2B6836680B4DD9F800201D
:102E7000D8F80010044638688DE8480023462C60D6
:102E8000FFF716FF03B0BDE8F08300BF7C19FF1FFA
:102E90007419FF1F7819FF1F9027FF1F6828FF1F55
:102EA0006C19FF1F70B5FA208AB012F0AFFABD4B53
:102EB000BD49BE4800241C600BF0A8FD4FF6E07130
:102EC000BA480AF0E5FE2146B8480AF0F7FE0A23A0
:102ED00042F20E72B649B5480094AA250BF01CFCCC
:102EE00045F27131B1480AF0D3FE009596232822AD
:102EF0000A21AE480AF060FF4FF4A07629460095FB
:102F00004FF49B732822A9480AF056FFE623BE22FD
:102F10005A21A64800960AF04FFF4FF6FF71A348CA
:102F20000AF0B6FE0095962328220A219F480BF04E
:102F300059F8294600954FF49B7328229B480BF0C3
:102F400051F8E623BE225A21984800960BF04AF821
:102F5000A9254BF6F75195480AF09AFE009595235E
:102F600029220B2191480BF03DF8009540F23513D2
:102F70002922AB218D480BF035F840F23F13BF22D8
:102F800000935B21E52389480BF02CF84FF6FF7185
:102F900086480AF07DFE45F2713184480AF08EFEC3
:102FA0003C2310228349814800940BF0B5FB5A233F
:102FB000282281497D4800940BF0AEFB3C23D022AF
:102FC0007E497A4800940BF0A7FB5A23B8227C492B
:102FD000764800940BF0A0FB7823B022794973481F
:102FE00000940BF099FBD223802277496F4800941C
:102FF0000BF092FBF02360226E496C4800940BF0BA
:103000008BFB214669480AF059FE704B1D78002D54
:1030100058D14FF4784165480AF03AFE40F259130E
:103020000A226B49614800950BF076FB0CF09CF985
:10303000022858D04FF478415C480AF029FE00235A
:1030400000930A224FF4B973624958480BF064FBAD
:1030500002AC06AD40F2BD1200924FF49B730A2100
:1030600052480BF0B9F85C4950480BF0CFFC5B4973
:10307000204611F0E1FA5A49204611F0A1FB002642
:103080000146284611F0ECFA29464FF4E17342F26A
:103090000E72009645480BF0A9FB284611F08CFAF9
:1030A000204611F089FA40F2D11342F20E720096D6
:1030B0004C493E480BF030FB3B493C480BF0A6FC2A
:1030C0000AB070BD4FF4FC6138480AF0E1FD40F2EF
:1030D00059130A224449354800940BF01DFB0CF0AB
:1030E00043F90228A6D1FFF7A1FE002640F2FF71A6
:1030F0002E480AF0CDFD4FF4B9730A2200963B49E1
:103100002A480BF009FB02AC4FF6FF7127480AF082
:10311000BFFD2046364911F0A3FA2046354911F08B
:1031200057FB354911F04CFB324911F051FB334943
:1031300011F046FB06AD0146284611F091FA4FF416
:10314000C3730A222946009618480BF04FFB284605
:1031500011F032FA204611F02FFA2046284911F0DA
:103160007FFA2046274911F033FB274911F028FB4D
:10317000244911F02DFB254911F022FB0146284678
:1031800011F06EFA29464FF4CD730A2200960748D3
:103190000BF02CFB284611F00FFA204611F00CFA28
:1031A00058E700BF1828FF1F50330200001AFF1F06
:1031B000C4160200D4160200E0160200E81602004F
:1031C000F0160200F8160200041702008C1BFF1F05
:1031D0000C1702002C170200D82E02005417020010
:1031E000D819FF1F701702002017020040170200B5
:1031F000F027FF1F50170200EC19FF1F4C1AFF1F8A
:103200002819FF1FB02602005819FF1F1C28FF1F96
:103210002DE9F0438FB006A8002111F00DFA03AF9D
:10322000DFF86480C7F18005C7F1E0090DF11606EB
:103230003C46281911F040FB04F8010BB442F8D1C8
:1032400039460AA811F0F8F90AA906A811F078FA87
:103250000AA811F0B1F900230922694606A811F065
:10326000C5FA10220021684619F09EFE203548F864
:10327000040B052012F0CAF84D45D9D106A811F06B
:103280009BF90FB0BDE8F0839424FF1F2DE9F04FA8
:10329000064683B0544800270BF0D0FDE8B9002F54
:1032A000F8D045F2713151480AF008FD00244FF67C
:1032B000FF714E480AF0ECFC4FF4D873E9224C49F8
:1032C0004A4800940BF028FA484821460AF0F6FCD8
:1032D00045480BF0B3FD0028E1D043480BF0D0FC8B
:1032E00041480BF0C1FD81463F480BF0FFFD002E29
:1032F000804630DDA9F10A04701C5A220123282CD3
:10330000A2F1280105D8884503DB9045DCBF1D46A6
:1033100001270133834202F13202F0D14FF0580B02
:103320004FF0340A0124A5424FF000012F4808BF96
:103330004FF4FC610AF0ACFC0134CDF800B0524609
:1033400030230C2129480AF037FDA6420AF1320A3F
:103350000BF1320BE7DAA9F1F009B9F1460F9ED86B
:10336000A8F5D278B8F1320F99D8002F92D045F253
:1033700071311E480AF0A2FC00244FF6FF711B4871
:103380000AF086FC4FF4D873E922009418491748D4
:103390000BF0C2F9214615480AF090FC214613486B
:1033A0000AF076FC40F2991300931E224FF49B73AF
:1033B0000A210E480AF074FE45F271310B480AF0FA
:1033C00067FC4FF4EA7300934FF4CE724FF49A7394
:1033D000DE2106480AF0F0FC4FF4FA7012F016F8FD
:1033E000284603B0BDE8F08FA827FF1F001AFF1F73
:1033F00088170200002A12DDF8B50546002017469E
:103400000E460446315D2844013411F06FFAE4B2EF
:103410000A2011F0FBFFBC422046F3DBF8BD7047E9
:10342000F0B5002A8BB018DD0E46920002A906EB1B
:10343000020E0F4656F8044B019401AB3C4613F8BC
:10344000015B04F8015B8B42F9D1764507F1040773
:10345000F0D1FFF7CFFF0BB0F0BD920002A9F8E763
:10346000F0B5A74C0FCCB7B01EAD0FC50FCC0FC534
:1034700094E80F0004F1100685E80F000FCE2AAD86
:103480000FC50FCE0FC596E80F00403485E80F003A
:103490000FCC16AD0FC594E80F0000270024059748
:1034A000069785E80F0097488DF810408DF8114079
:1034B0000AF084FB94499348944E0BF0A7FA4FF618
:1034C000E07190480AF0E4FB462342F20E72904904
:1034D0008C4800940BF020F921460AA811F0ACF8B2
:1034E000334606F10C000EAA13F8011B02F8011B6B
:1034F0009842F9D10C220EA92020FFF77BFF07ADDF
:103500002024204611F0D8F901342C2C05F8010BA9
:10351000F7D107A90EA811F08FF80EA90AA811F08B
:103520000FF90EA811F048F800230C2207A90AA8E9
:1035300011F05CF9754907A818F066F90546642092
:1035400011F064FF734B0EAA581D13F8011B02F80B
:10355000011B9842F9D105220EA90020FFF74AFF6E
:10356000642011F053FF1EAF4FF400743A68D7F88F
:1035700004E0BB680E922046203403220EA9A4B2B8
:10358000CDF83CE01093FFF74BFFB4F5207F07F137
:103590000C07EBD16420002411F038FF04220EA99F
:1035A0004FF440700E940F9410941194FFF738FF6D
:1035B00004220EA94FF448700E940F9410941194A5
:1035C000FFF72EFF642011F021FF2AAF4FF4806433
:1035D0003A68D7F804E0BB680E92204620340322F4
:1035E0000EA9A4B2CDF83CE01093FFF719FFB4F593
:1035F000906F07F10C07EBD1642011F007FF73798E
:10360000302B0CD000234FF4C06003220EA90E9380
:103610000F931093FFF704FF642011F0F7FEF37A85
:10362000302B08D04FF40060012205A9FFF7F8FE07
:10363000642011F0EBFE012206A94FF40660FFF7AB
:10364000EFFE642011F0E2FE16AE4FF4E064326843
:1036500073680E922046203402220EA9A4B20F9362
:10366000FFF7DEFEB4F5F06F06F10806EFD136ACD9
:103670000126022204A94FF42060FFF7BBFE04F8E4
:10368000CC6D324621464FF41060FFF7B3FE324650
:10369000214640F60110FFF7ADFE3246214640F6C6
:1036A0000510FFF7A7FE324621464FF41160FFF7E1
:1036B000A1FEADB94FF4784112480AF0E9FA00953D
:1036C000462342F20E7214490E480BF025F840F6DC
:1036D000B83011F09BFE0AA810F06EFF37B0F0BDB5
:1036E0004FF4FC6107480AF0D3FA0023009342F23A
:1036F0000E724623094903480BF00EF8E7E700BFB6
:1037000058100200001AFF1F50330200440CFF1F24
:1037100090170200580CFF1FB01702009C17020000
:103720002DE9F04FC94883B00AF048FA4FF4FA7017
:1037300011F06CFEC649C54800240BF067F94FF63E
:10374000E071C2480AF0A4FA234642F20E720094D5
:10375000C049BE480AF0E0FF4FF4EB7545F2713105
:10376000BA480AF095FA4FF49B734FF4CD72DC21FE
:10377000B64800950AF020FB4FF6FF71B3480AF0F7
:1037800087FA4FF49B734FF4CD72DC21AF4800955C
:103790000AF028FC4BF6F751AC480AF079FA40F2EF
:1037A000D51340F29B120093DD2140F23513A74858
:1037B0000AF018FC40F2FF71A4480AF069FA1E23CF
:1037C0000A220094A449A1480AF0A6FF4FF6FF710F
:1037D0009E480AF05DFA00943E233C229F499B4894
:1037E0000AF09AFF009470233C229D4997480AF002
:1037F00093FF0094A2233C229A4994480AF08CFF3C
:103800004FF6FF7191480AF043FA322404F128037D
:10381000224600930A2132238C480AF0E3FB04F18C
:1038200027030093621C31230B21323487480AF0AE
:10383000D9FBC82CEAD10320FFF728FD02288A4CC7
:1038400000F0AD83032800F0A683012800F00F8369
:103850000025002640F2FF717C480AF019FA1E2369
:103860000A220096814979480AF056FF4FF6FF7107
:1038700076480AF00DFA3E233C2200967C497348B4
:103880000AF04AFF7B4971480BF0C0F83E23CC2276
:10389000009679496D480AF03FFF6D496B480BF07F
:1038A000B5F8009670233C22744968480AF034FF4A
:1038B0000096A2233C22724964480AF02DFF4FF67D
:1038C000FF7162480AF0E4F9322606F12803324615
:1038D00000930A2132235D480AF084FB06F1270396
:1038E0000093721C31230B21323658480AF07AFBC0
:1038F000C82EEAD10320FFF7C9FC022800F0458357
:10390000032800F04583012801D13123E37000260C
:1039100040F2FF714D480AF0BBF91E230A220096BF
:1039200058494A480AF0F8FE4FF6FF7147480AF036
:10393000AFF900963E233C22534944480AF0ECFE7E
:1039400070233C220096514940480AF0E5FE4FF6AC
:10395000FF713E480AF09CF94FF05A0A32231A468A
:103960000A213A48CDF800A04FF059090AF03AFB75
:103970004FF08C08312333220B213448CDF80090CE
:103980000AF030FB8B27322364220A212F48CDF81E
:1039900000800AF027FB312365220B212B4800977A
:1039A0000AF020FB0220FFF771FC0128064600F018
:1039B0006982022806D14FF0310B84F804B0002D43
:1039C00000F00682002540F2FF7120480AF060F9FD
:1039D0001E230A222E491D4800950AF09DFE4FF62F
:1039E000FF711A480AF054F93E233C22294917482E
:1039F00000950AF091FE70233C2227491348009558
:103A00000AF08AFE4FF6FF7110480AF041F932239E
:103A10005A2200920A211A460C480AF0E3FA592366
:103A20000093332231230B2108480AF0DBFA8C2360
:103A30000093642232230A2104480AF0D3FA8B232C
:103A40000093652231230B2128E000BF001AFF1FDD
:103A500050330200BC170200CC170200DC17020032
:103A6000C41A0200E8170200440CFF1FF0170200FE
:103A7000FC170200D82E02000818020014180200D9
:103A8000201802002418020038180200481802000A
:103A9000501802006018020068180200B7480AF0C7
:103AA000A1FA0220FFF7F2FB012800F0E8810228CA
:103AB00001D13223A371002540F2FF71AF480AF013
:103AC000E7F81E230A22AE49AC4800950AF024FE0E
:103AD0004FF6FF71A9480AF0DBF83E233C22A949C2
:103AE000A64800950AF018FE70233C22A649A34878
:103AF00000950AF011FE4FF6FF71A0480AF0C8F8D1
:103B000032235A2200920A211A469C480AF06AFA85
:103B100059230093332231230B2198480AF062FA8B
:103B20008C230093642232230A2194480AF05AFA23
:103B30008B230093652231230B2190480AF052FA1F
:103B40000220FFF7A3FB012800F09681022801D193
:103B50003123E3718D4B8E4A19688E4800230CF097
:103B6000B1FD8D4B05461870002840F097818948BB
:103B70000CF070FC294681480AF08AF840F2DF1305
:103B800000931E224FF49B730A217C480AF088FAA6
:103B9000422731232D22302640F2FF7177482770CB
:103BA000A37023726672A2720AF072F8462342F280
:103BB0000E720095794971480AF0AEFD4FF6FF711B
:103BC0006E480AF065F80095642342F20E7274495B
:103BD0006A480AF0A1FD4FF0DC0A4FF0CD094FF022
:103BE000BE08AA279B268C2500246E4963480AF04C
:103BF0000DFF2B460A226C49604800940AF08CFDA8
:103C000033460A2269495D4800940AF085FD3B4627
:103C10000A226749594800940AF07EFD43460A2269
:103C20006449564800940AF077FD4B460A226249DF
:103C3000524800940AF070FD53460A225F494F48EB
:103C400000940AF069FD5E494C480AF0DFFE4FF42B
:103C5000EB7545F2713149480AF01AF84FF49B733D
:103C60004FF4C3720095AA2144480AF0A5F84FF416
:103C7000484142480AF00CF896234FF4C37200956D
:103C80000A213E480AF098F84FF6FF713B4809F0C8
:103C9000FFFF00954FF49B734FF4C372AA2137487E
:103CA0000AF0A0F996234FF4C37200950A21334815
:103CB0000AF098F940F2D5154BF6F7512F4809F064
:103CC000E7FF40F2351340F28712AB212B480095F5
:103CD0000AF088F9952340F287120B2127480095B6
:103CE0000AF080F94FF6FF71244809F0D1FF45F240
:103CF0007131224809F0E2FF4FF4D373D0223149E9
:103D00001E4800940AF008FD4FF448411B4809F092
:103D1000D5FF2D49194800944FF4D37320220AF09F
:103D2000FBFC2146154809F0C9FF28480BF086F82E
:103D30000028FAD025480AF0A3FF24480BF094F895
:103D4000044622480BF0D2F8A0F59B70A028A4F1FD
:103D50000A03EAD88C2BA4F1AA0403D98C2CE4D84A
:103D6000FFF77EFB054809F029FFC82011F04EFB44
:103D700003B0BDE8F04FFFF795B800BF001AFF1F72
:103D8000701802008018020088180200DC28FF1F4B
:103D9000941802004028FF1F481AFF1FAC180200A9
:103DA000440CFF1FD82E0200CC180200F4180200A9
:103DB0001C1902003C190200641902008C1902004F
:103DC00050330200A8190200B0190200A827FF1FF3
:103DD00040F2FF71744809F05BFF1E230A22734909
:103DE000714800950AF098FC4FF6FF716E4809F093
:103DF0004FFF3E233C226E496B4800950AF08CFC35
:103E000070233C226B49684800950AF085FC4FF608
:103E1000FF71654809F03CFF32231A460A216248C7
:103E2000CDF800A00AF0DEF85B4633220B215E4895
:103E3000CDF800900AF0D6F8322364220A215A48BD
:103E4000CDF800800AF0CEF85B4665220B2156487B
:103E500000970AF0C7F83046FFF718FA012819D082
:103E600002287FF4AFAD544B83F805B0AAE53023A8
:103E70000546E3726371ECE43023E3716AE63123B3
:103E8000A37118E6312323714B4A002D7FF49AADBC
:103E9000537197E5484A3023537193E50023062276
:103EA0004649474800250CF037FD40F2FF713E4877
:103EB00009F0EEFE3C230A22009542493A480AF0F6
:103EC0002BFC4FF6FF71384809F0E2FE5A230A2214
:103ED0003A49009534480AF01FFC39480CF0BAFA08
:103EE0002946314809F0D4FE40F2DF1300931E2228
:103EF0004FF49B730A212C480AF0D2F84227312351
:103F00002D22302640F2FF7127482770A3702372BC
:103F10006672A27209F0BCFE462342F20E72009550
:103F2000294921480AF0F8FB4FF6FF711E4809F0B5
:103F3000AFFE642342F20E7200951F491A480AF040
:103F4000EBFB40F2FF71184809F0A2FE8C2342F20D
:103F50000E7200951D4914480AF0DEFB4FF6FF7102
:103F6000114809F095FE0095AA2342F20E721349FA
:103F70000D480AF0D1FB4FF4917A40F213194FF437
:103F80008278F027E126D2252EE63223E370BEE4C4
:103F90003323E370BBE43323E372002559E4322377
:103FA000E372002555E400BF001AFF1FB819020094
:103FB000C4190200CC190200440CFF1F580CFF1F4B
:103FC0004028FF1F9C180200AC180200BC18020019
:103FD000F8B52723294C2A4E2322054601211846ED
:103FE0003370227011F0E8F93078002111F0D0F927
:103FF0002078012111F0E0F92078002111F028F853
:10400000322D28D0332D14D0312D00D0F8BD1D4ACB
:104010001D481E4E1E4C1F491F4B1060822741F247
:10402000941500204FF4B4723760256008601A6060
:10403000F8BD164A164E174C1249174B64201060F3
:1040400046F2A817022510204FF4C8723760256089
:1040500008601A60F8BD0D4A0D4E0E4C09490E4B12
:104060006420106046F2A81700254FF480704FF4CA
:1040700083723760256008601A60F8BDD419FF1F8D
:10408000A124FF1FB019FF1FD0010100A427FF1FAB
:104090004019FF1F0C20FF1FD019FF1F08B511F09A
:1040A00043FF064B0021187810F0D2FF044B00218B
:1040B0001878BDE8084011F06BB900BFD419FF1F94
:1040C000A124FF1F10B5314BDB7A322B82B004469E
:1040D0002CD0332B02D12E480EF0C0FDFA2011F067
:1040E00095F9FFF7DBFF4FF478412A4809F0D0FD3E
:1040F0000023009327482849962342F20E720AF0C3
:104100000BFBA01F08280FD8DFE800F0141F2A0EB1
:104110000E0E0E3505000023009342F20E72C823E6
:104120001E491C480AF0F8FA02B010BD1C480BF0FA
:10413000CBFAD3E70023009342F20E72C823194949
:1041400014480AF0E9FA02B010BD0023009342F2CD
:104150000E72C82314490F480AF0DEFA02B010BDEF
:104160000023009342F20E72C823104909480AF056
:10417000D3FA02B010BD0023009342F20E72C8239E
:104180000B4904480AF0C8FA02B010BD440CFF1FE6
:104190001825FF1F001AFF1F94240200281A02008E
:1041A000A824FF1FD4190200E8190200001A020017
:1041B000141A0200FFFFFFFF30B57D4A7D4B1078D7
:1041C00089B0002401211C7011F0E2F87A4BDB7AEF
:1041D000322B49D0332B44D1784BC821187810F0BA
:1041E00037FFAA2342F20E727549764800940AF00E
:1041F00093FAD02342F20E727349724800940AF087
:104200008BFA724972480EF06FFC40F2DC5011F0EC
:10421000FDF8642203A96E480EF066FDA0425FDB44
:104220006C4B6D4C18789DF80C30237015F0EAFF3C
:104230009FED5D0B41EC110B13F092FC51EC100B58
:1042400016F02EFB2378654A183BDBB2192B107051
:1042500000F2A380624A22FA03F3DB0740F19D805B
:104260000124204609B030BD0094AA2342F20E7208
:10427000534954480AF050FAD02342F20E72524980
:10428000009450480AF048FA4FF47A6011F0BEF8F2
:1042900040F2124011F0C4FD4FF4FA7011F0B6F87C
:1042A000504951480BF0EEF8072405464FF4FA70D8
:1042B000EDB911F0ABF84B494B480BF0E3F8013C7A
:1042C0000546F3D121463F4809F0E2FCEC23009378
:1042D000AA224FF49B730A213A4809F0E1FE9DB9E6
:1042E0000620FFF7EFFE0024204609B030BD002174
:1042F000344809F0CDFCEC230093AA224FF49B73C1
:104300000A21304809F0CCFE00240094AA23A02200
:1043100036492C480AF000FAD023A0222A490094FA
:1043200028480AF0F9F940F6B83011F06FF84FF468
:10433000FA7011F06BF82C480BF04EF90F2504467B
:104340004FF4FA70DCB911F061F827480BF044F92A
:10435000013D0446F4D129461A4809F099FCEC23A2
:104360000093AA224FF49B730A21164809F098FE85
:10437000002C7FF475AF0720FFF7A4FE71E7002142
:10438000104809F085FCEC230093AA224FF49B739C
:104390000A210C4809F084FE63E70E20FFF792FE25
:1043A00000245EE7AFF30080000000000000004042
:1043B000A124FF1F1020FF1F440CFF1FD419FF1F53
:1043C000401A0200001AFF1F541A0200000EFF1FBD
:1043D0001825FF1FCC19FF1FA024FF1F1428FF1F43
:1043E00001400102502E0200A824FF1F641A02009F
:1043F0002DE9F0472DED048B90B0B2EE040A0121B7
:1044000007A810F05FF907A90BA810F029F9D34904
:104410000BA810F0DDF9014603A810F021F90BA854
:1044200010F0CAF807A810F0C7F84FF6FF71CC4893
:1044300009F02EFC03A90BA810F012F900230BA918
:104440000093EA224FF4B473C5480AF0CFF90BA8E1
:1044500010F0B2F80220FFF7AFFE002840F01E81F6
:104460000124C04E9FEDC09ADFF83083DFEDBF8A94
:104470009FEDBF8A37464FF02009002514B3BD4891
:104480000AF0DCFC0028F9D0002DF7D1B9480AF079
:10449000F7FBB8480AF0E8FC8246B6480AF026FD69
:1044A0006FF4D27318443A28E8D8AAF10A03562BBD
:1044B00000F28580B04B09224FEA49091A600125B4
:1044C000002CDCD14FF4FA71A6480EF01FFB002837
:1044D000C0F2988097F8D1314BB1DFF89CA2DAF89E
:1044E00000300133032BCAF8003000F3AF80D6ED63
:1044F000726AF4EEC96AF1EE10FA5CDD9F4B96ED3C
:10450000737A93ED006ADFF898E29FED9D5AF6EE1C
:10451000007A37EE277AB8EEC66A07EE909AF8EE80
:10452000E75A77EE067AFDEEE77A17EE903A83FBCC
:1045300008011944DA17C2EB21224FF4B47101FBD0
:104540001233CB1A5EF8232007EE102AB8EEC77A92
:1045500027EE267A87EE286A26EE257AC7EE087AB5
:1045600077EE857AFDEEE77A17EE901A4A1EB2F5DD
:104570009F7F84D2834ADFED847A52F8233007EE9E
:10458000103AB8EEC77A67EE266A86EEA87A67EE2A
:10459000255A85EE887A77EEC77AFDEEE77A17EE30
:1045A000902AA2F11503B3F59F7FBFF468AF6C4862
:1045B00009F092FB63E7012010F028FF5FE7AAF102
:1045C0007503562B08D86C4B09EBD97909224FEAB1
:1045D00069091A60012551E7AAF1E00ABAF1560FFC
:1045E0003FF64CAF5F480EF039FBFA2010F00EFF9B
:1045F000FFF754FD03A80FF0DFFF10B0BDEC048BF4
:10460000BDE8F08764220BA956480EF06DFB002828
:10461000FFF635AF4FF47A72214652480EF01CFC7B
:104620000028C0F2C88021464D4809F031FB4FF404
:10463000A973009315224FF49F730121484809F094
:104640002FFD4FF47A7010F0E1FE18E72146444840
:1046500009F01EFB4FF4A9731522009301214FF4BA
:104660009F733F4809F01CFD4FF494613C4809F0EA
:104670000FFB0323B422A021394809F0F9FBDAF833
:104680000030082B00F39C8025464FF6E07134483B
:1046900009F0FEFA0023CAF8003028E74FF6E0716F
:1046A0002F4809F0F5FA394B1B78183B0024192BD9
:1046B0003FF6D7AE01A252F823F000BFA547000095
:1046C000634400006344000063440000634400004E
:1046D000634400006344000063440000634400003E
:1046E000634400006344000063440000634400002E
:1046F000634400004947000063440000374700005E
:10470000634400006344000063440000634400000D
:1047100063440000634400006344000063440000FD
:104720002547000000944FF4C3730A2218490C482F
:1047300009F0F2FF95E600944FF4C3730A2215497D
:10474000074809F0E9FF8CE600944FF4C3730A228E
:104750001149034809F0E0FF83E600BF781A020020
:10476000001AFF1F1825FF1F0000C84200401C460A
:1047700000007A44A827FF1F0C25FF1F540CFF1FC1
:1047800000002043B028020000003443A024FF1F93
:10479000B01A0200901A0200A01A0200B7600BB60D
:1047A000D810020000944FF4C3730A221E491F4818
:1047B00009F0B2FF55E60820FFF784FC01245EE60D
:1047C00007EE909A9FED1A0AF8EEE77A012180EE43
:1047D000270A07A80FF076FF07A90BA80FF040FFE4
:1047E00014490BA80FF0F4FF014603A80FF0A0FF37
:1047F0000BA80FF0E1FE07A80FF0DEFE4FF6FF71E9
:104800000A4809F045FA03A90BA80FF029FF009404
:104810004FF4B473EA220BA9044809F0E7FF0BA890
:104820000FF0CAFE31E700BF801A0200001AFF1F16
:104830000000A043781A02002DE9F04F2DED028B05
:1048400093B0B2EE040A01210AA80FF03BFF0AA9B7
:104850000EA80FF005FFAB490EA80FF0B9FF0146F7
:1048600006A80FF0FDFE0EA80FF0A6FE0AA80FF096
:10487000A3FE4FF6FF71A44809F00AFA002406A926
:104880000EA80FF0EDFE4FF4B473EA220EA99E4875
:10489000009409F0ABFF0EA80FF08EFE4FF6E0710A
:1048A000994809F0F5F9984800944FF4C3730A2227
:1048B000964909F031FF2046FFF77EFC002840F0C2
:1048C000E1800124DFF86082DFF860A2DFF8609207
:1048D000DFED8F8AC3462027002504B38D480AF0F8
:1048E000ADFA0028F9D0002DF7D18A480AF0C8F9AE
:1048F00088480AF0B9FA064686480AF0F7FA6FF4D3
:10490000D27318443A28E8D8A6F10A03562B66D881
:1049100009237F00C8F800300125002CDED104A84F
:104920000DF10F027C490AF0E3FD9DF80F30002BDA
:10493000D4D004A80AF038FD00285CD104A80AF0FD
:1049400035FD04A8B0EE408A0AF036FD00EB800089
:10495000400080B264283ED9704B1B6898423ADA16
:10496000F6EE007A38EE278A6D4BFDEEC87A17EE28
:10497000906A53F8262002FB00F28AFB0213D2173A
:10498000C2EB233307FB03F389FB0321DB17C3EBE4
:10499000A11101F19F03B3F59F7F01F1A0019DD209
:1049A000604B53F8263003FB00F08AFB0023C0174E
:1049B000C0EB233307FB03F389FB0302DB17A3EBF5
:1049C000A21202F19F03B3F59F7F87D2B4324E4803
:1049D00009F082F982E7012010F018FD7EE7A6F1C8
:1049E0007503562B3AD807EBD77709237F10C8F801
:1049F0000030012571E7D8F800300133032BC8F8E7
:104A000000309BDD2146404809F042F94FF4A9737C
:104A10001522009301214FF49F733B4809F040FB9E
:104A20004FF49461384809F033F90323B422A021EC
:104A3000354809F01DFA4FF6FF71334809F028F99F
:104A4000DBF80030082B2CDC25464FF6E0712E48B1
:104A500009F01EF90023C8F800306FE7E03E562E3B
:104A60003FF63BAF2C480AF02FFEFA2010F0CEFCA8
:104A7000FFF714FB06A80FF09FFD13B0BDEC028BEF
:104A8000BDE8F08F4FF47A7010F0C0FC22480AF0B5
:104A9000E5FD00287FF416AF0820FFF713FB012483
:104AA00010E707EE907AB8EEE70A012188EE800A57
:104AB0000AA80FF007FE0AA90EA80FF0D1FD1149B0
:104AC0000EA80FF085FE014606A80FF031FE0EA8D5
:104AD0000FF072FD0AA80FF06FFD4FF6FF710A4844
:104AE00009F0D6F806A90EA80FF0BAFD00944FF40D
:104AF000B473EA220EA9044809F078FE0EA80FF05C
:104B00005BFDA2E7781A0200001AFF1FC01A02001C
:104B10000000A043A827FF1FA824FF1F4019FF1F64
:104B2000D8100200B02802000C25FF1FAD8BDB68F7
:104B3000D34D621070B5714882B009F03FF87049EA
:104B40006E4840F2DF1409F061FF45F271316B48A5
:104B500009F09EF80094602340F2A5120A216748EC
:104B600009F02AF90094CB2340F2A512752163487D
:104B700009F022F94FF49B7340F2A5120094E02152
:104B80005E4809F019F94FF6FF715C4809F080F8AA
:104B90000094602340F2A5120A21584809F022FA35
:104BA0000094CB2340F2A5127521544809F01AFA5B
:104BB0004FF49B7340F2A5120094E0214F4809F096
:104BC00011FA4FF4EF744BF6F7514C4809F060F8C6
:104BD00000945F234FF4D3720B21484809F002FA86
:104BE0000094CA234FF4D3727621444809F0FAF9AD
:104BF00040F235134FF4D3720094E1213F4809F09D
:104C0000F1F945F271313D48002409F057F84FF6AB
:104C1000FF713A4809F03CF84FF4DD732D22394911
:104C20003648009409F078FD4FF4DD739822364938
:104C30003248009409F070FD4FF4DD73EB223349E4
:104C40002E48009409F068FD21462C4809F036F8FA
:104C500013254FF6FF71294809F01AF84FF4AD7685
:104C60002A462146009540F23F13244809F0B4FA41
:104C700032462146009640F23F13204809F0ACFA34
:104C80002A460096234621461C4809F0A5FA40F220
:104C90003F132A461946009618481D4E1D4D09F02F
:104CA0009BFA23462146E122144808F0E1FF032342
:104CB000B422A021114809F0DBF84FF6E0710F484B
:104CC00008F0E6FF00944FF4B4730A2212490B482F
:104CD00034702C6009F020FD104BDB7A332B08D0A8
:104CE000322B01D002B070BD02B0BDE87040FFF7BA
:104CF000A3BD02B0BDE87040FFF77ABB001AFF1FEA
:104D000050330200D01A020050170200D41A0200D9
:104D10000C28FF1F0C25FF1FDC1A0200440CFF1F8C
:104D200030B55B4883B008F049FF0A21594804F0C8
:104D30005DFF4FF4FA70002410F068FB4FF6E0714D
:104D4000534808F0A5FF0A2342F20E725249504818
:104D5000009409F0E1FC4FF6FF714D4808F098FF10
:104D60004E494B4809F052FE1E2342F20E724C4946
:104D70004748009409F0D0FC282342F20E724949BA
:104D80004348009409F0C8FC322342F20E724649AF
:104D90003F48009409F0C0FC412342F20E7243499F
:104DA0003B48009409F0B8FC4B2342F20E72404994
:104DB0003748009409F0B0FC3E49354809F026FE1A
:104DC0004FF4A27364221421324804F067FF4FF6B7
:104DD000FF712F480A2508F05BFF02212D4805F0DE
:104DE000C9FF2A46DC2334492A48009506F090FE84
:104DF0000C232A46009331492648EB2306F088FE0F
:104E00000E232A4600932E492248FC2306F080FEFA
:104E100012232A4600932B491E4840F2111306F034
:104E200077FE16232A46009327491A4840F2291391
:104E300006F06EFE1C232A4600932449154840F2D2
:104E4000471306F065FE4FF49A734FF4BE7250217B
:104E5000104804F023FF4FF49F734FF4BE72B42147
:104E60000C4804F01BFF40F2FF71094808F010FFE6
:104E700000944FF4E67342F20E721549044809F0AB
:104E80004BFC144809F0DAFF0028FAD003B030BD1B
:104E9000001AFF1F681BFF1FEC1A0200D82E020029
:104EA000001B0200281B0200501B0200781B02009E
:104EB000A01B020050330200C41B0200D81B0200DA
:104EC000EC1B0200001C0200141C0200281C020043
:104ED0003C1C0200A827FF1FF0B52DED028B85B00A
:104EE0004FF6FF715A48002608F0D2FE594958483B
:104EF0000096642342F20E7209F00EFC56480CF044
:104F000067FF4FF4FC610446514808F0C1FE002CD5
:104F100000F08580642342F20E7250494C4800969E
:104F200009F0FAFB4FF47A7010F070FA4FF6FF7147
:104F3000474808F0ADFE642342F20E7248494448E7
:104F4000009609F0E9FBA0230096B02245494048AD
:104F500009F0E2FB444BDF6A3F0B36D007EE907A54
:104F60009FED428AF8EEE78A4FF480553403012220
:104F70000DF10F013E480BF007FC0123012808BF8B
:104F80009DF80F20344818BFFF2221461C440CF026
:104F9000D5FEAC42EBD107EE906AF8EEE77A20221C
:104FA00067EE887A002387EEA87A01920093013693
:104FB000A0238022264805F58055FDEEC77A17EE1E
:104FC000901A09F033FCBE42D0D1002428480BF0DF
:104FD00041FAA0238022009426491D4809F09CFB39
:104FE0004FF4FC611A4808F053FE0094642342F227
:104FF0000E722149164809F08FFB782342F20E7297
:105000001E490094124809F087FB40F6B83010F0B2
:10501000FDF9FFF785FE05B0BDEC028BF0BD4FF446
:1050200078410B4808F034FE642342F20E721449B2
:105030000094074809F070FB0D480BF00BFA4FF491
:105040007A6010F0E3F905B0BDEC028BF0BD00BF53
:10505000001AFF1F501C02005C1AFF1F601C020098
:10506000741C0200881C02003028FF1F0000C84288
:105070004028FF1F8C1C0200901C0200A41C020090
:10508000B01C0200FFFFFFFF2DE9F043C64FC748E9
:1050900083B000243C6008F091FD4FF4FA7010F0EA
:1050A000B5F9C349C14809F0B1FC4FF6E071BF48FA
:1050B00008F0EEFD0A2342F20E72BE49BB4800948E
:1050C00009F02AFBBC480CF02DFE4FF6E0710546B6
:1050D000B64808F0DDFD28230A22B849B3480094F9
:1050E00009F01AFB4FF6FF71B04808F0D1FDC5F387
:1050F0000743EF2BEDB200944FF03C034FF0320228
:1051000000F07481AE49A94809F006FB4FF47841DC
:10511000A64808F0BDFDD22342F20E720094A949C0
:10512000A24809F0F9FAA849A04809F06FFC4FF627
:10513000FF719E4808F0ACFD0094E62342F20E7227
:10514000A2499A4809F0E8FA0094F52342F20E7257
:105150009F49964809F0E0FA00944FF4827342F2B6
:105160000E729C49914809F0D7FA91498F4809F08D
:105170004DFC01244FF6E0718C48002608F088FDB4
:1051800050230A2294498948009609F0C5FA8748B5
:105190004FF6FF7108F07CFDA5F11100C3B2092B99
:1051A00076D815F03FF89FED7E0B41EC110B12F015
:1051B000D7FC51EC100B15F04BFB20230146009659
:1051C000019332226423794809F030FB642300966E
:1051D0001A468249754809F09FFA1A2D98BF012690
:1051E00010D8012303FA05F515F0F86840F0248182
:1051F00015F4401940F04B8115F4602F40F03181D7
:10520000002E4ED04FF4EB7545F27131674808F02F
:105210003FFD00954FF49B734FF4CD72AA21634874
:1052200008F0CAFD4FF6FF71604808F031FD0095A7
:105230004FF49B734FF4CD72AA215C4808F0D2FE64
:105240004BF6F751594808F023FD40F2D51340F2D0
:105250009B120093AB2140F23513544808F0C2FE74
:1052600045F27131514808F029FD00254FF6FF71D4
:105270004E4808F00DFD00954FF4D873D0225849E0
:105280004A4809F049FA2946484808F017FD08E05D
:105290000096642332224A49444809F03DFA1A2D07
:1052A0009FD94FF4EB754FF4484140483E4E08F00B
:1052B000EFFC96234FF4CD7200950A213B4808F08D
:1052C0007BFD4FF6FF71394808F0E2FC96234FF45E
:1052D000CD7200950A21354808F084FE4BF6F7514F
:1052E000324808F0D5FC40F2D51340F29B120093EF
:1052F0000B2195232D4808F075FE4FF448412B48AB
:1053000008F0DCFC00254FF6FF71284808F0C0FCCF
:105310004FF4D873202233492448009509F0FCF952
:105320002946224808F0CAFC01233B602E4809F0B8
:1053300085FD0028FAD02C4809F0A2FC2A4809F083
:1053400093FD0546284809F0D1FDA0F59B70A028E3
:10535000ECD8A5F10A038C2B4DD83B68012B11D05A
:10536000022BE3D10021114808F092FC40F2DF1338
:10537000009328224FF49B730A210C4808F090FEFA
:10538000FFF7AAFD094808F019FCC82010F03EF804
:1053900003B0BDE8F043FDF785BD00BFAFF300806B
:1053A00000000000000000401828FF1F001AFF1F27
:1053B00050330200C01C02005C1AFF1FD41C020004
:1053C000EC1C0200F41C0200D82E0200001D02009A
:1053D000201D0200481D02005C1D02006C1D020021
:1053E00088170200B0190200A827FF1F6549664808
:1053F00009F092F9BEE6AA3D8C2D97D800216248AB
:10540000DFF8BC8108F044FC40F2DF13009328224F
:105410004FF49B730A215C4808F042FE4FF4FA7087
:105420000FF0F4FF3B68012B6DD0022B7FF47EAFB1
:1054300056480BF00FF8A5E7002540F2FF715248DF
:1054400008F026FC009596230A2251494E4809F09F
:1054500063F90095AA230A224E494B4809F05CF9EA
:10546000CEE64FF47841484808F012FCCDF80090A1
:1054700096230A224849444809F04EF9CDF8009095
:10548000AA230A224549404809F046F909E74FF6A0
:10549000E0713D4808F0FCFBCDF8008096230A221D
:1054A0003D49394809F038F9CDF80080AA230A228D
:1054B0003B49354809F030F9CDF80080BE230A2277
:1054C0003849314809F028F9D2230A22CDF8008062
:1054D00035492D4809F020F940F2FF712A4808F0BB
:1054E000D7FBCDF80080F0230A222949264809F08D
:1054F00013F9CDF800804FF482730A22254922481F
:1055000009F00AF97CE6294B294A19681F4800234B
:105510000BF0D8F80546002854D14FF478411A48CA
:1055200008F0B6FB3C2342F20E7222491648009561
:1055300009F0F2F84FF6FF71134808F0A9FB5A235F
:1055400042F20E721C491048009509F0E5F86E23EE
:1055500042F20E7216490C48009509F0DDF88223DC
:1055600042F20E7215490848009509F0D5F807482F
:105570000AF070FF41F288300FF048FFC8F8005081
:1055800000E700BFE41C0200001AFF1F4028FF1FB5
:10559000CC1D0200E01D0200741D0200881D0200E7
:1055A000981D0200AC1D0200C01D0200DC28FF1F78
:1055B000EC1D0200FC1D0200041E0200101E020071
:1055C0001828FF1F002502234FF6FF718048336023
:1055D00008F05EFB28230A227E497D48009509F0E9
:1055E0009BF83C230A227C497948009509F094F8FD
:1055F0007A49774809F00AFA64230A2278497448FC
:10560000009509F089F873230A22764970480095BD
:1056100009F082F882230A2273496D48009509F047
:105620007BF891230A2271496948009509F074F8C2
:10563000A0230A226E496648009509F06DF8AF2351
:105640000A226C496248009509F066F86A49604888
:1056500009F0DCF94FF4EB784FF448415C4808F06E
:1056600017FB4FF49B734FF4CD72AA215848CDF825
:10567000008008F0A1FB4FF6FF71554808F008FBC9
:105680004FF49B734FF4CD72AA215148CDF800809E
:1056900008F0A8FC40F2D5194BF6F7514C4808F039
:1056A000F7FA40F2351340F29B12AB214848CDF88F
:1056B000009008F097FC4FF44841454808F0FEFA86
:1056C0004FF6FF71424808F0E3FA4FF4D873C02256
:1056D0004A493F48009509F01FF829463C4808F020
:1056E000EDFA4FF494613A4808F0D2FA96234FF459
:1056F000CD720A213648CDF8008008F05DFB4FF6E8
:10570000FF71334808F0C4FA96234FF4CD720A2192
:105710002F48CDF8008008F065FC4BF6F7512C4877
:1057200008F0B6FA952340F29B120B212848CDF8D9
:10573000009008F057FC4FF49461254808F0BEFA39
:105740004FF6FF71224808F0A3FA2D492048009532
:105750004FF4D873302208F0DFFF29461C4808F0C8
:10576000ADFA002C3FF4E2AD4FF47841184808F050
:105770008FFAD22342F20E7200952249144808F0A3
:10578000CBFF1649124809F041F94FF6FF71104856
:1057900008F07EFA0095E62342F20E721A490C4890
:1057A00008F0BAFF0095F52342F20E721749084837
:1057B00008F0B2FF00954FF4827342F20E72144962
:1057C000034808F0A9FF0C49014809F01FF9ADE5AD
:1057D000001AFF1F1C1E0200301E0200D82E0200FD
:1057E000441E0200681E02008C1E0200B41E02004D
:1057F000D01E0200F81E020050330200B019020051
:10580000E8160200F41C0200001D0200081F02003E
:105810002C1F020070B5104E82B001F10A030C4635
:1058200005460093A1F10A0200F10A03A0F10A0162
:10583000304608F0A7FB6B1D2246691F30460094D6
:1058400008F0CAFC631D00933046621F2B462946B0
:1058500008F0C2FC02B070BD001AFF1F2DE9F0472E
:10586000DFF8BCA0274F82B04FF00009FF231A4693
:105870001946254808F0FCF9DAF80030CDF8009018
:1058800042F20E722149204808F046FF1D4809F0F7
:10589000D5FA0028FAD01C48DAF80030CDF800908C
:1058A00042F20E721A49002608F036FF15483446B7
:1058B000354641F2883809F0C1FAF0B14545114842
:1058C0000DD1144B1449154AA3FB0404A3FB060392
:1058D000240B1B0B0C60136002B0BDE8F08709F0CD
:1058E00045FBB7F90020B7F90230064801351444EA
:1058F0001E4409F0A3FA0028E0D141F288339D420A
:10590000B4D1DEE7A827FF1F001AFF1F3C1F0200CB
:10591000481F02005917B7D1E418FF1FEC26FF1FDC
:105920000420FF1F70B5FF2382B005460E461446C3
:1059300019461A461C4808F09BF931462846FFF7DD
:1059400069FF00231A46FF21174808F0A5F9FFF761
:1059500085FFFF231A461946134808F089F9134BAF
:1059600013491B6810480022009242F20E7208F0A0
:10597000D3FE50231A4619460B4808F079F93146F0
:105980002846FFF747FF0B480B4A0C490C4B0068B1
:10599000126841F8240043F824200A4809F04EFA1E
:1059A0000028FAD102B070BD001AFF1F0420FF1FAB
:1059B000541F0200E418FF1FEC26FF1FE818FF1F0A
:1059C0000819FF1FA827FF1F08B5084809F036FA75
:1059D0000028FAD1054809F031FA0028FAD0034826
:1059E00009F02CFA0028FAD108BD00BFA827FF1F34
:1059F0000F4970B44C223026782555240023CA72F2
:105A00000E704D708C720B7301F10902013100F0C0
:105A10000F03092B03F1370496BF30331470137052
:105A2000013A8A424FEA1010F1D170BC704700BFB2
:105A30008824FF1F30B50023784D794883B01A467B
:105A4000FF2108F015F92B68754800220D21013B54
:105A50000091114608F024FBFF231A4619467048AE
:105A600008F006F900231A46FF216D4808F014F9E2
:105A70002B686B480E2200210C46013B009208F077
:105A8000ABFB012342F20E7266496548009408F0B0
:105A900043FE234622462146614808F0FDF82B6864
:105AA0000094DC2B4FF01E0371D042F20E725E495F
:105AB0005B4808F031FE322322465C495848009486
:105AC00008F02AFE3E23224659495548009408F022
:105AD00023FE4A23224657495148009408F01CFEF1
