:1000000000000320D1010000A95601006156010043
:100010006156010061560100615601006156010000
:10002000615601006156010061560100A9560100A8
:10003000A956010061560100A54A0100A94B010023
:10004000A9560100A9560100A9560100A9560100B0
:10005000A9560100A9560100A9560100A9560100A0
:10006000A9560100A9560100A9560100A956010090
:10007000A9560100A9560100A9560100A956010080
:10008000A9560100A9560100A9560100A956010070
:10009000A9560100A9560100A9560100A956010060
:1000A000619B00006D9B0000A9560100A95601004C
:1000B000A9560100A9560100A956010011620100CC
:1000C000A956010029820100A956010055830100AB
:1000D000A956010075680100A9560100A956010042
:1000E000A9560100A9560100A9560100A956010010
:1000F000A9560100A9560100A9560100A956010000
:100100006180010075800100898001009D800100EF
:10011000A956010099700100A9560100A9560100D5
:10012000A9560100A9560100A9560100A9560100CF
:10013000A9560100A9560100A9560100A9560100BF
:10014000A9560100A9560100E56D0100A95601005C
:10015000A9560100A9560100A9560100A95601009F
:10016000A9560100A9560100799B0000A95601007B
:10017000A9560100A9560100A9560100A95601007F
:10018000A9560100E5FE0000A9560100A95601008C
:10019000A9560100A95601004D840100A95601008D
:1001A000A9560100A9560100A9560100A95601004F
:1001B000A9560100A9560100A9560100A95601003F
:1001C000A9560100A9560100A9560100A95601002F
:1001D0005C4B4CF2205210B51A804DF628121A8052
:1001E00000BF00BF15F064FA574B4FF030621A6041
:1001F000564A9A60564ADA60564B4FF470021A60BB
:10020000554B564A1A60564B1A78110703D51A787F
:1002100042F008021A70534B5349AA221A70534AEB
:10022000534B8B4204D252F8040F43F8040BF8E707
:10023000504B514900228B4202D243F8042BFAE77B
:100240004E494F4A002352F8230041F8230001335E
:10025000742BF8D14B4B4C4A802103F8011B93427D
:10026000FBD14A4B454A1A60494B8A221A70A3F5C2
:10027000805324225A70A0221A709A799207FCD5D2
:100280009A79D406FCD4434A937903F00C03082BE3
:10029000FAD1414B60221A7002331A78802AFCD1BD
:1002A0003C4B01221A715D225A719A799006FCD555
:1002B0009979384A4906FBD5384B394919600021EC
:1002C000596020231370937903F00C030C2BFAD19F
:1002D000344B354A1A60354A354C136813F4807331
:1002E00003D123604FF4A8531360324B324A1A6093
:1002F00000225A60072243F8042C304AC3F80C2D20
:1003000062B615F0BFFE2368DA0705D52C4815F054
:1003100077FC2C4B2C4A1A602C4B1B785B0609D5BA
:10032000284C294B22689A4204D1254815F068FCD4
:10033000002323601BF03CF915F0C0F915F0EEF82E
:10034000FEE700BF0E20054030800440823F0400DD
:100350000100002B88ED00E0002008E0030000858C
:1003600002D0074000E00740C818FF1F9C5D020054
:10037000400CFF1FC818FF1F4436FF1F0002FF1F5D
:100380000000000000E400E064E400E008ED00E0AC
:10039000005006400040064001E007404480044011
:1003A0000000060204800440C010070010D0034083
:1003B00014D0034014E000E01FBF02000000202022
:1003C0000976DC5F1CE00340A5C3945A00F00740A7
:1003D000FFFFFFFFFFFFFFFFFFFFFFFFFFFFFFFF2D
:1003E000FFFFFFFFFFFFFFFFFFFFFFFFFFFFFFFF1D
:1003F000FFFFFFFFFFFFFFFFFFFFFFFFFFFFFFFF0D
:10040000FFFFFFFFFFFFFFFFFFFFFFFFDEF9FFFF23
:1004100010B5054C237833B9044B13B10448AFF33E
:1004200000800123237010BDC818FF1F00000000CA
:10043000985D0200084B10B51BB108490848AFF39E
:1004400000800848036803B910BD074B002BFBD0A0
:10045000BDE81040184700BF00000000CC18FF1F87
:10046000985D0200C818FF1F0000000000207047C0
:10047000027C02F0080202F0FF0332B1C36A406A54
:10048000181A48BF6FF0004070471846704700BF09
:100490000020704701207047034BD8691A79431E2A
:1004A0005002A3FB00017047941BFF1F15F0A2BB75
:1004B00000B583B001220DF10701103010F0A8FA49
:1004C00001280CBF9DF807004FF0FF3003B05DF826
:1004D00004FB00BF103010F09FBB00BF103010F0C5
:1004E0000BBD00BF103010F00DBD00BF00B583B0D4
:1004F00002AB012203F8011D1030194610F002FD75
:1005000003B05DF804FB00BF503010F0FBBC00BF2F
:1005100038B5074C204611F0E7FB0246207941022E
:10052000A1FB0245D31701FB03552046294638BDE0
:10053000941BFF1F002A2CDD2DE9F84300251646E9
:100540000F460446A846606820B917F001FB6060BA
:100550000028FAD030F8083B721BC3F140099145DE
:10056000A8BF9146791918444A4614F0DFFF616824
:100570000B884B449BB2402B4D440B8003D0AE42C2
:10058000E1DCBDE8F883042016F044FDC4F80480E3
:10059000F5E770472DE9F043C56F95B0FDB1DFF881
:1005A000BC900446636FAB424DD3267D26B304F165
:1005B000140805EB85010901404610F0A1FB6946CE
:1005C0004046502210F024FA9DF80E1094F8802036
:1005D00052B1029BE36719B9E56F002DE2D1002506
:1005E000284615B0BDE8F083E36F606F01338342A6
:1005F000E36728BFE267EEE74FF47A7744F202231D
:10060000144A15498DF810608DF811608DF804605A
:100610008DF80C6004A804AE0297CDF8009010F09D
:1006200095F90FCE04F1140847460FC70FCE0FC738
:1006300030689DF80410029A9DF80C3038602172E1
:10064000E2602374B5E70021502268461BF0BEFB30
:100650000021BBE738220200D01FFF1FC01B020091
:10066000436F99423FD82DE9F041057D94B00F4684
:10067000044685B100F1140807EB870109014046E3
:1006800010F03EFB40465022694610F0C1F9019837
:1006900014B0BDE8F0814FF47A7E144E144A154927
:1006A0008DF8105044F202238DF811508DF804504B
:1006B0008DF80C5004A804AD0096CDF808E010F0B9
:1006C00045F90FCD04F1140846460FC60FCD0FC6ED
:1006D00028689DF80410029A9DF80C303060217251
:1006E000E2602374C8E70020704700BFC01B02000F
:1006F00038220200D01FFF1F2DE9F0470C46416F42
:100700008C4294B0924699464FD8067D054626B352
:1007100000F1140804EB84010901404610F0F0FADE
:1007200050226946404610F073F950460DF10E0113
:10073000009D9DF80C401BF0C1FF1C9B1D602CB957
:10074000019BC9F8003014B0BDE8F0874FF0FF33CB
:10075000C9F8003014B0BDE8F0874FF47A7E1A4F24
:100760001A4A1B498DF8106044F202238DF811607B
:100770008DF804608DF80C6004A804AE0097CDF8E5
:1007800008E010F0E3F80FCE05F1140847460FC754
:100790000FCE0FC730689DF80410029A9DF80C30F8
:1007A00038602972EA602B74B4E750220021684651
:1007B0001BF00CFB50460DF10E011BF07FFF1C9A45
:1007C00000231360BCE700BFC01B020038220200F8
:1007D000D01FFF1F2DE9F0470446A2B05030D4F8D7
:1007E0006CA00FF07BFFE56B636F9D4273D8267D95
:1007F000002E48D004F1140805EB8501090140469C
:100800000DF1380910F07CFA49465022404610F0AC
:10081000FFF8E56B237DCDF83CA01BBB334E344A7B
:1008200034498DF814304FF47A778DF815308DF8FF
:1008300008308DF81030019644F2022305A805AE69
:10084000039710F083F80FCE47460FC70FCE0FC7A0
:1008500030689DF80810039A9DF8103038602172B6
:10086000E260237405EB85010901404610F048FA67
:1008700049464046502210F045FB6FF00103E36308
:1008800022B0BDE8F0874FF47A7E184F184A194914
:100890008DF8486044F202238DF849608DF83C6081
:1008A0008DF8446012A812AE0E97CDF840E010F01B
:1008B0004DF80FCE04F1140847460FC70FCE0FC7EF
:1008C00030689DF83C10109A9DF8443038602172D1
:1008D000E260237490E70DF1380948465022002168
:1008E0001BF074FA04F1140894E700BFC01B020067
:1008F00038220200D01FFF1F2DE9F043047D8FB086
:1009000007460E4691467CB100F1140806EB8601BD
:100910000901404610F0F4F949464046502210F0D3
:10092000F1FA0FB0BDE8F0834FF47A7E124D134A0E
:1009300013498DF8144044F202238DF815408DF8C8
:1009400008408DF8104005A805AC0195CDF80CE0E5
:100950000FF0FCFF0FCC07F1140845460FC50FCC74
:100960000FC520689DF80810039A9DF81030286084
:100970003972FA603B74C9E7C01B020038220200DA
:10098000D01FFF1F2DE9F0434B6F93428FB080467D
:100990003CD30E7D0D46144686B101F1140904EBDB
:1009A00084010901484610F0ABF9484650224146FF
:1009B00010F02EF840460FB0BDE8F0834FF47A7E79
:1009C000164F174A17498DF8146044F202238DF828
:1009D00015608DF808608DF8106005A805AE0197C8
:1009E000CDF80CE00FF0B2FF0FCE05F114094F4621
:1009F0000FC70FCE0FC730689DF80810039A9DF8F7
:100A0000103038602972EA602B74C8E75022002148
:100A10001BF0DCF940460FB0BDE8F083C01B0200BC
:100A200038220200D01FFF1F2DE9F041436F994289
:100A3000E4B0144677D8077D05460E46002F00F037
:100A4000A78000F1140806EB86010901404610F06A
:100A500057F96946502240460FF0DAFF009E002EFB
:100A600066D06B6FB34279D32B7D002B00F0C5802D
:100A700006EB86010901404610F042F9502240463B
:100A800014A90FF0C5FF149A002A6DD0294628A892
:100A9000FFF778FF289A002A00F0AB8029463CA88F
:100AA000FFF770FF3C9A002A00F09F80294650A86B
:100AB000FFF768FF5099002900F0C88028462246B9
:100AC000FFF7B2FF20461BF05BFE231813F8013C32
:100AD0002F2B02D05F4B1B8823520DF5A7712046A8
:100AE0001BF0F6FB20461BF04BFE231813F8013CCD
:100AF0002F2B02D0574B1B8823520DF1FE012046AD
:100B00001BF0E6FB20461BF03BFE231813F8013CCC
:100B10002F2B02D04F4B1B8823520DF1AE012046E4
:100B20001BF0D6FB23E05022002168461BF04EF953
:100B3000484B1B88238020461BF022FE231813F805
:100B4000013C2F2B02D0434B1B88235220460DF132
:100B50000E011BF0BDFB64B0BDE8F0815022002106
:100B60000DEB02001BF032F93A4B1B882380204624
:100B70001BF006FE231813F8013C2F2B02D0354B37
:100B80001B8823520DF15E0120461BF0A1FBD2E72A
:100B9000DFF8CCE0304A31498DF850714FF47A7C5F
:100BA00044F202238DF851718DF844718DF84C7127
:100BB00054A854AFCDF840E1CDF848C10FF0C6FEBF
:100BC0000FCF05F11408C646AEE80F000FCFAEE810
:100BD0000F0038689DF84411529A9DF84C31CEF8B8
:100BE00000002972EA602B742DE71A4B1B882380C2
:100BF00078E7184B1B88238084E7194F164A17495A
:100C00008DF850314FF47A7E8DF851318DF84431A2
:100C10008DF84C31509744F2022354A854AFCDF8CC
:100C200048E10FF093FE0FCFC646AEE80F000FCF9E
:100C3000AEE80F0038689DF84411529A9DF84C3187
:100C4000CEF800002972EA602B7411E7014B1B8873
:100C5000238037E74822020038220200D01FFF1FFE
:100C6000C01B02002DE9F047B1F1FF3F01EB810904
:100C70004FEA0919ADF5986D8846DFF81CA30446C4
:100C800008BF4FF0000920E004F114074946384638
:100C900010F036F8502238460DEB02010FF0B8FE86
:100CA00050220DEB0201684614F040FC9DF80C2028
:100CB0002046002A40D0019B1946002B3CD02368D7
:100CC0001B6B9847002800F00B81B8F1FF3F02D062
:100CD000636F984529D8257D002DD5D14FF47A76BC
:100CE00044F20223A94AAA498DF8D0538DF8D15372
:100CF0008DF8C4538DF8CC53F4A8F4ADF296CDF82A
:100D0000C0A30FF023FE0FCD04F114073E460FC61B
:100D10000FCD0FC628689DF8C413F29A9DF8CC3306
:100D200030602172E2602374B0E7502200210DEBA5
:100D300002001BF04BF8B3E7B8F1FF3F00F0DC8096
:100D4000B8F1000F00F07D81424628A82146FFF748
:100D500019FE289A002A00F0D4803CA82146FFF70B
:100D600011FE3C9A002A00F0798150A82146FFF735
:100D700009FE509A002A00F08B8164A82146FFF7F3
:100D800001FE649A002A00F07D8178A82146FFF7D1
:100D9000F9FD789A002A00F081818CA82146FFF79E
:100DA000F1FD8C9A002A00F07F81A0A82146FFF770
:100DB000E9FDA09A002A00F07D81B4A82146FFF742
:100DC000E1FDB49A002A00F07B81C8A82146FFF714
:100DD000D9FDC89A002A00F079810DF55C79214689
:100DE0004846FFF7CFFDD9F80010F0AD002900F01C
:100DF00073812A462046FFF717FE28461BF0C0FCE9
:100E00000DF2BF36335C2F2B02D0624B1B882B5266
:100E10000DF27E3128461BF05BFA28461BF0B0FC31
:100E2000335C2F2B02D05B4B1B882B520DF22E31E3
:100E300028461BF04DFA28461BF0A2FC335C2F2BF2
:100E400002D0544B1B882B520DF2DE2128461BF09A
:100E50003FFA28461BF094FC335C2F2B02D04D4BFD
:100E60001B882B520DF28E2128461BF031FA2846A2
:100E70001BF086FC335C2F2B02D0464B1B882B5279
:100E80000DF23E2128461BF023FA28461BF078FC81
:100E9000335C2F2B02D03F4B1B882B520DF5F77183
:100EA00028461BF015FA28461BF06AFC335C2F2BF2
:100EB00002D0384B1B882B520DF5CF7128461BF002
:100EC00007FA28461BF05CFC335C2F2B02D0314B19
:100ED0001B882B520DF5A77128461BF0F9F9C2E0CB
:100EE00000200DF5986DBDE8F087029BC993C8AA54
:100EF00031462046FFF700FD01200DF5986DBDE855
:100F0000F087F0AD2F232B800DF2BF3628461BF063
:100F100037FC335C2F2B02D01E4B1B882B520DF15C
:100F2000AE0128461BF0D4F99DF80C20002A00F0F1
:100F3000838000260DF55C792A46484633461449DD
:100F40008DF870638DF871630FF000FD0028C7D035
:100F500048460FF0A9FE0028C2D0009E00236A4632
:100F6000414620468DF80E30FFF7C6FC3246C8A831
:100F70002146FFF707FDC99DA845B6D0002DBBD07F
:100F8000DFF814A00DF55C7920E000BF38220200E4
:100F9000D01FFF1F48220200C01B020004F11407EB
:100FA00005EB8501090138460FF0AAFE38465022AC
:100FB00049460FF02DFD50224946C8A814F0B6FA54
:100FC000CA9B984541D01D46002B95D0636FAB421C
:100FD0002CD3267D002EE1D14FF47A7744F2022300
:100FE0003F4A40498DF8E0628DF8E1628DF8D462A5
:100FF0008DF8DC62B8A8B8AEB697CDF8D0A20FF0E5
:10100000A5FC0FCE04F11407BE46AEE80F000FCECC
:10101000AEE80F0030689DF8D412B69A9DF8DC3225
:10102000CEF800002172E2602374B9E7502200215B
:1010300048461AF0CBFEBEE729462A480FF020FEAC
:1010400089E7F0AD2F232B8070E7029BCA932046DF
:10105000C8AA2946FFF750FC012042E7F0AD2F2334
:101060002B800DF2BF3628461BF08AFB335C2F2BFA
:1010700002D01D4B1B882B520DF1FE0128461BF0A0
:1010800027F943E7F0AD2F232B800DF2BF360AE797
:10109000F0AD2F232B800DF2BF3612E7F0AD2F23DA
:1010A0002B800DF2BF36F0E6F0AD2F232B800DF232
:1010B000BF36DCE6F0AD2F232B800DF2BF36C8E63D
:1010C000F0AD2F232B800DF2BF36B4E6F0AD2F2309
:1010D0002B800DF2BF36A0E62F232B808DE600BFBC
:1010E00038220200D01FFF1F482202002DE9F04FD6
:1010F000C36B8B42ADF5397D04D190F83830934203
:1011000000F0A980914688460646002975D0436FB5
:10111000994200F2C680047D78AD002C00F0CF80AB
:10112000DFF834A200F1140B08EB880109015846DE
:101130000FF0E6FD5022584669460FF069FC009A10
:10114000002A00F0B68014A83146FFF71BFC149A61
:10115000002A00F0848028A83146FFF713FC289A63
:10116000002A00F0CF803CA83146FFF70BFC3C9AE8
:10117000002A00F0E18050A83146FFF703FC509AA6
:10118000002A00F0D38064AF31463846FFF7FAFBFF
:101190003968002900F0D6802A463046FFF744FC23
:1011A00028461BF0EDFA0DF2DF14235C2F2B02D042
:1011B000664B1B882B520DF5CF7128461BF088F823
:1011C00028461BF0DDFA235C2F2B02D05F4B1B88D7
:1011D0002B520DF5A77128461BF07AF828461BF014
:1011E000CFFA235C2F2B02D0584B1B882B520DF1CA
:1011F000FE0128461BF06CF889E078AD2F23DFF85C
:1012000058A12B8064AF06F1500420460FF066FA17
:1012100000212A464FF47A754B4639747974397136
:101220003973BD604A49C7F800A068A868AD0FF0DF
:101230008DFB0FCD0FC40FCD0FC428683979BA6864
:101240003B7B2060C6F83C8086F8389086F84410D6
:10125000B26486F84C300DF5397DBDE8F08F2F2350
:101260002B8064AF0DF2DF1428461BF089FA235C53
:101270002F2B02D0354B1B882B520DF15E012846D7
:101280001BF026F828461BF07BFA235C2F2B02D09C
:101290002E4B1B882B520DF10E0128461BF018F81F
:1012A000B1E75022002168461AF090FDDFF8A8A0AF
:1012B00078AD2F232B8064AF0DF2DF14E2E74FF4FB
:1012C0007A77244A22492C7444F202236C742C71DC
:1012D0002C73AF60DFF880A0C5F800A07CA87CACC0
:1012E0000FF034FB0FCC06F1140B5F460FC70FCC89
:1012F0000FC720682979AA682B7B38603172F260A9
:10130000337411E72F232B8064AF0DF2DF142846CE
:101310001BF036FA235C2F2B02D00C4B1B882B5270
:101320000DF1AE0128461AF0D3FF9DE72F232B8045
:1013300064AF0DF2DF1443E72F232B8064AF0DF26F
:10134000DF144BE72F232B802AE700BF482202003F
:10135000D01FFF1F38220200C01B0200F8B5044650
:10136000174650340022069E1D46FFF7BFFE394641
:1013700020460FF0C5FC324629462046BDE8F8401D
:101380000FF046BB2DE9F0479A464B1CADF5986D22
:101390000446904600F09480436F99420D4600F257
:1013A000C180267D01EB81094FEA0919002E00F06A
:1013B0008E8004F11406494630460FF0A1FC3046F9
:1013C00069465022E9460FF023FB50461BF0D8F93E
:1013D0003E2805D9002738460DF5986DBDE8F08701
:1013E000421C51460DF15E0014F0A0F8676F267D97
:1013F00014957B1C636700231593D9F8043016936A
:1014000001238DF85C808DF85D30002E00F07A812C
:1014100004F1140607EB8701090130460FF070FC58
:1014200014A9502230460FF06DFD237DC9F80470D9
:101430006BBB4FF47A7CDFF838E3CB4ACB498DF8AD
:10144000D0338DF8D1338DF8C4338DF8CC33F4A874
:1014500044F20223CDF8C8C3CDF8C0E30FF076FA0A
:101460000DF5747EBEE80F00B446ACE80F00BEE890
:101470000F00ACE80F00DEF800009DF8C413F29AEC
:101480009DF8CC33CCF800002172E260237405EBA8
:101490008501090130460FF033FC494630465022A1
:1014A0000FF030FDB8F1000F43D1204644F2022284
:1014B0003946FFF71BFE38460DF5986DBDE8F087FD
:1014C000267D4FF000094D46002E7FF472AFA84FE5
:1014D000A54AA649F0974FF47A7E44F20223F4A875
:1014E000F4AF8DF8D0638DF8D1638DF8C4638DF8B7
:1014F000CC63CDF8C8E30FF029FA0FCF04F114063E
:10150000B646AEE80F000FCFAEE80F0038689DF882
:10151000C413F29A9DF8CC33CEF800002172E26039
:10152000237448E7684650220021E9461AF04EFC31
:101530004BE7002F00F020813A4628A82146FFF70C
:1015400021FA289A002A00F030813CA82146FFF7B2
:1015500019FA3C9A002A00F0218150A82146FFF791
:1015600011FA509A002A00F0278164A82146FFF75B
:1015700009FA649A002A00F0268178A82146FFF72C
:1015800001FA789A002A00F025818CA82146FFF7FD
:10159000F9F98C9A002A00F02481A0A82146FFF7CF
:1015A000F1F9A09A002A00F02381B4A82146FFF7A0
:1015B000E9F9B49A002A00F02281C8A82146FFF771
:1015C000E1F9C89A002A00F02181DCAE21463046BC
:1015D000FFF7D8F93168F0AD002900F01E812046F0
:1015E0002A46FFF721FA28461BF0CAF80DF2BF344D
:1015F000235C2F2B02D05F4B1B882B520DF27E31C8
:1016000028461AF065FE28461BF0BAF8235C2F2BFB
:1016100002D0584B1B882B520DF22E3128461AF05F
:1016200057FE28461BF0ACF8235C2F2B02D0514B01
:101630001B882B520DF2DE2128461AF049FE28465F
:101640001BF09EF8235C2F2B02D04A4B1B882B5299
:101650000DF28E2128461AF03BFE28461BF090F82A
:10166000235C2F2B02D0434B1B882B520DF23E21C3
:1016700028461AF02DFE28461BF082F8235C2F2BFB
:1016800002D03C4B1B882B520DF5F77128461AF0FF
:101690001FFE28461BF074F8235C2F2B02D0354B1D
:1016A0001B882B520DF5CF7128461AF011FE2846E3
:1016B0001BF066F8235C2F2B02D02E4B1B882B527D
:1016C0000DF5A77128461AF003FE28461BF058F8BE
:1016D000235C2F2B02D0274B1B882B520DF1FE01D0
:1016E00028461AF0F5FD28461BF04AF8235C2F2BFC
:1016F00002D0204B1B882B520DF1AE0128461AF068
:10170000E7FD3DE04FF47A7CDFF864E0164A1749C4
:101710008DF8D06344F20223F4A88DF8D1638DF8DC
:10172000C4638DF8CC63CDF8C8C3CDF8C0E30FF027
:101730000DF90DF5747EBEE80F0004F11406B446F1
:10174000ACE80F00BEE80F00ACE80F00DEF80000C8
:101750009DF8C413F29A9DF8CC33CCF800002172A6
:10176000E260237456E600BF38220200D01FFF1F3C
:10177000C01B020048220200F0AD2F232B80DCAEFC
:1017800000242A46304601232549347074700FF036
:101790007FF838460DF5986DBDE8F087F0AD2F2342
:1017A0002B80DCAE0DF2BF348FE7F0AD2F232B8002
:1017B000DCAE0DF2BF3496E7F0AD2F232B80DCAE0C
:1017C0000DF2BF3473E7F0AD2F232B80DCAE0DF2AA
:1017D000BF345EE7F0AD2F232B80DCAE0DF2BF34BB
:1017E00049E7F0AD2F232B80DCAE0DF2BF3434E798
:1017F000F0AD2F232B80DCAE0DF2BF341FE7F0AD30
:101800002F232B80DCAE0DF2BF340AE7F0AD2F237F
:101810002B80DCAE0DF2BF34F5E62F232B80E2E601
:10182000D01FFF1F2DE9F04F90F878400126C5B07A
:10183000054680F87960002C00F00E816B6F002B5C
:1018400000F007814FF00008474606E06B6F013754
:10185000BB4208F1500840F2FC80BB42F7D32C7D1C
:10186000002C00F0CC8005F11406414630460FF004
:1018700047FA1CA9502230460FF0CAF89DF87C3078
:10188000002BE3D09DF87D40002CDFD12246394665
:101890002846FFF72BFC95F85030002BD6D0A246F7
:1018A00005F15009019758E0A2420CBF23460123DD
:1018B000019A08BF0D9C30928DF8CC304022002355
:1018C0000DF1CE0106A831948DF8CD30CDF8C8A029
:1018D0000FF038FC6C6F95F814E0631C6B67BEF179
:1018E000000F2BD14FF47A7C44F202237D4A7E49CB
:1018F0007E4F8DF84CE013A88DF84DE08DF840E058
:101900008DF848E0CDF844C00F970FF01FF80DF1A7
:101910004C0EBEE80F00B446ACE80F00BEE80F0066
:10192000ACE80F00DEF800009DF84010119A9DF819
:101930004830CCF800002972EA602B7404EB840173
:10194000090130460FF0DCF9502230A930460FF083
:10195000D9FA06A8A2460EF0C1FE0024634B0293FA
:1019600022464FF47A7B494606A88DF818408DF838
:1019700019408DF80C408DF81440CDF810B00FF0E0
:101980007BFA9DF8183003F07002002B8CD12C7D6F
:10199000019FCDF874A001238DF87D302CBB8DF80C
:1019A000D0408DF8D1408DF8C4408DF8CC404F4CDC
:1019B0004C4A4D49309444F2022334A834ACCDF85B
:1019C000C8B00EF0C3FF0FCCB646AEE80F000FCC88
:1019D000AEE80F0020689DF8C410329A9DF8CC3014
:1019E000CEF800002972EA602B74414630460FF0B1
:1019F00087F91CA9304650220FF084FA26E78DF8AB
:101A0000D0408DF8D1408DF8C4408DF8CC40374C93
:101A1000344A354930944FF47A7644F2022334A89C
:101A200034AC32960EF092FF0FCC05F11406B64698
:101A3000AEE80F000FCCAEE80F0020689DF8C41090
:101A4000329A9DF8CC30CEF800002972EA602B74EF
:101A50000BE745B0BDE8F08F80F878602149224857
:101A60000FF00EF92F7D30942F23329431948DF89E
:101A7000CC608DF8CD406E67ADF8CE305FB105F12A
:101A80001407002138460FF03BF93846502230A9A0
:101A90000FF038FAD2E6154C124A13491C944FF451
:101AA0007A7644F2022320A820AC8DF880708DF85D
:101AB00081708DF874708DF87C701E960EF046FF64
:101AC0000FCC05F114073E460FC60FCC0FC6206899
:101AD0009DF874101E9A9DF87C3030602972EA607F
:101AE0002B74CEE738220200D01FFF1FC01B02005C
:101AF000436F994200F2CC802DE9F04F057DC3B0D1
:101B00000F460446002D00F09A8000F1140907EBFF
:101B10008701090148460FF0F3F81AA950224846F8
:101B20000EF076FF9DF8743013B19DF8755015B125
:101B300043B0BDE8F08F2A4639462046FFF7D6FA73
:101B400094F85030002BF3D0DFF850A1A84604F1F0
:101B5000500B50E0002A14BF012300238DF8C4303D
:101B60004FF0400208BF0B9B309518BF00230DF1CA
:101B7000C60104A82F932E978DF8C5800FF0E2FAC6
:101B8000656F267D6B1C63673EBB4FF47A7E44F223
:101B90000223404A40498DF844608DF845608DF835
:101BA00038608DF8406011A811AECDF83CE0CDF85A
:101BB00034A00EF0CBFE0FCECE46AEE80F000FCE17
:101BC000AEE80F0030689DF838100F9A9DF840304D
:101BD000CEF800002172E260237405EB8501090153
:101BE00048460FF08DF850222EA948460FF08AF98A
:101BF00004A80EF073FD4FF47A730022594604A82E
:101C000002938DF810808DF811808DF804808DF886
:101C10000C80CDF800A00FF02FF99DF8103003F0E4
:101C20007002002B96D101231AAA394620461B9533
:101C30008DF87530FEF760FE43B0BDE8F08F4FF4CD
:101C40007A76144A14498DF8C85044F202238DF86C
:101C5000C9508DF8BC508DF8C45032A8DFF83CA0B4
:101C6000309632ADCDF8B8A00EF070FE0FCD04F175
:101C700014094E460FC60FCD0FC628689DF8BC103C
:101C8000309A9DF8C43030602172E26023743EE7E0
:101C9000704700BF38220200D01FFF1FC01B020088
:101CA000F0B590F87860A3B004460D466EB30DB35E
:101CB0006B1C4DD029462046FFF71AFF636F0122A7
:101CC0009D4284F8802000F2A780267D05EB8505E3
:101CD0002D01002E47D004F11406294630460FF09E
:101CE0000FF8304650220EA90EF092FE0F9BE367CC
:101CF00023B0F0BD94F87930002B5FD0002201238F
:101D000084F88020E36723B0F0BD012780F8787065
:101D1000434944480EF0B4FF94F814E08DF8447041
:101D20002F2367670E9610960F968DF84560ADF8D5
:101D30004630BEF1000F45D004F1140600213046B4
:101D40000EF0DEFF304650220EA90FF0DBF8AEE7B2
:101D500000212046FFF7CCFE267D012384F8803049
:101D60000025002EB7D1304F2D4A2E490E974FF443
:101D70007A7E44F2022312A812AF8DF848608DF8E3
:101D800049608DF83C608DF84460CDF840E00EF07D
:101D9000DDFD0FCF04F11406B646AEE80F000FCFFD
:101DA000AEE80F0038689DF83C10109A9DF844305A
:101DB000CEF800002172E26023748EE72046FFF720
:101DC00031FD9BE74FF47A77174E154A1549039773
:101DD00044F2022305A805AF8DF814E08DF815E054
:101DE0008DF808E08DF810E001960EF0AFFD0FCFF2
:101DF00004F11406B646AEE80F000FCFAEE80F00B0
:101E000038689DF80810039A9DF81030CEF800004D
:101E10002172E260237491E70023E36723B0F0BDF1
:101E200038220200D01FFF1FC01B02002DE9F04125
:101E30000B7882B00446002B4BD008460E461AF0B1
:101E40009FFC257A01308DF80200002D50D0E36808
:101E50000133E3603278002A36D0002705E0E368DA
:101E60000233E36016F8012F4AB3ADF80620002DC7
:101E7000F5D1606820B915F06BFE60600028FAD0DB
:101E800030F8083BC5F10202C3F140089045A8BFF5
:101E9000904618440DF106035919424613F046FBCB
:101EA00061680B8843449BB2402B45440B801AD099
:101EB000012DDEDD16F8012F257A002AD5D1002369
:101EC000ADF804303DB3E3680233E36002B0BDE82F
:101ED000F081027A8DF80330AAB1C3680133C36080
:101EE00002B0BDE8F081042015F094F86760DFE7E8
:101EF00001220DF102012046FEF71CFB3278257A03
:101F0000002AAAD1DBE701220DF10301FEF712FB43
:101F100002B0BDE8F0812E46606820B915F018FEC9
:101F200060600028FAD030F8083BC5F10202C3F126
:101F300040079742A8BF1746184401AB59193A46C3
:101F400013F0F4FA61680B883B449BB2402B3D448C
:101F50000B8004D0012DDFDD02B0BDE8F08104204C
:101F600015F058F86660F5E730B5037A91B064254E
:101F70000446ADF82650002B00F0A680C368062268
:101F80000233C3600F9204336422E360ADF824206F
:101F90000233E3605A492046FFF748FF237A0022C4
:101FA000ADF82220002B00F0B580E3680E2202334A
:101FB000E3600E92043341F20102E360ADF82020A9
:101FC000023341F20202E360ADF81E20023341F217
:101FD0000302E360ADF81C20023341F20402E36027
:101FE000ADF81A20023341F20502E360ADF8182083
:101FF000023341F20602E360ADF81620023341F2EB
:102000000702E360ADF81420023341F20802E360F6
:10201000ADF81220023341F20902E360ADF810205E
:10202000023341F20B02E360ADF80E20023341F2BD
:102030000C02E360ADF80C20023341F20D02E360C4
:10204000ADF80A20023341F21402E360ADF8082033
:10205000023341F21502E360ADF80620023300229C
:10206000E3600D9204330122E3600C9204334DF2DD
:102070000242E360ADF8042002330022E3600B92D9
:1020800004330222E3600A9204334FF44052E360C7
:10209000ADF80220023343F20102E360ADF8002004
:1020A0000233E36020461749FFF7C0FE2046164979
:1020B000FFF7BCFE20461549FFF7B8FE204614493D
:1020C000FFF7B4FE11B030BD02220DF12601FEF77C
:1020D00031FA237A06220F92002B40F03581042238
:1020E0000FA92046FEF726FA237AADF82450002BDC
:1020F00040F02C81022209A92046FEF71BFA49E78D
:102100004C220200602202006822020070220200BB
:102110007422020002220DF122012046FEF70AFA83
:10212000237A0E220E92002B40F0128104220EA977
:102130002046FEF7FFF9237A41F20102ADF8202094
:10214000002B40F00781022208A92046FEF7F2F991
:10215000237A41F20202ADF81E20002B40F0FC80F1
:1021600002220DF11E012046FEF7E4F9237A41F226
:102170000302ADF81C20002B40F0F080022207A9DA
:102180002046FEF7D7F9237A41F20402ADF81A206F
:10219000002B40F0E58002220DF11A012046FEF7E7
:1021A000C9F9237A41F20502ADF81820002B40F05E
:1021B000D980022206A92046FEF7BCF9237A41F213
:1021C0000602ADF81620002B40F0CE8002220DF161
:1021D00016012046FEF7AEF9237A41F20702ADF868
:1021E0001420002B40F0C280022205A92046FEF7F1
:1021F000A1F9237A41F20802ADF81220002B40F039
:10220000B78002220DF112012046FEF793F9237ADE
:1022100041F20902ADF81020002B40F0AB80022201
:1022200004A92046FEF786F9237A41F20B02ADF8A5
:102230000E20002B40F0A08002220DF10E0120465E
:10224000FEF778F9237A41F20C02ADF80C20002B4E
:1022500040F09480022203A92046FEF76BF9237A0E
:1022600041F20D02ADF80A20002B40F089800222D5
:102270000DF10A012046FEF75DF9237A41F21402BE
:10228000ADF80820002B7DD1022202A92046FEF7DE
:1022900051F9257A41F21503ADF80630002D73D1BE
:1022A00002220DF106012046FEF744F9237A0D952E
:1022B000002B6BD104220DA92046FEF73BF9237AAF
:1022C00001220C92002B63D104220CA92046FEF7B8
:1022D00031F9257A4DF20243ADF80430002D59D181
:1022E000022201A92046FEF725F9237A0B95002B3F
:1022F00052D104220BA92046FEF71CF9237A0225AD
:102300000A95002B4AD104220AA92046FEF712F9A9
:10231000237A4FF44052ADF802209BB92A460DF1C2
:1023200002012046FEF706F9237A43F20102ADF8D6
:1023300000202BB92A4669462046FEF7FBF8B1E695
:10234000E368ADE6E368A5E6E3681CE6E3681FE63C
:10235000E3682FE6E36833E6E36837E6E3683BE6E5
:10236000E3683FE6E36843E6E36847E6E3684BE695
:10237000E3684FE6E36853E6E36857E6E3685BE645
:10238000E3685FE6E36863E6E36867E6E36869E6F7
:10239000E3686BE6E3686FE6E36871E6E36873E6BB
:1023A00030B504460068514A03681B68934289B0FF
:1023B00040F08F800422237AADF80620002B54D001
:1023C000E3680233E3602068494A03685B6893422C
:1023D0007AD10223257AADF80A30002D62D0E36865
:1023E00000220233E360ADF808200233E360206886
:1023F000404A03689B68934264D13F4BD8691A797D
:10240000431E5002A3FB0001237ACDE90601002BF5
:1024100042D0E3680833E3602068384A0368DB6829
:1024200093425CD1344D28460FF05EFC2A79550268
:10243000C117A5FB002305FB013310461946237A7B
:1024400004900591C3B1E3684FF0FF320833E360B5
:1024500003920433E36020462949FFF7E7FC204656
:102460002849FFF7E3FC09B030BD02220DF1060157
:102470002046FEF75FF8A6E7082204A92046FEF7EB
:1024800059F8237A4FF0FF32039253BB042203A979
:102490002046FEF74FF8DEE7082206A92046FEF7A1
:1024A00049F8B9E702220DF10A012046FEF742F889
:1024B000237AADF80850B3B9022202A92046FEF7EC
:1024C00039F894E798479FE79847002881D101237E
:1024D00080E79847012200287FF46DAF6AE79847AC
:1024E000ADE7E368B5E7E3687FE700BF910400006C
:1024F0009504000099040000941BFF1F11050000C3
:1025000078220200343302002DE9F04F037AA5B09F
:1025100004460092002B00F0D68000230293DFF8DF
:10252000A492A54B0193E3680433E3602568019A04
:102530002B681B69934240F0698195F87860002E02
:1025400000F04481009A1346002A35D195F879307D
:10255000002B00F006820022012385F88020EB6723
:10256000DFF8648225682B685B694B454ED1EE6FBE
:10257000FEB10DF1400B6B6F9E4276D82F7D002F80
:1025800048D005F1140A06EB8601090150460EF009
:10259000B7FB5046502259460EF03AFA9DF84E00CD
:1025A00095F88020DAB1129BEB6708BBEE6F002E26
:1025B000E1D125B0BDE8F08F013208BF00231946F4
:1025C00028461E46FFF794FA012385F880303246EC
:1025D000294610A8FEF7D6F9119BEB67C0E7EB6F11
:1025E000696F01338B42EB6728BFEA670028DDD0B3
:1025F000002EDED0257A0396002D3DD0E3682568B5
:102600000433E3602B685B694B45B0D0284698479C
:102610000646EDE74FF47A7E44F20223674A6849A2
:102620008DF850708DF851708DF844708DF84C70A5
:1026300014A814AFCDF848E0CDF840800EF086F92C
:102640000FCF05F1140AD646AEE80F000FCFAEE863
:102650000F003B68CEF800309DF844302B72129B7F
:10266000EB609DF84C302B748DE7502200215846CA
:1026700019F0ACFB002093E72E46606820B915F0F6
:1026800067FA60600028FAD030F8083BC5F1040210
:10269000C3F140079742A8BF1746184403AB591926
:1026A0003A4612F043FF61680B883B449BB2402BD3
:1026B0003D440B8002D0032DDFDD53E7042014F0EE
:1026C000A9FC6660F7E73C4B056801931A462B6846
:1026D0001B69934240F0498195F87860002E00F024
:1026E000D480009A002A40F0958095F87930002B2C
:1026F00000F03F810022012385F88020EB672568E8
:10270000DFF8C0902B68DFF8C0A05B694B454FF045
:10271000000B40F0E780EE6F2EB30DF140086B6FB9
:10272000B342C0F012812F7D002F00F0DF8005F151
:10273000140706EB8601090138460EF0E1FA384627
:10274000502241460EF064F99DF84E0095F8802025
:10275000002A00F0B280129BEB67002840F0B7809F
:10276000EE6F002EDBD1257ACDF808B0002D7FF476
:10277000DAAE2E46606820B915F0EAF960600028EC
:10278000FAD030F8083BC5F10402C3F14007974284
:10279000A8BF1746184402AB59193A4612F0C6FEB4
:1027A00061680B883B449BB2402B3D440B8000F09A
:1027B000D380032DDEDDB9E6A11C00003822020023
:1027C000D01FFF1F95050000C01B0200012785F8E0
:1027D00078706A496A480EF053FA2F238DF84C70CE
:1027E0001096129611968DF84D60ADF84E302E7DF4
:1027F0006F6716B305F11408002140460EF080FA09
:102800004046502210A90EF07DFB9BE60099284619
:102810009847A5E6511C14BF1646002631462846A7
:10282000FFF766F9012385F880303246294610A863
:10283000FEF7A8F8119BEB6761E74FF47A7E514FE2
:102840004E4A4F498DF81C6044F202238DF81D60FA
:102850008DF810608DF8186007A807AE0397CDF8C3
:1028600014E00EF073F80FCE05F1140847460FC7B9
:102870000FCE0FC733683B609DF810302B72059B5D
:10288000EB609DF818302B74B6E7012785F8787057
:102890003A493B480EF0F4F92F238DF84C7010960E
:1028A000129611968DF84D60ADF84E30314610AA53
:1028B0006F672846FEF720F813E7EB6F696F013367
:1028C0008B42EB6728BFEA6700283FF449AF002E30
:1028D0003FF449AF25682B685B694B450BF1010B51
:1028E0003FF419AF284698470646F0E74FF47A7E42
:1028F00044F20223214A22498DF8507014A88DF821
:1029000051708DF844708DF84C70CDF848E0CDF8DA
:1029100040A00EF01BF80DF1500EBEE80F0005F1BF
:102920001407BC46ACE80F00BEE80F00ACE80F008F
:10293000DEF80030CCF800309DF844302B72129B4A
:10294000EB609DF84C302B74F3E65022002140469A
:1029500019F03CFA0020F9E6042014F05BFB6660F5
:1029600027E72846FEF75EFFF5E5284600999847D9
:10297000C5E62846FEF756FFBCE600BF3822020037
:10298000D01FFF1FC01B02002DE9F0430446006862
:10299000AA4B026895699D42E5B040F0228110ADD6
:1029A0000A4624AF01462846FDF7ECFF38460DF1F4
:1029B0004E0119F083FE0DF114082B7B2A68C8F82C
:1029C0000020002B63D16B68049304AE237A0122AC
:1029D0000692002B5ED0E368326804330132E36074
:1029E00000F00A810022ADF80C2002330022E360DF
:1029F000ADF80A2002333268E3600E9204330022FD
:102A0000E360ADF8082002330022E3600D92043346
:102A10000022E3600C9204330022E3600B92043343
:102A20000022E3600A9204330022E3600992043337
:102A30000022E36008920433D8F80020E360079294
:102A40003268A2F1FF32B2FA82F252090433E36033
:102A5000ADF80E2002330022E3602A600433002226
:102A6000E3600F920433E36039462046FFF7DEF956
:102A700020467349FFF7DAF920467149FFF7D6F986
:102A800020466F49FFF7D2F965B0BDE8F0834FF0FB
:102A9000FF3399E706A904222046FDF74BFD336872
:102AA00094F80890013343F2010318BF0023ADF8F6
:102AB0000C30B9F1000F40F0A88003A90222204693
:102AC000FDF738FD237AADF80A90002B40F09F8087
:102AD00002220DF10A012046FDF72CFD237A32680F
:102AE0000E92002B40F095800EA904222046FDF79F
:102AF00021FD237AADF80890002B40F08C8002A9CC
:102B000002222046FDF716FD237ACDF83490002BE3
:102B100040F083800DA904222046FDF70BFD237AA7
:102B2000CDF83090002B7AD10CA904222046FDF775
:102B300001FD237ACDF82C90002B72D10BA9042231
:102B40002046FDF7F7FC237ACDF82890002B6AD1B8
:102B50000AA904222046FDF7EDFC237ACDF8249043
:102B6000002B62D109A904222046FDF7E3FC237A59
:102B7000CDF82090002B5AD1042208A92046FDF759
:102B8000D9FC237AD8F800200792002B51D107A94D
:102B900004222046FDF7CEFC336894F80880A3F1A8
:102BA000FF33B3FA83F35B09ADF80E30B8F1000FD1
:102BB00041D10DF10E0102222046FDF7BBFC267A21
:102BC000C5F80080FEB9294604222046FDF7B2FC74
:102BD000237A0F96ABB90FA904222046FDF7AAFC71
:102BE00042E704AE24AF0DF1140833463A46CDF85F
:102BF0000080A84710ADE9E643F20102ADF80C20D1
:102C0000F3E6E3682EE7E36828E7E368EDE6E368C8
:102C1000F0E6E368F2E6E368F5E6E368F7E6E36822
:102C2000F9E6E368FBE6E368FDE6E368FFE6E368F0
:102C300001E7E36804E7E3680CE700BFF90600007A
:102C400034330200002A31D02DE9F04104460F460A
:102C500016464FF00008606828B9042014F032F9D5
:102C600060600028F9D0418805886D1AB54228BFF8
:102C7000354637B1083001442A46384612F056FC32
:102C80002F446068438802882B449BB29A42A6EB8B
:102C90000506438003D0002EDDD1BDE8F08114F09D
:102CA00077FFC4F80480002ED5D1F6E7704700BF47
:102CB0002DE9F04385B0904606460F46684611461A
:102CC0000A2299460C9C0D9D12F0C8FA694650489C
:102CD00012F016FB684612F04FFAB8F1090F40F3F4
:102CE00086800A223946684612F0B8FA6946494891
:102CF00012F006FB684612F03FFA092F67DD0A2240
:102D00003146684612F0AAFA6946434812F0F8FACA
:102D1000684612F031FA092E49DD0A222946684632
:102D200012F09CFA69463D4812F0EAFA684612F041
:102D300023FA092D2BDD0A222146684612F08EFA6D
:102D40006946374812F0DCFA684612F015FA092C89
:102D50000EDC3449684612F04FFA3149684612F0E9
:102D600019FB01462E4812F0C3FA684612F004FA25
:102D70000A224946684612F071FA69462A4812F05A
:102D8000BFFA684612F0F8F905B0BDE8F0832549AE
:102D9000684612F031FA2149684612F0FBFA014602
:102DA0001E4812F0A5FA684612F0E6F9C3E71D497D
:102DB000684612F021FA1849684612F0EBFA01460B
:102DC000154812F095FA684612F0D6F9A5E71549AC
:102DD000684612F011FA0F49684612F0DBFA014614
:102DE0000C4812F085FA684612F0C6F987E70D49DB
:102DF000684612F001FA0649684612F0CBFA01461D
:102E0000034812F075FA684612F0B6F969E700BF98
:102E10005028FF1F5819FF1F2819FF1F501AFF1FA6
:102E2000F019FF1F802202002428FF1F2DE9F04324
:102E300083B00CF079FBDFF86490DFF86480C9F8A8
:102E400000000CF061FBC8F800000CF04DFB0F4FC8
:102E50000F4E38600CF078FB30600CF085FB0D4DA8
:102E600028600CF091FB2B6836680B4DD9F80020D8
:102E7000D8F80010044638688DE8480023462C60D6
:102E8000FFF716FF03B0BDE8F08300BF8019FF1FF6
:102E90007819FF1F7C19FF1FC427FF1FAC28FF1FD5
:102EA0007019FF1F70B5FA208AB013F099F8BD4B66
:102EB000BD49BE4800241C600BF0ECFE4FF6E071EB
:102EC000BA480BF029F82146B8480BF03BF80A2322
:102ED00042F20E72B649B5480094AA250BF060FD87
:102EE00045F27131B1480BF017F80095962328226E
:102EF0000A21AE480BF0A4F84FF4A07629460095BD
:102F00004FF49B732822A9480BF09AF8E623BE22BF
:102F10005A21A64800960BF093F84FF6FF71A3488C
:102F20000AF0FAFF0095962328220A219F480BF009
:102F30009DF9294600954FF49B7328229B480BF07E
:102F400095F9E623BE225A21984800960BF08EF997
:102F5000A9254BF6F75195480AF0DEFF0095952319
:102F600029220B2191480BF081F9009540F235138D
:102F70002922AB218D480BF079F940F23F13BF2293
:102F800000935B21E52389480BF070F94FF6FF7140
:102F900086480AF0C1FF45F2713184480AF0D2FF39
:102FA0003C2310228349814800940BF0F9FC5A23FA
:102FB000282281497D4800940BF0F2FC3C23D0226A
:102FC0007E497A4800940BF0EBFC5A23B8227C49E6
:102FD000764800940BF0E4FC7823B02279497348DA
:102FE00000940BF0DDFCD223802277496F480094D7
:102FF0000BF0D6FCF02360226E496C4800940BF075
:10300000CFFC214669480AF09DFF704B1D78002DCA
:1030100058D14FF4784165480AF07EFF40F25913C9
:103020000A226B49614800950BF0BAFC0CF0E0FAFB
:10303000022858D04FF478415C480AF06DFF002315
:1030400000930A224FF4B973624958480BF0A8FC68
:1030500002AC06AD40F2BD1200924FF49B730A2100
:1030600052480BF0FDF95C4950480BF013FE5B49E8
:10307000204612F0C1F85A49204612F08BF900267A
:103080000146284612F0CCF829464FF4E17342F28B
:103090000E72009645480BF0EDFC284612F06CF8D5
:1030A000204612F069F840F2D11342F20E720096F7
:1030B0004C493E480BF074FC3B493C480BF0EAFDA0
:1030C0000AB070BD4FF4FC6138480AF025FF40F2A9
:1030D00059130A224449354800940BF061FC0CF066
:1030E00087FA0228A6D1FFF7A1FE002640F2FF7161
:1030F0002E480AF011FF4FF4B9730A2200963B499B
:103100002A480BF04DFC02AC4FF6FF7127480AF03D
:1031100003FF2046364912F083F82046354912F065
:1031200041F9354912F036F9324912F03BF9334989
:1031300012F030F906AD0146284612F071F84FF44E
:10314000C3730A222946009618480BF093FC2846C0
:1031500012F012F8204612F00FF82046284912F01B
:103160005FF82046274912F01DF9274912F012F99D
:10317000244912F017F9254912F00CF901462846A6
:1031800012F04EF829464FF4CD730A2200960748F4
:103190000BF070FC284611F0EFFF204611F0ECFF19
:1031A00058E700BF4C28FF1F343F0200041AFF1FDE
:1031B0008422020094220200A0220200A82202001F
:1031C000B0220200B8220200C4220200901BFF1F9E
:1031D000CC220200EC220200BC3A020014230200BE
:1031E000DC19FF1F30230200E0220200002302004E
:1031F0002428FF1F10230200F019FF1F501AFF1F81
:103200002819FF1F843402005819FF1F5028FF1F80
:103210002DE9F0438FB006A8002111F0EDFF03AFB8
:10322000DFF86480C7F18005C7F1E0090DF11606EB
:103230003C46281912F02AF904F8010BB442F8D1DF
:1032400039460AA811F0D8FF0AA906A812F058F8C2
:103250000AA811F091FF00230922694606A812F07E
:10326000AFF81022002168461AF07EFC203548F89D
:10327000040B052012F0B4FE4D45D9D106A811F07B
:103280007BFF0FB0BDE8F0839824FF1F30B52B4CB7
:1032900083B04FF4EB75204600210AF03DFE204636
:1032A00000954FF49B734FF4CD72A0210BF03CF8C6
:1032B000204645F271310AF02FFE009520464FF46A
:1032C0009B734FF4CD72DC210AF0BAFE20464FF614
:1032D000FF710AF021FE009520464FF49B734FF4D6
:1032E000CD72DC210AF0C2FF20464BF6F7510AF0FE
:1032F00013FE40F2D51340F29B1220460093DD21CD
:1033000040F235130AF0B2FF204645F271310AF05F
:1033100019FE002520464FF6FF710AF0FDFD2046FC
:1033200000954FF4D873E92205490BF039FB294683
:10333000204603B0BDE830400AF004BE041AFF1F67
:10334000482302002DE9F04F4FF0000985B0804678
:103350004F4660480BF0B6FE58B9002FF9D0B9F1CE
:10336000000F00F09B805B4801270BF0ABFE0028AC
:10337000F3D058480BF0C8FD56480BF0B9FEA0F149
:103380000A0B824653480BF0F5FEBBF1280F0646A8
:1033900034D8B8F1000F31DD342401250FE00AF0F4
:1033A000BBFD04F124030093224630230C214A483C
:1033B00001350AF045FEA84504F132041EDBA31EC8
:1033C0009E424FF00001444804F12602E7DB96429A
:1033D000E5DC4FF4FC610AF09FFD04F12403009347
:1033E000224630230C213C480AF02AFE0395013581
:1033F000A8454FF0010704F13204E0DAA6F5CD76D6
:103400003C2E44D8AAF1F00ABAF1460F3CD8002F5E
:103410009FD0002130480AF07FFD40F299130093BD
:1034200019224FF49B730A212B480AF07DFF4FF4B9
:10343000EB734FF4CD720093DC214FF49B7326485D
:103440000AF072FF00244FF6797123480AF064FDF8
:103450004FF4CD73A02221491F4800940BF0A0FA2D
:103460004FF4D773A0221E491B4800940BF098FA22
:1034700000944FF4E173A0221A4917480BF090FA18
:10348000B9F1000F0ED11EE0BBF16C0F15D9002F62
:103490003FF45FAFB9F1000F7FF465AF4C46FFF723
:1034A000F5FE34B1C82012F09BFD039805B0BDE8CD
:1034B000F08F4FF001094F464BE737B1B9F1000FDC
:1034C00005D1CDF80C900124E9E70397EAE7002342
:1034D0000393E7E7DC27FF1F041AFF1F50230200B6
:1034E00058230200382C020008B505480AF0AAFC4F
:1034F000C82012F075FDBDE80840FFF7D3BC00BF3F
:10350000041AFF1F002A12DDF8B5054600201746F1
:103510000E460446315D2844013411F0D1FFE4B277
:103520000A2012F05DFDBC422046F3DBF8BD704777
:10353000F0B5002A8BB018DD0E46920002A906EB0A
:10354000020E0F4656F8044B019401AB3C4613F8AB
:10355000015B04F8015B8B42F9D1764507F1040762
:10356000F0D1FFF7CFFF0BB0F0BD920002A9F8E752
:10357000F0B5A74C0FCCB7B01EAD0FC50FCC0FC523
:1035800094E80F0004F1100685E80F000FCE2AAD75
:103590000FC50FCE0FC596E80F00403485E80F0029
:1035A0000FCC16AD0FC594E80F0000270024059737
:1035B000069785E80F0097488DF810408DF8114068
:1035C0000AF040FC94499348944E0BF063FB4FF68D
:1035D000E07190480AF0A0FC462342F20E72904936
:1035E0008C4800940BF0DCF921460AA811F004FE87
:1035F000334606F10C000EAA13F8011B02F8011B5A
:103600009842F9D10C220EA92020FFF77BFF07ADCD
:103610002024204611F03AFF01342C2C05F8010B30
:10362000F7D107A90EA811F0E7FD0EA90AA811F01D
:1036300067FE0EA811F0A0FD00230C2207A90AA81E
:1036400011F0BEFE754907A818F0CEFE05466420AD
:1036500012F0C6FC734B0EAA581D13F8011B02F89A
:10366000011B9842F9D105220EA90020FFF74AFF5D
:10367000642012F0B5FC1EAF4FF400743A68D7F81E
:1036800004E0BB680E922046203403220EA9A4B2A7
:10369000CDF83CE01093FFF74BFFB4F5207F07F126
:1036A0000C07EBD16420002412F09AFC04220EA92E
:1036B0004FF440700E940F9410941194FFF738FF5C
:1036C00004220EA94FF448700E940F941094119494
:1036D000FFF72EFF642012F083FC2AAF4FF48064C2
:1036E0003A68D7F804E0BB680E92204620340322E3
:1036F0000EA9A4B2CDF83CE01093FFF719FFB4F582
:10370000906F07F10C07EBD1642012F069FC73791C
:10371000302B0CD000234FF4C06003220EA90E936F
:103720000F931093FFF704FF642012F059FCF37A13
:10373000302B08D04FF40060012205A9FFF7F8FEF6
:10374000642012F04DFC012206A94FF40660FFF739
:10375000EFFE642012F044FC16AE4FF4E0643268D1
:1037600073680E922046203402220EA9A4B20F9351
:10377000FFF7DEFEB4F5F06F06F10806EFD136ACC8
:103780000126022204A94FF42060FFF7BBFE04F8D3
:10379000CC6D324621464FF41060FFF7B3FE32463F
:1037A000214640F60110FFF7ADFE3246214640F6B5
:1037B0000510FFF7A7FE324621464FF41160FFF7D0
:1037C000A1FEADB94FF4784112480AF0A5FB00956F
:1037D000462342F20E7214490E480BF0E1F840F60F
:1037E000B83012F0FDFB0AA811F0C6FC37B0F0BDEE
:1037F0004FF4FC6107480AF08FFB0023009342F26C
:103800000E724623094903480BF0CAF8E7E700BFE8
:10381000181C0200041AFF1F343F0200440CFF1F53
:1038200064230200580CFF1F84230200702302004F
:103830002DE9F047624882B00AF004FB4FF4FA70B9
:1038400012F0CEFB5F495E4800240BF023FA4FF6DE
:10385000E0715B480AF060FB234642F20E7200946E
:10386000594957480BF09CF84FF4EB754FF4484119
:1038700053480AF051FB76234FF4CD720A21504889
:1038800000950AF0DDFB4FF6FF714D480AF044FB4E
:1038900076234FF4CD720A21494800950AF0E6FCE0
:1038A0004BF6F75146480AF037FB40F2D51340F289
:1038B0009B1200930B21752341480AF0D7FC4FF46B
:1038C00048413F480AF03EFB4FF6FF713C480AF082
:1038D00023FB4FF4D873102200943C4938480BF076
:1038E0005FF8214636480AF02DFB4FF679713448CF
:1038F0000AF012FB00944FF4CD73A02234493048F3
:103900000BF04EF800944FF4D773A02231492C48A5
:103910000BF046F84FF4E173A02200942E4928489A
:103920000BF03EF840F2FF7125480AF0F5FA192332
:103930000A220094294922480BF032F84FF6FF7111
:103940001F480AF0E9FA00943E233C2224491C480F
:103950000BF026F8009470233C22224918480BF003
:103960001FF80094A2233C221F4915480BF018F8B9
:103970004FF6FF7112480AF0CFFA322404F12803FF
:10398000224600930A2132230D480AF06FFC04F10D
:1039900027030093621C31230B21323408480AF0BC
:1039A00065FCC82CEAD10320FFF7CCFC032800F209
:1039B000D783DFE810F0780112020D02A70100BFE3
:1039C000041AFF1F343F020090230200A0230200CC
:1039D0005023020058230200382C0200A8230200C2
:1039E000B8230200AC260200C4230200B04C3223EC
:1039F000A371002440F2FF71AE480AF08DFA19233A
:103A00000A22AD49AB4800940AF0CAFF4FF6FF7195
:103A1000A8480AF081FA3E233C22A849A548009410
:103A20000AF0BEFF70233C22A549A24800940AF088
:103A3000B7FF4FF6FF719F480AF06EFA32235A2201
:103A400000920A211A469B480AF010FC5923009361
:103A5000332231230B2197480AF008FC8C23009372
:103A6000642232230A2193480AF000FC8B2300933E
:103A7000652231230B218F480AF0F8FB0220FFF763
:103A800061FC012800F0EC82022800F0BB820028D3
:103A900000F00981864C8B4B8B4A19688B480023B8
:103AA0000CF054FF8A4B05461870002840F0DC8269
:103AB00086480CF013FE29467E480AF02DFA40F2A3
:103AC000DF1300931E224FF49B730A2179480AF0FA
:103AD0002BFC422731232D22302640F2FF717548FE
:103AE0002770A37023726672A2720AF015FA462339
:103AF00042F20E72009577496E480AF051FF4FF678
:103B0000FF716C480AF008FA0095642342F20E72C5
:103B1000674968480AF044FF4FF0DC0A4FF0CD09CE
:103B20004FF0BE08AA279B268C2500246A496148CD
:103B30000BF0B0F82B460A2268495E4800940AF060
:103B40002FFF33460A2266495A4800940AF028FF9C
:103B50003B460A226349574800940AF021FF434636
:103B60000A226149534800940AF01AFF4B460A2280
:103B70005E49504800940AF013FF53460A225C49FC
:103B80004C4800940AF00CFF5A494A480BF082F85E
:103B90004FF4EB7545F2713146480AF0BDF94FF428
:103BA0009B734FF4C3720095AA2142480AF048FA69
:103BB0004FF448413F480AF0AFF996234FF4C372DF
:103BC00000950A213B480AF03BFA4FF6FF7139484D
:103BD0000AF0A2F900954FF49B734FF4C372AA2127
:103BE00034480AF043FB96234FF4C37200950A2130
:103BF00030480AF03BFB40F2D5154BF6F7512D4803
:103C00000AF08AF940F2351340F28712AB212948B5
:103C100000950AF02BFB952340F287120B212548D3
:103C200000950AF023FB4FF6FF7122480AF074F961
:103C300045F271311F480AF085F94FF4D373D02251
:103C40002D491C4800940AF0ABFE4FF44841194836
:103C50000AF078F92949174800944FF4D3732022C9
:103C60000AF09EFE214613480AF06CF924480BF036
:103C700029FA0028FAD022480BF046F920480BF028
:103C800037FA04461E480BF075FAA0F59B70A02881
:103C9000A4F10A03EAD88C2BA4F1AA0403D98C2C32
:103CA000E4D8FFF765FC02B0BDE8F047FFF71CBCA5
:103CB000440CFF1F041AFF1F58240200682402004E
:103CC000702402002029FF1F7C2402007428FF1F9B
:103CD0006819FF1F94240200BC3A0200B4240200B9
:103CE000DC24020004250200242502004C250200E9
:103CF00074250200343F020090250200982502003E
:103D0000DC27FF1FC14C3323E3720025002440F25F
:103D1000FF71BF480AF000F919230A220094BD4937
:103D2000BB480AF03DFE4FF6FF71B9480AF0F4F8BF
:103D30003E233C220094B849B5480AF031FEB74909
:103D4000B3480AF0A7FF3E23CC220094B449B04800
:103D50000AF026FEB349AE480AF09CFF0094702397
:103D60003C22B149AA480AF01BFE0094A2233C223F
:103D7000AE49A7480AF014FE4FF6FF71A4480AF0B6
:103D8000CBF8322404F12803224600930A2132237F
:103D90009F480AF06BFA04F127030093621C312359
:103DA0000B2132349A480AF061FAC82CEAD1032078
:103DB000FFF7C8FA032819D801A353F820F000BF71
:103DC000A73C0000473F00003F3F0000E73D0000E8
:103DD0008E4C3223E372002598E78C4C3023E3723B
:103DE0006371012592E7894C3323E370002440F28C
:103DF000FF7187480AF090F819230A2200948C4931
:103E000083480AF0CDFD4FF6FF7181480AF084F82F
:103E100000943E233C2287497D480AF0C1FD00946E
:103E200070233C2284497A480AF0BAFD0094A22308
:103E30003C22824976480AF0B3FD4FF6FF71744880
:103E40000AF06AF8322404F12803224600930A217A
:103E500032236F480AF00AFA04F127030093621C28
:103E600031230B2132346A480AF000FAC82CEAD117
:103E70000320FFF767FA03280FD801A353F820F0B7
:103E8000A73C0000913E0000593F00004F3F00005A
:103E90005E4B31221A7105B95A71002440F2FF714C
:103EA0005B480AF039F819230A22654958480094FA
:103EB0000AF076FD4FF6FF7155480AF02DF83E23C3
:103EC0003C226049524800940AF06AFD70233C226B
:103ED0005D494F4800940AF063FD4FF6FF714C486E
:103EE0000AF01AF832235A2200920A211A46484848
:103EF0000AF0BCF959230093332231230B214448A3
:103F00000AF0B4F98C230093642232230A2140483A
:103F10000AF0ACF98B230093652231230B213C4836
:103F20000AF0A4F90220FFF70DFA012800F09480AE
:103F300002283FF45BAD00287FF45BADB3E6334C61
:103F40003223E37052E7314C3123E3704EE72F4CBC
:103F5000322323716371A0E72C4E31243471002D7C
:103F60009BD140F2FF712A4809F0D6FF19230A229B
:103F70003649274800950AF013FD4FF6FF71244893
:103F800009F0CAFF3E233C223149214800950AF03E
:103F900007FD70233C222F491D4800950AF000FDC3
:103FA0004FF6FF711A4809F0B7FF32235A220092E8
:103FB0000A211A4616480AF059F959230093332268
:103FC00023460B2112480AF051F98C2300936422F6
:103FD00032230A210E480AF049F98B230093652207
:103FE00023460B210A480AF041F90220FFF7AAF9FB
:103FF000012800F0B280022800F0AD8000287FF494
:104000004CAF50E6014C3123E37144E5440CFF1FF3
:10401000041AFF1FCC230200D8230200BC3A02007E
:10402000E4230200343F0200F0230200FC230200DC
:104030000024020014240200242402002C24020084
:10404000382402004824020050240200A025020067
:10405000AC250200B4250200424C3123A371C8E410
:10406000404C3023E37116E5002306223E493F48C9
:1040700000250CF095FD40F2FF713D4809F04CFF22
:104080003C230A2200953B4939480AF089FC4FF647
:10409000FF71374809F040FF5A230A223249009540
:1040A00033480AF07DFC31480CF018FB29463048B3
:1040B00009F032FF40F2DF1300931E224FF49B738E
:1040C0000A212B480AF030F9422731232D223026CD
:1040D00040F2FF7126482770A37023726672A272A5
:1040E00009F01AFF462342F20E7200952249204839
:1040F0000AF056FC4FF6FF711D4809F00DFF6423CE
:1041000042F20E720095174919480AF049FC40F234
:10411000FF71174809F000FF8C2342F20E720095E0
:10412000164913480AF03CFC4FF6FF71104809F09D
:10413000F3FE0095AA2342F20E720B490C480AF0D6
:104140002FFC4FF4917A40F213194FF48278F02744
:10415000E126D225E9E474719FE6302373719CE671
:104160000025D3E5440CFF1F580CFF1F7428FF1FC8
:10417000041AFF1F8424020094240200A4240200D5
:10418000F8B52723294C2A4E23220546012118463B
:104190003370227011F0FAFE3078002111F0E2FE47
:1041A0002078012111F0F2FE2078002111F03AFD73
:1041B000322D28D0332D14D0312D00D0F8BD1D4A1A
:1041C0001D481E4E1E4C1F491F4B1060822741F296
:1041D000941500204FF4B4723760256008601A60AF
:1041E000F8BD164A164E174C1249174B6420106042
:1041F00046F2A817022510204FF4C87237602560D8
:1042000008601A60F8BD0D4A0D4E0E4C09490E4B60
:104210006420106046F2A81700254FF480704FF418
:1042200083723760256008601A60F8BDD819FF1FD7
:10423000C024FF1FB419FF1FD0010100D827FF1FA2
:104240004019FF1F1020FF1FD419FF1F08B512F0DF
:1042500055FC064B0021187811F0E4FC044B0021BA
:104260001878BDE8084011F07DBE00BFD819FF1FC7
:10427000C024FF1F10B5384BDB7A322B82B00446C6
:104280003AD0332B02D135480EF02CFEFA2011F033
:10429000A7FEFFF7DBFF0021314809F03DFE4FF498
:1042A000AC7315220093022140F23D132C480AF012
:1042B0003BF84FF478412A4809F02EFE0023009382
:1042C00027482849962342F20E720AF069FBA01F84
:1042D00008280FD8DFE800F0141F2A0E0E0E0E3546
:1042E00005000023009342F20E72C8231E491C48A9
:1042F0000AF056FB02B010BD1C480BF029FBC5E7C5
:104300000023009342F20E72C823194914480AF0A0
:1043100047FB02B010BD0023009342F20E72C82387
:1043200014490F480AF03CFB02B010BD0023009373
:1043300042F20E72C823104909480AF031FB02B05C
:1043400010BD0023009342F20E72C8230B490448AB
:104350000AF026FB02B010BD440CFF1F3825FF1FDA
:10436000041AFF1F7830020010260200C824FF1F25
:10437000BC250200D0250200E8250200FC25020031
:1043800030B57D4A7D4B107889B0002401211C7026
:1043900011F0E8FD7A4BDB7A322B49D0332B44D134
:1043A000784BC821187811F03DFCAA2342F20E7216
:1043B0007549764800940AF0F3FAD02342F20E725F
:1043C0007349724800940AF0EBFA724972480EF091
:1043D000CFFC40F2DC5011F003FE642203A96E48CA
:1043E0000EF0C6FDA0425FDB6C4B6D4C18789DF85B
:1043F0000C30237016F0F2FC9FED5D0B41EC110BBD
:1044000014F09AF951EC100B17F036F82378654A3E
:10441000183BDBB2192B107000F2A380624A22FA1B
:1044200003F3DB0740F19D800124204609B030BD35
:104430000094AA2342F20E72534954480AF0B0FA8B
:10444000D02342F20E725249009450480AF0A8FA62
:104450004FF47A6011F0C4FD40F2124012F0CAFA33
:104460004FF4FA7011F0BCFD504951480BF04EF971
:10447000072405464FF4FA70EDB911F0B1FD4B4930
:104480004B480BF043F9013C0546F3D121463F4828
:1044900009F042FDEC230093AA224FF49B730A21FA
:1044A0003A4809F041FF9DB90620FFF7E3FE0024DA
:1044B000204609B030BD0021344809F02DFDEC2321
:1044C0000093AA224FF49B730A21304809F02CFF75
:1044D00000240094AA23A02236492C480AF060FA4E
:1044E000D023A0222A49009428480AF059FA40F61D
:1044F000B83011F075FD4FF4FA7011F071FD2C48D1
:104500000BF0AEF90F2504464FF4FA70DCB911F048
:1045100067FD27480BF0A4F9013D0446F4D1294674
:104520001A4809F0F9FCEC230093AA224FF49B737C
:104530000A21164809F0F8FE002C7FF475AF072019
:10454000FFF798FE71E70021104809F0E5FCEC2325
:104550000093AA224FF49B730A210C4809F0E4FE51
:1045600063E70E20FFF786FE00245EE7AFF30080CE
:104570000000000000000040C024FF1F1420FF1FA7
:10458000440CFF1FD819FF1F28260200041AFF1F22
:104590003C260200000EFF1F3825FF1FD019FF1F09
:1045A000A424FF1F4828FF1F01400102343A0200E3
:1045B000C824FF1F4C2602002DE9F0472DED048B87
:1045C00090B0B2EE040A012107A810F05BFE07A923
:1045D0000BA810F025FED0490BA810F0E3FE014611
:1045E00003A810F01DFE0BA810F0C6FD07A810F0E0
:1045F000C3FD4FF6FF71C94809F08EFC03A90BA853
:1046000010F00EFE00230BA90093EA224FF4B473BE
:10461000C2480AF02FFA0BA810F0AEFD0220FFF7F7
:10462000AFFE002840F019810124BD4E9FEDBD9AD8
:10463000DFF82483DFEDBC8A9FEDBC8A37464FF05C
:104640002009002514B3BA480AF03CFD0028F9D02F
:10465000002DF7D1B6480AF057FCB5480AF048FDDE
:104660008246B3480AF086FD6FF4D27318443A28A4
:10467000E8D8AAF10A03562B00F28580AD4B092237
:104680004FEA49091A600125002CDCD14FF4FA6188
:10469000A3480EF07FFB0028C0F2938097F8D13139
:1046A0004BB1DFF890A2DAF800300133032BCAF8DF
:1046B000003000F3AA80D6ED726AF4EEC96AF1EE1A
:1046C00010FA5CDD9C4B96ED737A93ED006ADFF88F
:1046D0008CE29FED9A5AF6EE007A37EE277AB8EE22
:1046E000C66A07EE909AF8EEE75A77EE067AFDEE84
:1046F000E77A17EE903A83FB08011944DA17C2EB08
:1047000021224FF4B47101FB1233CB1A5EF823203F
:1047100007EE102AB8EEC77A27EE267A87EE286AC7
:1047200026EE257AC7EE087A77EE857AFDEEE77AEF
:1047300017EE901A4A1EB2F59F7F84D2804ADFEDB1
:10474000817A52F8233007EE103AB8EEC77A67EE56
:10475000266A86EEA87A67EE255A85EE887A77EE85
:10476000C77AFDEEE77A17EE902AA2F11503B3F5AA
:104770009F7FBFF468AF694809F0F2FB63E701204F
:1047800011F02EFC5FE7AAF17503562B08D8694B90
:1047900009EBD97909224FEA69091A60012551E725
:1047A000AAF1E00ABAF1560F3FF64CAF002C00F028
:1047B000188103A810F0E0FC10B0BDEC048BBDE83C
:1047C000F08764220BA956480EF0D2FB0028FFF6B2
:1047D0003AAF4FF47A62214651480EF081FC00282E
:1047E000C0F2C78021464D4809F096FB4FF4A973EB
:1047F000009315224FF49F730121484809F094FD5E
:104800004FF47A7011F0ECFB1DE72146434809F0A4
:1048100083FB4FF4A9731522009301214FF49F737A
:104820003E4809F081FD4FF494613C4809F074FB67
:104830000323B422A021394809F05EFCDAF80030E5
:10484000082B00F39B8025464FF6E071334809F0B2
:1048500063FB0023CAF800302DE74FF6E0712F48C4
:1048600009F05AFB384B1B78183B0024192B3FF6F4
:10487000DCAE01A252F823F0614900002B46000093
:104880002B4600002B4600002B4600002B46000064
:104890002B4600002B4600002B4600002B46000054
:1048A0002B4600002B4600002B4600002B46000044
:1048B000054900002B460000F34800002B4600008D
:1048C0002B4600002B4600002B4600002B46000024
:1048D0002B4600002B4600002B460000E14800005C
:1048E00000944FF4C3730A2218490C480AF058F890
:1048F0009BE600944FF4C3730A22154907480AF057
:104900004FF892E600944FF4C3730A22114903480A
:104910000AF046F889E600BF60260200041AFF1F6D
:104920003825FF1F0000C84200401C4600007A44A2
:10493000DC27FF1F2C25FF1F540CFF1F0000204306
:104940009434020000003443A424FF1F9826020080
:104950007826020088260200B7600BB6981C020079
:1049600000944FF4C3730A22224923480AF018F82E
:104970005BE60820FFF77EFC012464E607EE909AD0
:104980009FED1E0AF8EEE77A012180EE270A07A8BC
:1049900010F078FC07A90BA810F042FC18490BA8EE
:1049A00010F000FD014603A810F0A2FC0BA810F0C7
:1049B000E3FB07A810F0E0FB4FF6FF710E4809F08B
:1049C000ABFA03A90BA810F02BFC00944FF4B473BE
:1049D000EA220BA908480AF04DF80BA810F0CCFB0E
:1049E00032E708480EF07EFAFA2011F0F9FAFFF7E4
:1049F0002DFCDEE668260200041AFF1F0000A0431B
:104A0000602602003825FF1F2DE9F04F2DED028BA7
:104A100093B0B2EE040A01210AA810F033FC0AA9EF
:104A20000EA810F0FDFBAB490EA810F0BBFC014630
:104A300006A810F0F5FB0EA810F09EFB0AA810F0D7
:104A40009BFB4FF6FF71A44809F066FA002406A903
:104A50000EA810F0E5FB4FF4B473EA220EA99E48AD
:104A600000940AF007F80EA810F086FB4FF6E071EC
:104A7000994809F051FA984800944FF4C3730A22F8
:104A8000964909F08DFF2046FFF77AFC002840F098
:104A9000E1800124DFF86082DFF860A2DFF8609235
:104AA000DFED8F8AC3462027002504B38D480AF026
:104AB00009FB0028F9D0002DF7D18A480AF024FA22
:104AC00088480AF015FB064686480AF053FB6FF447
:104AD000D27318443A28E8D8A6F10A03562B66D8B0
:104AE00009237F00C8F800300125002CDED104A87E
:104AF0000DF10F027C490AF03FFE9DF80F30002BAC
:104B0000D4D004A80AF094FD00285CD104A80AF0CF
:104B100091FD04A8B0EE408A0AF092FD00EB8000FF
:104B2000400080B264283ED9704B1B6898423ADA44
:104B3000F6EE007A38EE278A6D4BFDEEC87A17EE56
:104B4000906A53F8262002FB00F28AFB0213D21768
:104B5000C2EB233307FB03F389FB0321DB17C3EB12
:104B6000A11101F19F03B3F59F7F01F1A0019DD237
:104B7000604B53F8263003FB00F08AFB0023C0177C
:104B8000C0EB233307FB03F389FB0302DB17A3EB23
:104B9000A21202F19F03B3F59F7F87D2B4324E4831
:104BA00009F0DEF982E7012011F01AFA7EE7A6F19A
:104BB0007503562B3AD807EBD77709237F10C8F82F
:104BC0000030012571E7D8F800300133032BC8F815
:104BD00000309BDD2146404809F09EF94FF4A9734F
:104BE0001522009301214FF49F733B4809F09CFB71
:104BF0004FF49461384809F08FF90323B422A021BF
:104C0000354809F079FA4FF6FF71334809F084F915
:104C1000DBF80030082B2CDC25464FF6E0712E48DF
:104C200009F07AF90023C8F800306FE7E03E562E0D
:104C30003FF63BAF2C480AF08BFEFA2011F0D0F97A
:104C4000FFF704FB06A810F097FA13B0BDEC028B37
:104C5000BDE8F08F4FF47A7011F0C2F922480AF0E3
:104C600041FE00287FF416AF0820FFF703FB012464
:104C700010E707EE907AB8EEE70A012188EE800A85
:104C80000AA810F0FFFA0AA90EA810F0C9FA1149F3
:104C90000EA810F087FB014606A810F029FB0EA80D
:104CA00010F06AFA0AA810F067FA4FF6FF710A4886
:104CB00009F032F906A90EA810F0B2FA00944FF4E8
:104CC000B473EA220EA9044809F0D4FE0EA810F02D
:104CD00053FAA2E760260200041AFF1FA82602006A
:104CE0000000A043DC27FF1FC824FF1F4019FF1F3F
:104CF000981C0200943402002C25FF1FAD8BDB684A
:104D0000D34D621070B5714882B009F09BF87049BC
:104D10006E4840F2DF1409F0BDFF45F271316B4877
:104D200009F0FAF80094602340F2A5120A216748BE
:104D300009F086F90094CB2340F2A512752163484F
:104D400009F07EF94FF49B7340F2A5120094E02124
:104D50005E4809F075F94FF6FF715C4809F0DCF820
:104D60000094602340F2A5120A21584809F07EFA07
:104D70000094CB2340F2A5127521544809F076FA2D
:104D80004FF49B7340F2A5120094E0214F4809F0C4
:104D90006DFA4FF4EF744BF6F7514C4809F0BCF83C
:104DA00000945F234FF4D3720B21484809F05EFA58
:104DB0000094CA234FF4D3727621444809F056FA7E
:104DC00040F235134FF4D3720094E1213F4809F0CB
:104DD0004DFA45F271313D48002409F0B3F84FF621
:104DE000FF713A4809F098F84FF4DD732D223949E4
:104DF0003648009409F0D4FD4FF4DD73982236490B
:104E00003248009409F0CCFD4FF4DD73EB223349B6
:104E10002E48009409F0C4FD21462C4809F092F870
:104E200013254FF6FF71294809F076F84FF4AD7657
:104E30002A462146009540F23F13244809F010FB12
:104E400032462146009640F23F13204809F008FB05
:104E50002A460096234621461C4809F001FB40F2F1
:104E60003F132A461946009618481D4E1D4D09F05D
:104E7000F7FA23462146E122144809F03DF80323BE
:104E8000B422A021114809F037F94FF6E0710F481C
:104E900009F042F800944FF4B4730A2212490B4807
:104EA00034702C6009F07CFD104BDB7A332B08D07A
:104EB000322B01D002B070BD02B0BDE87040FFF7E8
:104EC000A3BD02B0BDE87040FFF776BB041AFF1F18
:104ED000343F0200B826020010230200BC26020064
:104EE0004028FF1F2C25FF1FC4260200440CFF1F73
:104EF00070B5614C82B0022500212046A56408F0FF
:104F00002BFA204608F09EFF2046002109F01AF8EF
:104F10000A215A4804F03AFE4FF4FA7011F060F892
:104F20002046574909F0B6FE4FF4A27364221421BB
:104F3000524804F08BFE20464FF6FF7108F0ECFF5C
:104F400029464E480A2505F003FF2A46DC234D4931
:104F50004A48009506F0DAFD0C232A4600934A4998
:104F60004648EB2306F0D2FD0E232A46009347491C
:104F70004248FC2306F0CAFD12232A460093444906
:104F80003E4840F2111306F0C1FD16232A46009355
:104F900040493A4840F2291306F0B8FD1C232A463E
:104FA00000933D49354840F2471306F0AFFD4FF4FA
:104FB0009A734FF4BE725021304804F047FE4FF40C
:104FC0009F734FF4BE72B4212C48002604F03EFEBD
:104FD00020464FF6E07108F09FFF2B4642F20E721A
:104FE00020462E49009609F0DBFC20464FF6FF7163
:104FF00008F092FF20462A4909F04CFE20461E2365
:1050000042F20E722749009609F0CAFC2046282376
:1050100042F20E722449009609F0C2FC2046322367
:1050200042F20E722149009609F0BAFC2046412353
:1050300042F20E721E49009609F0B2FC4B2342F276
:105040000E7220461B49009609F0AAFC204640F249
:10505000FF7108F061FF009620464FF4E67342F2BC
:105060000E72154909F09CFC14480AF02BF8002830
:10507000FAD002B070BD00BF041AFF1F6C1BFF1FE7
:10508000343F0200D4260200E8260200FC2602007B
:105090001027020024270200382702004C270200B4
:1050A000BC3A02006027020088270200B0270200F5
:1050B000D82702000028020024280200DC27FF1F56
:1050C000F0B52DED028B85B04FF6FF715A480026E2
:1050D00008F022FF594958480096642342F20E72A4
:1050E00009F05EFC56480CF0B7FF4FF4FC61044633
:1050F000514808F011FF002C00F08580642342F233
:105100000E7250494C48009609F04AFC4FF47A70F0
:1051100010F066FF4FF6FF71474808F0FDFE64236C
:1051200042F20E7248494448009609F039FCA02327
:105130000096B0224549404809F032FC444BDF6AF2
:105140003F0B36D007EE907A9FED428AF8EEE78A61
:105150004FF48055340301220DF10F013E480BF04E
:1051600057FC0123012808BF9DF80F20344818BFC1
:10517000FF2221461C440CF025FFAC42EBD107EE88
:10518000906AF8EEE77A202267EE887A002387EEAD
:10519000A87A019200930136A0238022264805F5C3
:1051A0008055FDEEC77A17EE901A09F083FCBE42D7
:1051B000D0D1002428480BF091FAA023802200943B
:1051C00026491D4809F0ECFB4FF4FC611A4808F031
:1051D000A3FE0094642342F20E722149164809F09E
:1051E000DFFB782342F20E721E490094124809F048
:1051F000D7FB40F6B83010F0F3FEFFF779FE05B0AC
:10520000BDEC028BF0BD4FF478410B4808F084FEF2
:10521000642342F20E7214490094074809F0C0FB5F
:105220000D480BF05BFA4FF47A6010F0D9FE05B030
:10523000BDEC028BF0BD00BF041AFF1F382802002E
:10524000601AFF1F482802005C2802007028020034
:105250006428FF1F0000C8427428FF1F7428020042
:10526000782802008C28020098280200FFFFFFFF28
:105270002DE9F043C64FC74883B000243C6008F0D6
:10528000E1FD4FF4FA7010F0ABFEC349C14809F0DC
:1052900001FD4FF6E071BF4808F03EFE0A2342F2DE
:1052A0000E72BE49BB48009409F07AFBBC480CF072
:1052B0007DFE4FF6E0710546B64808F02DFE282326
:1052C0000A22B849B348009409F06AFB4FF6FF710F
:1052D000B04808F021FEC5F30743EF2BEDB2009470
:1052E0004FF03C034FF0320200F07481AE49A94800
:1052F00009F056FB4FF47841A64808F00DFED22382
:1053000042F20E720094A949A24809F049FBA8494B
:10531000A04809F0BFFC4FF6FF719E4808F0FCFD65
:105320000094E62342F20E72A2499A4809F038FB33
:105330000094F52342F20E729F49964809F030FB23
:1053400000944FF4827342F20E729C49914809F026
:1053500027FB91498F4809F09DFC01244FF6E0712D
:105360008C48002608F0D8FD50230A229449894829
:10537000009609F015FB87484FF6FF7108F0CCFD49
:10538000A5F11100C3B2092B76D815F037FD9FEDBA
:105390007E0B41EC110B13F0CFF951EC100B16F012
:1053A00043F8202301460096019332226423794872
:1053B00009F080FB642300961A468249754809F07B
:1053C000EFFA1A2D98BF012610D8012303FA05F52C
:1053D00015F0F86840F0248115F4401940F04B8135
:1053E00015F4602F40F03181002E4ED04FF4EB7554
:1053F00045F27131674808F08FFD00954FF49B73BB
:105400004FF4CD72AA21634808F01AFE4FF6FF71DF
:10541000604808F081FD00954FF49B734FF4CD7206
:10542000AA215C4808F022FF4BF6F751594808F0D2
:1054300073FD40F2D51340F29B120093AB2140F272
:105440003513544808F012FF45F27131514808F005
:1054500079FD00254FF6FF714E4808F05DFD00957F
:105460004FF4D873D02258494A4809F099FA29468E
:10547000484808F067FD08E00096642332224A4954
:10548000444809F08DFA1A2D9FD94FF4EB754FF46B
:10549000484140483E4E08F03FFD96234FF4CD7200
:1054A00000950A213B4808F0CBFD4FF6FF713948C3
:1054B00008F032FD96234FF4CD7200950A2135484D
:1054C00008F0D4FE4BF6F751324808F025FD40F2C3
:1054D000D51340F29B1200930B2195232D4808F021
:1054E000C5FE4FF448412B4808F02CFD00254FF62F
:1054F000FF71284808F010FD4FF4D873202233497B
:105500002448009509F04CFA2946224808F01AFD73
:1055100001233B602E4809F0D5FD0028FAD02C4825
:1055200009F0F2FC2A4809F0E3FD0546284809F095
:1055300021FEA0F59B70A028ECD8A5F10A038C2BC6
:105540004DD83B68012B11D0022BE3D1002111482B
:1055500008F0E2FC40F2DF13009328224FF49B7323
:105560000A210C4808F0E0FEFFF7AAFD094808F000
:1055700069FCC82010F034FD03B0BDE8F043FDF72E
:1055800091BC00BFAFF300800000000000000040AD
:105590004C28FF1F041AFF1F343F0200A8280200F6
:1055A000601AFF1FBC280200D4280200DC28020079
:1055B000BC3A0200E8280200082902003029020053
:1055C00044290200542902004823020098250200C1
:1055D000DC27FF1F6549664809F0E2F9BEE6AA3DEF
:1055E0008C2D97D800216248DFF8BC8108F094FC2C
:1055F00040F2DF13009328224FF49B730A215C488A
:1056000008F092FE4FF4FA7010F0EAFC3B68012BB0
:105610006DD0022B7FF47EAF56480BF05FF8A5E704
:10562000002540F2FF71524808F076FC0095962361
:105630000A2251494E4809F0B3F90095AA230A22DB
:105640004E494B4809F0ACF9CEE64FF47841484852
:1056500008F062FCCDF8009096230A22484944489D
:1056600009F09EF9CDF80090AA230A224549404846
:1056700009F096F909E74FF6E0713D4808F04CFC57
:10568000CDF8008096230A223D49394809F088F96F
:10569000CDF80080AA230A223B49354809F080F959
:1056A000CDF80080BE230A223849314809F078F944
:1056B000D2230A22CDF8008035492D4809F070F92F
:1056C00040F2FF712A4808F027FCCDF80080F02353
:1056D0000A222949264809F063F9CDF800804FF4E1
:1056E00082730A222549224809F05AF97CE6294B9F
:1056F000294A19681F4800230BF028F9054600289D
:1057000054D14FF478411A4808F006FC3C2342F289
:105710000E7222491648009509F042F94FF6FF71C2
:10572000134808F0F9FB5A2342F20E721C49104844
:10573000009509F035F96E2342F20E7216490C48B5
:10574000009509F02DF9822342F20E72154908489E
:10575000009509F025F907480AF0C0FF41F28830AA
:1057600010F03EFCC8F8005000E700BFCC28020053
:10577000041AFF1F7428FF1FB4290200C829020061
:105780005C2902007029020080290200942902008D
:10579000A82902002029FF1FD4290200E4290200C1
:1057A000EC290200F82902004C28FF1F00250223E3
:1057B0004FF6FF718048336008F0AEFB28230A22C1
:1057C0007E497D48009509F0EBF83C230A227C498C
:1057D0007948009509F0E4F87A49774809F05AFACF
:1057E00064230A2278497448009509F0D9F8732394
:1057F0000A2276497048009509F0D2F882230A22DD
:1058000073496D48009509F0CBF891230A2271493C
:105810006948009509F0C4F8A0230A226E49664839
:10582000009509F0BDF8AF230A226C496248009543
:1058300009F0B6F86A49604809F02CFA4FF4EB78A1
:105840004FF448415C4808F067FB4FF49B734FF4FA
:10585000CD72AA215848CDF8008008F0F1FB4FF630
:10586000FF71554808F058FB4FF49B734FF4CD720D
:10587000AA215148CDF8008008F0F8FC40F2D51973
:105880004BF6F7514C4808F047FB40F2351340F215
:105890009B12AB214848CDF8009008F0E7FC4FF48C
:1058A0004841454808F04EFB4FF6FF71424808F06A
:1058B00033FB4FF4D873C0224A493F48009509F0A2
:1058C0006FF829463C4808F03DFB4FF494613A4894
:1058D00008F022FB96234FF4CD720A213648CDF80A
:1058E000008008F0ADFB4FF6FF71334808F014FB61
:1058F00096234FF4CD720A212F48CDF8008008F08E
:10590000B5FC4BF6F7512C4808F006FB952340F206
:105910009B120B212848CDF8009008F0A7FC4FF40B
:105920009461254808F00EFB4FF6FF71224808F0FD
:10593000F3FA2D49204800954FF4D873302209F02E
:105940002FF829461C4808F0FDFA002C3FF4E2AD80
:105950004FF47841184808F0DFFAD22342F20E7271
:1059600000952249144809F01BF81649124809F01D
:1059700091F94FF6FF71104808F0CEFA0095E62332
:1059800042F20E721A490C4809F00AF80095F52304
:1059900042F20E721749084809F002F800954FF4D8
:1059A000827342F20E721449034808F0F9FF0C4961
:1059B000014809F06FF9ADE5041AFF1F042A02003F
:1059C000182A0200BC3A02002C2A0200502A0200C7
:1059D000742A02009C2A0200B82A0200E02A02006F
:1059E000343F020098250200A8220200DC280200B1
:1059F000E8280200F02A0200142B020070B5104EB5
:105A000082B001F10A030C4605460093A1F10A0297
:105A100000F10A03A0F10A01304608F0F7FB6B1D04
:105A20002246691F3046009408F01AFD631D00935A
:105A30003046621F2B46294608F012FD02B070BDA9
:105A4000041AFF1F2DE9F047DFF8BCA0274F82B0F2
:105A50004FF00009FF231A461946254808F04CFA72
:105A6000DAF80030CDF8009042F20E722149204859
:105A700008F096FF1D4809F025FB0028FAD01C48C5
:105A8000DAF80030CDF8009042F20E721A49002682
:105A900008F086FF15483446354641F2883809F04B
:105AA00011FBF0B1454511480DD1144B1449154A6D
:105AB000A3FB0404A3FB0603240B1B0B0C60136065
:105AC00002B0BDE8F08709F095FBB7F90020B7F9FF
:105AD00002300648013514441E4409F0F3FA002848
