:1000000000000320D1010000B94A0100714A01003B
:10001000714A0100714A0100714A0100714A0100F0
:10002000714A0100714A0100714A0100B94A010098
:10003000B94A0100714A0100C93E0100CD3F0100EB
:10004000B94A0100B94A0100B94A0100B94A0100A0
:10005000B94A0100B94A0100B94A0100B94A010090
:10006000B94A0100B94A0100B94A0100B94A010080
:10007000B94A0100B94A0100B94A0100B94A010070
:10008000B94A0100B94A0100B94A0100B94A010060
:10009000B94A0100B94A0100B94A0100B94A010050
:1000A000A59B0000B19B0000B94A0100B94A0100BC
:1000B000B94A0100B94A0100B94A010021560100BC
:1000C000B94A010039760100B94A0100657701009B
:1000D000B94A0100855C0100B94A0100B94A010032
:1000E000B94A0100B94A0100B94A0100B94A010000
:1000F000B94A0100B94A0100B94A0100B94A0100F0
:10010000717401008574010099740100AD740100DF
:10011000B94A0100A9640100B94A0100B94A0100C5
:10012000B94A0100B94A0100B94A0100B94A0100BF
:10013000B94A0100B94A0100B94A0100B94A0100AF
:10014000B94A0100B94A0100F5610100B94A01004C
:10015000B94A0100B94A0100B94A0100B94A01008F
:10016000B94A0100B94A0100BD9B0000B94A01002B
:10017000B94A0100B94A0100B94A0100B94A01006F
:10018000B94A010041FC0000B94A0100B94A010026
:10019000B94A0100B94A01005D780100B94A01007D
:1001A000B94A0100B94A0100B94A0100B94A01003F
:1001B000B94A0100B94A0100B94A0100B94A01002F
:1001C000B94A0100B94A0100B94A0100B94A01001F
:1001D0005C4B4CF2205210B51A804DF628121A8052
:1001E00000BF00BF14F06CFC574B4FF030621A6038
:1001F000564A9A60564ADA60564B4FF470021A60BB
:10020000554B564A1A60564B1A78110703D51A787F
:1002100042F008021A70534B5349AA221A70534AEB
:10022000534B8B4204D252F8040F43F8040BF8E707
:10023000504B514900228B4202D243F8042BFAE77B
:100240004E494F4A002352F8230041F8230001335E
:10025000742BF8D14B4B4C4A802103F8011B93427D
:10026000FBD14A4B454A1A60494B8A221A70A3F5C2
:10027000805324225A70A0221A709A799207FCD5D2
:100280009A79D406FCD4434A937903F00C03082BE3
:10029000FAD1414B60221A7002331A78802AFCD1BD
:1002A0003C4B01221A715D225A719A799006FCD555
:1002B0009979384A4906FBD5384B394919600021EC
:1002C000596020231370937903F00C030C2BFAD19F
:1002D000344B354A1A60354A354C136813F4807331
:1002E00003D123604FF4A8531360324B324A1A6093
:1002F00000225A60072243F8042C304AC3F80C2D20
:1003000062B615F0C7F82368DA0705D52C4814F053
:100310007FFE2C4B2C4A1A602C4B1B785B0609D5B0
:10032000284C294B22689A4204D1254814F070FECB
:10033000002323601AF044FB14F0C8FB14F0F6FA13
:10034000FEE700BF0E20054030800440823F0400DD
:100350000100002B88ED00E0002008E0030000858C
:1003600002D0074000E00740C818FF1F6C51020090
:10037000400CFF1FC818FF1F0436FF1F0002FF1F9D
:100380000000000000E400E064E400E008ED00E0AC
:10039000005006400040064001E007404480044011
:1003A0000000060204800440C010070010D0034083
:1003B00014D0034014E000E01FBF02000000202022
:1003C000387D8C5E1CE00340A5C3945A00F00740C2
:1003D000FFFFFFFFFFFFFFFFFFFFFFFFFFFFFFFF2D
:1003E000FFFFFFFFFFFFFFFFFFFFFFFFFFFFFFFF1D
:1003F000FFFFFFFFFFFFFFFFFFFFFFFFFFFFFFFF0D
:10040000FFFFFFFFFFFFFFFFFFFFFFFFDEF9FFFF23
:1004100010B5054C237833B9044B13B10448AFF33E
:1004200000800123237010BDC818FF1F00000000CA
:1004300068510200084B10B51BB108490848AFF3DA
:1004400000800848036803B910BD074B002BFBD0A0
:10045000BDE81040184700BF00000000CC18FF1F87
:1004600068510200C818FF1F0000000000207047FC
:10047000027C02F0080202F0FF0332B1C36A406A54
:10048000181A48BF6FF0004070471846704700BF09
:100490000020704701207047034BD8691A79431E2A
:1004A0005002A3FB00017047941BFF1F14F0AABD6C
:1004B00000B583B001220DF10701103010F056F99C
:1004C00001280CBF9DF807004FF0FF3003B05DF826
:1004D00004FB00BF103010F04DBA00BF103010F018
:1004E000B9BB00BF103010F0BBBB00BF00B583B07C
:1004F00002AB012203F8011D1030194610F0B0FBC9
:1005000003B05DF804FB00BF503010F0A9BB00BF82
:1005100038B5074C204611F095FA02462079410281
:10052000A1FB0245D31701FB03552046294638BDE0
:10053000941BFF1F002A2CDD2DE9F84300251646E9
:100540000F460446A846606820B916F009FD6060B1
:100550000028FAD030F8083B721BC3F140099145DE
:10056000A8BF9146791918444A4614F0E7F9616822
:100570000B884B449BB2402B4D440B8003D0AE42C2
:10058000E1DCBDE8F883042015F04CFFC4F80480DA
:10059000F5E770472DE9F043C56F95B0FDB1DFF881
:1005A000BC900446636FAB424DD3267D26B304F165
:1005B000140805EB85010901404610F04FFA694621
:1005C0004046502210F0D2F89DF80E1094F880208A
:1005D00052B1029BE36719B9E56F002DE2D1002506
:1005E000284615B0BDE8F083E36F606F01338342A6
:1005F000E36728BFE267EEE74FF47A7744F202231D
:10060000144A15498DF810608DF811608DF804605A
:100610008DF80C6004A804AE0297CDF8009010F09D
:1006200043F80FCE04F1140847460FC70FCE0FC78B
:1006300030689DF80410029A9DF80C3038602172E1
:10064000E2602374B5E70021502268461AF0C6FD27
:100650000021BBE778160200D01FFF1F0010020028
:10066000436F99423FD82DE9F041057D94B00F4684
:10067000044685B100F1140807EB870109014046E3
:1006800010F0ECF940465022694610F06FF80198DE
:1006900014B0BDE8F0814FF47A7E144E144A154927
:1006A0008DF8105044F202238DF811508DF804504B
:1006B0008DF80C5004A804AD0096CDF808E00FF0BA
:1006C000F3FF0FCD04F1140846460FC60FCD0FC639
:1006D00028689DF80410029A9DF80C303060217251
:1006E000E2602374C8E70020704700BF00100200DA
:1006F00078160200D01FFF1F2DE9F0470C46416F0E
:100700008C4294B0924699464FD8067D054626B352
:1007100000F1140804EB84010901404610F09EF931
:1007200050226946404610F021F850460DF10E0166
:10073000009D9DF80C401BF0D1F91C9B1D602CB94D
:10074000019BC9F8003014B0BDE8F0874FF0FF33CB
:10075000C9F8003014B0BDE8F0874FF47A7E1A4F24
:100760001A4A1B498DF8106044F202238DF811607B
:100770008DF804608DF80C6004A804AE0097CDF8E5
:1007800008E00FF091FF0FCE05F1140847460FC7A0
:100790000FCE0FC730689DF80410029A9DF80C30F8
:1007A00038602972EA602B74B4E750220021684651
:1007B0001AF014FD50460DF10E011BF08FF91C9A32
:1007C00000231360BCE700BF00100200781602008F
:1007D000D01FFF1F2DE9F0470446A2B05030D4F8D7
:1007E0006CA00FF029FEE56B636F9D4273D8267DE8
:1007F000002E48D004F1140805EB8501090140469C
:100800000DF1380910F02AF94946502240460FF000
:10081000ADFFE56B237DCDF83CA01BBB334E344AC6
:1008200034498DF814304FF47A778DF815308DF8FF
:1008300008308DF81030019644F2022305A805AE69
:1008400003970FF031FF0FCE47460FC70FCE0FC7EC
:1008500030689DF80810039A9DF8103038602172B6
:10086000E260237405EB85010901404610F0F6F8BB
:1008700049464046502210F0F3F96FF00103E3635C
:1008800022B0BDE8F0874FF47A7E184F184A194914
:100890008DF8486044F202238DF849608DF83C6081
:1008A0008DF8446012A812AE0E97CDF840E00FF01C
:1008B000FBFE0FCE04F1140847460FC70FCE0FC73B
:1008C00030689DF83C10109A9DF8443038602172D1
:1008D000E260237490E70DF1380948465022002168
:1008E0001AF07CFC04F1140894E700BF0010020029
:1008F00078160200D01FFF1F2DE9F043047D8FB052
:1009000007460E4691467CB100F1140806EB8601BD
:100910000901404610F0A2F849464046502210F026
:100920009FF90FB0BDE8F0834FF47A7E124D134A61
:1009300013498DF8144044F202238DF815408DF8C8
:1009400008408DF8104005A805AC0195CDF80CE0E5
:100950000FF0AAFE0FCC07F1140845460FC50FCCC7
:100960000FC520689DF80810039A9DF81030286084
:100970003972FA603B74C9E7001002007816020071
:10098000D01FFF1F2DE9F0434B6F93428FB080467D
:100990003CD30E7D0D46144686B101F1140904EBDB
:1009A00084010901484610F059F848465022414652
:1009B0000FF0DCFE40460FB0BDE8F0834FF47A7EC6
:1009C000164F174A17498DF8146044F202238DF828
:1009D00015608DF808608DF8106005A805AE0197C8
:1009E000CDF80CE00FF060FE0FCE05F114094F4674
:1009F0000FC70FCE0FC730689DF80810039A9DF8F7
:100A0000103038602972EA602B74C8E75022002148
:100A10001AF0E4FB40460FB0BDE8F083001002007E
:100A200078160200D01FFF1F2DE9F041436F994255
:100A3000E4B0144677D8077D05460E46002F00F037
:100A4000A78000F1140806EB86010901404610F06A
:100A500005F86946502240460FF088FE009E002EA1
:100A600066D06B6FB34279D32B7D002B00F0C5802D
:100A700006EB8601090140460FF0F0FF5022404688
:100A800014A90FF073FE149A002A6DD0294628A8E5
:100A9000FFF778FF289A002A00F0AB8029463CA88F
:100AA000FFF770FF3C9A002A00F09F80294650A86B
:100AB000FFF768FF5099002900F0C88028462246B9
:100AC000FFF7B2FF20461BF07BF8231813F8013C18
:100AD0002F2B02D05F4B1B8823520DF5A7712046A8
:100AE0001AF0FEFD20461BF06BF8231813F8013CAA
:100AF0002F2B02D0574B1B8823520DF1FE012046AD
:100B00001AF0EEFD20461BF05BF8231813F8013CA9
:100B10002F2B02D04F4B1B8823520DF1AE012046E4
:100B20001AF0DEFD23E05022002168461AF056FB41
:100B3000484B1B88238020461BF042F8231813F8EB
:100B4000013C2F2B02D0434B1B88235220460DF132
:100B50000E011AF0C5FD64B0BDE8F08150220021FD
:100B60000DEB02001AF03AFB3A4B1B88238020461B
:100B70001BF026F8231813F8013C2F2B02D0354B1D
:100B80001B8823520DF15E0120461AF0A9FDD2E721
:100B9000DFF8CCE0304A31498DF850714FF47A7C5F
:100BA00044F202238DF851718DF844718DF84C7127
:100BB00054A854AFCDF840E1CDF848C10FF074FD12
:100BC0000FCF05F11408C646AEE80F000FCFAEE810
:100BD0000F0038689DF84411529A9DF84C31CEF8B8
:100BE00000002972EA602B742DE71A4B1B882380C2
:100BF00078E7184B1B88238084E7194F164A17495A
:100C00008DF850314FF47A7E8DF851318DF84431A2
:100C10008DF84C31509744F2022354A854AFCDF8CC
:100C200048E10FF041FD0FCFC646AEE80F000FCFF1
:100C3000AEE80F0038689DF84411529A9DF84C3187
:100C4000CEF800002972EA602B7411E7014B1B8873
:100C5000238037E78816020078160200D01FFF1F96
:100C6000001002002DE9F047B1F1FF3F01EB8109CF
:100C70004FEA0919ADF5986D8846DFF81CA30446C4
:100C800008BF4FF0000920E004F114074946384638
:100C90000FF0E4FE502238460DEB02010FF066FD26
:100CA00050220DEB0201684613F048FE9DF80C201F
:100CB0002046002A40D0019B1946002B3CD02368D7
:100CC0001B6B9847002800F00B81B8F1FF3F02D062
:100CD000636F984529D8257D002DD5D14FF47A76BC
:100CE00044F20223A94AAA498DF8D0538DF8D15372
:100CF0008DF8C4538DF8CC53F4A8F4ADF296CDF82A
:100D0000C0A30FF0D1FC0FCD04F114073E460FC66F
:100D10000FCD0FC628689DF8C413F29A9DF8CC3306
:100D200030602172E2602374B0E7502200210DEBA5
:100D300002001AF053FAB3E7B8F1FF3F00F0DC808D
:100D4000B8F1000F00F07D81424628A82146FFF748
:100D500019FE289A002A00F0D4803CA82146FFF70B
:100D600011FE3C9A002A00F0798150A82146FFF735
:100D700009FE509A002A00F08B8164A82146FFF7F3
:100D800001FE649A002A00F07D8178A82146FFF7D1
:100D9000F9FD789A002A00F081818CA82146FFF79E
:100DA000F1FD8C9A002A00F07F81A0A82146FFF770
:100DB000E9FDA09A002A00F07D81B4A82146FFF742
:100DC000E1FDB49A002A00F07B81C8A82146FFF714
:100DD000D9FDC89A002A00F079810DF55C79214689
:100DE0004846FFF7CFFDD9F80010F0AD002900F01C
:100DF00073812A462046FFF717FE28461AF0E0FEC8
:100E00000DF2BF36335C2F2B02D0624B1B882B5266
:100E10000DF27E3128461AF063FC28461AF0D0FE07
:100E2000335C2F2B02D05B4B1B882B520DF22E31E3
:100E300028461AF055FC28461AF0C2FE335C2F2BC8
:100E400002D0544B1B882B520DF2DE2128461AF09B
:100E500047FC28461AF0B4FE335C2F2B02D04D4BD2
:100E60001B882B520DF28E2128461AF039FC284699
:100E70001AF0A6FE335C2F2B02D0464B1B882B5258
:100E80000DF23E2128461AF02BFC28461AF098FE57
:100E9000335C2F2B02D03F4B1B882B520DF5F77183
:100EA00028461AF01DFC28461AF08AFE335C2F2BC8
:100EB00002D0384B1B882B520DF5CF7128461AF003
:100EC0000FFC28461AF07CFE335C2F2B02D0314BEE
:100ED0001B882B520DF5A77128461AF001FCC2E0C1
:100EE00000200DF5986DBDE8F087029BC993C8AA54
:100EF00031462046FFF700FD01200DF5986DBDE855
:100F0000F087F0AD2F232B800DF2BF3628461AF064
:100F100057FE335C2F2B02D01E4B1B882B520DF13A
:100F2000AE0128461AF0DCFB9DF80C20002A00F0E8
:100F3000838000260DF55C792A46484633461449DD
:100F40008DF870638DF871630FF0AEFB0028C7D089
:100F500048460FF057FD0028C2D0009E00236A4685
:100F6000414620468DF80E30FFF7C6FC3246C8A831
:100F70002146FFF707FDC99DA845B6D0002DBBD07F
:100F8000DFF814A00DF55C7920E000BF78160200B0
:100F9000D01FFF1F881602000010020004F1140782
:100FA00005EB8501090138460FF058FD38465022FF
:100FB00049460FF0DBFB50224946C8A813F0BEFC9F
:100FC000CA9B984541D01D46002B95D0636FAB421C
:100FD0002CD3267D002EE1D14FF47A7744F2022300
:100FE0003F4A40498DF8E0628DF8E1628DF8D462A5
:100FF0008DF8DC62B8A8B8AEB697CDF8D0A20FF0E5
:1010000053FB0FCE04F11407BE46AEE80F000FCE1F
:10101000AEE80F0030689DF8D412B69A9DF8DC3225
:10102000CEF800002172E2602374B9E7502200215B
:1010300048461AF0D3F8BEE729462A480FF0CEFCFE
:1010400089E7F0AD2F232B8070E7029BCA932046DF
:10105000C8AA2946FFF750FC012042E7F0AD2F2334
:101060002B800DF2BF3628461AF0AAFD335C2F2BD9
:1010700002D01D4B1B882B520DF1FE0128461AF0A1
:101080002FFB43E7F0AD2F232B800DF2BF360AE78D
:10109000F0AD2F232B800DF2BF3612E7F0AD2F23DA
:1010A0002B800DF2BF36F0E6F0AD2F232B800DF232
:1010B000BF36DCE6F0AD2F232B800DF2BF36C8E63D
:1010C000F0AD2F232B800DF2BF36B4E6F0AD2F2309
:1010D0002B800DF2BF36A0E62F232B808DE600BFBC
:1010E00078160200D01FFF1F881602002DE9F0437A
:1010F000C36B8B42ADF5397D04D190F83830934203
:1011000000F09580914688460646002963D00A463D
:1011100068463146FFF736FC009A002A00F0AE80A0
:1011200014A83146FFF72EFC149A002A00F08380A1
:1011300028A83146FFF726FC289A002A00F0A5804F
:101140003CA83146FFF71EFC3C9A002A00F0B9800B
:1011500050A83146FFF716FC509A002A00F0AA80EA
:1011600064AF31463846FFF70DFC396878AD002989
:1011700000F0AE802A463046FFF756FC28461AF0AB
:101180001FFD0DF2DF14235C2F2B02D0524B1B8866
:101190002B520DF5CF7128461AF0A2FA28461AF004
:1011A0000FFD235C2F2B02D04B4B1B882B520DF5D0
:1011B000A77128461AF094FA28461AF001FD235C1C
:1011C0002F2B02D0444B1B882B520DF1FE012846D9
:1011D0001AF086FA5FE078AD2F232B8064AF06F11A
:1011E000500420460FF028F900232A464FF47A7164
:1011F0003A4D3B747B743B713B73B9604B46384945
:101200003D6068A868AD0FF04FFA0FCD0FC40FCD49
:101210000FC428683979BA683B7B2060C6F83C80E7
:1012200086F8389086F84410B26486F84C300DF594
:10123000397DBDE8F08378AD2F232B8064AF0DF2AC
:10124000DF1428461AF0BCFC235C2F2B02D0224B63
:101250001B882B520DF15E0128461AF041FA2846F0
:101260001AF0AEFC235C2F2B02D01B4B1B882B5299
:101270000DF10E0128461AF033FAB0E778AD2F23AE
:101280002B8064AF0DF2DF14E9E778AD2F232B80BC
:1012900064AF0DF2DF1428461AF092FC235C2F2B6A
:1012A00002D00D4B1B882B520DF1AE0128461AF0CF
:1012B00017FAC6E778AD2F232B8064AF0DF2DF1449
:1012C0006CE778AD2F232B8064AF0DF2DF1473E74A
:1012D0002F232B8052E700BF881602000010020067
:1012E000D01FFF1FF8B50446174650340022069E53
:1012F0001D46FFF7FBFE394620460FF0AFFB324696
:1013000029462046BDE8F8400FF030BA2DE9F047F5
:101310009A464B1CADF5986D0446904600F09480BB
:10132000436F99420D4600F2C180267D01EB810991
:101330004FEA0919002E00F08E8004F11406494688
:1013400030460FF08BFB304669465022E9460FF0DD
:101350000DFA50461AF034FC3E2805D900273846CD
:101360000DF5986DBDE8F087421C51460DF15E0009
:1013700013F0E4FA676F267D14957B1C63670023E6
:101380001593D9F80430169301238DF85C808DF8FD
:101390005D30002E00F07A8104F1140607EB87011E
:1013A000090130460FF05AFB14A9502230460FF0C5
:1013B00057FC237DC9F804706BBB4FF47A7CDFF8CF
:1013C00038E3CB4ACB498DF8D0338DF8D1338DF843
:1013D000C4338DF8CC33F4A844F20223CDF8C8C34B
:1013E000CDF8C0E30FF060F90DF5747EBEE80F0094
:1013F000B446ACE80F00BEE80F00ACE80F00DEF822
:1014000000009DF8C413F29A9DF8CC33CCF800008C
:101410002172E260237405EB8501090130460FF06B
:101420001DFB4946304650220FF01AFCB8F1000F60
:1014300043D1204644F202223946FFF757FE384690
:101440000DF5986DBDE8F087267D4FF000094D46FB
:10145000002E7FF472AFA84FA54AA649F0974FF42B
:101460007A7E44F20223F4A8F4AF8DF8D0638DF8AD
:10147000D1638DF8C4638DF8CC63CDF8C8E30FF069
:1014800013F90FCF04F11406B646AEE80F000FCFE4
:10149000AEE80F0038689DF8C413F29A9DF8CC337B
:1014A000CEF800002172E260237448E768465022BB
:1014B0000021E94619F092FE4BE7002F00F0208151
:1014C0003A4628A82146FFF75DFA289A002A00F03C
:1014D00030813CA82146FFF755FA3C9A002A00F0DB
:1014E000218150A82146FFF74DFA509A002A00F0BA
:1014F000278164A82146FFF745FA649A002A00F084
:10150000268178A82146FFF73DFA789A002A00F054
:1015100025818CA82146FFF735FA8C9A002A00F025
:101520002481A0A82146FFF72DFAA09A002A00F0F6
:101530002381B4A82146FFF725FAB49A002A00F0C7
:101540002281C8A82146FFF71DFAC89A002A00F098
:101550002181DCAE21463046FFF714FA3168F0AD48
:10156000002900F01E8120462A46FFF75DFA284632
:101570001AF026FB0DF2BF34235C2F2B02D05F4BF9
:101580001B882B520DF27E3128461AF0A9F8284606
:101590001AF016FB235C2F2B02D0584B1B882B52C2
:1015A0000DF22E3128461AF09BF828461AF008FB57
:1015B000235C2F2B02D0514B1B882B520DF2DE21C6
:1015C00028461AF08DF828461AF0FAFA235C2F2BD9
:1015D00002D04A4B1B882B520DF28E2128461AF05E
:1015E0007FF828461AF0ECFA235C2F2B02D0434BED
:1015F0001B882B520DF23E2128461AF071F828461E
:101600001AF0DEFA235C2F2B02D03C4B1B882B52A6
:101610000DF5F77128461AF063F828461AF0D0FA4B
:10162000235C2F2B02D0354B1B882B520DF5CF712D
:1016300028461AF055F828461AF0C2FA235C2F2BD8
:1016400002D02E4B1B882B520DF5A77128461AF09D
:1016500047F828461AF0B4FA235C2F2B02D0274B08
:101660001B882B520DF1FE0128461AF039F8284646
:101670001AF0A6FA235C2F2B02D0204B1B882B528A
:101680000DF1AE0128461AF02BF83DE04FF47A7CBC
:10169000DFF864E0164A17498DF8D06344F202235C
:1016A000F4A88DF8D1638DF8C4638DF8CC63CDF8C0
:1016B000C8C3CDF8C0E30EF0F7FF0DF5747EBEE8A9
:1016C0000F0004F11406B446ACE80F00BEE80F00AA
:1016D000ACE80F00DEF800009DF8C413F29A9DF804
:1016E000CC33CCF800002172E260237456E600BFD0
:1016F00078160200D01FFF1F00100200881602009B
:10170000F0AD2F232B80DCAE00242A463046012387
:101710002549347074700EF069FF38460DF5986DE8
:10172000BDE8F087F0AD2F232B80DCAE0DF2BF3487
:101730008FE7F0AD2F232B80DCAE0DF2BF3496E7A0
:10174000F0AD2F232B80DCAE0DF2BF3473E7F0AD8C
:101750002F232B80DCAE0DF2BF345EE7F0AD2F23DC
:101760002B80DCAE0DF2BF3449E7F0AD2F232B8088
:10177000DCAE0DF2BF3434E7F0AD2F232B80DCAEAE
:101780000DF2BF341FE7F0AD2F232B80DCAE0DF23E
:10179000BF340AE7F0AD2F232B80DCAE0DF2BF344F
:1017A000F5E62F232B80E2E6D01FFF1F2DE9F04F37
:1017B00090F878400126C5B0054680F87960002C85
:1017C00000F00E816B6F002B00F007814FF00008D6
:1017D000474606E06B6F0137BB4208F1500840F204
:1017E000FC80BB42F7D32C7D002C00F0CC8005F1AF
:1017F0001406414630460FF031F91CA950223046FC
:101800000EF0B4FF9DF87C30002BE3D09DF87D40B6
:10181000002CDFD1224639462846FFF767FC95F8B1
:101820005030002BD6D0A24605F15009019758E060
:10183000A2420CBF23460123019A08BF0D9C30929F
:101840008DF8CC30402200230DF1CE0106A8319452
:101850008DF8CD30CDF8C8A00FF022FB6C6F95F855
:1018600014E0631C6B67BEF1000F2BD14FF47A7C40
:1018700044F202237D4A7E497E4F8DF84CE013A846
:101880008DF84DE08DF840E08DF848E0CDF844C08B
:101890000F970EF009FF0DF14C0EBEE80F00B44695
:1018A000ACE80F00BEE80F00ACE80F00DEF8000067
:1018B0009DF84010119A9DF84830CCF8000029722C
:1018C000EA602B7404EB8401090130460FF0C6F87E
:1018D000502230A930460FF0C3F906A8A2460EF0F8
:1018E000ABFD0024634B029322464FF47A7B4946BA
:1018F00006A88DF818408DF819408DF80C408DF829
:101900001440CDF810B00FF065F99DF8183003F0D1
:101910007002002B8CD12C7D019FCDF874A0012387
:101920008DF87D302CBB8DF8D0408DF8D1408DF8EE
:10193000C4408DF8CC404F4C4C4A4D49309444F251
:10194000022334A834ACCDF8C8B00EF0ADFE0FCCF5
:10195000B646AEE80F000FCCAEE80F0020689DF849
:10196000C410329A9DF8CC30CEF800002972EA609B
:101970002B74414630460FF071F81CA930465022B6
:101980000FF06EF926E78DF8D0408DF8D1408DF834
:10199000C4408DF8CC40374C344A354930944FF42C
:1019A0007A7644F2022334A834AC32960EF07CFEF0
:1019B0000FCC05F11406B646AEE80F000FCCAEE82A
:1019C0000F0020689DF8C410329A9DF8CC30CEF8F4
:1019D00000002972EA602B740BE745B0BDE8F08F78
:1019E00080F87860214922480EF0F8FF2F7D30946E
:1019F0002F23329431948DF8CC608DF8CD406E67F2
:101A0000ADF8CE305FB105F11407002138460FF074
:101A100025F83846502230A90FF022F9D2E6154CAD
:101A2000124A13491C944FF47A7644F2022320A8F8
:101A300020AC8DF880708DF881708DF874708DF801
:101A40007C701E960EF030FE0FCC05F114073E465A
:101A50000FC60FCC0FC620689DF874101E9A9DF813
:101A60007C3030602972EA602B74CEE77816020071
:101A7000D01FFF1F00100200436F994200F2CC807C
:101A80002DE9F04F057DC3B00F460446002D00F050
:101A90009A8000F1140907EB8701090148460EF00E
:101AA000DDFF1AA9502248460EF060FE9DF8743002
:101AB00013B19DF8755015B143B0BDE8F08F2A46BB
:101AC00039462046FFF712FB94F85030002BF3D034
:101AD000DFF850A1A84604F1500B50E0002A14BFD3
:101AE000012300238DF8C4304FF0400208BF0B9B48
:101AF000309518BF00230DF1C60104A82F932E972F
:101B00008DF8C5800FF0CCF9656F267D6B1C63677F
:101B10003EBB4FF47A7E44F20223404A40498DF89E
:101B200044608DF845608DF838608DF8406011A8EC
:101B300011AECDF83CE0CDF834A00EF0B5FD0FCEDF
:101B4000CE46AEE80F000FCEAEE80F0030689DF82D
:101B500038100F9A9DF84030CEF800002172E260F4
:101B6000237405EB8501090148460EF077FF5022EA
:101B70002EA948460FF074F804A80EF05DFC4FF44F
:101B80007A730022594604A802938DF810808DF8CC
:101B900011808DF804808DF80C80CDF800A00FF036
:101BA00019F89DF8103003F07002002B96D1012334
:101BB0001AAA394620461B958DF87530FEF79CFE13
:101BC00043B0BDE8F08F4FF47A76144A14498DF88B
:101BD000C85044F202238DF8C9508DF8BC508DF8DE
:101BE000C45032A8DFF83CA0309632ADCDF8B8A092
:101BF0000EF05AFD0FCD04F114094E460FC60FCD5D
:101C00000FC628689DF8BC10309A9DF8C43030602B
:101C10002172E26023743EE7704700BF781602002D
:101C2000D01FFF1F00100200F0B590F87860A3B03D
:101C300004460D466EB30DB36B1C4DD029462046AD
:101C4000FFF71AFF636F01229D4284F8802000F2A3
:101C5000A780267D05EB85052D01002E47D004F1D8
:101C60001406294630460EF0F9FE304650220EA9E1
:101C70000EF07CFD0F9BE36723B0F0BD94F8793044
:101C8000002B5FD00022012384F88020E36723B07B
:101C9000F0BD012780F87870434944480EF09EFE5D
:101CA00094F814E08DF844702F2367670E96109611
:101CB0000F968DF84560ADF84630BEF1000F45D067
:101CC00004F11406002130460EF0C8FE30465022C2
:101CD0000EA90EF0C5FFAEE700212046FFF7CCFEAF
:101CE000267D012384F880300025002EB7D1304FA7
:101CF0002D4A2E490E974FF47A7E44F2022312A801
:101D000012AF8DF848608DF849608DF83C608DF811
:101D10004460CDF840E00EF0C7FC0FCF04F114068C
:101D2000B646AEE80F000FCFAEE80F0038689DF85A
:101D30003C10109A9DF84430CEF800002172E26009
:101D400023748EE72046FFF731FD9BE74FF47A7747
:101D5000174E154A1549039744F2022305A805AF0B
:101D60008DF814E08DF815E08DF808E08DF810E09E
:101D700001960EF099FC0FCF04F11406B646AEE8BA
:101D80000F000FCFAEE80F0038689DF80810039AD7
:101D90009DF81030CEF800002172E260237491E7C4
:101DA0000023E36723B0F0BD78160200D01FFF1FA9
:101DB000001002002DE9F0410B7882B00446002BA0
:101DC0004BD008460E4619F0FBFE257A01308DF8FF
:101DD0000200002D50D0E3680133E3603278002A1E
:101DE00036D0002705E0E3680233E36016F8012FE0
:101DF0004AB3ADF80620002DF5D1606820B915F082
:101E0000AFF860600028FAD030F8083BC5F1020254
:101E1000C3F140089045A8BF904618440DF1060351
:101E20005919424612F08AFD61680B8843449BB2FF
:101E3000402B45440B801AD0012DDEDD16F8012F12
:101E4000257A002AD5D10023ADF804303DB3E368EC
:101E50000233E36002B0BDE8F081027A8DF803300E
:101E6000AAB1C3680133C36002B0BDE8F0810420A9
:101E700014F0D8FA6760DFE701220DF10201204675
:101E8000FEF758FB3278257A002AAAD1DBE7012237
:101E90000DF10301FEF74EFB02B0BDE8F0812E46C6
:101EA000606820B915F05CF860600028FAD030F85E
:101EB000083BC5F10202C3F140079742A8BF17468D
:101EC000184401AB59193A4612F038FD61680B8885
:101ED0003B449BB2402B3D440B8004D0012DDFDD01
:101EE00002B0BDE8F081042014F09CFA6660F5E7CA
:101EF00030B5037A91B064250446ADF82650002B26
:101F000000F0A680C36806220233C3600F92043338
:101F10006422E360ADF824200233E3605A4920468E
:101F2000FFF748FF237A0022ADF82220002B00F0B3
:101F3000B580E3680E220233E3600E92043341F26F
:101F40000102E360ADF82020023341F20202E360B7
:101F5000ADF81E20023341F20302E360ADF81C200D
:101F6000023341F20402E360ADF81A20023341F279
:101F70000502E360ADF81820023341F20602E36087
:101F8000ADF81620023341F20702E360ADF81420E9
:101F9000023341F20802E360ADF81220023341F24D
:101FA0000902E360ADF81020023341F20B02E36056
:101FB000ADF80E20023341F20C02E360ADF80C20C4
:101FC000023341F20D02E360ADF80A20023341F220
:101FD0001402E360ADF80820023341F21502E36019
:101FE000ADF8062002330022E3600D920433012293
:101FF000E3600C9204334DF20242E360ADF804203A
:1020000002330022E3600B9204330222E3600A925F
:1020100004334FF44052E360ADF80220023343F240
:102020000102E360ADF800200233E3602046174967
:10203000FFF7C0FE20461649FFF7BCFE20461549B3
:10204000FFF7B8FE20461449FFF7B4FE11B030BDCB
:1020500002220DF12601FEF76DFA237A06220F9275
:10206000002B40F0358104220FA92046FEF762FACA
:10207000237AADF82450002B40F02C81022209A9CC
:102080002046FEF757FA49E78C160200A016020018
:10209000A8160200B0160200B416020002220DF1CA
:1020A00022012046FEF746FA237A0E220E92002BDA
:1020B00040F0128104220EA92046FEF73BFA237A53
:1020C00041F20102ADF82020002B40F007810222EE
:1020D00008A92046FEF72EFA237A41F20202ADF853
:1020E0001E20002B40F0FC8002220DF11E01204634
:1020F000FEF720FA237A41F20302ADF81C20002BF0
:1021000040F0F080022207A92046FEF713FA237A56
:1021100041F20402ADF81A20002B40F0E5800222C3
:102120000DF11A012046FEF705FA237A41F2050265
:10213000ADF81820002B40F0D980022206A92046D5
:10214000FEF7F8F9237A41F20602ADF81620002BCB
:1021500040F0CE8002220DF116012046FEF7EAF98A
:10216000237A41F20702ADF81420002B40F0C28020
:10217000022205A92046FEF7DDF9237A41F2080282
:10218000ADF81220002B40F0B78002220DF11201B1
:102190002046FEF7CFF9237A41F20902ADF810206C
:1021A000002B40F0AB80022204A92046FEF7C2F9C2
:1021B000237A41F20B02ADF80E20002B40F0A080F4
:1021C00002220DF10E012046FEF7B4F9237A41F206
:1021D0000C02ADF80C20002B40F09480022203A9E1
:1021E0002046FEF7A7F9237A41F20D02ADF80A2046
:1021F000002B40F0898002220DF10A012046FEF7F3
:1022000099F9237A41F21402ADF80820002B7DD110
:10221000022202A92046FEF78DF9257A41F2150324
:10222000ADF80630002D73D102220DF106012046D3
:10223000FEF780F9237A0D95002B6BD104220DA9AE
:102240002046FEF777F9237A01220C92002B63D106
:1022500004220CA92046FEF76DF9257A4DF20243BF
:10226000ADF80430002D59D1022201A92046FEF715
:1022700061F9237A0B95002B52D104220BA9204639
:10228000FEF758F9237A02250A95002B4AD1042239
:102290000AA92046FEF74EF9237A4FF44052ADF8D2
:1022A00002209BB92A460DF102012046FEF742F9B1
:1022B000237A43F20102ADF800202BB92A46694681
:1022C0002046FEF737F9B1E6E368ADE6E368A5E638
:1022D000E3681CE6E3681FE6E3682FE6E36833E69D
:1022E000E36837E6E3683BE6E3683FE6E36843E636
:1022F000E36847E6E3684BE6E3684FE6E36853E6E6
:10230000E36857E6E3685BE6E3685FE6E36863E695
:10231000E36867E6E36869E6E3686BE6E3686FE64F
:10232000E36871E6E36873E630B504460068514A35
:1023300003681B68934289B040F08F800422237A9F
:10234000ADF80620002B54D0E3680233E360206828
:10235000494A03685B6893427AD10223257AADF833
:102360000A30002D62D0E36800220233E360ADF84A
:1023700008200233E3602068404A03689B68934268
:1023800064D13F4BD8691A79431E5002A3FB000168
:10239000237ACDE90601002B42D0E3680833E360DD
:1023A0002068384A0368DB6893425CD1344D284684
:1023B0000FF048FB2A795502C117A5FB002305FB46
:1023C000013310461946237A04900591C3B1E3689E
:1023D0004FF0FF320833E36003920433E36020469A
:1023E0002949FFF7E7FC20462849FFF7E3FC09B03D
:1023F00030BD02220DF106012046FEF79BF8A6E74C
:10240000082204A92046FEF795F8237A4FF0FF3200
:10241000039253BB042203A92046FEF78BF8DEE7A4
:10242000082206A92046FEF785F8B9E702220DF139
:102430000A012046FEF77EF8237AADF80850B3B9BA
:10244000022202A92046FEF775F894E798479FE715
:102450009847002881D1012380E79847012200286E
:102460007FF46DAF6AE79847ADE7E368B5E7E368E7
:102470007FE700BF9104000095040000990400006C
:10248000941BFF1F11050000B8160200F42602007D
:102490002DE9F04F037AA5B004460092002B00F01E
:1024A000D68000230293DFF8A492A54B0193E36842
:1024B0000433E3602568019A2B681B69934240F05E
:1024C000698195F87860002E00F04481009A1346E7
:1024D000002A35D195F87930002B00F006820022D1
:1024E000012385F88020EB67DFF8648225682B687C
:1024F0005B694B454ED1EE6FFEB10DF1400B6B6F3A
:102500009E4276D82F7D002F48D005F1140A06EBA5
:102510008601090150460EF0A1FA50465022594654
:102520000EF024F99DF84E0095F88020DAB1129B48
:10253000EB6708BBEE6F002EE1D125B0BDE8F08F50
:10254000013208BF0023194628461E46FFF794FAB9
:10255000012385F880303246294610A8FEF712FA8A
:10256000119BEB67C0E7EB6F696F01338B42EB6741
:1025700028BFEA670028DDD0002EDED0257A03963A
:10258000002D3DD0E36825680433E3602B685B6968
:102590004B45B0D0284698470646EDE74FF47A7E83
:1025A00044F20223674A68498DF850708DF85170E3
:1025B0008DF844708DF84C7014A814AFCDF848E035
:1025C000CDF840800EF070F80FCF05F1140AD64612
:1025D000AEE80F000FCFAEE80F003B68CEF800303A
:1025E0009DF844302B72129BEB609DF84C302B749D
:1025F0008DE750220021584618F0F0FD002093E7A7
:102600002E46606820B914F0ABFC60600028FAD058
:1026100030F8083BC5F10402C3F140079742A8BF58
:102620001746184403AB59193A4612F087F9616806
:102630000B883B449BB2402B3D440B8002D0032DC2
:10264000DFDD53E7042013F0EDFE6660F7E73C4B57
:10265000056801931A462B681B69934240F0498133
:1026600095F87860002E00F0D480009A002A40F09F
:10267000958095F87930002B00F03F8100220123EE
:1026800085F88020EB672568DFF8C0902B68DFF8BD
:10269000C0A05B694B454FF0000B40F0E780EE6F48
:1026A0002EB30DF140086B6FB342C0F012812F7D45
:1026B000002F00F0DF8005F1140706EB8601090109
:1026C00038460EF0CBF93846502241460EF04EF80F
:1026D0009DF84E0095F88020002A00F0B280129BF1
:1026E000EB67002840F0B780EE6F002EDBD1257A33
:1026F000CDF808B0002D7FF4DAAE2E46606820B920
:1027000014F02EFC60600028FAD030F8083BC5F1C8
:102710000402C3F140079742A8BF1746184402AB12
:1027200059193A4612F00AF961680B883B449BB28A
:10273000402B3D440B8000F0D380032DDEDDB9E655
:10274000291C000078160200D01FFF1F950500000D
:1027500000100200012785F878706A496A480EF077
:102760003DF92F238DF84C701096129611968DF826
:102770004D60ADF84E302E7D6F6716B305F114082D
:10278000002140460EF06AF94046502210A90EF092
:1027900067FA9BE6009928469847A5E6511C14BFA6
:1027A0001646002631462846FFF766F9012385F8CC
:1027B00080303246294610A8FEF7E4F8119BEB67FB
:1027C00061E74FF47A7E514F4E4A4F498DF81C60B5
:1027D00044F202238DF81D608DF810608DF81860AA
:1027E00007A807AE0397CDF814E00DF05DFF0FCEFC
:1027F00005F1140847460FC70FCE0FC733683B607B
:102800009DF810302B72059BEB609DF818302B74EF
:10281000B6E7012785F878703A493B480EF0DEF8B4
:102820002F238DF84C701096129611968DF84D60EE
:10283000ADF84E30314610AA6F672846FEF75CF8B7
:1028400013E7EB6F696F01338B42EB6728BFEA67D1
:1028500000283FF449AF002E3FF449AF25682B68AC
:102860005B694B450BF1010B3FF419AF28469847C4
:102870000646F0E74FF47A7E44F20223214A2249C9
:102880008DF8507014A88DF851708DF844708DF843
:102890004C70CDF848E0CDF840A00DF005FF0DF1EB
:1028A000500EBEE80F0005F11407BC46ACE80F005F
:1028B000BEE80F00ACE80F00DEF80030CCF80030C6
:1028C0009DF844302B72129BEB609DF84C302B74BA
:1028D000F3E650220021404618F080FC0020F9E683
:1028E000042013F09FFD666027E72846FEF75EFF91
:1028F000F5E5284600999847C5E62846FEF756FFB5
:10290000BCE600BF78160200D01FFF1F00100200B7
:102910002DE9F04304460068AA4B026895699D4280
:10292000E5B040F0228110AD0A4624AF01462846AA
:10293000FEF728F838460DF14E0119F0CFF80DF1E9
:1029400014082B7B2A68C8F80020002B63D16B6821
:10295000049304AE237A01220692002B5ED0E36832
:10296000326804330132E36000F00A810022ADF8DE
:102970000C2002330022E360ADF80A2002333268F3
:10298000E3600E9204330022E360ADF808200233C6
:102990000022E3600D9204330022E3600C920433C2
:1029A0000022E3600B9204330022E3600A920433B6
:1029B0000022E360099204330022E36008920433AA
:1029C000D8F80020E36007923268A2F1FF32B2FA31
:1029D00082F252090433E360ADF80E200233002284
:1029E000E3602A6004330022E3600F920433E36063
:1029F00039462046FFF7DEF920467349FFF7DAF93A
:102A000020467149FFF7D6F920466F49FFF7D2F902
:102A100065B0BDE8F0834FF0FF3399E706A90422C3
:102A20002046FDF787FD336894F80890013343F2A0
:102A3000010318BF0023ADF80C30B9F1000F40F0CE
:102A4000A88003A902222046FDF774FD237AADF881
:102A50000A90002B40F09F8002220DF10A012046CF
:102A6000FDF768FD237A32680E92002B40F09580C6
:102A70000EA904222046FDF75DFD237AADF80890EB
:102A8000002B40F08C8002A902222046FDF752FD67
:102A9000237ACDF83490002B40F083800DA90422D6
:102AA0002046FDF747FD237ACDF83090002B7AD1F0
:102AB0000CA904222046FDF73DFD237ACDF82C9089
:102AC000002B72D10BA904222046FDF733FD237A97
:102AD000CDF82890002B6AD10AA904222046FDF7E0
:102AE00029FD237ACDF82490002B62D109A9042274
:102AF0002046FDF71FFD237ACDF82090002B5AD1F8
:102B0000042208A92046FDF715FD237AD8F80020F5
:102B10000792002B51D107A904222046FDF70AFD98
:102B2000336894F80880A3F1FF33B3FA83F35B09A9
:102B3000ADF80E30B8F1000F41D10DF10E010222B7
:102B40002046FDF7F7FC267AC5F80080FEB9294635
:102B500004222046FDF7EEFC237A0F96ABB90FA9AD
:102B600004222046FDF7E6FC42E704AE24AF0DF157
:102B7000140833463A46CDF80080A84710ADE9E680
:102B800043F20102ADF80C20F3E6E3682EE7E368B8
:102B900028E7E368EDE6E368F0E6E368F2E6E36879
:102BA000F5E6E368F7E6E368F9E6E368FBE6E36881
:102BB000FDE6E368FFE6E36801E7E36804E7E3684E
:102BC0000CE700BFF9060000F4260200002A31D00D
:102BD0002DE9F04104460F4616464FF000086068A4
:102BE00028B9042013F076FB60600028F9D04188F2
:102BF00005886D1AB54228BF354637B10830014403
:102C00002A46384611F09AFE2F44606843880288AD
:102C10002B449BB29A42A6EB0506438003D0002EBC
:102C2000DDD1BDE8F08114F0BBF9C4F80480002EBA
:102C3000D5D1F6E7704700BF2DE9F04385B0904647
:102C400006460F46684611460A2299460C9C0D9D81
:102C500011F016FD6946504811F064FD684611F008
:102C60009DFCB8F1090F40F386800A223946684678
:102C700011F006FD6946494811F054FD684611F00F
:102C80008DFC092F67DD0A223146684611F0F8FCF9
:102C90006946434811F046FD684611F07FFC092E55
:102CA00049DD0A222946684611F0EAFC69463D489A
:102CB00011F038FD684611F071FC092D2BDD0A2258
:102CC0002146684611F0DCFC6946374811F02AFDC0
:102CD000684611F063FC092C0EDC3449684611F09B
:102CE0009DFC3149684611F05DFD01462E4811F00A
:102CF00011FD684611F052FC0A224946684611F05F
:102D0000BFFC69462A4811F00DFD684611F046FCEB
:102D100005B0BDE8F0832549684611F07FFC2149E4
:102D2000684611F03FFD01461E4811F0F3FC68466D
:102D300011F034FCC3E71D49684611F06FFC1849D7
:102D4000684611F02FFD0146154811F0E3FC684676
:102D500011F024FCA5E71549684611F05FFC0F4906
:102D6000684611F01FFD01460C4811F0D3FC68467F
:102D700011F014FC87E70D49684611F04FFC064935
:102D8000684611F00FFD0146034811F0C3FC684688
:102D900011F004FC69E700BF2028FF1F5C19FF1F2A
:102DA0002C19FF1F501AFF1FF019FF1FC016020039
:102DB000F427FF1F2DE9F04383B00CF063FADFF82E
:102DC0006490DFF86480C9F800000CF04BFAC8F892
:102DD00000000CF037FA0F4F0F4E38600CF062FA1B
:102DE00030600CF06FFA0D4D28600CF07BFA2B6808
:102DF00036680B4DD9F80020D8F800100446386822
:102E00008DE8480023462C60FFF716FF03B0BDE8AD
:102E1000F08300BF8019FF1F7819FF1F7C19FF1F67
:102E20009427FF1F6C28FF1F7019FF1F70B5FA2031
:102E30008AB012F0DDFABD4BBD49BE4800241C60CB
:102E40000BF0D6FD4FF6E071BA480AF013FF2146A9
:102E5000B8480AF025FF0A2342F20E72B649B54877
:102E60000094AA250BF04AFC45F27131B1480AF0F2
:102E700001FF0095962328220A21AE480AF08EFF12
:102E80004FF4A076294600954FF49B732822A94859
:102E90000AF084FFE623BE225A21A64800960AF0D3
:102EA0007DFF4FF6FF71A3480AF0E4FE00959623DC
:102EB00028220A219F480BF087F8294600954FF4F5
:102EC0009B7328229B480BF07FF8E623BE225A21F1
:102ED000984800960BF078F8A9254BF6F7519548DD
:102EE0000AF0C8FE0095952329220B2191480BF08A
:102EF0006BF8009540F235132922AB218D480BF079
:102F000063F840F23F13BF2200935B21E523894819
:102F10000BF05AF84FF6FF7186480AF0ABFE45F207
:102F2000713184480AF0BCFE3C2310228349814859
:102F300000940BF0E3FB5A23282281497D4800943A
:102F40000BF0DCFB3C23D0227E497A4800940BF046
:102F5000D5FB5A23B8227C49764800940BF0CEFB6F
:102F60007823B0227949734800940BF0C7FBD22331
:102F7000802277496F4800940BF0C0FBF023602259
:102F80006E496C4800940BF0B9FB214669480AF081
:102F900087FE704B1D78002D58D14FF4784165485D
:102FA0000AF068FE40F259130A226B496148009505
:102FB0000BF0A4FB0CF0CAF9022858D04FF478416A
:102FC0005C480AF057FE002300930A224FF4B973BD
:102FD000624958480BF092FB02AC06AD40F2BD12BC
:102FE00000924FF49B730A2152480BF0E7F85C49BA
:102FF00050480BF0FDFC5B49204611F00FFB5A498D
:10300000204611F0CFFB00260146284611F01AFB9E
:1030100029464FF4E17342F20E72009645480BF0D8
:10302000D7FB284611F0BAFA204611F0B7FA40F261
:10303000D11342F20E7200964C493E480BF05EFBF3
:103040003B493C480BF0D4FC0AB070BD4FF4FC6126
:1030500038480AF00FFE40F259130A224449354815
:1030600000940BF04BFB0CF071F90228A6D1FFF78E
:10307000A1FE002640F2FF712E480AF0FBFD4FF43E
:10308000B9730A2200963B492A480BF037FB02AC81
:103090004FF6FF7127480AF0EDFD2046364911F042
:1030A000D1FA2046354911F085FB354911F07AFBFC
:1030B000324911F07FFB334911F074FB06AD014634
:1030C000284611F0BFFA4FF4C3730A22294600962E
:1030D00018480BF07DFB284611F060FA204611F0ED
:1030E0005DFA2046284911F0ADFA2046274911F033
:1030F00061FB274911F056FB244911F05BFB254980
:1031000011F050FB0146284611F09CFA29464FF475
:10311000CD730A22009607480BF05AFB284611F09F
:103120003DFA204611F03AFA58E700BF1C28FF1F6D
:1031300040330200041AFF1FC4160200D416020016
:10314000E0160200E8160200F0160200F81602006F
:1031500004170200901BFF1F0C1702002C1702001F
:10316000C82E020054170200DC19FF1F701702005E
:103170002017020040170200F427FF1F501702001B
:10318000F019FF1F501AFF1F2C19FF1FA82702005C
:103190005C19FF1F2028FF1F2DE9F0438FB006A800
:1031A000002111F03BFA03AFDFF86480C7F180051E
:1031B000C7F1E0090DF116063C46281911F06EFB27
:1031C00004F8010BB442F8D139460AA811F026FAE6
:1031D0000AA906A811F0A6FA0AA811F0DFF900233F
:1031E0000922694606A811F0F3FA10220021684668
:1031F00019F0DAFE203548F8040B052012F0F8F833
:103200004D45D9D106A811F0C9F90FB0BDE8F0833A
:103210009824FF1F2DE9F04F064683B0544800273D
:103220000BF0FEFDE8B9002FF8D045F2713151489E
:103230000AF036FD00244FF6FF714E480AF01AFDE1
:103240004FF4D873E9224C494A4800940BF056FADF
:10325000484821460AF024FD45480BF0E1FD0028CE
:10326000E1D043480BF0FEFC41480BF0EFFD8146F6
:103270003F480BF02DFE002E804630DDA9F10A04F8
:10328000701C5A220123282CA2F1280105D8884558
:1032900003DB9045DCBF1D4601270133834202F169
:1032A0003202F0D14FF0580B4FF0340A0124A542FE
:1032B0004FF000012F4808BF4FF4FC610AF0DAFC20
:1032C0000134CDF800B0524630230C2129480AF0D1
:1032D00065FDA6420AF1320A0BF1320BE7DAA9F1D9
:1032E000F009B9F1460F9ED8A8F5D278B8F1320F9F
:1032F00099D8002F92D045F271311E480AF0D0FCC7
:1033000000244FF6FF711B480AF0B4FC4FF4D87349
:10331000E9220094184917480BF0F0F921461548A6
:103320000AF0BEFC214613480AF0A4FC40F29913AF
:1033300000931E224FF49B730A210E480AF0A2FE4E
:1033400045F271310B480AF095FC4FF4EA73009393
:103350004FF4CE724FF49A73DE2106480AF01EFD38
:103360004FF4FA7012F044F8284603B0BDE8F08F2D
:10337000AC27FF1F041AFF1F88170200002A12DD66
:10338000F8B50546002017460E460446315D284430
:10339000013411F09DFAE4B20A2012F029F8BC427F
:1033A0002046F3DBF8BD7047F0B5002A8BB018DD7E
:1033B0000E46920002A906EB020E0F4656F8044B89
:1033C000019401AB3C4613F8015B04F8015B8B42AE
:1033D000F9D1764507F10407F0D1FFF7CFFF0BB025
:1033E000F0BD920002A9F8E7F0B5A74C0FCCB7B03A
:1033F0001EAD0FC50FCC0FC594E80F0004F11006E9
:1034000085E80F000FCE2AAD0FC50FCE0FC596E889
:103410000F00403485E80F000FCC16AD0FC594E8BF
:103420000F00002700240597069785E80F009748AE
:103430008DF810408DF811400AF0B2FB9449934882
:10344000944E0BF0D5FA4FF6E07190480AF012FC5A
:10345000462342F20E7290498C4800940BF04EF9CC
:1034600021460AA811F0DAF8334606F10C000EAA3C
:1034700013F8011B02F8011B9842F9D10C220EA986
:103480002020FFF77BFF07AD2024204611F006FA2D
:1034900001342C2C05F8010BF7D107A90EA811F067
:1034A000BDF80EA90AA811F03DF90EA811F076F8A2
:1034B00000230C2207A90AA811F08AF9754907A868
:1034C00018F0A2F90546642011F092FF734B0EAA82
:1034D000581D13F8011B02F8011B9842F9D105226F
:1034E0000EA90020FFF74AFF642011F081FF1EAFF4
:1034F0004FF400743A68D7F804E0BB680E92204697
:10350000203403220EA9A4B2CDF83CE01093FFF7BB
:103510004BFFB4F5207F07F10C07EBD164200024AA
:1035200011F066FF04220EA94FF440700E940F9420
:1035300010941194FFF738FF04220EA94FF448703D
:103540000E940F9410941194FFF72EFF642011F045
:103550004FFF2AAF4FF480643A68D7F804E0BB68A5
:103560000E922046203403220EA9A4B2CDF83CE0EE
:103570001093FFF719FFB4F5906F07F10C07EBD12B
:10358000642011F035FF7379302B0CD000234FF4F9
:10359000C06003220EA90E930F931093FFF704FF50
:1035A000642011F025FFF37A302B08D04FF400602F
:1035B000012205A9FFF7F8FE642011F019FF01228E
:1035C00006A94FF40660FFF7EFFE642011F010FF2C
:1035D00016AE4FF4E064326873680E9220462034D1
:1035E00002220EA9A4B20F93FFF7DEFEB4F5F06F2E
:1035F00006F10806EFD136AC0126022204A94FF4E9
:103600002060FFF7BBFE04F8CC6D324621464FF434
:103610001060FFF7B3FE3246214640F60110FFF777
:10362000ADFE3246214640F60510FFF7A7FE3246B2
:1036300021464FF41160FFF7A1FEADB94FF4784178
:1036400012480AF017FB0095462342F20E72144905
:103650000E480BF053F840F6B83011F0C9FE0AA836
:1036600010F09CFF37B0F0BD4FF4FC6107480AF042
:1036700001FB0023009342F20E72462309490348DE
:103680000BF03CF8E7E700BF58100200041AFF1FD8
:1036900040330200440CFF1F90170200540CFF1F20
:1036A000B01702009C1702002DE9F04FC94883B003
:1036B0000AF076FA4FF4FA7011F09AFEC649C5483E
:1036C00000240BF095F94FF6E071C2480AF0D2FAE7
:1036D000234642F20E720094C049BE480BF00EF829
:1036E0004FF4EB7545F27131BA480AF0C3FA4FF462
:1036F0009B734FF4CD72DC21B64800950AF04EFB67
:103700004FF6FF71B3480AF0B5FA4FF49B734FF4CC
:10371000CD72DC21AF4800950AF056FC4BF6F7510C
:10372000AC480AF0A7FA40F2D51340F29B1200937E
:10373000DD2140F23513A7480AF046FC40F2FF7144
:10374000A4480AF097FA1E230A220094A449A1482B
:103750000AF0D4FF4FF6FF719E480AF08BFA0094EE
:103760003E233C229F499B480AF0C8FF00947023E7
:103770003C229D4997480AF0C1FF0094A2233C22B5
:103780009A4994480AF0BAFF4FF6FF7191480AF03F
:1037900071FA322404F12803224600930A213223CD
:1037A0008C480AF011FC04F127030093621C3123BA
:1037B0000B21323487480AF007FCC82CEAD10320D9
:1037C000FFF728FD02288A4C00F0AD83032800F0A3
:1037D000A683012800F00F830025002640F2FF7128
:1037E0007C480AF047FA1E230A220096814979484C
:1037F0000AF084FF4FF6FF7176480AF03BFA3E2349
:103800003C2200967C4973480AF078FF7B49714856
:103810000BF0EEF83E23CC22009679496D480AF071
:103820006DFF6D496B480BF0E3F8009670233C2266
:10383000744968480AF062FF0096A2233C2272494C
:1038400064480AF05BFF4FF6FF7162480AF012FA13
:10385000322606F12803324600930A2132235D48BE
:103860000AF0B2FB06F127030093721C31230B21EF
:10387000323658480AF0A8FBC82EEAD10320FFF7D9
:10388000C9FC022800F04583032800F04583012885
:1038900001D13123E370002640F2FF714D480AF058
:1038A000E9F91E230A22009658494A480AF026FFE1
:1038B0004FF6FF7147480AF0DDF900963E233C229F
:1038C000534944480AF01AFF70233C22009651499C
:1038D00040480AF013FF4FF6FF713E480AF0CAF95C
:1038E0004FF05A0A32231A460A213A48CDF800A06E
:1038F0004FF059090AF068FB4FF08C08312333224E
:103900000B213448CDF800900AF05EFB8B27322360
:1039100064220A212F48CDF800800AF055FB31239C
:1039200065220B212B4800970AF04EFB0220FFF77F
:1039300071FC0128064600F06982022806D14FF08A
:10394000310B84F804B0002D00F00682002540F20F
:10395000FF7120480AF08EF91E230A222E491D48C5
:1039600000950AF0CBFE4FF6FF711A480AF082F973
:103970003E233C222949174800950AF0BFFE7023D8
:103980003C222749134800950AF0B8FE4FF6FF7114
:1039900010480AF06FF932235A2200920A211A467F
:1039A0000C480AF011FB59230093332231230B21D9
:1039B00008480AF009FB8C230093642232230A2171
:1039C00004480AF001FB8B230093652231230B216D
:1039D00028E000BF041AFF1F40330200BC1702009A
:1039E000CC170200DC170200C41A0200E81702001C
:1039F000440CFF1FF0170200FC170200C82E020043
:103A000008180200141802002018020024180200EE
:103A1000381802004818020050180200601802000E
:103A200068180200B7480AF0CFFA0220FFF7F2FB4D
:103A3000012800F0E881022801D13223A37100257A
:103A400040F2FF71AF480AF015F91E230A22AE4971
:103A5000AC4800950AF052FE4FF6FF71A9480AF0F3
:103A600009F93E233C22A949A64800950AF046FEE2
:103A700070233C22A649A34800950AF03FFE4FF66A
:103A8000FF71A0480AF0F6F832235A2200920A2168
:103A90001A469C480AF098FA59230093332231239E
:103AA0000B2198480AF090FA8C2300936422322369
:103AB0000A2194480AF088FA8B2300936522312367
:103AC0000B2190480AF080FA0220FFF7A3FB01289F
:103AD00000F09681022801D13123E3718D4B8E4A8B
:103AE00019688E4800230CF0DFFD8D4B05461870D9
:103AF000002840F0978189480CF09EFC29468148B7
:103B00000AF0B8F840F2DF1300931E224FF49B73C3
:103B10000A217C480AF0B6FA422731232D223026AA
:103B200040F2FF7177482770A37023726672A27209
:103B30000AF0A0F8462342F20E72009579497148C6
:103B40000AF0DCFD4FF6FF716E480AF093F800951D
:103B5000642342F20E7274496A480AF0CFFD4FF0B6
:103B6000DC0A4FF0CD094FF0BE08AA279B268C2512
:103B700000246E4963480AF03BFF2B460A226C4939
:103B8000604800940AF0BAFD33460A2269495D484C
:103B900000940AF0B3FD3B460A2267495948009455
:103BA0000AF0ACFD43460A226449564800940AF0E4
:103BB000A5FD4B460A226249524800940AF09EFD38
:103BC00053460A225F494F4800940AF097FD5E4928
:103BD0004C480AF00DFF4FF4EB7545F2713149483E
:103BE0000AF048F84FF49B734FF4C3720095AA2172
:103BF00044480AF0D3F84FF4484142480AF03AF8F2
:103C000096234FF4C37200950A213E480AF0C6F885
:103C10004FF6FF713B480AF02DF800954FF49B7367
:103C20004FF4C372AA2137480AF0CEF996234FF415
:103C3000C37200950A2133480AF0C6F940F2D5153F
:103C40004BF6F7512F480AF015F840F2351340F2C1
:103C50008712AB212B4800950AF0B6F9952340F264
:103C600087120B21274800950AF0AEF94FF6FF7135
:103C7000244809F0FFFF45F2713122480AF010F89C
:103C80004FF4D373D02231491E4800940AF036FD18
:103C90004FF448411B480AF003F82D491948009495
:103CA0004FF4D37320220AF029FD2146154809F06C
:103CB000F7FF28480BF0B4F80028FAD025480AF09E
:103CC000D1FF24480BF0C2F8044622480BF000F95B
:103CD000A0F59B70A028A4F10A03EAD88C2BA4F1CC
:103CE000AA0403D98C2CE4D8FFF77EFB054809F021
:103CF00057FFC82011F07CFB03B0BDE8F04FFFF781
:103D000095B800BF041AFF1F701802008018020047
:103D100088180200E028FF1F941802004428FF1FA3
:103D20004C1AFF1FAC180200440CFF1FC82E0200E3
:103D3000CC180200F41802001C1902003C19020001
:103D4000641902008C19020040330200A819020015
:103D5000B0190200AC27FF1F40F2FF71744809F050
:103D600089FF1E230A227349714800950AF0C6FC98
:103D70004FF6FF716E4809F07DFF3E233C226E49ED
:103D80006B4800950AF0BAFC70233C226B496848E6
:103D900000950AF0B3FC4FF6FF71654809F06AFF21
:103DA00032231A460A216248CDF800A00AF00CF925
:103DB0005B4633220B215E48CDF800900AF004F9EF
:103DC000322364220A215A48CDF800800AF0FCF818
:103DD0005B4665220B21564800970AF0F5F83046FD
:103DE000FFF718FA012819D002287FF4AFAD544B21
:103DF00083F805B0AAE530230546E3726371ECE46D
:103E00003023E3716AE63123A37118E6312323716D
:103E10004B4A002D7FF49AAD537197E5484A302301
:103E2000537193E5002306224649474800250CF0CC
:103E300065FD40F2FF713E4809F01CFF3C230A2259
:103E4000009542493A480AF059FC4FF6FF7138484C
:103E500009F010FF5A230A223A49009534480AF023
:103E60004DFC39480CF0E8FA2946314809F002FFC8
:103E700040F2DF1300931E224FF49B730A212C485B
:103E80000AF000F9422731232D22302640F2FF713B
:103E900027482770A37023726672A27209F0EAFEA7
:103EA000462342F20E720095294921480AF026FC69
:103EB0004FF6FF711E4809F0DDFE642342F20E72D8
:103EC00000951F491A480AF019FC40F2FF71184882
:103ED00009F0D0FE8C2342F20E7200951D49144861
:103EE0000AF00CFC4FF6FF71114809F0C3FE009573
:103EF000AA2342F20E7213490D480AF0FFFB4FF459
:103F0000917A40F213194FF48278F027E126D225F6
:103F10002EE63223E370BEE43323E370BBE43323A5
:103F2000E372002559E43223E372002555E400BF13
:103F3000041AFF1FB8190200C4190200CC190200AC
:103F4000440CFF1F540CFF1F4428FF1F9C18020045
:103F5000AC180200BC180200F8B52723294C2A4EE1
:103F600023220546012118463370227011F016FAFB
:103F70003078002111F0FEF92078012111F00EFABD
:103F80002078002111F056F8322D28D0332D14D08E
:103F9000312D00D0F8BD1D4A1D481E4E1E4C1F4934
:103FA0001F4B1060822741F2941500204FF4B47229
:103FB0003760256008601A60F8BD164A164E174C27
:103FC0001249174B6420106046F2A81702251020F2
:103FD0004FF4C8723760256008601A60F8BD0D4A5A
:103FE0000D4E0E4C09490E4B6420106046F2A81786
:103FF00000254FF480704FF48372376025600860AD
:104000001A60F8BDD819FF1FA524FF1FB419FF1FA0
:10401000D0010100A827FF1F4419FF1F1020FF1F18
:10402000D419FF1F08B511F071FF064B0021187855
:1040300011F000F8044B00211878BDE8084011F099
:1040400099B900BFD819FF1FA524FF1F10B5314B28
:10405000DB7A322B82B004462CD0332B02D12E488F
:104060000EF0EEFDFA2011F0C3F9FFF7DBFF4FF47D
:1040700078412A4809F0FEFD00230093274828498B
:10408000962342F20E720AF039FBA01F08280FD8BF
:10409000DFE800F0141F2A0E0E0E0E350500002377
:1040A000009342F20E72C8231E491C480AF026FBF8
:1040B00002B010BD1C480BF0F9FAD3E700230093BF
:1040C00042F20E72C823194914480AF017FB02B0D5
:1040D00010BD0023009342F20E72C82314490F480A
:1040E0000AF00CFB02B010BD0023009342F20E72E6
:1040F000C823104909480AF001FB02B010BD002393
:10410000009342F20E72C8230B4904480AF0F6FAF3
:1041100002B010BD440CFF1F1C25FF1F041AFF1F17
:1041200094240200281A0200AC24FF1FD4190200B4
:10413000E8190200001A0200141A0200FFFFFFFF34
:1041400030B57D4A7D4B107889B0002401211C7068
:1041500011F010F97A4BDB7A322B49D0332B44D152
:10416000784BC821187810F065FFAA2342F20E722E
:104170007549764800940AF0C1FAD02342F20E72D3
:104180007349724800940AF0B9FA724972480EF005
:104190009DFC40F2DC5011F02BF9642203A96E481B
:1041A0000EF094FDA0425FDB6C4B6D4C18789DF8CF
:1041B0000C30237016F01AF89FED5D0B41EC110BDB
:1041C00013F0C2FC51EC100B16F05EFB2378654A2D
:1041D000183BDBB2192B107000F2A380624A22FA5E
:1041E00003F3DB0740F19D800124204609B030BD78
:1041F0000094AA2342F20E72534954480AF07EFA00
:10420000D02342F20E725249009450480AF076FAD6
:104210004FF47A6011F0ECF840F2124011F0F2FD28
:104220004FF4FA7011F0E4F8504951480BF01CF9C2
:10423000072405464FF4FA70EDB911F0D9F84B494F
:104240004B480BF011F9013C0546F3D121463F489C
:1042500009F010FDEC230093AA224FF49B730A216E
:104260003A4809F00FFF9DB90620FFF7EFFE002442
:10427000204609B030BD0021344809F0FBFCEC2396
:104280000093AA224FF49B730A21304809F0FAFEEA
:1042900000240094AA23A02236492C480AF02EFAC2
:1042A000D023A0222A49009428480AF027FA40F691
:1042B000B83011F09DF84FF4FA7011F099F82C48CD
:1042C0000BF07CF90F2504464FF4FA70DCB911F0BD
:1042D0008FF827480BF072F9013D0446F4D12946C6
:1042E0001A4809F0C7FCEC230093AA224FF49B73F1
:1042F0000A21164809F0C6FE002C7FF475AF07208E
:10430000FFF7A4FE71E70021104809F0B3FCEC238D
:104310000093AA224FF49B730A210C4809F0B2FEC5
:1043200063E70E20FFF792FE00245EE7AFF3008004
:104330000000000000000040A524FF1F1420FF1F04
:10434000440CFF1FD819FF1F401A0200041AFF1F58
:10435000541A0200FC0DFF1F1C25FF1FD019FF1F60
:10436000A424FF1F1828FF1F01400102402E020055
:10437000AC24FF1F641A02002DE9F0472DED048BD9
:1043800090B0B2EE040A012107A810F08DF907A938
:104390000BA810F057F9D3490BA810F00BFA0146FF
:1043A00003A810F04FF90BA810F0F8F807A810F0C8
:1043B000F5F84FF6FF71CC4809F05CFC03A90BA897
:1043C00010F040F900230BA90093EA224FF4B473D4
:1043D000C5480AF0FDF90BA810F0E0F80220FFF73D
:1043E000AFFE002840F01E810124C04E9FEDC09A10
:1043F000DFF83083DFEDBF8A9FEDBF8A37464FF08D
:104400002009002514B3BD480AF00AFD0028F9D0A0
:10441000002DF7D1B9480AF025FCB8480AF016FD7E
:104420008246B6480AF054FD6FF4D27318443A2815
:10443000E8D8AAF10A03562B00F28580B04B092276
:104440004FEA49091A600125002CDCD14FF4FA71BA
:10445000A6480EF04DFB0028C0F2988097F8D131A5
:104460004BB1DFF89CA2DAF800300133032BCAF815
:10447000003000F3AF80D6ED726AF4EEC96AF1EE57
:1044800010FA5CDD9F4B96ED737A93ED006ADFF8CE
:1044900098E29FED9D5AF6EE007A37EE277AB8EE55
:1044A000C66A07EE909AF8EEE75A77EE067AFDEEC6
:1044B000E77A17EE903A83FB08011944DA17C2EB4A
:1044C00021224FF4B47101FB1233CB1A5EF8232082
:1044D00007EE102AB8EEC77A27EE267A87EE286A0A
:1044E00026EE257AC7EE087A77EE857AFDEEE77A32
:1044F00017EE901A4A1EB2F59F7F84D2834ADFEDF1
:10450000847A52F8233007EE103AB8EEC77A67EE95
:10451000266A86EEA87A67EE255A85EE887A77EEC7
:10452000C77AFDEEE77A17EE902AA2F11503B3F5EC
:104530009F7FBFF468AF6C4809F0C0FB63E70120C0
:1045400010F056FF5FE7AAF17503562B08D86C4BA5
:1045500009EBD97909224FEA69091A60012551E767
:10456000AAF1E00ABAF1560F3FF64CAF5F480EF0E1
:1045700067FBFA2010F03CFFFFF754FD03A810F092
:104580000DF810B0BDEC048BBDE8F08764220BA9D8
:1045900056480EF09BFB0028FFF635AF4FF47A72B9
:1045A000214652480EF04AFC0028C0F2C88021463D
:1045B0004D4809F05FFB4FF4A973009315224FF4A7
:1045C0009F730121484809F05DFD4FF47A7010F0A7
:1045D0000FFF18E72146444809F04CFB4FF4A9733C
:1045E0001522009301214FF49F733F4809F04AFDC3
:1045F0004FF494613C4809F03DFB0323B422A02111
:10460000394809F027FCDAF80030082B00F39C80C9
:1046100025464FF6E071344809F02CFB0023CAF818
:10462000003028E74FF6E0712F4809F023FB394BA3
:104630001B78183B0024192B3FF6D7AE01A252F885
:1046400023F000BF2D470000EB430000EB430000C8
:10465000EB430000EB430000EB430000EB430000A2
:10466000EB430000EB430000EB430000EB43000092
:10467000EB430000EB430000EB430000D146000099
:10468000EB430000BF460000EB430000EB4300009B
:10469000EB430000EB430000EB430000EB43000062
:1046A000EB430000EB430000AD46000000944FF4E4
:1046B000C3730A2218490C480AF020F895E60094C2
:1046C0004FF4C3730A22154907480AF017F88CE61D
:1046D00000944FF4C3730A22114903480AF00EF8FC
:1046E00083E600BF781A0200041AFF1F1C25FF1F73
:1046F0000000C84200401C4600007A44AC27FF1F5F
:104700001025FF1FE418FF1F00002043A02802000F
:1047100000003443A424FF1FB01A0200901A0200C4
:10472000A01A0200B7600BB6D810020000944FF434
:10473000C3730A221E491F4809F0E0FF55E608200E
:10474000FFF784FC01245EE607EE909A9FED1A0ABB
:10475000F8EEE77A012180EE270A07A80FF0A4FF00
:1047600007A90BA80FF06EFF14490BA810F022F850
:10477000014603A80FF0CEFF0BA80FF00FFF07A80C
:104780000FF00CFF4FF6FF710A4809F073FA03A906
:104790000BA80FF057FF00944FF4B473EA220BA953
:1047A00004480AF015F80BA80FF0F8FE31E700BF37
:1047B000801A0200041AFF1F0000A043781A0200AA
:1047C0002DE9F04F2DED028B93B0B2EE040A0121DA
:1047D0000AA80FF069FF0AA90EA80FF033FFAB4932
:1047E0000EA80FF0E7FF014606A80FF02BFF0EA85A
:1047F0000FF0D4FE0AA80FF0D1FE4FF6FF71A448C7
:1048000009F038FA002406A90EA80FF01BFF4FF498
:10481000B473EA220EA99E48009409F0D9FF0EA8AD
:104820000FF0BCFE4FF6E071994809F023FA984862
:1048300000944FF4C3730A22964909F05FFF2046A3
:10484000FFF77EFC002840F0E1800124DFF8608261
:10485000DFF860A2DFF86092DFED8F8AC346202781
:10486000002504B38D480AF0DBFA0028F9D0002DAA
:10487000F7D18A480AF0F6F988480AF0E7FA0646BE
:1048800086480AF025FB6FF4D27318443A28E8D81A
:10489000A6F10A03562B66D809237F00C8F800301A
:1048A0000125002CDED104A80DF10F027C490AF08D
:1048B00011FE9DF80F30002BD4D004A80AF066FD3D
:1048C00000285CD104A80AF063FD04A8B0EE408A79
:1048D0000AF064FD00EB8000400080B264283ED9FD
:1048E000704B1B6898423ADAF6EE007A38EE278A67
:1048F0006D4BFDEEC87A17EE906A53F8262002FB46
:1049000000F28AFB0213D217C2EB233307FB03F337
:1049100089FB0321DB17C3EBA11101F19F03B3F561
:104920009F7F01F1A0019DD2604B53F8263003FB1D
:1049300000F08AFB0023C017C0EB233307FB03F30F
:1049400089FB0302DB17A3EBA21202F19F03B3F56D
:104950009F7F87D2B4324E4809F0B0F982E7012038
:1049600010F046FD7EE7A6F17503562B3AD807EB0B
:10497000D77709237F10C8F80030012571E7D8F8F0
:1049800000300133032BC8F800309BDD214640483E
:1049900009F070F94FF4A9731522009301214FF427
:1049A0009F733B4809F06EFB4FF49461384809F05F
:1049B00061F90323B422A021354809F04BFA4FF6E0
:1049C000FF71334809F056F9DBF80030082B2CDC76
:1049D00025464FF6E0712E4809F04CF90023C8F83F
:1049E00000306FE7E03E562E3FF63BAF2C480AF012
:1049F0005DFEFA2010F0FCFCFFF714FB06A80FF098
:104A0000CDFD13B0BDEC028BBDE8F08F4FF47A7092
:104A100010F0EEFC22480AF013FE00287FF416AFD7
:104A20000820FFF713FB012410E707EE907AB8EE99
:104A3000E70A012188EE800A0AA80FF035FE0AA9CC
:104A40000EA80FF0FFFD11490EA80FF0B3FE0146AE
:104A500006A80FF05FFE0EA80FF0A0FD0AA80FF049
:104A60009DFD4FF6FF710A4809F004F906A90EA84A
:104A70000FF0E8FD00944FF4B473EA220EA9044845
:104A800009F0A6FE0EA80FF089FDA2E7781A020031
:104A9000041AFF1FC01A02000000A043AC27FF1F2A
:104AA000AC24FF1F4419FF1FD8100200A0280200E9
:104AB0001025FF1FAD8BDB68D34D621070B57148B8
:104AC00082B009F06DF870496E4840F2DF1409F0C9
:104AD0008FFF45F271316B4809F0CCF800946023E8
:104AE00040F2A5120A21674809F058F90094CB2337
:104AF00040F2A5127521634809F050F94FF49B73F9
:104B000040F2A5120094E0215E4809F047F94FF603
:104B1000FF715C4809F0AEF80094602340F2A512E2
:104B20000A21584809F050FA0094CB2340F2A5120C
:104B30007521544809F048FA4FF49B7340F2A512CE
:104B40000094E0214F4809F03FFA4FF4EF744BF620
:104B5000F7514C4809F08EF800945F234FF4D3725C
:104B60000B21484809F030FA0094CA234FF4D3725D
:104B70007621444809F028FA40F235134FF4D372F5
:104B80000094E1213F4809F01FFA45F271313D4898
:104B9000002409F085F84FF6FF713A4809F06AF8E9
:104BA0004FF4DD732D2239493648009409F0A6FDF3
:104BB0004FF4DD73982236493248009409F09EFD87
:104BC0004FF4DD73EB2233492E48009409F096FD33
:104BD00021462C4809F064F813254FF6FF71294847
:104BE00009F048F84FF4AD762A462146009540F288
:104BF0003F13244809F0E2FA32462146009640F27B
:104C00003F13204809F0DAFA2A4600962346214647
:104C10001C4809F0D3FA40F23F132A461946009681
:104C200018481D4E1D4D09F0C9FA23462146E122C0
:104C3000144809F00FF80323B422A021114809F009
:104C400009F94FF6E0710F4809F014F800944FF499
:104C5000B4730A2212490B4834702C6009F04EFDDF
:104C6000104BDB7A332B08D0322B01D002B070BD51
:104C700002B0BDE87040FFF7A3BD02B0BDE87040D0
:104C8000FFF77ABB041AFF1F40330200D01A02005C
:104C900050170200D41A02001028FF1F1025FF1F12
:104CA000DC1A0200440CFF1F30B55B4883B008F0EB
:104CB00077FF0A21594804F08BFF4FF4FA70002463
:104CC00010F096FB4FF6E071534808F0D3FF0A232B
:104CD00042F20E7252495048009409F00FFD4FF60F
:104CE000FF714D4808F0C6FF4E494B4809F080FE61
:104CF0001E2342F20E724C494748009409F0FEFC14
:104D0000282342F20E7249494348009409F0F6FC08
:104D1000322342F20E7246493F48009409F0EEFCFD
:104D2000412342F20E7243493B48009409F0E6FCED
:104D30004B2342F20E7240493748009409F0DEFCE2
:104D40003E49354809F054FE4FF4A2736422142101
:104D5000324804F095FF4FF6FF712F480A2508F0FE
:104D600089FF02212D4805F0F7FF2A46DC2334494C
:104D70002A48009506F0BEFE0C232A4600933149CE
:104D80002648EB2306F0B6FE0E232A4600932E4952
:104D90002248FC2306F0AEFE12232A4600932B493C
:104DA0001E4840F2111306F0A5FE16232A46009372
:104DB00027491A4840F2291306F09CFE1C232A4674
:104DC00000932449154840F2471306F093FE4FF430
:104DD0009A734FF4BE725021104804F051FF4FF403
:104DE0009F734FF4BE72B4210C4804F049FF40F2A7
:104DF000FF71094808F03EFF00944FF4E67342F259
:104E00000E721549044809F079FC14480AF008F8B4
:104E10000028FAD003B030BD041AFF1F6C1BFF1F1F
:104E2000EC1A0200C82E0200001B0200281B020020
:104E3000501B0200781B0200A01B0200403302003E
:104E4000C41B0200D81B0200EC1B0200001C020065
:104E5000141C0200281C02003C1C0200AC27FF1F8F
:104E6000F0B52DED028B85B04FF6FF715A48002644
:104E700008F000FF594958480096642342F20E7228
:104E800009F03CFC56480CF095FF4FF4FC610446D9
:104E9000514808F0EFFE002C00F08580642342F2B8
:104EA0000E7250494C48009609F028FC4FF47A7075
:104EB00010F09EFA4FF6FF71474808F0DBFE6423BE
:104EC00042F20E7248494448009609F017FCA023AC
:104ED0000096B0224549404809F010FC444BDF6A77
:104EE0003F0B36D007EE907A9FED428AF8EEE78AC4
:104EF0004FF48055340301220DF10F013E480BF0B1
:104F000035FC0123012808BF9DF80F20344818BF45
:104F1000FF2221461C440CF003FFAC42EBD107EE0C
:104F2000906AF8EEE77A202267EE887A002387EE0F
:104F3000A87A019200930136A0238022264805F525
:104F40008055FDEEC77A17EE901A09F061FCBE425B
:104F5000D0D1002428480BF06FFAA02380220094BF
:104F600026491D4809F0CAFB4FF4FC611A4808F0B5
:104F700081FE0094642342F20E722149164809F022
:104F8000BDFB782342F20E721E490094124809F0CC
:104F9000B5FB40F6B83010F02BFAFFF785FE05B0F0
:104FA000BDEC028BF0BD4FF478410B4808F062FE77
:104FB000642342F20E7214490094074809F09EFBE4
:104FC0000D480BF039FA4FF47A6010F011FA05B081
:104FD000BDEC028BF0BD00BF041AFF1F501C020085
:104FE000601AFF1F601C0200741C0200881C020073
:104FF0003428FF1F0000C8424428FF1F8C1C0200F9
:10500000901C0200A41C0200B01C0200FFFFFFFF66
:105010002DE9F043C64FC74883B000243C6008F038
:10502000BFFD4FF4FA7010F0E3F9C349C14809F02D
:10503000DFFC4FF6E071BF4808F01CFE0A2342F285
:105040000E72BE49BB48009409F058FBBC480CF0F6
:105050005BFE4FF6E0710546B64808F00BFE2823CC
:105060000A22B849B348009409F048FB4FF6FF7193
:10507000B04808F0FFFDC5F30743EF2BEDB20094F5
:105080004FF03C034FF0320200F07481AE49A94862
:1050900009F034FB4FF47841A64808F0EBFDD22329
:1050A00042F20E720094A949A24809F027FBA849D0
:1050B000A04809F09DFC4FF6FF719E4808F0DAFD0C
:1050C0000094E62342F20E72A2499A4809F016FBB8
:1050D0000094F52342F20E729F49964809F00EFBA8
:1050E00000944FF4827342F20E729C49914809F089
:1050F00005FB91498F4809F07BFC01244FF6E071D4
:105100008C48002608F0B6FD50230A2294498948AD
:10511000009609F0F3FA87484FF6FF7108F0AAFDF0
:10512000A5F11100C3B2092B76D815F06FF89FEDE9
:105130007E0B41EC110B12F007FD51EC100B15F03A
:105140007BFB202301460096019332226423794899
:1051500009F05EFB642300961A468249754809F0FF
:10516000CDFA1A2D98BF012610D8012303FA05F5B0
:1051700015F0F86840F0248115F4401940F04B8197
:1051800015F4602F40F03181002E4ED04FF4EB75B6
:1051900045F27131674808F06DFD00954FF49B733F
:1051A0004FF4CD72AA21634808F0F8FD4FF6FF7165
:1051B000604808F05FFD00954FF49B734FF4CD728B
:1051C000AA215C4808F000FF4BF6F751594808F057
:1051D00051FD40F2D51340F29B120093AB2140F2F7
:1051E0003513544808F0F0FE45F27131514808F08B
:1051F00057FD00254FF6FF714E4808F03BFD009526
:105200004FF4D873D02258494A4809F077FA294612
:10521000484808F045FD08E00096642332224A49D8
:10522000444809F06BFA1A2D9FD94FF4EB754FF4EF
:10523000484140483E4E08F01DFD96234FF4CD7284
:1052400000950A213B4808F0A9FD4FF6FF71394847
:1052500008F010FD96234FF4CD7200950A213548D1
:1052600008F0B2FE4BF6F751324808F003FD40F269
:10527000D51340F29B1200930B2195232D4808F083
:10528000A3FE4FF448412B4808F00AFD00254FF6D5
:10529000FF71284808F0EEFC4FF4D8732022334900
:1052A0002448009509F02AFA2946224808F0F8FC1B
:1052B00001233B602E4809F0B3FD0028FAD02C48AA
:1052C00009F0D0FC2A4809F0C1FD0546284809F03C
:1052D000FFFDA0F59B70A028ECD8A5F10A038C2B4C
:1052E0004DD83B68012B11D0022BE3D1002111488E
:1052F00008F0C0FC40F2DF13009328224FF49B73A8
:105300000A210C4808F0BEFEFFF7AAFD094808F084
:1053100047FCC82010F06CF803B0BDE8F043FDF77F
:1053200085BD00BFAFF3008000000000000000401A
:105330001C28FF1F041AFF1F40330200C01C02007C
:10534000601AFF1FD41C0200EC1C0200F41C0200B7
:10535000C82E0200001D0200201D0200481D020090
:105360005C1D02006C1D020088170200B0190200CB
:10537000AC27FF1F6549664809F0C0F9BEE6AA3DA3
:105380008C2D97D800216248DFF8BC8108F072FCB0
:1053900040F2DF13009328224FF49B730A215C48EC
:1053A00008F070FE4FF4FA7010F022F83B68012B01
:1053B0006DD0022B7FF47EAF56480BF03DF8A5E789
:1053C000002540F2FF71524808F054FC00959623E6
:1053D0000A2251494E4809F091F90095AA230A2260
:1053E0004E494B4809F08AF9CEE64FF478414848D7
:1053F00008F040FCCDF8009096230A224849444822
:1054000009F07CF9CDF80090AA230A2245494048CA
:1054100009F074F909E74FF6E0713D4808F02AFCFD
:10542000CDF8008096230A223D49394809F066F9F3
:10543000CDF80080AA230A223B49354809F05EF9DD
:10544000CDF80080BE230A223849314809F056F9C8
:10545000D2230A22CDF8008035492D4809F04EF9B3
:1054600040F2FF712A4808F005FCCDF80080F023D7
:105470000A222949264809F041F9CDF800804FF465
:1054800082730A222549224809F038F97CE6294B23
:10549000294A19681F4800230BF006F90546002821
:1054A00054D14FF478411A4808F0E4FB3C2342F20F
:1054B0000E7222491648009509F020F94FF6FF7147
:1054C000134808F0D7FB5A2342F20E721C491048C9
:1054D000009509F013F96E2342F20E7216490C483A
:1054E000009509F00BF9822342F20E721549084823
:1054F000009509F003F907480AF09EFF41F2883051
:105500000FF076FFC8F8005000E700BFE41C02006F
:10551000041AFF1F4428FF1FCC1D0200E01D0200DB
:10552000741D0200881D0200981D0200AC1D0200BF
:10553000C01D0200E028FF1FEC1D0200FC1D020040
:10554000041E0200101E02001C28FF1F002502235B
:105550004FF6FF718048336008F08CFB28230A2245
:105560007E497D48009509F0C9F83C230A227C4910
:105570007948009509F0C2F87A49774809F038FA75
:1055800064230A2278497448009509F0B7F8732318
:105590000A2276497048009509F0B0F882230A2261
:1055A00073496D48009509F0A9F891230A227149C1
:1055B0006948009509F0A2F8A0230A226E496648BE
:1055C000009509F09BF8AF230A226C4962480095C8
:1055D00009F094F86A49604809F00AFA4FF4EB7848
:1055E0004FF448415C4808F045FB4FF49B734FF47F
:1055F000CD72AA215848CDF8008008F0CFFB4FF6B5
:10560000FF71554808F036FB4FF49B734FF4CD7291
:10561000AA215148CDF8008008F0D6FC40F2D519F7
:105620004BF6F7514C4808F025FB40F2351340F299
:105630009B12AB214848CDF8009008F0C5FC4FF410
:105640004841454808F02CFB4FF6FF71424808F0EE
:1056500011FB4FF4D873C0224A493F48009509F026
:105660004DF829463C4808F01BFB4FF494613A483A
:1056700008F000FB96234FF4CD720A213648CDF88E
:10568000008008F08BFB4FF6FF71334808F0F2FA08
:1056900096234FF4CD720A212F48CDF8008008F0F0
:1056A00093FC4BF6F7512C4808F0E4FA952340F2AE
:1056B0009B120B212848CDF8009008F085FC4FF490
:1056C0009461254808F0ECFA4FF6FF71224808F083
:1056D000D1FA2D49204800954FF4D873302209F0B3
:1056E0000DF829461C4808F0DBFA002C3FF4E2AD27
:1056F0004FF47841184808F0BDFAD22342F20E72F6
:1057000000952249144808F0F9FF1649124809F09B
:105710006FF94FF6FF71104808F0ACFA0095E623D8
:1057200042F20E721A490C4808F0E8FF0095F52382
:1057300042F20E721749084808F0E0FF00954FF456
:10574000827342F20E721449034808F0D7FF0C49E5
:10575000014809F04DF9ADE5041AFF1F1C1E0200B7
:10576000301E0200C82E0200441E0200681E020005
:105770008C1E0200B41E0200D01E0200F81E0200A1
:1057800040330200B0190200E8160200F41C0200C7
:10579000001D0200081F02002C1F020070B5104EF1
:1057A00082B001F10A030C4605460093A1F10A02FA
:1057B00000F10A03A0F10A01304608F0D5FB6B1D89
:1057C0002246691F3046009408F0F8FC631D0093E0
:1057D0003046621F2B46294608F0F0FC02B070BD2F
:1057E000041AFF1F2DE9F047DFF8BCA0274F82B055
:1057F0004FF00009FF231A461946254808F02AFAF7
:10580000DAF80030CDF8009042F20E7221492048BB
:1058100008F074FF1D4809F003FB0028FAD01C486B
:10582000DAF80030CDF8009042F20E721A490026E4
:1058300008F064FF15483446354641F2883809F0CF
:10584000EFFAF0B1454511480DD1144B1449154AF2
:10585000A3FB0404A3FB0603240B1B0B0C601360C7
:1058600002B0BDE8F08709F073FBB7F90020B7F983
:1058700002300648013514441E4409F0D1FA0028CC
:10588000E0D141F288339D42B4D1DEE7AC27FF1F5F
:10589000041AFF1F3C1F0200481F02005917B7D10E
:1058A000E818FF1FF026FF1F0820FF1F70B5FF2319
:1058B00082B005460E46144619461A461C4808F0A2
:1058C000C9F931462846FFF769FF00231A46FF2130
:1058D000174808F0D3F9FFF785FFFF231A4619464A
:1058E000134808F0B7F9134B13491B6810480022FE
:1058F000009242F20E7208F001FF50231A46194638
:105900000B4808F0A7F931462846FFF747FF0B4838
:105910000B4A0C490C4B0068126841F8240043F80C
:1059200024200A4809F07CFA0028FAD102B070BDA0
:10593000041AFF1F0820FF1F541F0200E818FF1F52
:10594000F026FF1FEC18FF1F0C19FF1FAC27FF1FCD
:1059500008B5084809F064FA0028FAD1054809F0AA
:105960005FFA0028FAD0034809F05AFA0028FAD161
:1059700008BD00BFAC27FF1F0F4970B44C22302672
:10598000782555240023CA720E704D708C720B73EB
:1059900001F10902013100F00F03092B03F1370473
:1059A00096BF303314701370013A8A424FEA1010D8
:1059B000F1D170BC704700BF8C24FF1F30B50023AD
:1059C000784D794883B01A46FF2108F043F92B68D7
:1059D000754800220D21013B0091114608F052FB51
:1059E000FF231A461946704808F034F900231A4676
:1059F000FF216D4808F042F92B686B480E22002108
:105A00000C46013B009208F0D9FB012342F20E72D2
:105A100066496548009408F071FE234622462146F7
:105A2000614808F02BF92B680094DC2B4FF01E0323
:105A300071D042F20E725E495B4808F05FFE32237D
:105A400022465C495848009408F058FE3E232246FE
:105A500059495548009408F051FE4A2322465749B7
:105A60005148009408F04AFE5623224654494E48B5
:105A7000009408F043FE6223224652494A480094AB
:105A800008F03CFE6E2322464F494748009408F038
:105A900035FE862322464D494348009408F02EFEE9
:105AA000922322464A494048009408F027FEAA2340
:105AB000224648493C48009408F020FEB62322467E
:105AC00045493948009408F019FE4FF49173224675
:105AD00042493548009408F011FE4FF4977322466E
