:1000000000000320D1010000D14D0100894D010005
:10001000894D0100894D0100894D0100894D010084
:10002000894D0100894D0100894D0100D14D01002C
:10003000D14D0100894D0100CD410100D1420100A7
:10004000D14D0100D14D0100D14D0100D14D010034
:10005000D14D0100D14D0100D14D0100D14D010024
:10006000D14D0100D14D0100D14D0100D14D010014
:10007000D14D0100D14D0100D14D0100D14D010004
:10008000D14D0100D14D0100D14D0100D14D0100F4
:10009000D14D0100D14D0100D14D0100D14D0100E4
:1000A000C19B0000CD9B0000D14D0100D14D01004E
:1000B000D14D0100D14D0100D14D01003959010050
:1000C000D14D010051790100D14D01007D7A01002F
:1000D000D14D01009D5F0100D14D0100D14D0100C6
:1000E000D14D0100D14D0100D14D0100D14D010094
:1000F000D14D0100D14D0100D14D0100D14D010084
:10010000897701009D770100B1770100C577010073
:10011000D14D0100C1670100D14D0100D14D010059
:10012000D14D0100D14D0100D14D0100D14D010053
:10013000D14D0100D14D0100D14D0100D14D010043
:10014000D14D0100D14D01000D650100D14D0100DF
:10015000D14D0100D14D0100D14D0100D14D010023
:10016000D14D0100D14D0100D99B0000D14D0100BE
:10017000D14D0100D14D0100D14D0100D14D010003
:10018000D14D010045FF0000D14D0100D14D0100CE
:10019000D14D0100D14D0100757B0100D14D010011
:1001A000D14D0100D14D0100D14D0100D14D0100D3
:1001B000D14D0100D14D0100D14D0100D14D0100C3
:1001C000D14D0100D14D0100D14D0100D14D0100B3
:1001D0005C4B4CF2205210B51A804DF628121A8052
:1001E00000BF00BF14F0F8FD574B4FF030621A60AB
:1001F000564A9A60564ADA60564B4FF470021A60BB
:10020000554B564A1A60564B1A78110703D51A787F
:1002100042F008021A70534B5349AA221A70534AEB
:10022000534B8B4204D252F8040F43F8040BF8E707
:10023000504B514900228B4202D243F8042BFAE77B
:100240004E494F4A002352F8230041F8230001335E
:10025000742BF8D14B4B4C4A802103F8011B93427D
:10026000FBD14A4B454A1A60494B8A221A70A3F5C2
:10027000805324225A70A0221A709A799207FCD5D2
:100280009A79D406FCD4434A937903F00C03082BE3
:10029000FAD1414B60221A7002331A78802AFCD1BD
:1002A0003C4B01221A715D225A719A799006FCD555
:1002B0009979384A4906FBD5384B394919600021EC
:1002C000596020231370937903F00C030C2BFAD19F
:1002D000344B354A1A60354A354C136813F4807331
:1002E00003D123604FF4A8531360324B324A1A6093
:1002F00000225A60072243F8042C304AC3F80C2D20
:1003000062B615F053FA2368DA0705D52C4815F0C4
:100310000BF82C4B2C4A1A602C4B1B785B0609D52A
:10032000284C294B22689A4204D1254814F0FCFF3E
:10033000002323601AF0D0FC14F054FD14F082FC6A
:10034000FEE700BF0E20054030800440823F0400DD
:100350000100002B88ED00E0002008E0030000858C
:1003600002D0074000E00740C818FF1FA454020055
:10037000400CFF1FC818FF1F0436FF1F0002FF1F9D
:100380000000000000E400E064E400E008ED00E0AC
:10039000005006400040064001E007404480044011
:1003A0000000060204800440C010070010D0034083
:1003B00014D0034014E000E01FBF02000000202022
:1003C00077C0995F1CE00340A5C3945A00F0074032
:1003D000FFFFFFFFFFFFFFFFFFFFFFFFFFFFFFFF2D
:1003E000FFFFFFFFFFFFFFFFFFFFFFFFFFFFFFFF1D
:1003F000FFFFFFFFFFFFFFFFFFFFFFFFFFFFFFFF0D
:10040000FFFFFFFFFFFFFFFFFFFFFFFFDEF9FFFF23
:1004100010B5054C237833B9044B13B10448AFF33E
:1004200000800123237010BDC818FF1F00000000CA
:10043000A0540200084B10B51BB108490848AFF39F
:1004400000800848036803B910BD074B002BFBD0A0
:10045000BDE81040184700BF00000000CC18FF1F87
:10046000A0540200C818FF1F0000000000207047C1
:10047000027C02F0080202F0FF0332B1C36A406A54
:10048000181A48BF6FF0004070471846704700BF09
:100490000020704701207047034BD8691A79431E2A
:1004A0005002A3FB00017047941BFF1F14F036BFDE
:1004B00000B583B001220DF10701103010F0D8FA19
:1004C00001280CBF9DF807004FF0FF3003B05DF826
:1004D00004FB00BF103010F0CFBB00BF103010F095
:1004E0003BBD00BF103010F03DBD00BF00B583B074
:1004F00002AB012203F8011D1030194610F032FD45
:1005000003B05DF804FB00BF503010F02BBD00BFFE
:1005100038B5074C204611F017FC024620794102FD
:10052000A1FB0245D31701FB03552046294638BDE0
:10053000941BFF1F002A2CDD2DE9F84300251646E9
:100540000F460446A846606820B916F095FE606024
:100550000028FAD030F8083B721BC3F140099145DE
:10056000A8BF9146791918444A4614F073FB616894
:100570000B884B449BB2402B4D440B8003D0AE42C2
:10058000E1DCBDE8F883042016F0D8F8C4F8048054
:10059000F5E770472DE9F043C56F95B0FDB1DFF881
:1005A000BC900446636FAB424DD3267D26B304F165
:1005B000140805EB85010901404610F0D1FB69469E
:1005C0004046502210F054FA9DF80E1094F8802006
:1005D00052B1029BE36719B9E56F002DE2D1002506
:1005E000284615B0BDE8F083E36F606F01338342A6
:1005F000E36728BFE267EEE74FF47A7744F202231D
:10060000144A15498DF810608DF811608DF804605A
:100610008DF80C6004A804AE0297CDF8009010F09D
:10062000C5F90FCE04F1140847460FC70FCE0FC708
:1006300030689DF80410029A9DF80C3038602172E1
:10064000E2602374B5E70021502268461AF04EFF9D
:100650000021BBE778190200D01FFF1F0013020022
:10066000436F99423FD82DE9F041057D94B00F4684
:10067000044685B100F1140807EB870109014046E3
:1006800010F06EFB40465022694610F0F1F90198D7
:1006900014B0BDE8F0814FF47A7E144E144A154927
:1006A0008DF8105044F202238DF811508DF804504B
:1006B0008DF80C5004A804AD0096CDF808E010F0B9
:1006C00075F90FCD04F1140846460FC60FCD0FC6BD
:1006D00028689DF80410029A9DF80C303060217251
:1006E000E2602374C8E70020704700BF00130200D7
:1006F00078190200D01FFF1F2DE9F0470C46416F0B
:100700008C4294B0924699464FD8067D054626B352
:1007100000F1140804EB84010901404610F020FBAD
:1007200050226946404610F0A3F950460DF10E01E3
:10073000009D9DF80C401BF051FB1C9B1D602CB9CB
:10074000019BC9F8003014B0BDE8F0874FF0FF33CB
:10075000C9F8003014B0BDE8F0874FF47A7E1A4F24
:100760001A4A1B498DF8106044F202238DF811607B
:100770008DF804608DF80C6004A804AE0097CDF8E5
:1007800008E010F013F90FCE05F1140847460FC723
:100790000FCE0FC730689DF80410029A9DF80C30F8
:1007A00038602972EA602B74B4E750220021684651
:1007B0001AF09CFE50460DF10E011BF00FFB1C9A27
:1007C00000231360BCE700BF001302007819020089
:1007D000D01FFF1F2DE9F0470446A2B05030D4F8D7
:1007E0006CA00FF0ABFFE56B636F9D4273D8267D65
:1007F000002E48D004F1140805EB8501090140469C
:100800000DF1380910F0ACFA49465022404610F07C
:100810002FF9E56B237DCDF83CA01BBB334E344A4A
:1008200034498DF814304FF47A778DF815308DF8FF
:1008300008308DF81030019644F2022305A805AE69
:10084000039710F0B3F80FCE47460FC70FCE0FC770
:1008500030689DF80810039A9DF8103038602172B6
:10086000E260237405EB85010901404610F078FA37
:1008700049464046502210F075FB6FF00103E363D8
:1008800022B0BDE8F0874FF47A7E184F184A194914
:100890008DF8486044F202238DF849608DF83C6081
:1008A0008DF8446012A812AE0E97CDF840E010F01B
:1008B0007DF80FCE04F1140847460FC70FCE0FC7BF
:1008C00030689DF83C10109A9DF8443038602172D1
:1008D000E260237490E70DF1380948465022002168
:1008E0001AF004FE04F1140894E700BF001302009C
:1008F00078190200D01FFF1F2DE9F043047D8FB04F
:1009000007460E4691467CB100F1140806EB8601BD
:100910000901404610F024FA49464046502210F0A2
:1009200021FB0FB0BDE8F0834FF47A7E124D134ADD
:1009300013498DF8144044F202238DF815408DF8C8
:1009400008408DF8104005A805AC0195CDF80CE0E5
:1009500010F02CF80FCC07F1140845460FC50FCC4A
:100960000FC520689DF80810039A9DF81030286084
:100970003972FA603B74C9E700130200781902006B
:10098000D01FFF1F2DE9F0434B6F93428FB080467D
:100990003CD30E7D0D46144686B101F1140904EBDB
:1009A00084010901484610F0DBF9484650224146CF
:1009B00010F05EF840460FB0BDE8F0834FF47A7E49
:1009C000164F174A17498DF8146044F202238DF828
:1009D00015608DF808608DF8106005A805AE0197C8
:1009E000CDF80CE00FF0E2FF0FCE05F114094F46F1
:1009F0000FC70FCE0FC730689DF80810039A9DF8F7
:100A0000103038602972EA602B74C8E75022002148
:100A10001AF06CFD40460FB0BDE8F08300130200F1
:100A200078190200D01FFF1F2DE9F041436F994252
:100A3000E4B0144677D8077D05460E46002F00F037
:100A4000A78000F1140806EB86010901404610F06A
:100A500087F969465022404610F00AF8009E002EA1
:100A600066D06B6FB34279D32B7D002B00F0C5802D
:100A700006EB86010901404610F072F9502240460B
:100A800014A90FF0F5FF149A002A6DD0294628A862
:100A9000FFF778FF289A002A00F0AB8029463CA88F
:100AA000FFF770FF3C9A002A00F09F80294650A86B
:100AB000FFF768FF5099002900F0C88028462246B9
:100AC000FFF7B2FF20461BF0FBF9231813F8013C97
:100AD0002F2B02D05F4B1B8823520DF5A7712046A8
:100AE0001AF086FF20461BF0EBF9231813F8013C9F
:100AF0002F2B02D0574B1B8823520DF1FE012046AD
:100B00001AF076FF20461BF0DBF9231813F8013C9E
:100B10002F2B02D04F4B1B8823520DF1AE012046E4
:100B20001AF066FF23E05022002168461AF0DEFC2E
:100B3000484B1B88238020461BF0C2F9231813F86A
:100B4000013C2F2B02D0434B1B88235220460DF132
:100B50000E011AF04DFF64B0BDE8F0815022002173
:100B60000DEB02001AF0C2FC3A4B1B882380204692
:100B70001BF0A6F9231813F8013C2F2B02D0354B9C
:100B80001B8823520DF15E0120461AF031FFD2E797
:100B9000DFF8CCE0304A31498DF850714FF47A7C5F
:100BA00044F202238DF851718DF844718DF84C7127
:100BB00054A854AFCDF840E1CDF848C10FF0F6FE8F
:100BC0000FCF05F11408C646AEE80F000FCFAEE810
:100BD0000F0038689DF84411529A9DF84C31CEF8B8
:100BE00000002972EA602B742DE71A4B1B882380C2
:100BF00078E7184B1B88238084E7194F164A17495A
:100C00008DF850314FF47A7E8DF851318DF84431A2
:100C10008DF84C31509744F2022354A854AFCDF8CC
:100C200048E10FF0C3FE0FCFC646AEE80F000FCF6E
:100C3000AEE80F0038689DF84411529A9DF84C3187
:100C4000CEF800002972EA602B7411E7014B1B8873
:100C5000238037E78819020078190200D01FFF1F90
:100C6000001302002DE9F047B1F1FF3F01EB8109CC
:100C70004FEA0919ADF5986D8846DFF81CA30446C4
:100C800008BF4FF0000920E004F114074946384638
:100C900010F066F8502238460DEB02010FF0E8FE26
:100CA00050220DEB0201684613F0D4FF9DF80C2092
:100CB0002046002A40D0019B1946002B3CD02368D7
:100CC0001B6B9847002800F00B81B8F1FF3F02D062
:100CD000636F984529D8257D002DD5D14FF47A76BC
:100CE00044F20223A94AAA498DF8D0538DF8D15372
:100CF0008DF8C4538DF8CC53F4A8F4ADF296CDF82A
:100D0000C0A30FF053FE0FCD04F114073E460FC6EB
:100D10000FCD0FC628689DF8C413F29A9DF8CC3306
:100D200030602172E2602374B0E7502200210DEBA5
:100D300002001AF0DBFBB3E7B8F1FF3F00F0DC8004
:100D4000B8F1000F00F07D81424628A82146FFF748
:100D500019FE289A002A00F0D4803CA82146FFF70B
:100D600011FE3C9A002A00F0798150A82146FFF735
:100D700009FE509A002A00F08B8164A82146FFF7F3
:100D800001FE649A002A00F07D8178A82146FFF7D1
:100D9000F9FD789A002A00F081818CA82146FFF79E
:100DA000F1FD8C9A002A00F07F81A0A82146FFF770
:100DB000E9FDA09A002A00F07D81B4A82146FFF742
:100DC000E1FDB49A002A00F07B81C8A82146FFF714
:100DD000D9FDC89A002A00F079810DF55C79214689
:100DE0004846FFF7CFFDD9F80010F0AD002900F01C
:100DF00073812A462046FFF717FE28461BF060F84D
:100E00000DF2BF36335C2F2B02D0624B1B882B5266
:100E10000DF27E3128461AF0EBFD28461BF050F803
:100E2000335C2F2B02D05B4B1B882B520DF22E31E3
:100E300028461AF0DDFD28461BF042F8335C2F2BC4
:100E400002D0544B1B882B520DF2DE2128461AF09B
:100E5000CFFD28461BF034F8335C2F2B02D04D4BCE
:100E60001B882B520DF28E2128461AF0C1FD284610
:100E70001BF026F8335C2F2B02D0464B1B882B52DD
:100E80000DF23E2128461AF0B3FD28461BF018F853
:100E9000335C2F2B02D03F4B1B882B520DF5F77183
:100EA00028461AF0A5FD28461BF00AF8335C2F2BC4
:100EB00002D0384B1B882B520DF5CF7128461AF003
:100EC00097FD28461AF0FCFF335C2F2B02D0314BE4
:100ED0001B882B520DF5A77128461AF089FDC2E038
:100EE00000200DF5986DBDE8F087029BC993C8AA54
:100EF00031462046FFF700FD01200DF5986DBDE855
:100F0000F087F0AD2F232B800DF2BF3628461AF064
:100F1000D7FF335C2F2B02D01E4B1B882B520DF1B9
:100F2000AE0128461AF064FD9DF80C20002A00F05E
:100F3000838000260DF55C792A46484633461449DD
:100F40008DF870638DF871630FF030FD0028C7D005
:100F500048460FF0D9FE0028C2D0009E00236A4602
:100F6000414620468DF80E30FFF7C6FC3246C8A831
:100F70002146FFF707FDC99DA845B6D0002DBBD07F
:100F8000DFF814A00DF55C7920E000BF78190200AD
:100F9000D01FFF1F881902000013020004F114077C
:100FA00005EB8501090138460FF0DAFE384650227C
:100FB00049460FF05DFD50224946C8A813F04AFE8D
:100FC000CA9B984541D01D46002B95D0636FAB421C
:100FD0002CD3267D002EE1D14FF47A7744F2022300
:100FE0003F4A40498DF8E0628DF8E1628DF8D462A5
:100FF0008DF8DC62B8A8B8AEB697CDF8D0A20FF0E5
:10100000D5FC0FCE04F11407BE46AEE80F000FCE9C
:10101000AEE80F0030689DF8D412B69A9DF8DC3225
:10102000CEF800002172E2602374B9E7502200215B
:1010300048461AF05BFABEE729462A480FF050FEF0
:1010400089E7F0AD2F232B8070E7029BCA932046DF
:10105000C8AA2946FFF750FC012042E7F0AD2F2334
:101060002B800DF2BF3628461AF02AFF335C2F2B57
:1010700002D01D4B1B882B520DF1FE0128461AF0A1
:10108000B7FC43E7F0AD2F232B800DF2BF360AE704
:10109000F0AD2F232B800DF2BF3612E7F0AD2F23DA
:1010A0002B800DF2BF36F0E6F0AD2F232B800DF232
:1010B000BF36DCE6F0AD2F232B800DF2BF36C8E63D
:1010C000F0AD2F232B800DF2BF36B4E6F0AD2F2309
:1010D0002B800DF2BF36A0E62F232B808DE600BFBC
:1010E00078190200D01FFF1F881902002DE9F04F68
:1010F000C36B8B42ADF5397D04D190F83830934203
:1011000000F0A980914688460646002975D0436FB5
:10111000994200F2C680047D78AD002C00F0CF80AB
:10112000DFF834A200F1140B08EB880109015846DE
:101130000FF016FE5022584669460FF099FC009AAF
:10114000002A00F0B68014A83146FFF71BFC149A61
:10115000002A00F0848028A83146FFF713FC289A63
:10116000002A00F0CF803CA83146FFF70BFC3C9AE8
:10117000002A00F0E18050A83146FFF703FC509AA6
:10118000002A00F0D38064AF31463846FFF7FAFBFF
:101190003968002900F0D6802A463046FFF744FC23
:1011A00028461AF08DFE0DF2DF14235C2F2B02D09F
:1011B000664B1B882B520DF5CF7128461AF018FC90
:1011C00028461AF07DFE235C2F2B02D05F4B1B8834
:1011D0002B520DF5A77128461AF00AFC28461AF082
:1011E0006FFE235C2F2B02D0584B1B882B520DF126
:1011F000FE0128461AF0FCFB89E078AD2F23DFF8CA
:1012000058A12B8064AF06F1500420460FF096FAE7
:1012100000212A464FF47A754B4639747974397136
:101220003973BD604A49C7F800A068A868AD0FF0DF
:10123000BDFB0FCD0FC40FCD0FC428683979BA6834
:101240003B7B2060C6F83C8086F8389086F84410D6
:10125000B26486F84C300DF5397DBDE8F08F2F2350
:101260002B8064AF0DF2DF1428461AF029FE235CB0
:101270002F2B02D0354B1B882B520DF15E012846D7
:101280001AF0B6FB28461AF01BFE235C2F2B02D067
:101290002E4B1B882B520DF10E0128461AF0A8FB8D
:1012A000B1E75022002168461AF020F9DFF8A8A023
:1012B00078AD2F232B8064AF0DF2DF14E2E74FF4FB
:1012C0007A77244A22492C7444F202236C742C71DC
:1012D0002C73AF60DFF880A0C5F800A07CA87CACC0
:1012E0000FF064FB0FCC06F1140B5F460FC70FCC59
:1012F0000FC720682979AA682B7B38603172F260A9
:10130000337411E72F232B8064AF0DF2DF142846CE
:101310001AF0D6FD235C2F2B02D00C4B1B882B52CE
:101320000DF1AE0128461AF063FB9DE72F232B80B9
:1013300064AF0DF2DF1443E72F232B8064AF0DF26F
:10134000DF144BE72F232B802AE700BF8819020008
:10135000D01FFF1F7819020000130200F8B50446E1
:10136000174650340022069E1D46FFF7BFFE394641
:1013700020460FF0F5FC324629462046BDE8F840ED
:101380000FF076BB2DE9F0479A464B1CADF5986DF2
:101390000446904600F09480436F99420D4600F257
:1013A000C180267D01EB81094FEA0919002E00F06A
:1013B0008E8004F11406494630460FF0D1FC3046C9
:1013C00069465022E9460FF053FB50461AF078FD6B
:1013D0003E2805D9002738460DF5986DBDE8F08701
:1013E000421C51460DF15E0013F034FC676F267D00
:1013F00014957B1C636700231593D9F8043016936A
:1014000001238DF85C808DF85D30002E00F07A812C
:1014100004F1140607EB8701090130460FF0A0FC28
:1014200014A9502230460FF09DFD237DC9F80470A9
:101430006BBB4FF47A7CDFF838E3CB4ACB498DF8AD
:10144000D0338DF8D1338DF8C4338DF8CC33F4A874
:1014500044F20223CDF8C8C3CDF8C0E30FF0A6FADA
:101460000DF5747EBEE80F00B446ACE80F00BEE890
:101470000F00ACE80F00DEF800009DF8C413F29AEC
:101480009DF8CC33CCF800002172E260237405EBA8
:101490008501090130460FF063FC49463046502271
:1014A0000FF060FDB8F1000F43D1204644F2022254
:1014B0003946FFF71BFE38460DF5986DBDE8F087FD
:1014C000267D4FF000094D46002E7FF472AFA84FE5
:1014D000A54AA649F0974FF47A7E44F20223F4A875
:1014E000F4AF8DF8D0638DF8D1638DF8C4638DF8B7
:1014F000CC63CDF8C8E30FF059FA0FCF04F114060E
:10150000B646AEE80F000FCFAEE80F0038689DF882
:10151000C413F29A9DF8CC33CEF800002172E26039
:10152000237448E7684650220021E94619F0DEFF9F
:101530004BE7002F00F020813A4628A82146FFF70C
:1015400021FA289A002A00F030813CA82146FFF7B2
:1015500019FA3C9A002A00F0218150A82146FFF791
:1015600011FA509A002A00F0278164A82146FFF75B
:1015700009FA649A002A00F0268178A82146FFF72C
:1015800001FA789A002A00F025818CA82146FFF7FD
:10159000F9F98C9A002A00F02481A0A82146FFF7CF
:1015A000F1F9A09A002A00F02381B4A82146FFF7A0
:1015B000E9F9B49A002A00F02281C8A82146FFF771
:1015C000E1F9C89A002A00F02181DCAE21463046BC
:1015D000FFF7D8F93168F0AD002900F01E812046F0
:1015E0002A46FFF721FA28461AF06AFC0DF2BF34AA
:1015F000235C2F2B02D05F4B1B882B520DF27E31C8
:1016000028461AF0F5F928461AF05AFC235C2F2BCD
:1016100002D0584B1B882B520DF22E3128461AF05F
:10162000E7F928461AF04CFC235C2F2B02D0514BD3
:101630001B882B520DF2DE2128461AF0D9F92846D4
:101640001AF03EFC235C2F2B02D04A4B1B882B52F6
:101650000DF28E2128461AF0CBF928461AF030FCFC
:10166000235C2F2B02D0434B1B882B520DF23E21C3
:1016700028461AF0BDF928461AF022FC235C2F2BCD
:1016800002D03C4B1B882B520DF5F77128461AF0FF
:10169000AFF928461AF014FC235C2F2B02D0354BEF
:1016A0001B882B520DF5CF7128461AF0A1F9284658
:1016B0001AF006FC235C2F2B02D02E4B1B882B52DA
:1016C0000DF5A77128461AF093F928461AF0F8FB91
:1016D000235C2F2B02D0274B1B882B520DF1FE01D0
:1016E00028461AF085F928461AF0EAFB235C2F2BCE
:1016F00002D0204B1B882B520DF1AE0128461AF068
:1017000077F93DE04FF47A7CDFF864E0164A174938
:101710008DF8D06344F20223F4A88DF8D1638DF8DC
:10172000C4638DF8CC63CDF8C8C3CDF8C0E30FF027
:101730003DF90DF5747EBEE80F0004F11406B446C1
:10174000ACE80F00BEE80F00ACE80F00DEF80000C8
:101750009DF8C413F29A9DF8CC33CCF800002172A6
:10176000E260237456E600BF78190200D01FFF1F05
:101770000013020088190200F0AD2F232B80DCAE8D
:1017800000242A46304601232549347074700FF036
:10179000AFF838460DF5986DBDE8F087F0AD2F2312
:1017A0002B80DCAE0DF2BF348FE7F0AD2F232B8002
:1017B000DCAE0DF2BF3496E7F0AD2F232B80DCAE0C
:1017C0000DF2BF3473E7F0AD2F232B80DCAE0DF2AA
:1017D000BF345EE7F0AD2F232B80DCAE0DF2BF34BB
:1017E00049E7F0AD2F232B80DCAE0DF2BF3434E798
:1017F000F0AD2F232B80DCAE0DF2BF341FE7F0AD30
:101800002F232B80DCAE0DF2BF340AE7F0AD2F237F
:101810002B80DCAE0DF2BF34F5E62F232B80E2E601
:10182000D01FFF1F2DE9F04F90F878400126C5B07A
:10183000054680F87960002C00F00E816B6F002B5C
:1018400000F007814FF00008474606E06B6F013754
:10185000BB4208F1500840F2FC80BB42F7D32C7D1C
:10186000002C00F0CC8005F11406414630460FF004
:1018700077FA1CA9502230460FF0FAF89DF87C3018
:10188000002BE3D09DF87D40002CDFD12246394665
:101890002846FFF72BFC95F85030002BD6D0A246F7
:1018A00005F15009019758E0A2420CBF23460123DD
:1018B000019A08BF0D9C30928DF8CC304022002355
:1018C0000DF1CE0106A831948DF8CD30CDF8C8A029
:1018D0000FF068FC6C6F95F814E0631C6B67BEF149
:1018E000000F2BD14FF47A7C44F202237D4A7E49CB
:1018F0007E4F8DF84CE013A88DF84DE08DF840E058
:101900008DF848E0CDF844C00F970FF04FF80DF177
:101910004C0EBEE80F00B446ACE80F00BEE80F0066
:10192000ACE80F00DEF800009DF84010119A9DF819
:101930004830CCF800002972EA602B7404EB840173
:10194000090130460FF00CFA502230A930460FF052
:1019500009FB06A8A2460EF0F1FE0024634B029399
:1019600022464FF47A7B494606A88DF818408DF838
:1019700019408DF80C408DF81440CDF810B00FF0E0
:10198000ABFA9DF8183003F07002002B8CD12C7D3F
:10199000019FCDF874A001238DF87D302CBB8DF80C
:1019A000D0408DF8D1408DF8C4408DF8CC404F4CDC
:1019B0004C4A4D49309444F2022334A834ACCDF85B
:1019C000C8B00EF0F3FF0FCCB646AEE80F000FCC58
:1019D000AEE80F0020689DF8C410329A9DF8CC3014
:1019E000CEF800002972EA602B74414630460FF0B1
:1019F000B7F91CA9304650220FF0B4FA26E78DF84B
:101A0000D0408DF8D1408DF8C4408DF8CC40374C93
:101A1000344A354930944FF47A7644F2022334A89C
:101A200034AC32960EF0C2FF0FCC05F11406B64668
:101A3000AEE80F000FCCAEE80F0020689DF8C41090
:101A4000329A9DF8CC30CEF800002972EA602B74EF
:101A50000BE745B0BDE8F08F80F878602149224857
:101A60000FF03EF92F7D30942F23329431948DF86E
:101A7000CC608DF8CD406E67ADF8CE305FB105F12A
:101A80001407002138460FF06BF93846502230A970
:101A90000FF068FAD2E6154C124A13491C944FF421
:101AA0007A7644F2022320A820AC8DF880708DF85D
:101AB00081708DF874708DF87C701E960EF076FF34
:101AC0000FCC05F114073E460FC60FCC0FC6206899
:101AD0009DF874101E9A9DF87C3030602972EA607F
:101AE0002B74CEE778190200D01FFF1F00130200ED
:101AF000436F994200F2CC802DE9F04F057DC3B0D1
:101B00000F460446002D00F09A8000F1140907EBFF
:101B10008701090148460FF023F91AA950224846C7
:101B20000EF0A6FF9DF8743013B19DF8755015B1F5
:101B300043B0BDE8F08F2A4639462046FFF7D6FA73
:101B400094F85030002BF3D0DFF850A1A84604F1F0
:101B5000500B50E0002A14BF012300238DF8C4303D
:101B60004FF0400208BF0B9B309518BF00230DF1CA
:101B7000C60104A82F932E978DF8C5800FF012FB95
:101B8000656F267D6B1C63673EBB4FF47A7E44F223
:101B90000223404A40498DF844608DF845608DF835
:101BA00038608DF8406011A811AECDF83CE0CDF85A
:101BB00034A00EF0FBFE0FCECE46AEE80F000FCEE7
:101BC000AEE80F0030689DF838100F9A9DF840304D
:101BD000CEF800002172E260237405EB8501090153
:101BE00048460FF0BDF850222EA948460FF0BAF92A
:101BF00004A80EF0A3FD4FF47A730022594604A8FE
:101C000002938DF810808DF811808DF804808DF886
:101C10000C80CDF800A00FF05FF99DF8103003F0B4
:101C20007002002B96D101231AAA394620461B9533
:101C30008DF87530FEF760FE43B0BDE8F08F4FF4CD
:101C40007A76144A14498DF8C85044F202238DF86C
:101C5000C9508DF8BC508DF8C45032A8DFF83CA0B4
:101C6000309632ADCDF8B8A00EF0A0FE0FCD04F145
:101C700014094E460FC60FCD0FC628689DF8BC103C
:101C8000309A9DF8C43030602172E26023743EE7E0
:101C9000704700BF78190200D01FFF1F0013020019
:101CA000F0B590F87860A3B004460D466EB30DB35E
:101CB0006B1C4DD029462046FFF71AFF636F0122A7
:101CC0009D4284F8802000F2A780267D05EB8505E3
:101CD0002D01002E47D004F11406294630460FF09E
:101CE0003FF8304650220EA90EF0C2FE0F9BE3676C
:101CF00023B0F0BD94F87930002B5FD0002201238F
:101D000084F88020E36723B0F0BD012780F8787065
:101D1000434944480EF0E4FF94F814E08DF8447011
:101D20002F2367670E9610960F968DF84560ADF8D5
:101D30004630BEF1000F45D004F1140600213046B4
:101D40000FF00EF8304650220EA90FF00BF9AEE757
:101D500000212046FFF7CCFE267D012384F8803049
:101D60000025002EB7D1304F2D4A2E490E974FF443
:101D70007A7E44F2022312A812AF8DF848608DF8E3
:101D800049608DF83C608DF84460CDF840E00EF07D
:101D90000DFE0FCF04F11406B646AEE80F000FCFCC
:101DA000AEE80F0038689DF83C10109A9DF844305A
:101DB000CEF800002172E26023748EE72046FFF720
:101DC00031FD9BE74FF47A77174E154A1549039773
:101DD00044F2022305A805AF8DF814E08DF815E054
:101DE0008DF808E08DF810E001960EF0DFFD0FCFC2
:101DF00004F11406B646AEE80F000FCFAEE80F00B0
:101E000038689DF80810039A9DF81030CEF800004D
:101E10002172E260237491E70023E36723B0F0BDF1
:101E200078190200D01FFF1F001302002DE9F041B6
:101E30000B7882B00446002B4BD008460E461AF0B1
:101E40003FF8257A01308DF80200002D50D0E3686C
:101E50000133E3603278002A36D0002705E0E368DA
:101E60000233E36016F8012F4AB3ADF80620002DC7
:101E7000F5D1606820B915F0FFF960600028FAD04C
:101E800030F8083BC5F10202C3F140089045A8BFF5
:101E9000904618440DF106035919424612F0DAFE35
:101EA00061680B8843449BB2402B45440B801AD099
:101EB000012DDEDD16F8012F257A002AD5D1002369
:101EC000ADF804303DB3E3680233E36002B0BDE82F
:101ED000F081027A8DF80330AAB1C3680133C36080
:101EE00002B0BDE8F081042014F028FC6760DFE751
:101EF00001220DF102012046FEF71CFB3278257A03
:101F0000002AAAD1DBE701220DF10301FEF712FB43
:101F100002B0BDE8F0812E46606820B915F0ACF93A
:101F200060600028FAD030F8083BC5F10202C3F126
:101F300040079742A8BF1746184401AB59193A46C3
:101F400012F088FE61680B883B449BB2402B3D44F5
:101F50000B8004D0012DDFDD02B0BDE8F08104204C
:101F600014F0ECFB6660F5E730B5037A91B06425B8
:101F70000446ADF82650002B00F0A680C368062268
:101F80000233C3600F9204336422E360ADF824206F
:101F90000233E3605A492046FFF748FF237A0022C4
:101FA000ADF82220002B00F0B580E3680E2202334A
:101FB000E3600E92043341F20102E360ADF82020A9
:101FC000023341F20202E360ADF81E20023341F217
:101FD0000302E360ADF81C20023341F20402E36027
:101FE000ADF81A20023341F20502E360ADF8182083
:101FF000023341F20602E360ADF81620023341F2EB
:102000000702E360ADF81420023341F20802E360F6
:10201000ADF81220023341F20902E360ADF810205E
:10202000023341F20B02E360ADF80E20023341F2BD
:102030000C02E360ADF80C20023341F20D02E360C4
:10204000ADF80A20023341F21402E360ADF8082033
:10205000023341F21502E360ADF80620023300229C
:10206000E3600D9204330122E3600C9204334DF2DD
:102070000242E360ADF8042002330022E3600B92D9
:1020800004330222E3600A9204334FF44052E360C7
:10209000ADF80220023343F20102E360ADF8002004
:1020A0000233E36020461749FFF7C0FE2046164979
:1020B000FFF7BCFE20461549FFF7B8FE204614493D
:1020C000FFF7B4FE11B030BD02220DF12601FEF77C
:1020D00031FA237A06220F92002B40F03581042238
:1020E0000FA92046FEF726FA237AADF82450002BDC
:1020F00040F02C81022209A92046FEF71BFA49E78D
:102100008C190200A0190200A8190200B0190200DF
:10211000B419020002220DF122012046FEF70AFA4C
:10212000237A0E220E92002B40F0128104220EA977
:102130002046FEF7FFF9237A41F20102ADF8202094
:10214000002B40F00781022208A92046FEF7F2F991
:10215000237A41F20202ADF81E20002B40F0FC80F1
:1021600002220DF11E012046FEF7E4F9237A41F226
:102170000302ADF81C20002B40F0F080022207A9DA
:102180002046FEF7D7F9237A41F20402ADF81A206F
:10219000002B40F0E58002220DF11A012046FEF7E7
:1021A000C9F9237A41F20502ADF81820002B40F05E
:1021B000D980022206A92046FEF7BCF9237A41F213
:1021C0000602ADF81620002B40F0CE8002220DF161
:1021D00016012046FEF7AEF9237A41F20702ADF868
:1021E0001420002B40F0C280022205A92046FEF7F1
:1021F000A1F9237A41F20802ADF81220002B40F039
:10220000B78002220DF112012046FEF793F9237ADE
:1022100041F20902ADF81020002B40F0AB80022201
:1022200004A92046FEF786F9237A41F20B02ADF8A5
:102230000E20002B40F0A08002220DF10E0120465E
:10224000FEF778F9237A41F20C02ADF80C20002B4E
:1022500040F09480022203A92046FEF76BF9237A0E
:1022600041F20D02ADF80A20002B40F089800222D5
:102270000DF10A012046FEF75DF9237A41F21402BE
:10228000ADF80820002B7DD1022202A92046FEF7DE
:1022900051F9257A41F21503ADF80630002D73D1BE
:1022A00002220DF106012046FEF744F9237A0D952E
:1022B000002B6BD104220DA92046FEF73BF9237AAF
:1022C00001220C92002B63D104220CA92046FEF7B8
:1022D00031F9257A4DF20243ADF80430002D59D181
:1022E000022201A92046FEF725F9237A0B95002B3F
:1022F00052D104220BA92046FEF71CF9237A0225AD
:102300000A95002B4AD104220AA92046FEF712F9A9
:10231000237A4FF44052ADF802209BB92A460DF1C2
:1023200002012046FEF706F9237A43F20102ADF8D6
:1023300000202BB92A4669462046FEF7FBF8B1E695
:10234000E368ADE6E368A5E6E3681CE6E3681FE63C
:10235000E3682FE6E36833E6E36837E6E3683BE6E5
:10236000E3683FE6E36843E6E36847E6E3684BE695
:10237000E3684FE6E36853E6E36857E6E3685BE645
:10238000E3685FE6E36863E6E36867E6E36869E6F7
:10239000E3686BE6E3686FE6E36871E6E36873E6BB
:1023A00030B504460068514A03681B68934289B0FF
:1023B00040F08F800422237AADF80620002B54D001
:1023C000E3680233E3602068494A03685B6893422C
:1023D0007AD10223257AADF80A30002D62D0E36865
:1023E00000220233E360ADF808200233E360206886
:1023F000404A03689B68934264D13F4BD8691A797D
:10240000431E5002A3FB0001237ACDE90601002BF5
:1024100042D0E3680833E3602068384A0368DB6829
:1024200093425CD1344D28460FF08EFC2A79550238
:10243000C117A5FB002305FB013310461946237A7B
:1024400004900591C3B1E3684FF0FF320833E360B5
:1024500003920433E36020462949FFF7E7FC204656
:102460002849FFF7E3FC09B030BD02220DF1060157
:102470002046FEF75FF8A6E7082204A92046FEF7EB
:1024800059F8237A4FF0FF32039253BB042203A979
:102490002046FEF74FF8DEE7082206A92046FEF7A1
:1024A00049F8B9E702220DF10A012046FEF742F889
:1024B000237AADF80850B3B9022202A92046FEF7EC
:1024C00039F894E798479FE79847002881D101237E
:1024D00080E79847012200287FF46DAF6AE79847AC
:1024E000ADE7E368B5E7E3687FE700BF910400006C
:1024F0009504000099040000941BFF1F11050000C3
:10250000B8190200542A02002DE9F04F037AA5B051
:1025100004460092002B00F0D68000230293DFF8DF
:10252000A492A54B0193E3680433E3602568019A04
:102530002B681B69934240F0698195F87860002E02
:1025400000F04481009A1346002A35D195F879307D
:10255000002B00F006820022012385F88020EB6723
:10256000DFF8648225682B685B694B454ED1EE6FBE
:10257000FEB10DF1400B6B6F9E4276D82F7D002F80
:1025800048D005F1140A06EB8601090150460EF009
:10259000E7FB5046502259460EF06AFA9DF84E006D
:1025A00095F88020DAB1129BEB6708BBEE6F002E26
:1025B000E1D125B0BDE8F08F013208BF00231946F4
:1025C00028461E46FFF794FA012385F880303246EC
:1025D000294610A8FEF7D6F9119BEB67C0E7EB6F11
:1025E000696F01338B42EB6728BFEA670028DDD0B3
:1025F000002EDED0257A0396002D3DD0E3682568B5
:102600000433E3602B685B694B45B0D0284698479C
:102610000646EDE74FF47A7E44F20223674A6849A2
:102620008DF850708DF851708DF844708DF84C70A5
:1026300014A814AFCDF848E0CDF840800EF0B6F9FC
:102640000FCF05F1140AD646AEE80F000FCFAEE863
:102650000F003B68CEF800309DF844302B72129B7F
:10266000EB609DF84C302B748DE7502200215846CA
:1026700018F03CFF002093E72E46606820B914F064
:10268000FBFD60600028FAD030F8083BC5F1040279
:10269000C3F140079742A8BF1746184403AB591926
:1026A0003A4612F0D7FA61680B883B449BB2402B44
:1026B0003D440B8002D0032DDFDD53E7042014F0EE
:1026C0003DF86660F7E73C4B056801931A462B68B6
:1026D0001B69934240F0498195F87860002E00F024
:1026E000D480009A002A40F0958095F87930002B2C
:1026F00000F03F810022012385F88020EB672568E8
:10270000DFF8C0902B68DFF8C0A05B694B454FF045
:10271000000B40F0E780EE6F2EB30DF140086B6FB9
:10272000B342C0F012812F7D002F00F0DF8005F151
:10273000140706EB8601090138460EF011FB3846F6
:10274000502241460EF094F99DF84E0095F88020F5
:10275000002A00F0B280129BEB67002840F0B7809F
:10276000EE6F002EDBD1257ACDF808B0002D7FF476
:10277000DAAE2E46606820B914F07EFD6060002855
:10278000FAD030F8083BC5F10402C3F14007974284
:10279000A8BF1746184402AB59193A4612F05AFA24
:1027A00061680B883B449BB2402B3D440B8000F09A
:1027B000D380032DDEDDB9E6A11C000078190200EC
:1027C000D01FFF1F9505000000130200012785F8A8
:1027D00078706A496A480EF083FA2F238DF84C709E
:1027E0001096129611968DF84D60ADF84E302E7DF4
:1027F0006F6716B305F11408002140460EF0B0FAD9
:102800004046502210A90EF0ADFB9BE600992846E9
:102810009847A5E6511C14BF1646002631462846A7
:10282000FFF766F9012385F880303246294610A863
:10283000FEF7A8F8119BEB6761E74FF47A7E514FE2
:102840004E4A4F498DF81C6044F202238DF81D60FA
:102850008DF810608DF8186007A807AE0397CDF8C3
:1028600014E00EF0A3F80FCE05F1140847460FC789
:102870000FCE0FC733683B609DF810302B72059B5D
:10288000EB609DF818302B74B6E7012785F8787057
:102890003A493B480EF024FA2F238DF84C701096DD
:1028A000129611968DF84D60ADF84E30314610AA53
:1028B0006F672846FEF720F813E7EB6F696F013367
:1028C0008B42EB6728BFEA6700283FF449AF002E30
:1028D0003FF449AF25682B685B694B450BF1010B51
:1028E0003FF419AF284698470646F0E74FF47A7E42
:1028F00044F20223214A22498DF8507014A88DF821
:1029000051708DF844708DF84C70CDF848E0CDF8DA
:1029100040A00EF04BF80DF1500EBEE80F0005F18F
:102920001407BC46ACE80F00BEE80F00ACE80F008F
:10293000DEF80030CCF800309DF844302B72129B4A
:10294000EB609DF84C302B74F3E65022002140469A
:1029500018F0CCFD0020F9E6042013F0EFFE6660CD
:1029600027E72846FEF75EFFF5E5284600999847D9
:10297000C5E62846FEF756FFBCE600BF7819020000
:10298000D01FFF1F001302002DE9F043044600682A
:10299000AA4B026895699D42E5B040F0228110ADD6
:1029A0000A4624AF01462846FDF7ECFF38460DF1F4
:1029B0004E0119F013FA0DF114082B7B2A68C8F8A0
:1029C0000020002B63D16B68049304AE237A0122AC
:1029D0000692002B5ED0E368326804330132E36074
:1029E00000F00A810022ADF80C2002330022E360DF
:1029F000ADF80A2002333268E3600E9204330022FD
:102A0000E360ADF8082002330022E3600D92043346
:102A10000022E3600C9204330022E3600B92043343
:102A20000022E3600A9204330022E3600992043337
:102A30000022E36008920433D8F80020E360079294
:102A40003268A2F1FF32B2FA82F252090433E36033
:102A5000ADF80E2002330022E3602A600433002226
:102A6000E3600F920433E36039462046FFF7DEF956
:102A700020467349FFF7DAF920467149FFF7D6F986
:102A800020466F49FFF7D2F965B0BDE8F0834FF0FB
:102A9000FF3399E706A904222046FDF74BFD336872
:102AA00094F80890013343F2010318BF0023ADF8F6
:102AB0000C30B9F1000F40F0A88003A90222204693
:102AC000FDF738FD237AADF80A90002B40F09F8087
:102AD00002220DF10A012046FDF72CFD237A32680F
:102AE0000E92002B40F095800EA904222046FDF79F
:102AF00021FD237AADF80890002B40F08C8002A9CC
:102B000002222046FDF716FD237ACDF83490002BE3
:102B100040F083800DA904222046FDF70BFD237AA7
:102B2000CDF83090002B7AD10CA904222046FDF775
:102B300001FD237ACDF82C90002B72D10BA9042231
:102B40002046FDF7F7FC237ACDF82890002B6AD1B8
:102B50000AA904222046FDF7EDFC237ACDF8249043
:102B6000002B62D109A904222046FDF7E3FC237A59
:102B7000CDF82090002B5AD1042208A92046FDF759
:102B8000D9FC237AD8F800200792002B51D107A94D
:102B900004222046FDF7CEFC336894F80880A3F1A8
:102BA000FF33B3FA83F35B09ADF80E30B8F1000FD1
:102BB00041D10DF10E0102222046FDF7BBFC267A21
:102BC000C5F80080FEB9294604222046FDF7B2FC74
:102BD000237A0F96ABB90FA904222046FDF7AAFC71
:102BE00042E704AE24AF0DF1140833463A46CDF85F
:102BF0000080A84710ADE9E643F20102ADF80C20D1
:102C0000F3E6E3682EE7E36828E7E368EDE6E368C8
:102C1000F0E6E368F2E6E368F5E6E368F7E6E36822
:102C2000F9E6E368FBE6E368FDE6E368FFE6E368F0
:102C300001E7E36804E7E3680CE700BFF90600007A
:102C4000542A0200002A31D02DE9F04104460F46F3
:102C500016464FF00008606828B9042013F0C6FC3F
:102C600060600028F9D0418805886D1AB54228BFF8
:102C7000354637B1083001442A46384611F0EAFF9C
:102C80002F446068438802882B449BB29A42A6EB8B
:102C90000506438003D0002EDDD1BDE8F08114F09D
:102CA0000BFBC4F80480002ED5D1F6E7704700BFB7
:102CB0002DE9F04385B0904606460F46684611461A
:102CC0000A2299460C9C0D9D11F05CFE6946504805
:102CD00011F0AAFE684611F0E3FDB8F1090F40F3C8
:102CE00086800A223946684611F04CFE69464948FA
:102CF00011F09AFE684611F0D3FD092F67DD0A2214
:102D00003146684611F03EFE6946434811F08CFE9C
:102D1000684611F0C5FD092E49DD0A22294668469C
:102D200011F030FE69463D4811F07EFE684611F014
:102D3000B7FD092D2BDD0A222146684611F022FE3F
:102D40006946374811F070FE684611F0A9FD092C5C
:102D50000EDC3449684611F0E3FD3149684611F054
:102D6000ADFE01462E4811F057FE684611F098FD61
:102D70000A224946684611F005FE69462A4811F0C4
:102D800053FE684611F08CFD05B0BDE8F08325497F
:102D9000684611F0C5FD2149684611F08FFE0146D5
:102DA0001E4811F039FE684611F07AFDC3E71D494F
:102DB000684611F0B5FD1849684611F07FFE0146DE
:102DC000154811F029FE684611F06AFDA5E715497E
:102DD000684611F0A5FD0F49684611F06FFE0146E7
:102DE0000C4811F019FE684611F05AFD87E70D49AD
:102DF000684611F095FD0649684611F05FFE0146F0
:102E0000034811F009FE684611F04AFD69E700BF6A
:102E10002028FF1F5819FF1F2819FF1F501AFF1FD6
:102E2000EC19FF1FC0190200F427FF1F2DE9F04322
:102E300083B00CF0A9FBDFF86490DFF86480C9F878
:102E400000000CF091FBC8F800000CF07DFB0F4F68
:102E50000F4E38600CF0A8FB30600CF0B5FB0D4D48
:102E600028600CF0C1FB2B6836680B4DD9F80020A8
:102E7000D8F80010044638688DE8480023462C60D6
:102E8000FFF716FF03B0BDE8F08300BF7C19FF1FFA
:102E90007419FF1F7819FF1F9427FF1F6C28FF1F4D
:102EA0006C19FF1F70B5FA208AB012F02DFCBD4BD3
:102EB000BD49BE4800241C600BF01CFF4FF6E071BA
:102EC000BA480BF059F82146B8480BF06BF80A23C2
:102ED00042F20E72B649B5480094AA250BF090FD57
:102EE00045F27131B1480BF047F80095962328223E
:102EF0000A21AE480BF0D4F84FF4A076294600958D
:102F00004FF49B732822A9480BF0CAF8E623BE228F
:102F10005A21A64800960BF0C3F84FF6FF71A3485C
:102F20000BF02AF80095962328220A219F480BF0DF
:102F3000CDF9294600954FF49B7328229B480BF04E
:102F4000C5F9E623BE225A21984800960BF0BEF937
:102F5000A9254BF6F75195480BF00EF800959523EF
:102F600029220B2191480BF0B1F9009540F235135D
:102F70002922AB218D480BF0A9F940F23F13BF2263
:102F800000935B21E52389480BF0A0F94FF6FF7110
:102F900086480AF0F1FF45F2713184480BF002F8DF
:102FA0003C2310228349814800940BF029FD5A23C9
:102FB000282281497D4800940BF022FD3C23D02239
:102FC0007E497A4800940BF01BFD5A23B8227C49B5
:102FD000764800940BF014FD7823B02279497348A9
:102FE00000940BF00DFDD223802277496F480094A6
:102FF0000BF006FDF02360226E496C4800940BF044
:10300000FFFC214669480AF0CDFF704B1D78002D6A
:1030100058D14FF4784165480AF0AEFF40F2591399
:103020000A226B49614800950BF0EAFC0CF010FB9A
:10303000022858D04FF478415C480AF09DFF0023E5
:1030400000930A224FF4B973624958480BF0D8FC38
:1030500002AC06AD40F2BD1200924FF49B730A2100
:1030600052480BF02DFA5C4950480BF043FE5B4987
:10307000204611F055FC5A49204611F01FFD00264C
:103080000146284611F060FC29464FF4E17342F2F4
:103090000E72009645480BF01DFD284611F000FC0D
:1030A000204611F0FDFB40F2D11342F20E72009661
:1030B0004C493E480BF0A4FC3B493C480BF01AFE3F
:1030C0000AB070BD4FF4FC6138480AF055FF40F279
:1030D00059130A224449354800940BF091FC0CF036
:1030E000B7FA0228A6D1FFF7A1FE002640F2FF7131
:1030F0002E480AF041FF4FF4B9730A2200963B496B
:103100002A480BF07DFC02AC4FF6FF7127480AF00D
:1031100033FF2046364911F017FC2046354911F09F
:10312000D5FC354911F0CAFC324911F0CFFC3349C6
:1031300011F0C4FC06AD0146284611F005FC4FF421
:10314000C3730A222946009618480BF0C3FC284690
:1031500011F0A6FB204611F0A3FB2046284911F0F0
:10316000F3FB2046274911F0B1FC274911F0A6FCDA
:10317000244911F0ABFC254911F0A0FC014628467A
:1031800011F0E2FB29464FF4CD730A22009607485E
:103190000BF0A0FC284611F083FB204611F080FBC9
:1031A00058E700BF1C28FF1F38360200001AFF1F17
:1031B000C4190200D4190200E0190200E819020043
:1031C000F0190200F8190200041A0200901BFF1FF8
:1031D0000C1A02002C1A0200C0310200541A02001C
:1031E000D819FF1F701A0200201A0200401A0200AC
:1031F000F427FF1F501A0200EC19FF1F501AFF1F7F
:103200002819FF1F902B02005819FF1F2028FF1FAD
:103210002DE9F0438FB006A8002111F081FB03AF28
:10322000DFF86480C7F18005C7F1E0090DF11606EB
:103230003C46281911F0BEFC04F8010BB442F8D149
:1032400039460AA811F06CFB0AA906A811F0ECFB9C
:103250000AA811F025FB00230922694606A811F0EF
:1032600043FC1022002168461AF01EF8203548F869
:10327000040B052012F048FA4D45D9D106A811F0EB
:103280000FFB0FB0BDE8F0839824FF1F30B52B4C27
:1032900083B04FF4EB75204600210AF06DFE204606
:1032A00000954FF49B734FF4CD72A0210BF06CF896
:1032B000204645F271310AF05FFE009520464FF43A
:1032C0009B734FF4CD72DC210AF0EAFE20464FF6E4
:1032D000FF710AF051FE009520464FF49B734FF4A6
:1032E000CD72DC210AF0F2FF20464BF6F7510AF0CE
:1032F00043FE40F2D51340F29B1220460093DD219D
:1033000040F235130AF0E2FF204645F271310AF02F
:1033100049FE002520464FF6FF710AF02DFE20469B
:1033200000954FF4D873E92205490BF069FB294653
:10333000204603B0BDE830400AF034BE001AFF1F3B
:10334000881A02002DE9F04F4FF0000985B0804641
:103350004F4660480BF0E6FE58B9002FF9D0B9F19E
:10336000000F00F09B805B4801270BF0DBFE00287C
:10337000F3D058480BF0F8FD56480BF0E9FEA0F1E9
:103380000A0B824653480BF025FFBBF1280F064677
:1033900034D8B8F1000F31DD342401250FE00AF0F4
:1033A000EBFD04F124030093224630230C214A480C
:1033B00001350AF075FEA84504F132041EDBA31E98
:1033C0009E424FF00001444804F12602E7DB96429A
:1033D000E5DC4FF4FC610AF0CFFD04F12403009317
:1033E000224630230C213C480AF05AFE0395013551
:1033F000A8454FF0010704F13204E0DAA6F5CD76D6
:103400003C2E44D8AAF1F00ABAF1460F3CD8002F5E
:103410009FD0002130480AF0AFFD40F2991300938D
:103420001E224FF49B730A212B480AF0ADFF4FF484
:10343000EB734FF4CD720093DC214FF49B7326485D
:103440000AF0A2FF00244FF6797123480AF094FD98
:103450004FF4CD73A02221491F4800940BF0D0FAFD
:103460004FF4D773A0221E491B4800940BF0C8FAF2
:1034700000944FF4E173A0221A4917480BF0C0FAE8
:10348000B9F1000F0ED11EE0BBF16C0F15D9002F62
:103490003FF45FAFB9F1000F7FF465AF4C46FFF723
:1034A000F5FE34B1C82012F02FF9039805B0BDE83D
:1034B000F08F4FF001094F464BE737B1B9F1000FDC
:1034C00005D1CDF80C900124E9E70397EAE7002342
:1034D0000393E7E7AC27FF1F001AFF1F901A0200B3
:1034E000981A02006C23020008B505480AF0DAFCBD
:1034F000C82012F009F9BDE80840FFF7D3BC00BFAF
:10350000001AFF1F002A12DDF8B5054600201746F5
:103510000E460446315D2844013411F065FBE4B2E7
:103520000A2012F0F1F8BC422046F3DBF8BD7047E8
:10353000F0B5002A8BB018DD0E46920002A906EB0A
:10354000020E0F4656F8044B019401AB3C4613F8AB
:10355000015B04F8015B8B42F9D1764507F1040762
:10356000F0D1FFF7CFFF0BB0F0BD920002A9F8E752
:10357000F0B5A74C0FCCB7B01EAD0FC50FCC0FC523
:1035800094E80F0004F1100685E80F000FCE2AAD75
:103590000FC50FCE0FC596E80F00403485E80F0029
:1035A0000FCC16AD0FC594E80F0000270024059737
:1035B000069785E80F0097488DF810408DF8114068
:1035C0000AF070FC94499348944E0BF093FB4FF62D
:1035D000E07190480AF0D0FC462342F20E72904906
:1035E0008C4800940BF00CFA21460AA811F098F9C7
:1035F000334606F10C000EAA13F8011B02F8011B5A
:103600009842F9D10C220EA92020FFF77BFF07ADCD
:103610002024204611F0CEFA01342C2C05F8010BA1
:10362000F7D107A90EA811F07BF90EA90AA811F08D
:10363000FBF90EA811F034F900230C2207A90AA8FF
:1036400011F052FA754907A818F05EFA0546642091
:1036500012F05AF8734B0EAA581D13F8011B02F80A
:10366000011B9842F9D105220EA90020FFF74AFF5D
:10367000642012F049F81EAF4FF400743A68D7F88E
:1036800004E0BB680E922046203403220EA9A4B2A7
:10369000CDF83CE01093FFF74BFFB4F5207F07F126
:1036A0000C07EBD16420002412F02EF804220EA99E
:1036B0004FF440700E940F9410941194FFF738FF5C
:1036C00004220EA94FF448700E940F941094119494
:1036D000FFF72EFF642012F017F82AAF4FF4806432
:1036E0003A68D7F804E0BB680E92204620340322E3
:1036F0000EA9A4B2CDF83CE01093FFF719FFB4F582
:10370000906F07F10C07EBD1642011F0FDFF737986
:10371000302B0CD000234FF4C06003220EA90E936F
:103720000F931093FFF704FF642011F0EDFFF37A7D
:10373000302B08D04FF40060012205A9FFF7F8FEF6
:10374000642011F0E1FF012206A94FF40660FFF7A3
:10375000EFFE642011F0D8FF16AE4FF4E06432683B
:1037600073680E922046203402220EA9A4B20F9351
:10377000FFF7DEFEB4F5F06F06F10806EFD136ACC8
:103780000126022204A94FF42060FFF7BBFE04F8D3
:10379000CC6D324621464FF41060FFF7B3FE32463F
:1037A000214640F60110FFF7ADFE3246214640F6B5
:1037B0000510FFF7A7FE324621464FF41160FFF7D0
:1037C000A1FEADB94FF4784112480AF0D5FB00953F
:1037D000462342F20E7214490E480BF011F940F6DE
:1037E000B83011F091FF0AA811F05AF837B0F0BDC7
:1037F0004FF4FC6107480AF0BFFB0023009342F23C
:103800000E724623094903480BF0FAF8E7E700BFB8
:1038100058130200001AFF1F38360200440CFF1F25
:10382000A41A0200580CFF1FC41A0200B01A0200AA
:103830002DE9F04F624883B00AF034FB4FF4FA7080
:1038400011F062FF5F495E4800240BF053FA4FF617
:10385000E0715B480AF090FB234642F20E7200943E
:10386000594957480BF0CCF84FF4EB754FF44841E9
:1038700053480AF081FB76234FF4CD720A21504859
:1038800000950AF00DFC4FF6FF714D480AF074FBED
:1038900076234FF4CD720A21494800950AF016FDAF
:1038A0004BF6F75146480AF067FB40F2D51340F259
:1038B0009B1200930B21752341480AF007FD4FF43A
:1038C00048413F480AF06EFB4FF6FF713C480AF052
:1038D00053FB4FF4D873102200943C4938480BF046
:1038E0008FF8214636480AF05DFB4FF6797134486F
:1038F0000AF042FB00944FF4CD73A02234493048C3
:103900000BF07EF800944FF4D773A02231492C4875
:103910000BF076F84FF4E173A02200942E4928486A
:103920000BF06EF840F2FF7125480AF025FB1923D1
:103930000A220094294922480BF062F84FF6FF71E1
:103940001F480AF019FB00943E233C2224491C48DE
:103950000BF056F8009470233C22224918480BF0D3
:103960004FF80094A2233C221F4915480BF048F859
:103970004FF6FF7112480AF0FFFA322404F12803CF
:10398000224600930A2132230D480AF09FFC04F1DD
:1039900027030093621C31230B21323408480AF0BC
:1039A00095FCC82CEAD10320FFF7CCFC032800F2D9
:1039B000D983DFE810F0780112020D02A70100BFE1
:1039C000001AFF1F38360200D01A0200E01A020067
:1039D000901A0200981A02006C230200E81A0200F2
:1039E000F81A0200E01D0200041B0200B04C322352
:1039F000A371002440F2FF71AE480AF0BDFA19230A
:103A00000A22AD49AB4800940AF0FAFF4FF6FF7165
:103A1000A8480AF0B1FA3E233C22A849A5480094E0
:103A20000AF0EEFF70233C22A549A24800940AF058
:103A3000E7FF4FF6FF719F480AF09EFA32235A22A1
:103A400000920A211A469B480AF040FC5923009331
:103A5000332231230B2197480AF038FC8C23009342
:103A6000642232230A2193480AF030FC8B2300930E
:103A7000652231230B218F480AF028FC0220FFF732
:103A800061FC012800F0EC82022800F05D82002831
:103A900000F00981864C8B4B8B4A19688B480023B8
:103AA0000CF084FF8A4B05461870002840F0DC8239
:103AB00086480CF043FE29467E480AF05DFA40F243
:103AC000DF1300931E224FF49B730A2179480AF0FA
:103AD0005BFC422731232D22302640F2FF717548CE
:103AE0002770A37023726672A2720AF045FA462309
:103AF00042F20E72009577496E480AF081FF4FF648
:103B0000FF716C480AF038FA0095642342F20E7295
:103B1000674968480AF074FF4FF0DC0A4FF0CD099E
:103B20004FF0BE08AA279B268C2500246A496148CD
:103B30000BF0E0F82B460A2268495E4800940AF030
:103B40005FFF33460A2266495A4800940AF058FF3C
:103B50003B460A226349574800940AF051FF434606
:103B60000A226149534800940AF04AFF4B460A2250
:103B70005E49504800940AF043FF53460A225C49CC
:103B80004C4800940AF03CFF5A494A480BF0B2F8FE
:103B90004FF4EB7545F2713146480AF0EDF94FF4F8
:103BA0009B734FF4C3720095AA2142480AF078FA39
:103BB0004FF448413F480AF0DFF996234FF4C372AF
:103BC00000950A213B480AF06BFA4FF6FF7139481D
:103BD0000AF0D2F900954FF49B734FF4C372AA21F7
:103BE00034480AF073FB96234FF4C37200950A2100
:103BF00030480AF06BFB40F2D5154BF6F7512D48D3
:103C00000AF0BAF940F2351340F28712AB21294885
:103C100000950AF05BFB952340F287120B212548A3
:103C200000950AF053FB4FF6FF7122480AF0A4F901
:103C300045F271311F480AF0B5F94FF4D373D02221
:103C40002D491C4800940AF0DBFE4FF44841194806
:103C50000AF0A8F92949174800944FF4D373202299
:103C60000AF0CEFE214613480AF09CF924480BF0D6
:103C700059FA0028FAD022480BF076F920480BF0C8
:103C800067FA04461E480BF0A5FAA0F59B70A02821
:103C9000A4F10A03EAD88C2BA4F1AA0403D98C2C32
:103CA000E4D8FFF765FC03B0BDE8F04FFFF71CBC9C
:103CB000440CFF1F001AFF1F8C1B02009C1B0200FC
:103CC000A41B0200E028FF1FB01B02004428FF1FB6
:103CD0004C1AFF1FC81B0200C0310200E81B020083
:103CE000101C0200381C0200581C0200801C02003C
:103CF000A81C020038360200C41C0200CC1C0200C2
:103D0000AC27FF1FC44C3323E3720025002440F28C
:103D1000FF71C2480AF030F919230A220094C04901
:103D2000BE480AF06DFE4FF6FF71BC480AF024F958
:103D30003E233C220094BB49B8480AF061FEBA49D0
:103D4000B6480AF0D7FF3E23CC220094B749B348C7
:103D50000AF056FEB649B1480AF0CCFF0094702331
:103D60003C22B449AD480AF04BFE0094A2233C2209
:103D7000B149AA480AF044FE4FF6FF71A7480AF07D
:103D8000FBF8322404F12803224600930A2132234F
:103D9000A2480AF09BFA04F127030093621C312326
:103DA0000B2132349D480AF091FAC82CEAD1032045
:103DB000FFF7C8FA032819D801A353F820F000BF71
:103DC000A73C0000413F0000393F0000E73D0000F4
:103DD000914C3223E372002598E78F4C3023E37235
:103DE0006371012592E78C4C3323E370002440F289
:103DF000FF718A480AF0C0F819230A2200948F49FB
:103E000086480AF0FDFD4FF6FF7184480AF0B4F8C9
:103E100000943E233C228A4980480AF0F1FD702339
:103E20003C22009487497D480AF0EAFD4FF6FF7175
:103E30007A480AF0A1F84FF05A0932231A460A21AB
:103E40007648CDF800904FF059080AF03FFA8C27D9
:103E5000312333220B217148CDF800800AF036FA65
:103E60008B26322364220A216C4800970AF02EFA2E
:103E7000312365220B21694800960AF027FA0220B7
:103E8000FFF760FA0128044600F0B98002285FD0ED
:103E900000283FF408AF002440F2FF715F480AF0A9
:103EA0006BF819230A2268495C4800940AF0A8FDBF
:103EB0004FF6FF7159480AF05FF83E233C226349F0
:103EC000564800940AF09CFD70233C2260495348F8
:103ED00000940AF095FD4FF6FF7150480AF04CF837
:103EE00032235A2200920A211A464C480AF0EEF96F
:103EF00059230093332231230B2148480AF0E6F975
:103F00008C230093642232230A2144480AF0DEF90C
:103F10008B230093652231230B2140480AF0D6F908
:103F20000220FFF70FFA012871D002283FF45EAD9E
:103F300000287FF45EADB6E6374C3223E37055E7D8
:103F4000354C3123E37051E7334C3123E371A2E563
:103F5000DFF8C4B04FF0310A8BF804A0002D9AD1DD
:103F600040F2FF712D480AF007F819230A22394957
:103F70002A4800950AF044FD4FF6FF71274809F0E2
:103F8000FBFF3E233C223449244800950AF038FDCB
:103F900070233C223149214800950AF031FD4FF64B
:103FA000FF711E4809F0E8FF32231A460A211B4818
:103FB000CDF800900AF08AF9534633220B211748B6
:103FC000CDF800800AF082F9322364220A211348D6
:103FD00000970AF07BF9534665220B210F480096A3
:103FE0000AF074F92046FFF7ADF9012800F0B68019
:103FF000022800F0B08000287FF44DAF53E6064B56
:1040000031221A71002D7FF446AF5A7143E7024CFA
:104010003123A371EDE400BF440CFF1F001AFF1F02
:104020000C1B0200181B0200C0310200241B0200FE
:1040300038360200301B02003C1B0200401B02000D
:10404000541B0200641B02006C1B02007C1B02005C
:10405000841B0200D41C0200E01C0200E81C0200C9
:10406000414C3023E37116E5002306223F494048C6
:1040700000250CF0C5FD40F2FF713E4809F07CFFC1
:104080003C230A2200953C493A480AF0B9FC4FF615
:10409000FF71384809F070FF5A230A22334900950E
:1040A00034480AF0ADFC32480CF048FB2946314850
:1040B00009F062FF40F2DF1300931E224FF49B735E
:1040C0000A212C480AF060F9422731232D2230269C
:1040D00040F2FF7127482770A37023726672A272A4
:1040E00009F04AFF462342F20E7200952349214807
:1040F0000AF086FC4FF6FF711E4809F03DFF64236D
:1041000042F20E72009518491A480AF079FC40F202
:10411000FF71184809F030FF8C2342F20E720095AF
:10412000174914480AF06CFC4FF6FF71114809F06A
:1041300023FF0095AA2342F20E720C490D480AF0A3
:104140005FFC4FF4917A40F213194FF48278F02714
:10415000E126D225E9E48BF805A09CE630238BF814
:10416000053098E60025D1E5440CFF1F580CFF1FD1
:104170004428FF1F001AFF1FB81B0200C81B0200C3
:10418000D81B0200F8B52723294C2A4E23220546C6
:10419000012118463370227011F08CFA307800211A
:1041A00011F074FA2078012111F084FA20780021AE
:1041B00011F0CCF8322D28D0332D14D0312D00D071
:1041C000F8BD1D4A1D481E4E1E4C1F491F4B106056
:1041D000822741F2941500204FF4B47237602560B5
:1041E00008601A60F8BD164A164E174C1249174B54
:1041F0006420106046F2A817022510204FF4C87200
:104200003760256008601A60F8BD0D4A0D4E0E4CEF
:1042100009490E4B6420106046F2A81700254FF4A0
:1042200080704FF483723760256008601A60F8BDB3
:10423000D419FF1FA524FF1FB019FF1FD0010100D3
:10424000A827FF1F4019FF1F1020FF1FD019FF1FB5
:1042500008B511F0E7FF064B0021187811F076F849
:10426000044B00211878BDE8084011F00FBA00BFD8
:10427000D419FF1FA524FF1F10B5384BDB7A322B52
:1042800082B004463AD0332B02D135480EF05AFEA4
:10429000FA2011F039FAFFF7DBFF0021314809F06D
:1042A0006BFE4FF4AC7315220093022140F23D13D4
:1042B0002C480AF069F84FF478412A4809F05CFE6E
:1042C0000023009327482849962342F20E720AF0F1
:1042D00097FBA01F08280FD8DFE800F0141F2A0E54
:1042E0000E0E0E3505000023009342F20E72C82315
:1042F0001E491C480AF084FB02B010BD1C480BF09C
:1043000057FBC5E70023009342F20E72C8231949F8
:1043100014480AF075FB02B010BD0023009342F26E
:104320000E72C82314490F480AF06AFB02B010BD90
:104330000023009342F20E72C823104909480AF084
:104340005FFB02B010BD0023009342F20E72C8233F
:104350000B4904480AF054FB02B010BD440CFF1F87
:104360001C25FF1F001AFF1F98270200441D020092
:10437000AC24FF1FF01C0200041D02001C1D0200E3
:10438000301D0200FFFFFFFF30B57D4A7D4B1078E6
:1043900089B0002401211C7011F078F97A4BDB7A86
:1043A000322B49D0332B44D1784BC821187810F0E8
:1043B000CDFFAA2342F20E727549764800940AF0A6
:1043C0001FFBD02342F20E727349724800940AF028
:1043D00017FB724972480EF0FBFC40F2DC5011F002
:1043E00093F9642203A96E480EF0F2FDA0425FDB50
:1043F0006C4B6D4C18789DF80C30237016F082F8D9
:104400009FED5D0B41EC110B13F02AFD51EC100BED
:1044100016F0C6FB2378654A183BDBB2192B1070E7
:1044200000F2A380624A22FA03F3DB0740F19D8089
:104430000124204609B030BD0094AA2342F20E7236
:10444000534954480AF0DCFAD02342F20E72524922
:10445000009450480AF0D4FA4FF47A6011F054F9FD
:1044600040F2124011F05AFE4FF4FA7011F04CF97C
:10447000504951480BF07AF9072405464FF4FA7079
:10448000EDB911F041F94B494B480BF06FF9013C84
:104490000546F3D121463F4809F06EFDEC23009319
:1044A000AA224FF49B730A213A4809F06DFF9DB987
:1044B0000620FFF7E1FE0024204609B030BD0021B0
:1044C000344809F059FDEC230093AA224FF49B7362
:1044D0000A21304809F058FF00240094AA23A022A2
:1044E00036492C480AF08CFAD023A0222A4900949D
:1044F00028480AF085FA40F6B83011F005F94FF473
:10450000FA7011F001F92C480BF0DAF90F25044686
:104510004FF4FA70DCB911F0F7F827480BF0D0F936
:10452000013D0446F4D129461A4809F025FDEC2343
:104530000093AA224FF49B730A21164809F024FF26
:10454000002C7FF475AF0720FFF796FE71E700217E
:10455000104809F011FDEC230093AA224FF49B733D
:104560000A210C4809F010FF63E70E20FFF784FED4
:1045700000245EE7AFF30080000000000000004070
:10458000A524FF1F1420FF1F440CFF1FD419FF1F79
:104590005C1D0200001AFF1F701D0200000EFF1FAD
:1045A0001C25FF1FCC19FF1FA424FF1F1828FF1F65
:1045B0000140010238310200AC24FF1F801D0200BF
:1045C0002DE9F0472DED048B90B0B2EE040A0121E5
:1045D00007A810F0EBF907A90BA810F0B5F9D0491E
:1045E0000BA810F073FA014603A810F0ADF90BA860
:1045F00010F056F907A810F053F94FF6FF71C948AB
:1046000009F0BAFC03A90BA810F09EF900230BA92E
:104610000093EA224FF4B473C2480AF05BFA0BA885
:1046200010F03EF90220FFF7AFFE002840F019819C
:104630000124BD4E9FEDBD9ADFF82483DFEDBC8AD7
:104640009FEDBC8A37464FF02009002514B3BA48C5
:104650000AF068FD0028F9D0002DF7D1B6480AF01D
:1046600083FCB5480AF074FD8246B3480AF0B2FDF7
:104670006FF4D27318443A28E8D8AAF10A03562BEB
:1046800000F28580AD4B09224FEA49091A600125E5
:10469000002CDCD14FF4FA71A3480EF0ABFB0028DC
:1046A000C0F2938097F8D1314BB1DFF890A2DAF8DD
:1046B00000300133032BCAF8003000F3AA80D6ED96
:1046C000726AF4EEC96AF1EE10FA5CDD9C4B96ED6D
:1046D000737A93ED006ADFF88CE29FED9A5AF6EE5A
:1046E000007A37EE277AB8EEC66A07EE909AF8EEAF
:1046F000E75A77EE067AFDEEE77A17EE903A83FBFB
:1047000008011944DA17C2EB21224FF4B47101FBFE
:104710001233CB1A5EF8232007EE102AB8EEC77AC0
:1047200027EE267A87EE286A26EE257AC7EE087AE3
:1047300077EE857AFDEEE77A17EE901A4A1EB2F50B
:104740009F7F84D2804ADFED817A52F8233007EED2
:10475000103AB8EEC77A67EE266A86EEA87A67EE58
:10476000255A85EE887A77EEC77AFDEEE77A17EE5E
:10477000902AA2F11503B3F59F7FBFF468AF694893
:1047800009F01EFC63E7012010F0BEFF5FE7AAF10D
:104790007503562B08D8694B09EBD97909224FEAE2
:1047A00069091A60012551E7AAF1E00ABAF1560F2A
:1047B0003FF64CAF002C00F0188103A810F070F801
:1047C00010B0BDEC048BBDE8F08764220BA95648FD
:1047D0000EF0FEFB0028FFF63AAF4FF47A72214646
:1047E00051480EF0ADFC0028C0F2C78021464D486C
:1047F00009F0C2FB4FF4A973009315224FF49F7385
:104800000121484809F0C0FD4FF47A7010F07CFF98
:104810001DE72146434809F0AFFB4FF4A973152269
:10482000009301214FF49F733E4809F0ADFD4FF412
:1048300094613C4809F0A0FB0323B422A02139482D
:1048400009F08AFCDAF80030082B00F39B8025463B
:104850004FF6E071334809F08FFB0023CAF80030AF
:104860002DE74FF6E0712F4809F086FB384B1B7897
:10487000183B0024192B3FF6DCAE01A252F823F0BE
:10488000694900003346000033460000334600000B
:104890003346000033460000334600003346000034
:1048A0003346000033460000334600003346000024
:1048B00033460000334600000D4900003346000037
:1048C000FB4800003346000033460000334600003A
:1048D00033460000334600003346000033460000F4
:1048E00033460000E948000000944FF4C3730A22E5
:1048F00018490C480AF084F89BE600944FF4C373FF
:104900000A22154907480AF07BF892E600944FF412
:10491000C3730A22114903480AF072F889E600BFFE
:10492000941D0200001AFF1F1C25FF1F0000C84233
:1049300000401C4600007A44AC27FF1F1025FF1FD3
:10494000540CFF1F00002043982B0200000034434A
:10495000A424FF1FCC1D0200AC1D0200BC1D0200E0
:10496000B7600BB6D813020000944FF4C3730A2249
:10497000224923480AF044F85BE60820FFF77CFC54
:10498000012464E607EE909A9FED1E0AF8EEE77A9E
:10499000012180EE270A07A810F008F807A90BA844
:1049A0000FF0D2FF18490BA810F090F8014603A8A9
:1049B00010F032F80BA80FF073FF07A80FF070FF8C
:1049C0004FF6FF710E4809F0D7FA03A90BA80FF0B4
:1049D000BBFF00944FF4B473EA220BA908480AF015
:1049E00079F80BA80FF05CFF32E708480EF0AAFA3E
:1049F000FA2010F089FEFFF72BFCDEE69C1D02007A
:104A0000001AFF1F0000A043941D02001C25FF1F79
:104A10002DE9F04F2DED028B93B0B2EE040A012187
:104A20000AA80FF0C3FF0AA90EA80FF08DFFAB492B
:104A30000EA810F04BF8014606A80FF085FF0EA84F
:104A40000FF02EFF0AA80FF02BFF4FF6FF71A448BE
:104A500009F092FA002406A90EA80FF075FF4FF492
:104A6000B473EA220EA99E4800940AF033F80EA807
:104A70000FF016FF4FF6E071994809F07DFA98485B
:104A800000944FF4C3730A22964909F0B9FF2046F7
:104A9000FFF77AFC002840F0E1800124DFF8608213
:104AA000DFF860A2DFF86092DFED8F8AC34620272F
:104AB000002504B38D480AF035FB0028F9D0002DFD
:104AC000F7D18A480AF050FA88480AF041FB0646B6
:104AD00086480AF07FFB6FF4D27318443A28E8D86E
:104AE000A6F10A03562B66D809237F00C8F80030C8
:104AF0000125002CDED104A80DF10F027C490AF03B
:104B00006BFE9DF80F30002BD4D004A80AF0C0FD36
:104B100000285CD104A80AF0BDFD04A8B0EE408ACC
:104B20000AF0BEFD00EB8000400080B264283ED950
:104B3000704B1B6898423ADAF6EE007A38EE278A14
:104B40006D4BFDEEC87A17EE906A53F8262002FBF3
:104B500000F28AFB0213D217C2EB233307FB03F3E5
:104B600089FB0321DB17C3EBA11101F19F03B3F50F
:104B70009F7F01F1A0019DD2604B53F8263003FBCB
:104B800000F08AFB0023C017C0EB233307FB03F3BD
:104B900089FB0302DB17A3EBA21202F19F03B3F51B
:104BA0009F7F87D2B4324E4809F00AFA82E701208B
:104BB00010F0AAFD7EE7A6F17503562B3AD807EB55
:104BC000D77709237F10C8F80030012571E7D8F89E
:104BD00000300133032BC8F800309BDD21464048EC
:104BE00009F0CAF94FF4A9731522009301214FF47B
:104BF0009F733B4809F0C8FB4FF49461384809F0B3
:104C0000BBF90323B422A021354809F0A5FA4FF6D9
:104C1000FF71334809F0B0F9DBF80030082B2CDCC9
:104C200025464FF6E0712E4809F0A6F90023C8F892
:104C300000306FE7E03E562E3FF63BAF2C480AF0BF
:104C4000B7FEFA2010F060FDFFF702FB06A80FF098
:104C500027FE13B0BDEC028BBDE8F08F4FF47A70E5
:104C600010F052FD22480AF06DFE00287FF416AFC6
:104C70000820FFF701FB012410E707EE907AB8EE59
:104C8000E70A012188EE800A0AA80FF08FFE0AA920
:104C90000EA80FF059FE11490EA80FF017FF01469C
:104CA00006A80FF0B9FE0EA80FF0FAFD0AA80FF043
:104CB000F7FD4FF6FF710A4809F05EF906A90EA844
:104CC0000FF042FE00944FF4B473EA220EA9044898
:104CD00009F000FF0EA80FF0E3FDA2E7941D02000B
:104CE000001AFF1FDC1D02000000A043AC27FF1FBD
:104CF000AC24FF1F4019FF1FD8130200982B02009D
:104D00001025FF1FAD8BDB68D34D621070B5714865
:104D100082B009F0C7F870496E4840F2DF1409F01C
:104D2000E9FF45F271316B4809F026F900946023E0
:104D300040F2A5120A21674809F0B2F90094CB238A
:104D400040F2A5127521634809F0AAF94FF49B734C
:104D500040F2A5120094E0215E4809F0A1F94FF657
:104D6000FF715C4809F008F90094602340F2A51235
:104D70000A21584809F0AAFA0094CB2340F2A51260
:104D80007521544809F0A2FA4FF49B7340F2A51222
:104D90000094E0214F4809F099FA4FF4EF744BF674
:104DA000F7514C4809F0E8F800945F234FF4D372B0
:104DB0000B21484809F08AFA0094CA234FF4D372B1
:104DC0007621444809F082FA40F235134FF4D37249
:104DD0000094E1213F4809F079FA45F271313D48EC
:104DE000002409F0DFF84FF6FF713A4809F0C4F8E3
:104DF0004FF4DD732D2239493648009409F000FE46
:104E00004FF4DD73982236493248009409F0F8FDDA
:104E10004FF4DD73EB2233492E48009409F0F0FD86
:104E200021462C4809F0BEF813254FF6FF7129489A
:104E300009F0A2F84FF4AD762A462146009540F2DB
:104E40003F13244809F03CFB32462146009640F2CD
:104E50003F13204809F034FB2A460096234621469A
:104E60001C4809F02DFB40F23F132A4619460096D4
:104E700018481D4E1D4D09F023FB23462146E12213
:104E8000144809F069F80323B422A021114809F05D
:104E900063F94FF6E0710F4809F06EF800944FF493
:104EA000B4730A2212490B4834702C6009F0A8FD33
:104EB000104BDB7A332B08D0322B01D002B070BDFF
:104EC00002B0BDE87040FFF7A3BD02B0BDE870407E
:104ED000FFF776BB001AFF1F38360200EC1D0200F8
:104EE000501A0200F01D02001028FF1F1025FF1F9E
:104EF000F81D0200440CFF1F70B5614C82B0022502
:104F000000212046A56408F057FA204608F0CAFFA1
:104F10002046002109F046F80A215A4804F066FEAE
:104F20004FF4FA7010F0F0FB2046574909F0E2FE0A
:104F30004FF4A27364221421524804F0B7FE2046B5
:104F40004FF6FF7109F018F829464E480A2505F07A
:104F50002FFF2A46DC234D494A48009506F006FEFD
:104F60000C232A4600934A494648EB2306F0FEFDEF
:104F70000E232A46009347494248FC2306F0F6FDDB
:104F800012232A46009344493E4840F2111306F08A
:104F9000EDFD16232A46009340493A4840F2291372
:104FA00006F0E4FD1C232A4600933D49354840F2B3
:104FB000471306F0DBFD4FF49A734FF4BE72502195
:104FC000304804F073FE4FF49F734FF4BE72B42167
:104FD0002C48002604F06AFE20464FF6E07108F0E7
:104FE000CBFF2B4642F20E7220462E49009609F066
:104FF00007FD20464FF6FF7108F0BEFF20462A4904
:1050000009F078FE20461E2342F20E7227490096D0
:1050100009F0F6FC2046282342F20E72244900963D
:1050200009F0EEFC2046322342F20E72214900962E
:1050300009F0E6FC2046412342F20E721E4900961A
:1050400009F0DEFC4B2342F20E7220461B4900960B
:1050500009F0D6FC204640F2FF7108F08DFF009663
:1050600020464FF4E67342F20E72154909F0C8FC6F
:1050700014480AF057F80028FAD002B070BD00BFFB
:10508000001AFF1F6C1BFF1F38360200081E0200AB
:105090001C1E0200301E0200441E0200581E0200A8
:1050A0006C1E0200801E0200C0310200941E02002D
:1050B000BC1E0200E41E02000C1F0200341F02008E
:1050C000581F0200AC27FF1FF0B52DED028B85B0F5
:1050D0004FF6FF715A48002608F04EFF59495848CC
:1050E0000096642342F20E7209F08AFC56480CF0D6
:1050F000E3FF4FF4FC610446514808F03DFF002CEB
:1051000000F08580642342F20E7250494C480096AC
:1051100009F076FC4FF47A7010F0F6FA4FF6FF7152
:10512000474808F029FF642342F20E724849444878
:10513000009609F065FCA0230096B022454940483E
:1051400009F05EFC444BDF6A3F0B36D007EE907AE5
:105150009FED428AF8EEE78A4FF48055340301222E
:105160000DF10F013E480BF083FC0123012808BF1D
:105170009DF80F20344818BFFF2221461C440CF034
:1051800051FFAC42EBD107EE906AF8EEE77A2022AD
:1051900067EE887A002387EEA87A019200930136A1
:1051A000A0238022264805F58055FDEEC77A17EE2C
:1051B000901A09F0AFFCBE42D0D1002428480BF071
:1051C000BDFAA0238022009426491D4809F018FC4E
:1051D0004FF4FC611A4808F0CFFE0094642342F2B9
:1051E0000E722149164809F00BFC782342F20E7228
:1051F0001E490094124809F003FC40F6B83010F044
:1052000083FAFFF779FE05B0BDEC028BF0BD4FF4D9
:1052100078410B4808F0B0FE642342F20E72144944
:105220000094074809F0ECFB0D480BF087FA4FF4A7
:105230007A6010F069FA05B0BDEC028BF0BD00BFDA
:10524000001AFF1F6C1F0200601AFF1F7C1F020064
:10525000901F0200A41F02003428FF1F0000C84254
:105260004428FF1FA81F0200AC1F0200C01F02003D
:10527000CC1F0200FFFFFFFF2DE9F043C64FC748D8
:1052800083B000243C6008F00DFE4FF4FA7010F07B
:105290003BFAC349C14809F02DFD4FF6E071BF4804
:1052A00008F06AFE0A2342F20E72BE49BB4800941F
:1052B00009F0A6FBBC480CF0A9FE4FF6E0710546CC
:1052C000B64808F059FE28230A22B849B34800948A
:1052D00009F096FB4FF6FF71B04808F04DFEC5F39C
:1052E0000743EF2BEDB200944FF03C034FF0320236
:1052F00000F07481AE49A94809F082FB4FF478416F
:10530000A64808F039FED22342F20E720094A94951
:10531000A24809F075FBA849A04809F0EBFC4FF63C
:10532000FF719E4808F028FE0094E62342F20E72B8
:10533000A2499A4809F064FB0094F52342F20E72E8
:105340009F49964809F05CFB00944FF4827342F247
:105350000E729C49914809F053FB91498F4809F01E
:10536000C9FC01244FF6E0718C48002608F004FEC9
:1053700050230A2294498948009609F041FB874846
:105380004FF6FF7108F0F8FDA5F11100C3B2092B2B
:1053900076D815F0C7F89FED7E0B41EC110B12F09B
:1053A0005FFD51EC100B15F0D3FB20230146009656
:1053B000019332226423794809F0ACFB6423009600
:1053C0001A468249754809F01BFB1A2D98BF012621
:1053D00010D8012303FA05F515F0F86840F0248190
:1053E00015F4401940F04B8115F4602F40F03181E5
:1053F000002E4ED04FF4EB7545F27131674808F03E
:10540000BBFD00954FF49B734FF4CD72AA21634806
:1054100008F046FE4FF6FF71604808F0ADFD0095BC
:105420004FF49B734FF4CD72AA215C4808F04EFFF5
:105430004BF6F751594808F09FFD40F2D51340F262
:105440009B120093AB2140F23513544808F03EFF05
:1054500045F27131514808F0A5FD00254FF6FF7166
:105460004E4808F089FD00954FF4D873D022584972
:105470004A4809F0C5FA2946484808F093FD08E073
:105480000096642332224A49444809F0B9FA1A2D99
:105490009FD94FF4EB754FF4484140483E4E08F019
:1054A0006BFD96234FF4CD7200950A213B4808F01E
:1054B000F7FD4FF6FF71394808F05EFD96234FF473
:1054C000CD7200950A21354808F000FF4BF6F751E0
:1054D000324808F051FD40F2D51340F29B12009380
:1054E0000B2195232D4808F0F1FE4FF448412B483D
:1054F00008F058FD00254FF6FF71284808F03CFDE4
:105500004FF4D873202233492448009509F078FAE3
:105510002946224808F046FD01233B602E4809F049
:1055200001FE0028FAD02C4809F01EFD2A4809F097
:105530000FFE0546284809F04DFEA0F59B70A028F7
:10554000ECD8A5F10A038C2B4DD83B68012B11D068
:10555000022BE3D10021114808F00EFD40F2DF13C9
:10556000009328224FF49B730A210C4808F00CFF8B
:10557000FFF7AAFD094808F095FCC82010F0C4F810
:1055800003B0BDE8F043FDF78DBC00BFAFF3008072
:1055900000000000000000401C28FF1F001AFF1F31
:1055A00038360200DC1F0200601AFF1FF01F0200E5
:1055B0000820020010200200C03102001C2002005E
:1055C0003C200200642002007820020088200200B3
:1055D000881A0200CC1C0200AC27FF1F65496648F0
:1055E00009F00EFABEE6AA3D8C2D97D8002162483C
:1055F000DFF8BC8108F0C0FC40F2DF1300932822E2
:105600004FF49B730A215C4808F0BEFE4FF4FA7019
:1056100010F07AF83B68012B6DD0022B7FF47EAF3F
:1056200056480BF08BF8A5E7002540F2FF71524871
:1056300008F0A2FC009596230A2251494E4809F031
:10564000DFF90095AA230A224E494B4809F0D8F900
:10565000CEE64FF47841484808F08EFCCDF8009033
:1056600096230A224849444809F0CAF9CDF8009027
:10567000AA230A224549404809F0C2F909E74FF632
:10568000E0713D4808F078FCCDF8008096230A22AE
:105690003D49394809F0B4F9CDF80080AA230A221F
:1056A0003B49354809F0ACF9CDF80080BE230A2209
:1056B0003849314809F0A4F9D2230A22CDF80080F4
:1056C00035492D4809F09CF940F2FF712A4808F04D
:1056D00053FCCDF80080F0230A222949264809F01E
:1056E0008FF9CDF800804FF482730A2225492248B1
:1056F00009F086F97CE6294B294A19681F480023DE
:105700000BF054F90546002854D14FF478411A485B
:1057100008F032FC3C2342F20E72224916480095F2
:1057200009F06EF94FF6FF71134808F025FC5A2373
:1057300042F20E721C491048009509F061F96E237F
:1057400042F20E7216490C48009509F059F982236D
:1057500042F20E7215490848009509F051F90748C0
:105760000AF0ECFF41F288300FF0CEFFC8F800508D
:1057700000E700BF00200200001AFF1F4428FF1F9F
:10578000E8200200FC20020090200200A420020079
:10579000B4200200C8200200DC200200E028FF1F25
:1057A0000821020018210200202102002C21020001
:1057B0001C28FF1F002502234FF6FF71804833602D
:1057C00008F0DAFB28230A227E497D48009509F07B
:1057D00017F93C230A227C497948009509F010F911
:1057E0007A49774809F086FA64230A22784974488E
:1057F000009509F005F973230A227649704800954F
:1058000009F0FEF882230A2273496D48009509F0D9
:10581000F7F891230A2271496948009509F0F0F8D8
:10582000A0230A226E496648009509F0E9F8AF23E3
:105830000A226C496248009509F0E2F86A4960481A
:1058400009F058FA4FF4EB784FF448415C4808F0FF
:1058500093FB4FF49B734FF4CD72AA215848CDF8B7
:10586000008008F01DFC4FF6FF71554808F084FBDE
:105870004FF49B734FF4CD72AA215148CDF80080AC
:1058800008F024FD40F2D5194BF6F7514C4808F0CA
:1058900073FB40F2351340F29B12AB214848CDF820
:1058A000009008F013FD4FF44841454808F07AFB9A
:1058B0004FF6FF71424808F05FFB4FF4D873C022E7
:1058C0004A493F48009509F09BF829463C4808F0B2
:1058D00069FB4FF494613A4808F04EFB96234FF46D
:1058E000CD720A213648CDF8008008F0D9FB4FF67A
:1058F000FF71334808F040FB96234FF4CD720A2124
:105900002F48CDF8008008F0E1FC4BF6F7512C4809
:1059100008F032FB952340F29B120B212848CDF86A
:10592000009008F0D3FC4FF49461254808F03AFB4E
:105930004FF6FF71224808F01FFB2D4920480095C3
:105940004FF4D873302209F05BF829461C4808F060
:1059500029FB002C3FF4E2AD4FF47841184808F0E1
:105960000BFBD22342F20E7200952249144809F033
:1059700047F81649124809F0BDF94FF6FF71104873
:1059800008F0FAFA0095E62342F20E721A490C4822
:1059900009F036F80095F52342F20E7217490848CF
:1059A00009F02EF800954FF4827342F20E721449FA
:1059B000034809F025F80C49014809F09BF9ADE5C9
:1059C000001AFF1F382102004C210200C0310200E2
:1059D0006021020084210200A8210200D0210200DF
:1059E000EC2102001422020038360200CC1C020016
:1059F000E8190200102002001C20020024220200EC
:105A00004822020070B5104E82B001F10A030C4624
:105A100005460093A1F10A0200F10A03A0F10A0170
:105A2000304608F023FC6B1D2246691F3046009467
:105A300008F046FD631D00933046621F2B46294641
:105A400008F03EFD02B070BD001AFF1F2DE9F047BF
:105A5000DFF8BCA0274F82B04FF00009FF231A46A1
:105A60001946254808F078FADAF80030CDF80090A9
:105A700042F20E722149204808F0C2FF1D4809F089
:105A800051FB0028FAD01C48DAF80030CDF800901D
:105A900042F20E721A49002608F0B2FF1548344649
:105AA000354641F2883809F03DFBF0B145451148D3
:105AB0000DD1144B1449154AA3FB0404A3FB0603A0
:105AC000240B1B0B0C60136002B0BDE8F08709F0DB
:105AD000C1FBB7F90020B7F902300648013514447C
