:1000000000000320D1010000BD4A0100754A010033
:10001000754A0100754A0100754A0100754A0100E0
:10002000754A0100754A0100754A0100BD4A010088
:10003000BD4A0100754A0100CD3E0100D13F0100DB
:10004000BD4A0100BD4A0100BD4A0100BD4A010090
:10005000BD4A0100BD4A0100BD4A0100BD4A010080
:10006000BD4A0100BD4A0100BD4A0100BD4A010070
:10007000BD4A0100BD4A0100BD4A0100BD4A010060
:10008000BD4A0100BD4A0100BD4A0100BD4A010050
:10009000BD4A0100BD4A0100BD4A0100BD4A010040
:1000A000A99B0000B59B0000BD4A0100BD4A0100AC
:1000B000BD4A0100BD4A0100BD4A010025560100AC
:1000C000BD4A01003D760100BD4A0100697701008B
:1000D000BD4A0100895C0100BD4A0100BD4A010022
:1000E000BD4A0100BD4A0100BD4A0100BD4A0100F0
:1000F000BD4A0100BD4A0100BD4A0100BD4A0100E0
:1001000075740100897401009D740100B1740100CF
:10011000BD4A0100AD640100BD4A0100BD4A0100B5
:10012000BD4A0100BD4A0100BD4A0100BD4A0100AF
:10013000BD4A0100BD4A0100BD4A0100BD4A01009F
:10014000BD4A0100BD4A0100F9610100BD4A01003C
:10015000BD4A0100BD4A0100BD4A0100BD4A01007F
:10016000BD4A0100BD4A0100C19B0000BD4A01001B
:10017000BD4A0100BD4A0100BD4A0100BD4A01005F
:10018000BD4A010045FC0000BD4A0100BD4A010016
:10019000BD4A0100BD4A010061780100BD4A01006D
:1001A000BD4A0100BD4A0100BD4A0100BD4A01002F
:1001B000BD4A0100BD4A0100BD4A0100BD4A01001F
:1001C000BD4A0100BD4A0100BD4A0100BD4A01000F
:1001D0005C4B4CF2205210B51A804DF628121A8052
:1001E00000BF00BF14F06EFC574B4FF030621A6036
:1001F000564A9A60564ADA60564B4FF470021A60BB
:10020000554B564A1A60564B1A78110703D51A787F
:1002100042F008021A70534B5349AA221A70534AEB
:10022000534B8B4204D252F8040F43F8040BF8E707
:10023000504B514900228B4202D243F8042BFAE77B
:100240004E494F4A002352F8230041F8230001335E
:10025000742BF8D14B4B4C4A802103F8011B93427D
:10026000FBD14A4B454A1A60494B8A221A70A3F5C2
:10027000805324225A70A0221A709A799207FCD5D2
:100280009A79D406FCD4434A937903F00C03082BE3
:10029000FAD1414B60221A7002331A78802AFCD1BD
:1002A0003C4B01221A715D225A719A799006FCD555
:1002B0009979384A4906FBD5384B394919600021EC
:1002C000596020231370937903F00C030C2BFAD19F
:1002D000344B354A1A60354A354C136813F4807331
:1002E00003D123604FF4A8531360324B324A1A6093
:1002F00000225A60072243F8042C304AC3F80C2D20
:1003000062B615F0C9F82368DA0705D52C4814F051
:1003100081FE2C4B2C4A1A602C4B1B785B0609D5AE
:10032000284C294B22689A4204D1254814F072FEC9
:10033000002323601AF044FB14F0CAFB14F0F8FA0F
:10034000FEE700BF0E20054030800440823F0400DD
:100350000100002B88ED00E0002008E0030000858C
:1003600002D0074000E00740C818FF1F7451020088
:10037000400CFF1FC818FF1F0436FF1F0002FF1F9D
:100380000000000000E400E064E400E008ED00E0AC
:10039000005006400040064001E007404480044011
:1003A0000000060204800440C010070010D0034083
:1003B00014D0034014E000E01FBF02000000202022
:1003C000158D625E1CE00340A5C3945A00F00740FF
:1003D000FFFFFFFFFFFFFFFFFFFFFFFFFFFFFFFF2D
:1003E000FFFFFFFFFFFFFFFFFFFFFFFFFFFFFFFF1D
:1003F000FFFFFFFFFFFFFFFFFFFFFFFFFFFFFFFF0D
:10040000FFFFFFFFFFFFFFFFFFFFFFFFDEF9FFFF23
:1004100010B5054C237833B9044B13B10448AFF33E
:1004200000800123237010BDC818FF1F00000000CA
:1004300070510200084B10B51BB108490848AFF3D2
:1004400000800848036803B910BD074B002BFBD0A0
:10045000BDE81040184700BF00000000CC18FF1F87
:1004600070510200C818FF1F0000000000207047F4
:10047000027C02F0080202F0FF0332B1C36A406A54
:10048000181A48BF6FF0004070471846704700BF09
:100490000020704701207047034BD8691A79431E2A
:1004A0005002A3FB00017047941BFF1F14F0ACBD6A
:1004B00000B583B001220DF10701103010F058F99A
:1004C00001280CBF9DF807004FF0FF3003B05DF826
:1004D00004FB00BF103010F04FBA00BF103010F016
:1004E000BBBB00BF103010F0BDBB00BF00B583B078
:1004F00002AB012203F8011D1030194610F0B2FBC7
:1005000003B05DF804FB00BF503010F0ABBB00BF80
:1005100038B5074C204611F097FA0246207941027F
:10052000A1FB0245D31701FB03552046294638BDE0
:10053000941BFF1F002A2CDD2DE9F84300251646E9
:100540000F460446A846606820B916F00BFD6060AF
:100550000028FAD030F8083B721BC3F140099145DE
:10056000A8BF9146791918444A4614F0E9F9616820
:100570000B884B449BB2402B4D440B8003D0AE42C2
:10058000E1DCBDE8F883042015F04EFFC4F80480D8
:10059000F5E770472DE9F043C56F95B0FDB1DFF881
:1005A000BC900446636FAB424DD3267D26B304F165
:1005B000140805EB85010901404610F051FA69461F
:1005C0004046502210F0D4F89DF80E1094F8802088
:1005D00052B1029BE36719B9E56F002DE2D1002506
:1005E000284615B0BDE8F083E36F606F01338342A6
:1005F000E36728BFE267EEE74FF47A7744F202231D
:10060000144A15498DF810608DF811608DF804605A
:100610008DF80C6004A804AE0297CDF8009010F09D
:1006200045F80FCE04F1140847460FC70FCE0FC789
:1006300030689DF80410029A9DF80C3038602172E1
:10064000E2602374B5E70021502268461AF0C6FD27
:100650000021BBE778160200D01FFF1F0010020028
:10066000436F99423FD82DE9F041057D94B00F4684
:10067000044685B100F1140807EB870109014046E3
:1006800010F0EEF940465022694610F071F80198DA
:1006900014B0BDE8F0814FF47A7E144E144A154927
:1006A0008DF8105044F202238DF811508DF804504B
:1006B0008DF80C5004A804AD0096CDF808E00FF0BA
:1006C000F5FF0FCD04F1140846460FC60FCD0FC637
:1006D00028689DF80410029A9DF80C303060217251
:1006E000E2602374C8E70020704700BF00100200DA
:1006F00078160200D01FFF1F2DE9F0470C46416F0E
:100700008C4294B0924699464FD8067D054626B352
:1007100000F1140804EB84010901404610F0A0F92F
:1007200050226946404610F023F850460DF10E0164
:10073000009D9DF80C401BF0D1F91C9B1D602CB94D
:10074000019BC9F8003014B0BDE8F0874FF0FF33CB
:10075000C9F8003014B0BDE8F0874FF47A7E1A4F24
:100760001A4A1B498DF8106044F202238DF811607B
:100770008DF804608DF80C6004A804AE0097CDF8E5
:1007800008E00FF093FF0FCE05F1140847460FC79E
:100790000FCE0FC730689DF80410029A9DF80C30F8
:1007A00038602972EA602B74B4E750220021684651
:1007B0001AF014FD50460DF10E011BF08FF91C9A32
:1007C00000231360BCE700BF00100200781602008F
:1007D000D01FFF1F2DE9F0470446A2B05030D4F8D7
:1007E0006CA00FF02BFEE56B636F9D4273D8267DE6
:1007F000002E48D004F1140805EB8501090140469C
:100800000DF1380910F02CF94946502240460FF0FE
:10081000AFFFE56B237DCDF83CA01BBB334E344AC4
:1008200034498DF814304FF47A778DF815308DF8FF
:1008300008308DF81030019644F2022305A805AE69
:1008400003970FF033FF0FCE47460FC70FCE0FC7EA
:1008500030689DF80810039A9DF8103038602172B6
:10086000E260237405EB85010901404610F0F8F8B9
:1008700049464046502210F0F5F96FF00103E3635A
:1008800022B0BDE8F0874FF47A7E184F184A194914
:100890008DF8486044F202238DF849608DF83C6081
:1008A0008DF8446012A812AE0E97CDF840E00FF01C
:1008B000FDFE0FCE04F1140847460FC70FCE0FC739
:1008C00030689DF83C10109A9DF8443038602172D1
:1008D000E260237490E70DF1380948465022002168
:1008E0001AF07CFC04F1140894E700BF0010020029
:1008F00078160200D01FFF1F2DE9F043047D8FB052
:1009000007460E4691467CB100F1140806EB8601BD
:100910000901404610F0A4F849464046502210F024
:10092000A1F90FB0BDE8F0834FF47A7E124D134A5F
:1009300013498DF8144044F202238DF815408DF8C8
:1009400008408DF8104005A805AC0195CDF80CE0E5
:100950000FF0ACFE0FCC07F1140845460FC50FCCC5
:100960000FC520689DF80810039A9DF81030286084
:100970003972FA603B74C9E7001002007816020071
:10098000D01FFF1F2DE9F0434B6F93428FB080467D
:100990003CD30E7D0D46144686B101F1140904EBDB
:1009A00084010901484610F05BF848465022414650
:1009B0000FF0DEFE40460FB0BDE8F0834FF47A7EC4
:1009C000164F174A17498DF8146044F202238DF828
:1009D00015608DF808608DF8106005A805AE0197C8
:1009E000CDF80CE00FF062FE0FCE05F114094F4672
:1009F0000FC70FCE0FC730689DF80810039A9DF8F7
:100A0000103038602972EA602B74C8E75022002148
:100A10001AF0E4FB40460FB0BDE8F083001002007E
:100A200078160200D01FFF1F2DE9F041436F994255
:100A3000E4B0144677D8077D05460E46002F00F037
:100A4000A78000F1140806EB86010901404610F06A
:100A500007F86946502240460FF08AFE009E002E9D
:100A600066D06B6FB34279D32B7D002B00F0C5802D
:100A700006EB8601090140460FF0F2FF5022404686
:100A800014A90FF075FE149A002A6DD0294628A8E3
:100A9000FFF778FF289A002A00F0AB8029463CA88F
:100AA000FFF770FF3C9A002A00F09F80294650A86B
:100AB000FFF768FF5099002900F0C88028462246B9
:100AC000FFF7B2FF20461BF07BF8231813F8013C18
:100AD0002F2B02D05F4B1B8823520DF5A7712046A8
:100AE0001AF0FEFD20461BF06BF8231813F8013CAA
:100AF0002F2B02D0574B1B8823520DF1FE012046AD
:100B00001AF0EEFD20461BF05BF8231813F8013CA9
:100B10002F2B02D04F4B1B8823520DF1AE012046E4
:100B20001AF0DEFD23E05022002168461AF056FB41
:100B3000484B1B88238020461BF042F8231813F8EB
:100B4000013C2F2B02D0434B1B88235220460DF132
:100B50000E011AF0C5FD64B0BDE8F08150220021FD
:100B60000DEB02001AF03AFB3A4B1B88238020461B
:100B70001BF026F8231813F8013C2F2B02D0354B1D
:100B80001B8823520DF15E0120461AF0A9FDD2E721
:100B9000DFF8CCE0304A31498DF850714FF47A7C5F
:100BA00044F202238DF851718DF844718DF84C7127
:100BB00054A854AFCDF840E1CDF848C10FF076FD10
:100BC0000FCF05F11408C646AEE80F000FCFAEE810
:100BD0000F0038689DF84411529A9DF84C31CEF8B8
:100BE00000002972EA602B742DE71A4B1B882380C2
:100BF00078E7184B1B88238084E7194F164A17495A
:100C00008DF850314FF47A7E8DF851318DF84431A2
:100C10008DF84C31509744F2022354A854AFCDF8CC
:100C200048E10FF043FD0FCFC646AEE80F000FCFEF
:100C3000AEE80F0038689DF84411529A9DF84C3187
:100C4000CEF800002972EA602B7411E7014B1B8873
:100C5000238037E78816020078160200D01FFF1F96
:100C6000001002002DE9F047B1F1FF3F01EB8109CF
:100C70004FEA0919ADF5986D8846DFF81CA30446C4
:100C800008BF4FF0000920E004F114074946384638
:100C90000FF0E6FE502238460DEB02010FF068FD22
:100CA00050220DEB0201684613F04AFE9DF80C201D
:100CB0002046002A40D0019B1946002B3CD02368D7
:100CC0001B6B9847002800F00B81B8F1FF3F02D062
:100CD000636F984529D8257D002DD5D14FF47A76BC
:100CE00044F20223A94AAA498DF8D0538DF8D15372
:100CF0008DF8C4538DF8CC53F4A8F4ADF296CDF82A
:100D0000C0A30FF0D3FC0FCD04F114073E460FC66D
:100D10000FCD0FC628689DF8C413F29A9DF8CC3306
:100D200030602172E2602374B0E7502200210DEBA5
:100D300002001AF053FAB3E7B8F1FF3F00F0DC808D
:100D4000B8F1000F00F07D81424628A82146FFF748
:100D500019FE289A002A00F0D4803CA82146FFF70B
:100D600011FE3C9A002A00F0798150A82146FFF735
:100D700009FE509A002A00F08B8164A82146FFF7F3
:100D800001FE649A002A00F07D8178A82146FFF7D1
:100D9000F9FD789A002A00F081818CA82146FFF79E
:100DA000F1FD8C9A002A00F07F81A0A82146FFF770
:100DB000E9FDA09A002A00F07D81B4A82146FFF742
:100DC000E1FDB49A002A00F07B81C8A82146FFF714
:100DD000D9FDC89A002A00F079810DF55C79214689
:100DE0004846FFF7CFFDD9F80010F0AD002900F01C
:100DF00073812A462046FFF717FE28461AF0E0FEC8
:100E00000DF2BF36335C2F2B02D0624B1B882B5266
:100E10000DF27E3128461AF063FC28461AF0D0FE07
:100E2000335C2F2B02D05B4B1B882B520DF22E31E3
:100E300028461AF055FC28461AF0C2FE335C2F2BC8
:100E400002D0544B1B882B520DF2DE2128461AF09B
:100E500047FC28461AF0B4FE335C2F2B02D04D4BD2
:100E60001B882B520DF28E2128461AF039FC284699
:100E70001AF0A6FE335C2F2B02D0464B1B882B5258
:100E80000DF23E2128461AF02BFC28461AF098FE57
:100E9000335C2F2B02D03F4B1B882B520DF5F77183
:100EA00028461AF01DFC28461AF08AFE335C2F2BC8
:100EB00002D0384B1B882B520DF5CF7128461AF003
:100EC0000FFC28461AF07CFE335C2F2B02D0314BEE
:100ED0001B882B520DF5A77128461AF001FCC2E0C1
:100EE00000200DF5986DBDE8F087029BC993C8AA54
:100EF00031462046FFF700FD01200DF5986DBDE855
:100F0000F087F0AD2F232B800DF2BF3628461AF064
:100F100057FE335C2F2B02D01E4B1B882B520DF13A
:100F2000AE0128461AF0DCFB9DF80C20002A00F0E8
:100F3000838000260DF55C792A46484633461449DD
:100F40008DF870638DF871630FF0B0FB0028C7D087
:100F500048460FF059FD0028C2D0009E00236A4683
:100F6000414620468DF80E30FFF7C6FC3246C8A831
:100F70002146FFF707FDC99DA845B6D0002DBBD07F
:100F8000DFF814A00DF55C7920E000BF78160200B0
:100F9000D01FFF1F881602000010020004F1140782
:100FA00005EB8501090138460FF05AFD38465022FD
:100FB00049460FF0DDFB50224946C8A813F0C0FC9B
:100FC000CA9B984541D01D46002B95D0636FAB421C
:100FD0002CD3267D002EE1D14FF47A7744F2022300
:100FE0003F4A40498DF8E0628DF8E1628DF8D462A5
:100FF0008DF8DC62B8A8B8AEB697CDF8D0A20FF0E5
:1010000055FB0FCE04F11407BE46AEE80F000FCE1D
:10101000AEE80F0030689DF8D412B69A9DF8DC3225
:10102000CEF800002172E2602374B9E7502200215B
:1010300048461AF0D3F8BEE729462A480FF0D0FCFC
:1010400089E7F0AD2F232B8070E7029BCA932046DF
:10105000C8AA2946FFF750FC012042E7F0AD2F2334
:101060002B800DF2BF3628461AF0AAFD335C2F2BD9
:1010700002D01D4B1B882B520DF1FE0128461AF0A1
:101080002FFB43E7F0AD2F232B800DF2BF360AE78D
:10109000F0AD2F232B800DF2BF3612E7F0AD2F23DA
:1010A0002B800DF2BF36F0E6F0AD2F232B800DF232
:1010B000BF36DCE6F0AD2F232B800DF2BF36C8E63D
:1010C000F0AD2F232B800DF2BF36B4E6F0AD2F2309
:1010D0002B800DF2BF36A0E62F232B808DE600BFBC
:1010E00078160200D01FFF1F881602002DE9F0437A
:1010F000C36B8B42ADF5397D04D190F83830934203
:1011000000F09580914688460646002963D00A463D
:1011100068463146FFF736FC009A002A00F0AE80A0
:1011200014A83146FFF72EFC149A002A00F08380A1
:1011300028A83146FFF726FC289A002A00F0A5804F
:101140003CA83146FFF71EFC3C9A002A00F0B9800B
:1011500050A83146FFF716FC509A002A00F0AA80EA
:1011600064AF31463846FFF70DFC396878AD002989
:1011700000F0AE802A463046FFF756FC28461AF0AB
:101180001FFD0DF2DF14235C2F2B02D0524B1B8866
:101190002B520DF5CF7128461AF0A2FA28461AF004
:1011A0000FFD235C2F2B02D04B4B1B882B520DF5D0
:1011B000A77128461AF094FA28461AF001FD235C1C
:1011C0002F2B02D0444B1B882B520DF1FE012846D9
:1011D0001AF086FA5FE078AD2F232B8064AF06F11A
:1011E000500420460FF02AF900232A464FF47A7162
:1011F0003A4D3B747B743B713B73B9604B46384945
:101200003D6068A868AD0FF051FA0FCD0FC40FCD47
:101210000FC428683979BA683B7B2060C6F83C80E7
:1012200086F8389086F84410B26486F84C300DF594
:10123000397DBDE8F08378AD2F232B8064AF0DF2AC
:10124000DF1428461AF0BCFC235C2F2B02D0224B63
:101250001B882B520DF15E0128461AF041FA2846F0
:101260001AF0AEFC235C2F2B02D01B4B1B882B5299
:101270000DF10E0128461AF033FAB0E778AD2F23AE
:101280002B8064AF0DF2DF14E9E778AD2F232B80BC
:1012900064AF0DF2DF1428461AF092FC235C2F2B6A
:1012A00002D00D4B1B882B520DF1AE0128461AF0CF
:1012B00017FAC6E778AD2F232B8064AF0DF2DF1449
:1012C0006CE778AD2F232B8064AF0DF2DF1473E74A
:1012D0002F232B8052E700BF881602000010020067
:1012E000D01FFF1FF8B50446174650340022069E53
:1012F0001D46FFF7FBFE394620460FF0B1FB324694
:1013000029462046BDE8F8400FF032BA2DE9F047F3
:101310009A464B1CADF5986D0446904600F09480BB
:10132000436F99420D4600F2C180267D01EB810991
:101330004FEA0919002E00F08E8004F11406494688
:1013400030460FF08DFB304669465022E9460FF0DB
:101350000FFA50461AF034FC3E2805D900273846CB
:101360000DF5986DBDE8F087421C51460DF15E0009
:1013700013F0E6FA676F267D14957B1C63670023E4
:101380001593D9F80430169301238DF85C808DF8FD
:101390005D30002E00F07A8104F1140607EB87011E
:1013A000090130460FF05CFB14A9502230460FF0C3
:1013B00059FC237DC9F804706BBB4FF47A7CDFF8CD
:1013C00038E3CB4ACB498DF8D0338DF8D1338DF843
:1013D000C4338DF8CC33F4A844F20223CDF8C8C34B
:1013E000CDF8C0E30FF062F90DF5747EBEE80F0092
:1013F000B446ACE80F00BEE80F00ACE80F00DEF822
:1014000000009DF8C413F29A9DF8CC33CCF800008C
:101410002172E260237405EB8501090130460FF06B
:101420001FFB4946304650220FF01CFCB8F1000F5C
:1014300043D1204644F202223946FFF757FE384690
:101440000DF5986DBDE8F087267D4FF000094D46FB
:10145000002E7FF472AFA84FA54AA649F0974FF42B
:101460007A7E44F20223F4A8F4AF8DF8D0638DF8AD
:10147000D1638DF8C4638DF8CC63CDF8C8E30FF069
:1014800015F90FCF04F11406B646AEE80F000FCFE2
:10149000AEE80F0038689DF8C413F29A9DF8CC337B
:1014A000CEF800002172E260237448E768465022BB
:1014B0000021E94619F092FE4BE7002F00F0208151
:1014C0003A4628A82146FFF75DFA289A002A00F03C
:1014D00030813CA82146FFF755FA3C9A002A00F0DB
:1014E000218150A82146FFF74DFA509A002A00F0BA
:1014F000278164A82146FFF745FA649A002A00F084
:10150000268178A82146FFF73DFA789A002A00F054
:1015100025818CA82146FFF735FA8C9A002A00F025
:101520002481A0A82146FFF72DFAA09A002A00F0F6
:101530002381B4A82146FFF725FAB49A002A00F0C7
:101540002281C8A82146FFF71DFAC89A002A00F098
:101550002181DCAE21463046FFF714FA3168F0AD48
:10156000002900F01E8120462A46FFF75DFA284632
:101570001AF026FB0DF2BF34235C2F2B02D05F4BF9
:101580001B882B520DF27E3128461AF0A9F8284606
:101590001AF016FB235C2F2B02D0584B1B882B52C2
:1015A0000DF22E3128461AF09BF828461AF008FB57
:1015B000235C2F2B02D0514B1B882B520DF2DE21C6
:1015C00028461AF08DF828461AF0FAFA235C2F2BD9
:1015D00002D04A4B1B882B520DF28E2128461AF05E
:1015E0007FF828461AF0ECFA235C2F2B02D0434BED
:1015F0001B882B520DF23E2128461AF071F828461E
:101600001AF0DEFA235C2F2B02D03C4B1B882B52A6
:101610000DF5F77128461AF063F828461AF0D0FA4B
:10162000235C2F2B02D0354B1B882B520DF5CF712D
:1016300028461AF055F828461AF0C2FA235C2F2BD8
:1016400002D02E4B1B882B520DF5A77128461AF09D
:1016500047F828461AF0B4FA235C2F2B02D0274B08
:101660001B882B520DF1FE0128461AF039F8284646
:101670001AF0A6FA235C2F2B02D0204B1B882B528A
:101680000DF1AE0128461AF02BF83DE04FF47A7CBC
:10169000DFF864E0164A17498DF8D06344F202235C
:1016A000F4A88DF8D1638DF8C4638DF8CC63CDF8C0
:1016B000C8C3CDF8C0E30EF0F9FF0DF5747EBEE8A7
:1016C0000F0004F11406B446ACE80F00BEE80F00AA
:1016D000ACE80F00DEF800009DF8C413F29A9DF804
:1016E000CC33CCF800002172E260237456E600BFD0
:1016F00078160200D01FFF1F00100200881602009B
:10170000F0AD2F232B80DCAE00242A463046012387
:101710002549347074700EF06BFF38460DF5986DE6
:10172000BDE8F087F0AD2F232B80DCAE0DF2BF3487
:101730008FE7F0AD2F232B80DCAE0DF2BF3496E7A0
:10174000F0AD2F232B80DCAE0DF2BF3473E7F0AD8C
:101750002F232B80DCAE0DF2BF345EE7F0AD2F23DC
:101760002B80DCAE0DF2BF3449E7F0AD2F232B8088
:10177000DCAE0DF2BF3434E7F0AD2F232B80DCAEAE
:101780000DF2BF341FE7F0AD2F232B80DCAE0DF23E
:10179000BF340AE7F0AD2F232B80DCAE0DF2BF344F
:1017A000F5E62F232B80E2E6D01FFF1F2DE9F04F37
:1017B00090F878400126C5B0054680F87960002C85
:1017C00000F00E816B6F002B00F007814FF00008D6
:1017D000474606E06B6F0137BB4208F1500840F204
:1017E000FC80BB42F7D32C7D002C00F0CC8005F1AF
:1017F0001406414630460FF033F91CA950223046FA
:101800000EF0B6FF9DF87C30002BE3D09DF87D40B4
:10181000002CDFD1224639462846FFF767FC95F8B1
:101820005030002BD6D0A24605F15009019758E060
:10183000A2420CBF23460123019A08BF0D9C30929F
:101840008DF8CC30402200230DF1CE0106A8319452
:101850008DF8CD30CDF8C8A00FF024FB6C6F95F853
:1018600014E0631C6B67BEF1000F2BD14FF47A7C40
:1018700044F202237D4A7E497E4F8DF84CE013A846
:101880008DF84DE08DF840E08DF848E0CDF844C08B
:101890000F970EF00BFF0DF14C0EBEE80F00B44693
:1018A000ACE80F00BEE80F00ACE80F00DEF8000067
:1018B0009DF84010119A9DF84830CCF8000029722C
:1018C000EA602B7404EB8401090130460FF0C8F87C
:1018D000502230A930460FF0C5F906A8A2460EF0F6
:1018E000ADFD0024634B029322464FF47A7B4946B8
:1018F00006A88DF818408DF819408DF80C408DF829
:101900001440CDF810B00FF067F99DF8183003F0CF
:101910007002002B8CD12C7D019FCDF874A0012387
:101920008DF87D302CBB8DF8D0408DF8D1408DF8EE
:10193000C4408DF8CC404F4C4C4A4D49309444F251
:10194000022334A834ACCDF8C8B00EF0AFFE0FCCF3
:10195000B646AEE80F000FCCAEE80F0020689DF849
:10196000C410329A9DF8CC30CEF800002972EA609B
:101970002B74414630460FF073F81CA930465022B4
:101980000FF070F926E78DF8D0408DF8D1408DF832
:10199000C4408DF8CC40374C344A354930944FF42C
:1019A0007A7644F2022334A834AC32960EF07EFEEE
:1019B0000FCC05F11406B646AEE80F000FCCAEE82A
:1019C0000F0020689DF8C410329A9DF8CC30CEF8F4
:1019D00000002972EA602B740BE745B0BDE8F08F78
:1019E00080F87860214922480EF0FAFF2F7D30946C
:1019F0002F23329431948DF8CC608DF8CD406E67F2
:101A0000ADF8CE305FB105F11407002138460FF074
:101A100027F83846502230A90FF024F9D2E6154CA9
:101A2000124A13491C944FF47A7644F2022320A8F8
:101A300020AC8DF880708DF881708DF874708DF801
:101A40007C701E960EF032FE0FCC05F114073E4658
:101A50000FC60FCC0FC620689DF874101E9A9DF813
:101A60007C3030602972EA602B74CEE77816020071
:101A7000D01FFF1F00100200436F994200F2CC807C
:101A80002DE9F04F057DC3B00F460446002D00F050
:101A90009A8000F1140907EB8701090148460EF00E
:101AA000DFFF1AA9502248460EF062FE9DF87430FE
:101AB00013B19DF8755015B143B0BDE8F08F2A46BB
:101AC00039462046FFF712FB94F85030002BF3D034
:101AD000DFF850A1A84604F1500B50E0002A14BFD3
:101AE000012300238DF8C4304FF0400208BF0B9B48
:101AF000309518BF00230DF1C60104A82F932E972F
:101B00008DF8C5800FF0CEF9656F267D6B1C63677D
:101B10003EBB4FF47A7E44F20223404A40498DF89E
:101B200044608DF845608DF838608DF8406011A8EC
:101B300011AECDF83CE0CDF834A00EF0B7FD0FCEDD
:101B4000CE46AEE80F000FCEAEE80F0030689DF82D
:101B500038100F9A9DF84030CEF800002172E260F4
:101B6000237405EB8501090148460EF079FF5022E8
:101B70002EA948460FF076F804A80EF05FFC4FF44B
:101B80007A730022594604A802938DF810808DF8CC
:101B900011808DF804808DF80C80CDF800A00FF036
:101BA0001BF89DF8103003F07002002B96D1012332
:101BB0001AAA394620461B958DF87530FEF79CFE13
:101BC00043B0BDE8F08F4FF47A76144A14498DF88B
:101BD000C85044F202238DF8C9508DF8BC508DF8DE
:101BE000C45032A8DFF83CA0309632ADCDF8B8A092
:101BF0000EF05CFD0FCD04F114094E460FC60FCD5B
:101C00000FC628689DF8BC10309A9DF8C43030602B
:101C10002172E26023743EE7704700BF781602002D
:101C2000D01FFF1F00100200F0B590F87860A3B03D
:101C300004460D466EB30DB36B1C4DD029462046AD
:101C4000FFF71AFF636F01229D4284F8802000F2A3
:101C5000A780267D05EB85052D01002E47D004F1D8
:101C60001406294630460EF0FBFE304650220EA9DF
:101C70000EF07EFD0F9BE36723B0F0BD94F8793042
:101C8000002B5FD00022012384F88020E36723B07B
:101C9000F0BD012780F87870434944480EF0A0FE5B
:101CA00094F814E08DF844702F2367670E96109611
:101CB0000F968DF84560ADF84630BEF1000F45D067
:101CC00004F11406002130460EF0CAFE30465022C0
:101CD0000EA90EF0C7FFAEE700212046FFF7CCFEAD
:101CE000267D012384F880300025002EB7D1304FA7
:101CF0002D4A2E490E974FF47A7E44F2022312A801
:101D000012AF8DF848608DF849608DF83C608DF811
:101D10004460CDF840E00EF0C9FC0FCF04F114068A
:101D2000B646AEE80F000FCFAEE80F0038689DF85A
:101D30003C10109A9DF84430CEF800002172E26009
:101D400023748EE72046FFF731FD9BE74FF47A7747
:101D5000174E154A1549039744F2022305A805AF0B
:101D60008DF814E08DF815E08DF808E08DF810E09E
:101D700001960EF09BFC0FCF04F11406B646AEE8B8
:101D80000F000FCFAEE80F0038689DF80810039AD7
:101D90009DF81030CEF800002172E260237491E7C4
:101DA0000023E36723B0F0BD78160200D01FFF1FA9
:101DB000001002002DE9F0410B7882B00446002BA0
:101DC0004BD008460E4619F0FBFE257A01308DF8FF
:101DD0000200002D50D0E3680133E3603278002A1E
:101DE00036D0002705E0E3680233E36016F8012FE0
:101DF0004AB3ADF80620002DF5D1606820B915F082
:101E0000B1F860600028FAD030F8083BC5F1020252
:101E1000C3F140089045A8BF904618440DF1060351
:101E20005919424612F08CFD61680B8843449BB2FD
:101E3000402B45440B801AD0012DDEDD16F8012F12
:101E4000257A002AD5D10023ADF804303DB3E368EC
:101E50000233E36002B0BDE8F081027A8DF803300E
:101E6000AAB1C3680133C36002B0BDE8F0810420A9
:101E700014F0DAFA6760DFE701220DF10201204673
:101E8000FEF758FB3278257A002AAAD1DBE7012237
:101E90000DF10301FEF74EFB02B0BDE8F0812E46C6
:101EA000606820B915F05EF860600028FAD030F85C
:101EB000083BC5F10202C3F140079742A8BF17468D
:101EC000184401AB59193A4612F03AFD61680B8883
:101ED0003B449BB2402B3D440B8004D0012DDFDD01
:101EE00002B0BDE8F081042014F09EFA6660F5E7C8
:101EF00030B5037A91B064250446ADF82650002B26
:101F000000F0A680C36806220233C3600F92043338
:101F10006422E360ADF824200233E3605A4920468E
:101F2000FFF748FF237A0022ADF82220002B00F0B3
:101F3000B580E3680E220233E3600E92043341F26F
:101F40000102E360ADF82020023341F20202E360B7
:101F5000ADF81E20023341F20302E360ADF81C200D
:101F6000023341F20402E360ADF81A20023341F279
:101F70000502E360ADF81820023341F20602E36087
:101F8000ADF81620023341F20702E360ADF81420E9
:101F9000023341F20802E360ADF81220023341F24D
:101FA0000902E360ADF81020023341F20B02E36056
:101FB000ADF80E20023341F20C02E360ADF80C20C4
:101FC000023341F20D02E360ADF80A20023341F220
:101FD0001402E360ADF80820023341F21502E36019
:101FE000ADF8062002330022E3600D920433012293
:101FF000E3600C9204334DF20242E360ADF804203A
:1020000002330022E3600B9204330222E3600A925F
:1020100004334FF44052E360ADF80220023343F240
:102020000102E360ADF800200233E3602046174967
:10203000FFF7C0FE20461649FFF7BCFE20461549B3
:10204000FFF7B8FE20461449FFF7B4FE11B030BDCB
:1020500002220DF12601FEF76DFA237A06220F9275
:10206000002B40F0358104220FA92046FEF762FACA
:10207000237AADF82450002B40F02C81022209A9CC
:102080002046FEF757FA49E78C160200A016020018
:10209000A8160200B0160200B416020002220DF1CA
:1020A00022012046FEF746FA237A0E220E92002BDA
:1020B00040F0128104220EA92046FEF73BFA237A53
:1020C00041F20102ADF82020002B40F007810222EE
:1020D00008A92046FEF72EFA237A41F20202ADF853
:1020E0001E20002B40F0FC8002220DF11E01204634
:1020F000FEF720FA237A41F20302ADF81C20002BF0
:1021000040F0F080022207A92046FEF713FA237A56
:1021100041F20402ADF81A20002B40F0E5800222C3
:102120000DF11A012046FEF705FA237A41F2050265
:10213000ADF81820002B40F0D980022206A92046D5
:10214000FEF7F8F9237A41F20602ADF81620002BCB
:1021500040F0CE8002220DF116012046FEF7EAF98A
:10216000237A41F20702ADF81420002B40F0C28020
:10217000022205A92046FEF7DDF9237A41F2080282
:10218000ADF81220002B40F0B78002220DF11201B1
:102190002046FEF7CFF9237A41F20902ADF810206C
:1021A000002B40F0AB80022204A92046FEF7C2F9C2
:1021B000237A41F20B02ADF80E20002B40F0A080F4
:1021C00002220DF10E012046FEF7B4F9237A41F206
:1021D0000C02ADF80C20002B40F09480022203A9E1
:1021E0002046FEF7A7F9237A41F20D02ADF80A2046
:1021F000002B40F0898002220DF10A012046FEF7F3
:1022000099F9237A41F21402ADF80820002B7DD110
:10221000022202A92046FEF78DF9257A41F2150324
:10222000ADF80630002D73D102220DF106012046D3
:10223000FEF780F9237A0D95002B6BD104220DA9AE
:102240002046FEF777F9237A01220C92002B63D106
:1022500004220CA92046FEF76DF9257A4DF20243BF
:10226000ADF80430002D59D1022201A92046FEF715
:1022700061F9237A0B95002B52D104220BA9204639
:10228000FEF758F9237A02250A95002B4AD1042239
:102290000AA92046FEF74EF9237A4FF44052ADF8D2
:1022A00002209BB92A460DF102012046FEF742F9B1
:1022B000237A43F20102ADF800202BB92A46694681
:1022C0002046FEF737F9B1E6E368ADE6E368A5E638
:1022D000E3681CE6E3681FE6E3682FE6E36833E69D
:1022E000E36837E6E3683BE6E3683FE6E36843E636
:1022F000E36847E6E3684BE6E3684FE6E36853E6E6
:10230000E36857E6E3685BE6E3685FE6E36863E695
:10231000E36867E6E36869E6E3686BE6E3686FE64F
:10232000E36871E6E36873E630B504460068514A35
:1023300003681B68934289B040F08F800422237A9F
:10234000ADF80620002B54D0E3680233E360206828
:10235000494A03685B6893427AD10223257AADF833
:102360000A30002D62D0E36800220233E360ADF84A
:1023700008200233E3602068404A03689B68934268
:1023800064D13F4BD8691A79431E5002A3FB000168
:10239000237ACDE90601002B42D0E3680833E360DD
:1023A0002068384A0368DB6893425CD1344D284684
:1023B0000FF04AFB2A795502C117A5FB002305FB44
:1023C000013310461946237A04900591C3B1E3689E
:1023D0004FF0FF320833E36003920433E36020469A
:1023E0002949FFF7E7FC20462849FFF7E3FC09B03D
:1023F00030BD02220DF106012046FEF79BF8A6E74C
:10240000082204A92046FEF795F8237A4FF0FF3200
:10241000039253BB042203A92046FEF78BF8DEE7A4
:10242000082206A92046FEF785F8B9E702220DF139
:102430000A012046FEF77EF8237AADF80850B3B9BA
:10244000022202A92046FEF775F894E798479FE715
:102450009847002881D1012380E79847012200286E
:102460007FF46DAF6AE79847ADE7E368B5E7E368E7
:102470007FE700BF9104000095040000990400006C
:10248000941BFF1F11050000B8160200F42602007D
:102490002DE9F04F037AA5B004460092002B00F01E
:1024A000D68000230293DFF8A492A54B0193E36842
:1024B0000433E3602568019A2B681B69934240F05E
:1024C000698195F87860002E00F04481009A1346E7
:1024D000002A35D195F87930002B00F006820022D1
:1024E000012385F88020EB67DFF8648225682B687C
:1024F0005B694B454ED1EE6FFEB10DF1400B6B6F3A
:102500009E4276D82F7D002F48D005F1140A06EBA5
:102510008601090150460EF0A3FA50465022594652
:102520000EF026F99DF84E0095F88020DAB1129B46
:10253000EB6708BBEE6F002EE1D125B0BDE8F08F50
:10254000013208BF0023194628461E46FFF794FAB9
:10255000012385F880303246294610A8FEF712FA8A
:10256000119BEB67C0E7EB6F696F01338B42EB6741
:1025700028BFEA670028DDD0002EDED0257A03963A
:10258000002D3DD0E36825680433E3602B685B6968
:102590004B45B0D0284698470646EDE74FF47A7E83
:1025A00044F20223674A68498DF850708DF85170E3
:1025B0008DF844708DF84C7014A814AFCDF848E035
:1025C000CDF840800EF072F80FCF05F1140AD64610
:1025D000AEE80F000FCFAEE80F003B68CEF800303A
:1025E0009DF844302B72129BEB609DF84C302B749D
:1025F0008DE750220021584618F0F0FD002093E7A7
:102600002E46606820B914F0ADFC60600028FAD056
:1026100030F8083BC5F10402C3F140079742A8BF58
:102620001746184403AB59193A4612F089F9616804
:102630000B883B449BB2402B3D440B8002D0032DC2
:10264000DFDD53E7042013F0EFFE6660F7E73C4B55
:10265000056801931A462B681B69934240F0498133
:1026600095F87860002E00F0D480009A002A40F09F
:10267000958095F87930002B00F03F8100220123EE
:1026800085F88020EB672568DFF8C0902B68DFF8BD
:10269000C0A05B694B454FF0000B40F0E780EE6F48
:1026A0002EB30DF140086B6FB342C0F012812F7D45
:1026B000002F00F0DF8005F1140706EB8601090109
:1026C00038460EF0CDF93846502241460EF050F80B
:1026D0009DF84E0095F88020002A00F0B280129BF1
:1026E000EB67002840F0B780EE6F002EDBD1257A33
:1026F000CDF808B0002D7FF4DAAE2E46606820B920
:1027000014F030FC60600028FAD030F8083BC5F1C6
:102710000402C3F140079742A8BF1746184402AB12
:1027200059193A4612F00CF961680B883B449BB288
:10273000402B3D440B8000F0D380032DDEDDB9E655
:10274000291C000078160200D01FFF1F950500000D
:1027500000100200012785F878706A496A480EF077
:102760003FF92F238DF84C701096129611968DF824
:102770004D60ADF84E302E7D6F6716B305F114082D
:10278000002140460EF06CF94046502210A90EF090
:1027900069FA9BE6009928469847A5E6511C14BFA4
:1027A0001646002631462846FFF766F9012385F8CC
:1027B00080303246294610A8FEF7E4F8119BEB67FB
:1027C00061E74FF47A7E514F4E4A4F498DF81C60B5
:1027D00044F202238DF81D608DF810608DF81860AA
:1027E00007A807AE0397CDF814E00DF05FFF0FCEFA
:1027F00005F1140847460FC70FCE0FC733683B607B
:102800009DF810302B72059BEB609DF818302B74EF
:10281000B6E7012785F878703A493B480EF0E0F8B2
:102820002F238DF84C701096129611968DF84D60EE
:10283000ADF84E30314610AA6F672846FEF75CF8B7
:1028400013E7EB6F696F01338B42EB6728BFEA67D1
:1028500000283FF449AF002E3FF449AF25682B68AC
:102860005B694B450BF1010B3FF419AF28469847C4
:102870000646F0E74FF47A7E44F20223214A2249C9
:102880008DF8507014A88DF851708DF844708DF843
:102890004C70CDF848E0CDF840A00DF007FF0DF1E9
:1028A000500EBEE80F0005F11407BC46ACE80F005F
:1028B000BEE80F00ACE80F00DEF80030CCF80030C6
:1028C0009DF844302B72129BEB609DF84C302B74BA
:1028D000F3E650220021404618F080FC0020F9E683
:1028E000042013F0A1FD666027E72846FEF75EFF8F
:1028F000F5E5284600999847C5E62846FEF756FFB5
:10290000BCE600BF78160200D01FFF1F00100200B7
:102910002DE9F04304460068AA4B026895699D4280
:10292000E5B040F0228110AD0A4624AF01462846AA
:10293000FEF728F838460DF14E0119F0CFF80DF1E9
:1029400014082B7B2A68C8F80020002B63D16B6821
:10295000049304AE237A01220692002B5ED0E36832
:10296000326804330132E36000F00A810022ADF8DE
:102970000C2002330022E360ADF80A2002333268F3
:10298000E3600E9204330022E360ADF808200233C6
:102990000022E3600D9204330022E3600C920433C2
:1029A0000022E3600B9204330022E3600A920433B6
:1029B0000022E360099204330022E36008920433AA
:1029C000D8F80020E36007923268A2F1FF32B2FA31
:1029D00082F252090433E360ADF80E200233002284
:1029E000E3602A6004330022E3600F920433E36063
:1029F00039462046FFF7DEF920467349FFF7DAF93A
:102A000020467149FFF7D6F920466F49FFF7D2F902
:102A100065B0BDE8F0834FF0FF3399E706A90422C3
:102A20002046FDF787FD336894F80890013343F2A0
:102A3000010318BF0023ADF80C30B9F1000F40F0CE
:102A4000A88003A902222046FDF774FD237AADF881
:102A50000A90002B40F09F8002220DF10A012046CF
:102A6000FDF768FD237A32680E92002B40F09580C6
:102A70000EA904222046FDF75DFD237AADF80890EB
:102A8000002B40F08C8002A902222046FDF752FD67
:102A9000237ACDF83490002B40F083800DA90422D6
:102AA0002046FDF747FD237ACDF83090002B7AD1F0
:102AB0000CA904222046FDF73DFD237ACDF82C9089
:102AC000002B72D10BA904222046FDF733FD237A97
:102AD000CDF82890002B6AD10AA904222046FDF7E0
:102AE00029FD237ACDF82490002B62D109A9042274
:102AF0002046FDF71FFD237ACDF82090002B5AD1F8
:102B0000042208A92046FDF715FD237AD8F80020F5
:102B10000792002B51D107A904222046FDF70AFD98
:102B2000336894F80880A3F1FF33B3FA83F35B09A9
:102B3000ADF80E30B8F1000F41D10DF10E010222B7
:102B40002046FDF7F7FC267AC5F80080FEB9294635
:102B500004222046FDF7EEFC237A0F96ABB90FA9AD
:102B600004222046FDF7E6FC42E704AE24AF0DF157
:102B7000140833463A46CDF80080A84710ADE9E680
:102B800043F20102ADF80C20F3E6E3682EE7E368B8
:102B900028E7E368EDE6E368F0E6E368F2E6E36879
:102BA000F5E6E368F7E6E368F9E6E368FBE6E36881
:102BB000FDE6E368FFE6E36801E7E36804E7E3684E
:102BC0000CE700BFF9060000F4260200002A31D00D
:102BD0002DE9F04104460F4616464FF000086068A4
:102BE00028B9042013F078FB60600028F9D04188F0
:102BF00005886D1AB54228BF354637B10830014403
:102C00002A46384611F09CFE2F44606843880288AB
:102C10002B449BB29A42A6EB0506438003D0002EBC
:102C2000DDD1BDE8F08114F0BDF9C4F80480002EB8
:102C3000D5D1F6E7704700BF2DE9F04385B0904647
:102C400006460F46684611460A2299460C9C0D9D81
:102C500011F018FD6946504811F066FD684611F004
:102C60009FFCB8F1090F40F386800A223946684676
:102C700011F008FD6946494811F056FD684611F00B
:102C80008FFC092F67DD0A223146684611F0FAFCF5
:102C90006946434811F048FD684611F081FC092E51
:102CA00049DD0A222946684611F0ECFC69463D4898
:102CB00011F03AFD684611F073FC092D2BDD0A2254
:102CC0002146684611F0DEFC6946374811F02CFDBC
:102CD000684611F065FC092C0EDC3449684611F099
:102CE0009FFC3149684611F05FFD01462E4811F006
:102CF00013FD684611F054FC0A224946684611F05B
:102D0000C1FC69462A4811F00FFD684611F048FCE5
:102D100005B0BDE8F0832549684611F081FC2149E2
:102D2000684611F041FD01461E4811F0F5FC684669
:102D300011F036FCC3E71D49684611F071FC1849D3
:102D4000684611F031FD0146154811F0E5FC684672
:102D500011F026FCA5E71549684611F061FC0F4902
:102D6000684611F021FD01460C4811F0D5FC68467B
:102D700011F016FC87E70D49684611F051FC064931
:102D8000684611F011FD0146034811F0C5FC684684
:102D900011F006FC69E700BF2028FF1F5C19FF1F28
:102DA0002C19FF1F501AFF1FF019FF1FC016020039
:102DB000F427FF1F2DE9F04383B00CF065FADFF82C
:102DC0006490DFF86480C9F800000CF04DFAC8F890
:102DD00000000CF039FA0F4F0F4E38600CF064FA17
:102DE00030600CF071FA0D4D28600CF07DFA2B6804
:102DF00036680B4DD9F80020D8F800100446386822
:102E00008DE8480023462C60FFF716FF03B0BDE8AD
:102E1000F08300BF8019FF1F7819FF1F7C19FF1F67
:102E20009427FF1F6C28FF1F7019FF1F70B5FA2031
:102E30008AB012F0DFFABD4BBD49BE4800241C60C9
:102E40000BF0D8FD4FF6E071BA480AF015FF2146A5
:102E5000B8480AF027FF0A2342F20E72B649B54875
:102E60000094AA250BF04CFC45F27131B1480AF0F0
:102E700003FF0095962328220A21AE480AF090FF0E
:102E80004FF4A076294600954FF49B732822A94859
:102E90000AF086FFE623BE225A21A64800960AF0D1
:102EA0007FFF4FF6FF71A3480AF0E6FE00959623D8
:102EB00028220A219F480BF089F8294600954FF4F3
:102EC0009B7328229B480BF081F8E623BE225A21EF
:102ED000984800960BF07AF8A9254BF6F7519548DB
:102EE0000AF0CAFE0095952329220B2191480BF088
:102EF0006DF8009540F235132922AB218D480BF077
:102F000065F840F23F13BF2200935B21E523894817
:102F10000BF05CF84FF6FF7186480AF0ADFE45F203
:102F2000713184480AF0BEFE3C2310228349814857
:102F300000940BF0E5FB5A23282281497D48009438
:102F40000BF0DEFB3C23D0227E497A4800940BF044
:102F5000D7FB5A23B8227C49764800940BF0D0FB6B
:102F60007823B0227949734800940BF0C9FBD2232F
:102F7000802277496F4800940BF0C2FBF023602257
:102F80006E496C4800940BF0BBFB214669480AF07F
:102F900089FE704B1D78002D58D14FF4784165485B
:102FA0000AF06AFE40F259130A226B496148009503
:102FB0000BF0A6FB0CF0CCF9022858D04FF4784166
:102FC0005C480AF059FE002300930A224FF4B973BB
:102FD000624958480BF094FB02AC06AD40F2BD12BA
:102FE00000924FF49B730A2152480BF0E9F85C49B8
:102FF00050480BF0FFFC5B49204611F011FB5A4989
:10300000204611F0D1FB00260146284611F01CFB9A
:1030100029464FF4E17342F20E72009645480BF0D8
:10302000D9FB284611F0BCFA204611F0B9FA40F25B
:10303000D11342F20E7200964C493E480BF060FBF1
:103040003B493C480BF0D6FC0AB070BD4FF4FC6124
:1030500038480AF011FE40F259130A224449354813
:1030600000940BF04DFB0CF073F90228A6D1FFF78A
:10307000A1FE002640F2FF712E480AF0FDFD4FF43C
:10308000B9730A2200963B492A480BF039FB02AC7F
:103090004FF6FF7127480AF0EFFD2046364911F040
:1030A000D3FA2046354911F087FB354911F07CFBF6
:1030B000324911F081FB334911F076FB06AD014630
:1030C000284611F0C1FA4FF4C3730A22294600962C
:1030D00018480BF07FFB284611F062FA204611F0E9
:1030E0005FFA2046284911F0AFFA2046274911F02F
:1030F00063FB274911F058FB244911F05DFB25497A
:1031000011F052FB0146284611F09EFA29464FF471
:10311000CD730A22009607480BF05CFB284611F09D
:103120003FFA204611F03CFA58E700BF1C28FF1F69
:1031300048330200041AFF1FC4160200D41602000E
:10314000E0160200E8160200F0160200F81602006F
:1031500004170200901BFF1F0C1702002C1702001F
:10316000D02E020054170200DC19FF1F7017020056
:103170002017020040170200F427FF1F501702001B
:10318000F019FF1F501AFF1F2C19FF1FA82702005C
:103190005C19FF1F2028FF1F2DE9F0438FB006A800
:1031A000002111F03DFA03AFDFF86480C7F180051C
:1031B000C7F1E0090DF116063C46281911F070FB25
:1031C00004F8010BB442F8D139460AA811F028FAE4
:1031D0000AA906A811F0A8FA0AA811F0E1F900233B
:1031E0000922694606A811F0F5FA10220021684666
:1031F00019F0DAFE203548F8040B052012F0FAF831
:103200004D45D9D106A811F0CBF90FB0BDE8F08338
:103210009824FF1F2DE9F04F064683B0544800273D
:103220000BF000FEE8B9002FF8D045F2713151489B
:103230000AF038FD00244FF6FF714E480AF01CFDDD
:103240004FF4D873E9224C494A4800940BF058FADD
:10325000484821460AF026FD45480BF0E3FD0028CA
:10326000E1D043480BF000FD41480BF0F1FD8146F1
:103270003F480BF02FFE002E804630DDA9F10A04F6
:10328000701C5A220123282CA2F1280105D8884558
:1032900003DB9045DCBF1D4601270133834202F169
:1032A0003202F0D14FF0580B4FF0340A0124A542FE
:1032B0004FF000012F4808BF4FF4FC610AF0DCFC1E
:1032C0000134CDF800B0524630230C2129480AF0D1
:1032D00067FDA6420AF1320A0BF1320BE7DAA9F1D7
:1032E000F009B9F1460F9ED8A8F5D278B8F1320F9F
:1032F00099D8002F92D045F271311E480AF0D2FCC5
:1033000000244FF6FF711B480AF0B6FC4FF4D87347
:10331000E9220094184917480BF0F2F921461548A4
:103320000AF0C0FC214613480AF0A6FC40F29913AB
:1033300000931E224FF49B730A210E480AF0A4FE4C
:1033400045F271310B480AF097FC4FF4EA73009391
:103350004FF4CE724FF49A73DE2106480AF020FD36
:103360004FF4FA7012F046F8284603B0BDE8F08F2B
:10337000AC27FF1F041AFF1F88170200002A12DD66
:10338000F8B50546002017460E460446315D284430
:10339000013411F09FFAE4B20A2012F02BF8BC427B
:1033A0002046F3DBF8BD7047F0B5002A8BB018DD7E
:1033B0000E46920002A906EB020E0F4656F8044B89
:1033C000019401AB3C4613F8015B04F8015B8B42AE
:1033D000F9D1764507F10407F0D1FFF7CFFF0BB025
:1033E000F0BD920002A9F8E7F0B5A74C0FCCB7B03A
:1033F0001EAD0FC50FCC0FC594E80F0004F11006E9
:1034000085E80F000FCE2AAD0FC50FCE0FC596E889
:103410000F00403485E80F000FCC16AD0FC594E8BF
:103420000F00002700240597069785E80F009748AE
:103430008DF810408DF811400AF0B4FB9449934880
:10344000944E0BF0D7FA4FF6E07190480AF014FC56
:10345000462342F20E7290498C4800940BF050F9CA
:1034600021460AA811F0DCF8334606F10C000EAA3A
:1034700013F8011B02F8011B9842F9D10C220EA986
:103480002020FFF77BFF07AD2024204611F008FA2B
:1034900001342C2C05F8010BF7D107A90EA811F067
:1034A000BFF80EA90AA811F03FF90EA811F078F89C
:1034B00000230C2207A90AA811F08CF9754907A866
:1034C00018F0A2F90546642011F094FF734B0EAA80
:1034D000581D13F8011B02F8011B9842F9D105226F
:1034E0000EA90020FFF74AFF642011F083FF1EAFF2
:1034F0004FF400743A68D7F804E0BB680E92204697
:10350000203403220EA9A4B2CDF83CE01093FFF7BB
:103510004BFFB4F5207F07F10C07EBD164200024AA
:1035200011F068FF04220EA94FF440700E940F941E
:1035300010941194FFF738FF04220EA94FF448703D
:103540000E940F9410941194FFF72EFF642011F045
:1035500051FF2AAF4FF480643A68D7F804E0BB68A3
:103560000E922046203403220EA9A4B2CDF83CE0EE
:103570001093FFF719FFB4F5906F07F10C07EBD12B
:10358000642011F037FF7379302B0CD000234FF4F7
:10359000C06003220EA90E930F931093FFF704FF50
:1035A000642011F027FFF37A302B08D04FF400602D
:1035B000012205A9FFF7F8FE642011F01BFF01228C
:1035C00006A94FF40660FFF7EFFE642011F012FF2A
:1035D00016AE4FF4E064326873680E9220462034D1
:1035E00002220EA9A4B20F93FFF7DEFEB4F5F06F2E
:1035F00006F10806EFD136AC0126022204A94FF4E9
:103600002060FFF7BBFE04F8CC6D324621464FF434
:103610001060FFF7B3FE3246214640F60110FFF777
:10362000ADFE3246214640F60510FFF7A7FE3246B2
:1036300021464FF41160FFF7A1FEADB94FF4784178
:1036400012480AF019FB0095462342F20E72144903
:103650000E480BF055F840F6B83011F0CBFE0AA832
:1036600010F09EFF37B0F0BD4FF4FC6107480AF040
:1036700003FB0023009342F20E72462309490348DC
:103680000BF03EF8E7E700BF58100200041AFF1FD6
:1036900048330200440CFF1F90170200540CFF1F18
:1036A000B01702009C1702002DE9F04FC94883B003
:1036B0000AF078FA4FF4FA7011F09CFEC649C5483A
:1036C00000240BF097F94FF6E071C2480AF0D4FAE3
:1036D000234642F20E720094C049BE480BF010F827
:1036E0004FF4EB7545F27131BA480AF0C5FA4FF460
:1036F0009B734FF4CD72DC21B64800950AF050FB65
:103700004FF6FF71B3480AF0B7FA4FF49B734FF4CA
:10371000CD72DC21AF4800950AF058FC4BF6F7510A
:10372000AC480AF0A9FA40F2D51340F29B1200937C
:10373000DD2140F23513A7480AF048FC40F2FF7142
:10374000A4480AF099FA1E230A220094A449A14829
:103750000AF0D6FF4FF6FF719E480AF08DFA0094EA
:103760003E233C229F499B480AF0CAFF00947023E5
:103770003C229D4997480AF0C3FF0094A2233C22B3
:103780009A4994480AF0BCFF4FF6FF7191480AF03D
:1037900073FA322404F12803224600930A213223CB
:1037A0008C480AF013FC04F127030093621C3123B8
:1037B0000B21323487480AF009FCC82CEAD10320D7
:1037C000FFF728FD02288A4C00F0AD83032800F0A3
:1037D000A683012800F00F830025002640F2FF7128
:1037E0007C480AF049FA1E230A220096814979484A
:1037F0000AF086FF4FF6FF7176480AF03DFA3E2345
:103800003C2200967C4973480AF07AFF7B49714854
:103810000BF0F0F83E23CC22009679496D480AF06F
:103820006FFF6D496B480BF0E5F8009670233C2262
:10383000744968480AF064FF0096A2233C2272494A
:1038400064480AF05DFF4FF6FF7162480AF014FA0F
:10385000322606F12803324600930A2132235D48BE
:103860000AF0B4FB06F127030093721C31230B21ED
:10387000323658480AF0AAFBC82EEAD10320FFF7D7
:10388000C9FC022800F04583032800F04583012885
:1038900001D13123E370002640F2FF714D480AF058
:1038A000EBF91E230A22009658494A480AF028FFDD
:1038B0004FF6FF7147480AF0DFF900963E233C229D
:1038C000534944480AF01CFF70233C22009651499A
:1038D00040480AF015FF4FF6FF713E480AF0CCF958
:1038E0004FF05A0A32231A460A213A48CDF800A06E
:1038F0004FF059090AF06AFB4FF08C08312333224C
:103900000B213448CDF800900AF060FB8B2732235E
:1039100064220A212F48CDF800800AF057FB31239A
:1039200065220B212B4800970AF050FB0220FFF77D
:1039300071FC0128064600F06982022806D14FF08A
:10394000310B84F804B0002D00F00682002540F20F
:10395000FF7120480AF090F91E230A222E491D48C3
:1039600000950AF0CDFE4FF6FF711A480AF084F96F
:103970003E233C222949174800950AF0C1FE7023D6
:103980003C222749134800950AF0BAFE4FF6FF7112
:1039900010480AF071F932235A2200920A211A467D
:1039A0000C480AF013FB59230093332231230B21D7
:1039B00008480AF00BFB8C230093642232230A216F
:1039C00004480AF003FB8B230093652231230B216B
:1039D00028E000BF041AFF1F48330200BC17020092
:1039E000CC170200DC170200C41A0200E81702001C
:1039F000440CFF1FF0170200FC170200D02E02003B
:103A000008180200141802002018020024180200EE
:103A1000381802004818020050180200601802000E
:103A200068180200B7480AF0D1FA0220FFF7F2FB4B
:103A3000012800F0E881022801D13223A37100257A
:103A400040F2FF71AF480AF017F91E230A22AE496F
:103A5000AC4800950AF054FE4FF6FF71A9480AF0F1
:103A60000BF93E233C22A949A64800950AF048FEDE
:103A700070233C22A649A34800950AF041FE4FF668
:103A8000FF71A0480AF0F8F832235A2200920A2166
:103A90001A469C480AF09AFA59230093332231239C
:103AA0000B2198480AF092FA8C2300936422322367
:103AB0000A2194480AF08AFA8B2300936522312365
:103AC0000B2190480AF082FA0220FFF7A3FB01289D
:103AD00000F09681022801D13123E3718D4B8E4A8B
:103AE00019688E4800230CF0E1FD8D4B05461870D7
:103AF000002840F0978189480CF0A0FC29468148B5
:103B00000AF0BAF840F2DF1300931E224FF49B73C1
:103B10000A217C480AF0B8FA422731232D223026A8
:103B200040F2FF7177482770A37023726672A27209
:103B30000AF0A2F8462342F20E72009579497148C4
:103B40000AF0DEFD4FF6FF716E480AF095F8009519
:103B5000642342F20E7274496A480AF0D1FD4FF0B4
:103B6000DC0A4FF0CD094FF0BE08AA279B268C2512
:103B700000246E4963480AF03DFF2B460A226C4937
:103B8000604800940AF0BCFD33460A2269495D484A
:103B900000940AF0B5FD3B460A2267495948009453
:103BA0000AF0AEFD43460A226449564800940AF0E2
:103BB000A7FD4B460A226249524800940AF0A0FD34
:103BC00053460A225F494F4800940AF099FD5E4926
:103BD0004C480AF00FFF4FF4EB7545F2713149483C
:103BE0000AF04AF84FF49B734FF4C3720095AA2170
:103BF00044480AF0D5F84FF4484142480AF03CF8EE
:103C000096234FF4C37200950A213E480AF0C8F883
:103C10004FF6FF713B480AF02FF800954FF49B7365
:103C20004FF4C372AA2137480AF0D0F996234FF413
:103C3000C37200950A2133480AF0C8F940F2D5153D
:103C40004BF6F7512F480AF017F840F2351340F2BF
:103C50008712AB212B4800950AF0B8F9952340F262
:103C600087120B21274800950AF0B0F94FF6FF7133
:103C700024480AF001F845F2713122480AF012F89E
:103C80004FF4D373D02231491E4800940AF038FD16
:103C90004FF448411B480AF005F82D491948009493
:103CA0004FF4D37320220AF02BFD2146154809F06A
:103CB000F9FF28480BF0B6F80028FAD025480AF09A
:103CC000D3FF24480BF0C4F8044622480BF002F955
:103CD000A0F59B70A028A4F10A03EAD88C2BA4F1CC
:103CE000AA0403D98C2CE4D8FFF77EFB054809F021
:103CF00059FFC82011F07EFB03B0BDE8F04FFFF77D
:103D000095B800BF041AFF1F701802008018020047
:103D100088180200E028FF1F941802004428FF1FA3
:103D20004C1AFF1FAC180200440CFF1FD02E0200DB
:103D3000CC180200F41802001C1902003C19020001
:103D4000641902008C19020048330200A81902000D
:103D5000B0190200AC27FF1F40F2FF71744809F050
:103D60008BFF1E230A227349714800950AF0C8FC94
:103D70004FF6FF716E4809F07FFF3E233C226E49EB
:103D80006B4800950AF0BCFC70233C226B496848E4
:103D900000950AF0B5FC4FF6FF71654809F06CFF1D
:103DA00032231A460A216248CDF800A00AF00EF923
:103DB0005B4633220B215E48CDF800900AF006F9ED
:103DC000322364220A215A48CDF800800AF0FEF816
:103DD0005B4665220B21564800970AF0F7F83046FB
:103DE000FFF718FA012819D002287FF4AFAD544B21
:103DF00083F805B0AAE530230546E3726371ECE46D
:103E00003023E3716AE63123A37118E6312323716D
:103E10004B4A002D7FF49AAD537197E5484A302301
:103E2000537193E5002306224649474800250CF0CC
:103E300067FD40F2FF713E4809F01EFF3C230A2255
:103E4000009542493A480AF05BFC4FF6FF7138484A
:103E500009F012FF5A230A223A49009534480AF021
:103E60004FFC39480CF0EAFA2946314809F004FFC2
:103E700040F2DF1300931E224FF49B730A212C485B
:103E80000AF002F9422731232D22302640F2FF7139
:103E900027482770A37023726672A27209F0ECFEA5
:103EA000462342F20E720095294921480AF028FC67
:103EB0004FF6FF711E4809F0DFFE642342F20E72D6
:103EC00000951F491A480AF01BFC40F2FF71184880
:103ED00009F0D2FE8C2342F20E7200951D4914485F
:103EE0000AF00EFC4FF6FF71114809F0C5FE00956F
:103EF000AA2342F20E7213490D480AF001FC4FF456
:103F0000917A40F213194FF48278F027E126D225F6
:103F10002EE63223E370BEE43323E370BBE43323A5
:103F2000E372002559E43223E372002555E400BF13
:103F3000041AFF1FB8190200C4190200CC190200AC
:103F4000440CFF1F540CFF1F4428FF1F9C18020045
:103F5000AC180200BC180200F8B52723294C2A4EE1
:103F600023220546012118463370227011F018FAF9
:103F70003078002111F000FA2078012111F010FAB8
:103F80002078002111F058F8322D28D0332D14D08C
:103F9000312D00D0F8BD1D4A1D481E4E1E4C1F4934
:103FA0001F4B1060822741F2941500204FF4B47229
:103FB0003760256008601A60F8BD164A164E174C27
:103FC0001249174B6420106046F2A81702251020F2
:103FD0004FF4C8723760256008601A60F8BD0D4A5A
:103FE0000D4E0E4C09490E4B6420106046F2A81786
:103FF00000254FF480704FF48372376025600860AD
:104000001A60F8BDD819FF1FA524FF1FB419FF1FA0
:10401000D0010100A827FF1F4419FF1F1020FF1F18
:10402000D419FF1F08B511F073FF064B0021187853
:1040300011F002F8044B00211878BDE8084011F097
:104040009BB900BFD819FF1FA524FF1F10B5314B26
:10405000DB7A322B82B004462CD0332B02D12E488F
:104060000EF0F0FDFA2011F0C5F9FFF7DBFF4FF479
:1040700078412A4809F000FE002300932748284988
:10408000962342F20E720AF03BFBA01F08280FD8BD
:10409000DFE800F0141F2A0E0E0E0E350500002377
:1040A000009342F20E72C8231E491C480AF028FBF6
:1040B00002B010BD1C480BF0FBFAD3E700230093BD
:1040C00042F20E72C823194914480AF019FB02B0D3
:1040D00010BD0023009342F20E72C82314490F480A
:1040E0000AF00EFB02B010BD0023009342F20E72E4
:1040F000C823104909480AF003FB02B010BD002391
:10410000009342F20E72C8230B4904480AF0F8FAF1
:1041100002B010BD440CFF1F1C25FF1F041AFF1F17
:1041200094240200281A0200AC24FF1FD4190200B4
:10413000E8190200001A0200141A0200FFFFFFFF34
:1041400030B57D4A7D4B107889B0002401211C7068
:1041500011F012F97A4BDB7A322B49D0332B44D150
:10416000784BC821187810F067FFAA2342F20E722C
:104170007549764800940AF0C3FAD02342F20E72D1
:104180007349724800940AF0BBFA724972480EF003
:104190009FFC40F2DC5011F02DF9642203A96E4817
:1041A0000EF096FDA0425FDB6C4B6D4C18789DF8CD
:1041B0000C30237016F01AF89FED5D0B41EC110BDB
:1041C00013F0C2FC51EC100B16F05EFB2378654A2D
:1041D000183BDBB2192B107000F2A380624A22FA5E
:1041E00003F3DB0740F19D800124204609B030BD78
:1041F0000094AA2342F20E72534954480AF080FAFE
:10420000D02342F20E725249009450480AF078FAD4
:104210004FF47A6011F0EEF840F2124011F0F4FD24
:104220004FF4FA7011F0E6F8504951480BF01EF9BE
:10423000072405464FF4FA70EDB911F0DBF84B494D
:104240004B480BF013F9013C0546F3D121463F489A
:1042500009F012FDEC230093AA224FF49B730A216C
:104260003A4809F011FF9DB90620FFF7EFFE002440
:10427000204609B030BD0021344809F0FDFCEC2394
:104280000093AA224FF49B730A21304809F0FCFEE8
:1042900000240094AA23A02236492C480AF030FAC0
:1042A000D023A0222A49009428480AF029FA40F68F
:1042B000B83011F09FF84FF4FA7011F09BF82C48C9
:1042C0000BF07EF90F2504464FF4FA70DCB911F0BB
:1042D00091F827480BF074F9013D0446F4D12946C2
:1042E0001A4809F0C9FCEC230093AA224FF49B73EF
:1042F0000A21164809F0C8FE002C7FF475AF07208C
:10430000FFF7A4FE71E70021104809F0B5FCEC238B
:104310000093AA224FF49B730A210C4809F0B4FEC3
:1043200063E70E20FFF792FE00245EE7AFF3008004
:104330000000000000000040A524FF1F1420FF1F04
:10434000440CFF1FD819FF1F401A0200041AFF1F58
:10435000541A0200FC0DFF1F1C25FF1FD019FF1F60
:10436000A424FF1F1828FF1F01400102482E02004D
:10437000AC24FF1F641A02002DE9F0472DED048BD9
:1043800090B0B2EE040A012107A810F08FF907A936
:104390000BA810F059F9D3490BA810F00DFA0146FB
:1043A00003A810F051F90BA810F0FAF807A810F0C4
:1043B000F7F84FF6FF71CC4809F05EFC03A90BA893
:1043C00010F042F900230BA90093EA224FF4B473D2
:1043D000C5480AF0FFF90BA810F0E2F80220FFF739
:1043E000AFFE002840F01E810124C04E9FEDC09A10
:1043F000DFF83083DFEDBF8A9FEDBF8A37464FF08D
:104400002009002514B3BD480AF00CFD0028F9D09E
:10441000002DF7D1B9480AF027FCB8480AF018FD7A
:104420008246B6480AF056FD6FF4D27318443A2813
:10443000E8D8AAF10A03562B00F28580B04B092276
:104440004FEA49091A600125002CDCD14FF4FA71BA
:10445000A6480EF04FFB0028C0F2988097F8D131A3
:104460004BB1DFF89CA2DAF800300133032BCAF815
:10447000003000F3AF80D6ED726AF4EEC96AF1EE57
:1044800010FA5CDD9F4B96ED737A93ED006ADFF8CE
:1044900098E29FED9D5AF6EE007A37EE277AB8EE55
:1044A000C66A07EE909AF8EEE75A77EE067AFDEEC6
:1044B000E77A17EE903A83FB08011944DA17C2EB4A
:1044C00021224FF4B47101FB1233CB1A5EF8232082
:1044D00007EE102AB8EEC77A27EE267A87EE286A0A
:1044E00026EE257AC7EE087A77EE857AFDEEE77A32
:1044F00017EE901A4A1EB2F59F7F84D2834ADFEDF1
:10450000847A52F8233007EE103AB8EEC77A67EE95
:10451000266A86EEA87A67EE255A85EE887A77EEC7
:10452000C77AFDEEE77A17EE902AA2F11503B3F5EC
:104530009F7FBFF468AF6C4809F0C2FB63E70120BE
:1045400010F058FF5FE7AAF17503562B08D86C4BA3
:1045500009EBD97909224FEA69091A60012551E767
:10456000AAF1E00ABAF1560F3FF64CAF5F480EF0E1
:1045700069FBFA2010F03EFFFFF754FD03A810F08E
:104580000FF810B0BDEC048BBDE8F08764220BA9D6
:1045900056480EF09DFB0028FFF635AF4FF47A72B7
:1045A000214652480EF04CFC0028C0F2C88021463B
:1045B0004D4809F061FB4FF4A973009315224FF4A5
:1045C0009F730121484809F05FFD4FF47A7010F0A5
:1045D00011FF18E72146444809F04EFB4FF4A97338
:1045E0001522009301214FF49F733F4809F04CFDC1
:1045F0004FF494613C4809F03FFB0323B422A0210F
:10460000394809F029FCDAF80030082B00F39C80C7
:1046100025464FF6E071344809F02EFB0023CAF816
:10462000003028E74FF6E0712F4809F025FB394BA1
:104630001B78183B0024192B3FF6D7AE01A252F885
:1046400023F000BF2D470000EB430000EB430000C8
:10465000EB430000EB430000EB430000EB430000A2
:10466000EB430000EB430000EB430000EB43000092
:10467000EB430000EB430000EB430000D146000099
:10468000EB430000BF460000EB430000EB4300009B
:10469000EB430000EB430000EB430000EB43000062
:1046A000EB430000EB430000AD46000000944FF4E4
:1046B000C3730A2218490C480AF022F895E60094C0
:1046C0004FF4C3730A22154907480AF019F88CE61B
:1046D00000944FF4C3730A22114903480AF010F8FA
:1046E00083E600BF781A0200041AFF1F1C25FF1F73
:1046F0000000C84200401C4600007A44AC27FF1F5F
:104700001025FF1FE418FF1F00002043A828020007
:1047100000003443A424FF1FB01A0200901A0200C4
:10472000A01A0200B7600BB6D810020000944FF434
:10473000C3730A221E491F4809F0E2FF55E608200C
:10474000FFF784FC01245EE607EE909A9FED1A0ABB
:10475000F8EEE77A012180EE270A07A80FF0A6FFFE
:1047600007A90BA80FF070FF14490BA810F024F84C
:10477000014603A80FF0D0FF0BA80FF011FF07A808
:104780000FF00EFF4FF6FF710A4809F075FA03A902
:104790000BA80FF059FF00944FF4B473EA220BA951
:1047A00004480AF017F80BA80FF0FAFE31E700BF33
:1047B000801A0200041AFF1F0000A043781A0200AA
:1047C0002DE9F04F2DED028B93B0B2EE040A0121DA
:1047D0000AA80FF06BFF0AA90EA80FF035FFAB492E
:1047E0000EA80FF0E9FF014606A80FF02DFF0EA856
:1047F0000FF0D6FE0AA80FF0D3FE4FF6FF71A448C3
:1048000009F03AFA002406A90EA80FF01DFF4FF494
:10481000B473EA220EA99E48009409F0DBFF0EA8AB
:104820000FF0BEFE4FF6E071994809F025FA98485E
:1048300000944FF4C3730A22964909F061FF2046A1
:10484000FFF77EFC002840F0E1800124DFF8608261
:10485000DFF860A2DFF86092DFED8F8AC346202781
:10486000002504B38D480AF0DDFA0028F9D0002DA8
:10487000F7D18A480AF0F8F988480AF0E9FA0646BA
:1048800086480AF027FB6FF4D27318443A28E8D818
:10489000A6F10A03562B66D809237F00C8F800301A
:1048A0000125002CDED104A80DF10F027C490AF08D
:1048B00013FE9DF80F30002BD4D004A80AF068FD39
:1048C00000285CD104A80AF065FD04A8B0EE408A77
:1048D0000AF066FD00EB8000400080B264283ED9FB
:1048E000704B1B6898423ADAF6EE007A38EE278A67
:1048F0006D4BFDEEC87A17EE906A53F8262002FB46
:1049000000F28AFB0213D217C2EB233307FB03F337
:1049100089FB0321DB17C3EBA11101F19F03B3F561
:104920009F7F01F1A0019DD2604B53F8263003FB1D
:1049300000F08AFB0023C017C0EB233307FB03F30F
:1049400089FB0302DB17A3EBA21202F19F03B3F56D
:104950009F7F87D2B4324E4809F0B2F982E7012036
:1049600010F048FD7EE7A6F17503562B3AD807EB09
:10497000D77709237F10C8F80030012571E7D8F8F0
:1049800000300133032BC8F800309BDD214640483E
:1049900009F072F94FF4A9731522009301214FF425
:1049A0009F733B4809F070FB4FF49461384809F05D
:1049B00063F90323B422A021354809F04DFA4FF6DC
:1049C000FF71334809F058F9DBF80030082B2CDC74
:1049D00025464FF6E0712E4809F04EF90023C8F83D
:1049E00000306FE7E03E562E3FF63BAF2C480AF012
:1049F0005FFEFA2010F0FEFCFFF714FB06A80FF094
:104A0000CFFD13B0BDEC028BBDE8F08F4FF47A7090
:104A100010F0F0FC22480AF015FE00287FF416AFD3
:104A20000820FFF713FB012410E707EE907AB8EE99
:104A3000E70A012188EE800A0AA80FF037FE0AA9CA
:104A40000EA80FF001FE11490EA80FF0B5FE0146A9
:104A500006A80FF061FE0EA80FF0A2FD0AA80FF045
:104A60009FFD4FF6FF710A4809F006F906A90EA846
:104A70000FF0EAFD00944FF4B473EA220EA9044843
:104A800009F0A8FE0EA80FF08BFDA2E7781A02002D
:104A9000041AFF1FC01A02000000A043AC27FF1F2A
:104AA000AC24FF1F4419FF1FD8100200A8280200E1
:104AB0001025FF1FAD8BDB68D34D621070B57148B8
:104AC00082B009F06FF870496E4840F2DF1409F0C7
:104AD00091FF45F271316B4809F0CEF800946023E4
:104AE00040F2A5120A21674809F05AF90094CB2335
:104AF00040F2A5127521634809F052F94FF49B73F7
:104B000040F2A5120094E0215E4809F049F94FF601
:104B1000FF715C4809F0B0F80094602340F2A512E0
:104B20000A21584809F052FA0094CB2340F2A5120A
:104B30007521544809F04AFA4FF49B7340F2A512CC
:104B40000094E0214F4809F041FA4FF4EF744BF61E
:104B5000F7514C4809F090F800945F234FF4D3725A
:104B60000B21484809F032FA0094CA234FF4D3725B
:104B70007621444809F02AFA40F235134FF4D372F3
:104B80000094E1213F4809F021FA45F271313D4896
:104B9000002409F087F84FF6FF713A4809F06CF8E5
:104BA0004FF4DD732D2239493648009409F0A8FDF1
:104BB0004FF4DD73982236493248009409F0A0FD85
:104BC0004FF4DD73EB2233492E48009409F098FD31
:104BD00021462C4809F066F813254FF6FF71294845
:104BE00009F04AF84FF4AD762A462146009540F286
:104BF0003F13244809F0E4FA32462146009640F279
:104C00003F13204809F0DCFA2A4600962346214645
:104C10001C4809F0D5FA40F23F132A46194600967F
:104C200018481D4E1D4D09F0CBFA23462146E122BE
:104C3000144809F011F80323B422A021114809F007
:104C40000BF94FF6E0710F4809F016F800944FF495
:104C5000B4730A2212490B4834702C6009F050FDDD
:104C6000104BDB7A332B08D0322B01D002B070BD51
:104C700002B0BDE87040FFF7A3BD02B0BDE87040D0
:104C8000FFF77ABB041AFF1F48330200D01A020054
:104C900050170200D41A02001028FF1F1025FF1F12
:104CA000DC1A0200440CFF1F30B55B4883B008F0EB
:104CB00079FF0A21594804F08DFF4FF4FA7000245F
:104CC00010F098FB4FF6E071534808F0D5FF0A2327
:104CD00042F20E7252495048009409F011FD4FF60D
:104CE000FF714D4808F0C8FF4E494B4809F082FE5D
:104CF0001E2342F20E724C494748009409F000FD11
:104D0000282342F20E7249494348009409F0F8FC06
:104D1000322342F20E7246493F48009409F0F0FCFB
:104D2000412342F20E7243493B48009409F0E8FCEB
:104D30004B2342F20E7240493748009409F0E0FCE0
:104D40003E49354809F056FE4FF4A27364221421FF
:104D5000324804F097FF4FF6FF712F480A2508F0FC
:104D60008BFF02212D4805F0F9FF2A46DC23344948
:104D70002A48009506F0C0FE0C232A4600933149CC
:104D80002648EB2306F0B8FE0E232A4600932E4950
:104D90002248FC2306F0B0FE12232A4600932B493A
:104DA0001E4840F2111306F0A7FE16232A46009370
:104DB00027491A4840F2291306F09EFE1C232A4672
:104DC00000932449154840F2471306F095FE4FF42E
:104DD0009A734FF4BE725021104804F053FF4FF401
:104DE0009F734FF4BE72B4210C4804F04BFF40F2A5
:104DF000FF71094808F040FF00944FF4E67342F257
:104E00000E721549044809F07BFC14480AF00AF8B0
:104E10000028FAD003B030BD041AFF1F6C1BFF1F1F
:104E2000EC1A0200D02E0200001B0200281B020018
:104E3000501B0200781B0200A01B02004833020036
:104E4000C41B0200D81B0200EC1B0200001C020065
:104E5000141C0200281C02003C1C0200AC27FF1F8F
:104E6000F0B52DED028B85B04FF6FF715A48002644
:104E700008F002FF594958480096642342F20E7226
:104E800009F03EFC56480CF097FF4FF4FC610446D5
:104E9000514808F0F1FE002C00F08580642342F2B6
:104EA0000E7250494C48009609F02AFC4FF47A7073
:104EB00010F0A0FA4FF6FF71474808F0DDFE6423BA
:104EC00042F20E7248494448009609F019FCA023AA
:104ED0000096B0224549404809F012FC444BDF6A75
:104EE0003F0B36D007EE907A9FED428AF8EEE78AC4
:104EF0004FF48055340301220DF10F013E480BF0B1
:104F000037FC0123012808BF9DF80F20344818BF43
:104F1000FF2221461C440CF005FFAC42EBD107EE0A
:104F2000906AF8EEE77A202267EE887A002387EE0F
:104F3000A87A019200930136A0238022264805F525
:104F40008055FDEEC77A17EE901A09F063FCBE4259
:104F5000D0D1002428480BF071FAA02380220094BD
:104F600026491D4809F0CCFB4FF4FC611A4808F0B3
:104F700083FE0094642342F20E722149164809F020
:104F8000BFFB782342F20E721E490094124809F0CA
:104F9000B7FB40F6B83010F02DFAFFF785FE05B0EC
:104FA000BDEC028BF0BD4FF478410B4808F064FE75
:104FB000642342F20E7214490094074809F0A0FBE2
:104FC0000D480BF03BFA4FF47A6010F013FA05B07D
:104FD000BDEC028BF0BD00BF041AFF1F501C020085
:104FE000601AFF1F601C0200741C0200881C020073
:104FF0003428FF1F0000C8424428FF1F8C1C0200F9
:10500000901C0200A41C0200B01C0200FFFFFFFF66
:105010002DE9F043C64FC74883B000243C6008F038
:10502000C1FD4FF4FA7010F0E5F9C349C14809F029
:10503000E1FC4FF6E071BF4808F01EFE0A2342F281
:105040000E72BE49BB48009409F05AFBBC480CF0F4
:105050005DFE4FF6E0710546B64808F00DFE2823C8
:105060000A22B849B348009409F04AFB4FF6FF7191
:10507000B04808F001FEC5F30743EF2BEDB20094F2
:105080004FF03C034FF0320200F07481AE49A94862
:1050900009F036FB4FF47841A64808F0EDFDD22325
:1050A00042F20E720094A949A24809F029FBA849CE
:1050B000A04809F09FFC4FF6FF719E4808F0DCFD08
:1050C0000094E62342F20E72A2499A4809F018FBB6
:1050D0000094F52342F20E729F49964809F010FBA6
:1050E00000944FF4827342F20E729C49914809F089
:1050F00007FB91498F4809F07DFC01244FF6E071D0
:105100008C48002608F0B8FD50230A2294498948AB
:10511000009609F0F5FA87484FF6FF7108F0ACFDEC
:10512000A5F11100C3B2092B76D815F06FF89FEDE9
:105130007E0B41EC110B12F007FD51EC100B15F03A
:105140007BFB202301460096019332226423794899
:1051500009F060FB642300961A468249754809F0FD
:10516000CFFA1A2D98BF012610D8012303FA05F5AE
:1051700015F0F86840F0248115F4401940F04B8197
:1051800015F4602F40F03181002E4ED04FF4EB75B6
:1051900045F27131674808F06FFD00954FF49B733D
:1051A0004FF4CD72AA21634808F0FAFD4FF6FF7163
:1051B000604808F061FD00954FF49B734FF4CD7289
:1051C000AA215C4808F002FF4BF6F751594808F055
:1051D00053FD40F2D51340F29B120093AB2140F2F5
:1051E0003513544808F0F2FE45F27131514808F089
:1051F00059FD00254FF6FF714E4808F03DFD009522
:105200004FF4D873D02258494A4809F079FA294610
:10521000484808F047FD08E00096642332224A49D6
:10522000444809F06DFA1A2D9FD94FF4EB754FF4ED
:10523000484140483E4E08F01FFD96234FF4CD7282
:1052400000950A213B4808F0ABFD4FF6FF71394845
:1052500008F012FD96234FF4CD7200950A213548CF
:1052600008F0B4FE4BF6F751324808F005FD40F265
:10527000D51340F29B1200930B2195232D4808F083
:10528000A5FE4FF448412B4808F00CFD00254FF6D1
:10529000FF71284808F0F0FC4FF4D87320223349FE
:1052A0002448009509F02CFA2946224808F0FAFC17
:1052B00001233B602E4809F0B5FD0028FAD02C48A8
:1052C00009F0D2FC2A4809F0C3FD0546284809F038
:1052D00001FEA0F59B70A028ECD8A5F10A038C2B49
:1052E0004DD83B68012B11D0022BE3D1002111488E
:1052F00008F0C2FC40F2DF13009328224FF49B73A6
:105300000A210C4808F0C0FEFFF7AAFD094808F082
:1053100049FCC82010F06EF803B0BDE8F043FDF77B
:1053200085BD00BFAFF3008000000000000000401A
:105330001C28FF1F041AFF1F48330200C01C020074
:10534000601AFF1FD41C0200EC1C0200F41C0200B7
:10535000D02E0200001D0200201D0200481D020088
:105360005C1D02006C1D020088170200B0190200CB
:10537000AC27FF1F6549664809F0C2F9BEE6AA3DA1
:105380008C2D97D800216248DFF8BC8108F074FCAE
:1053900040F2DF13009328224FF49B730A215C48EC
:1053A00008F072FE4FF4FA7010F024F83B68012BFD
:1053B0006DD0022B7FF47EAF56480BF03FF8A5E787
:1053C000002540F2FF71524808F056FC00959623E4
:1053D0000A2251494E4809F093F90095AA230A225E
:1053E0004E494B4809F08CF9CEE64FF478414848D5
:1053F00008F042FCCDF8009096230A224849444820
:1054000009F07EF9CDF80090AA230A2245494048C8
:1054100009F076F909E74FF6E0713D4808F02CFCF9
:10542000CDF8008096230A223D49394809F068F9F1
:10543000CDF80080AA230A223B49354809F060F9DB
:10544000CDF80080BE230A223849314809F058F9C6
:10545000D2230A22CDF8008035492D4809F050F9B1
:1054600040F2FF712A4808F007FCCDF80080F023D5
:105470000A222949264809F043F9CDF800804FF463
:1054800082730A222549224809F03AF97CE6294B21
:10549000294A19681F4800230BF008F9054600281F
:1054A00054D14FF478411A4808F0E6FB3C2342F20D
:1054B0000E7222491648009509F022F94FF6FF7145
:1054C000134808F0D9FB5A2342F20E721C491048C7
:1054D000009509F015F96E2342F20E7216490C4838
:1054E000009509F00DF9822342F20E721549084821
:1054F000009509F005F907480AF0A0FF41F288304D
:105500000FF078FFC8F8005000E700BFE41C02006D
:10551000041AFF1F4428FF1FCC1D0200E01D0200DB
:10552000741D0200881D0200981D0200AC1D0200BF
:10553000C01D0200E028FF1FEC1D0200FC1D020040
:10554000041E0200101E02001C28FF1F002502235B
:105550004FF6FF718048336008F08EFB28230A2243
:105560007E497D48009509F0CBF83C230A227C490E
:105570007948009509F0C4F87A49774809F03AFA71
:1055800064230A2278497448009509F0B9F8732316
:105590000A2276497048009509F0B2F882230A225F
:1055A00073496D48009509F0ABF891230A227149BF
:1055B0006948009509F0A4F8A0230A226E496648BC
:1055C000009509F09DF8AF230A226C4962480095C6
:1055D00009F096F86A49604809F00CFA4FF4EB7844
:1055E0004FF448415C4808F047FB4FF49B734FF47D
:1055F000CD72AA215848CDF8008008F0D1FB4FF6B3
:10560000FF71554808F038FB4FF49B734FF4CD728F
:10561000AA215148CDF8008008F0D8FC40F2D519F5
:105620004BF6F7514C4808F027FB40F2351340F297
:105630009B12AB214848CDF8009008F0C7FC4FF40E
:105640004841454808F02EFB4FF6FF71424808F0EC
:1056500013FB4FF4D873C0224A493F48009509F024
:105660004FF829463C4808F01DFB4FF494613A4836
:1056700008F002FB96234FF4CD720A213648CDF88C
:10568000008008F08DFB4FF6FF71334808F0F4FA04
:1056900096234FF4CD720A212F48CDF8008008F0F0
:1056A00095FC4BF6F7512C4808F0E6FA952340F2AA
:1056B0009B120B212848CDF8009008F087FC4FF48E
:1056C0009461254808F0EEFA4FF6FF71224808F081
:1056D000D3FA2D49204800954FF4D873302209F0B1
:1056E0000FF829461C4808F0DDFA002C3FF4E2AD23
:1056F0004FF47841184808F0BFFAD22342F20E72F4
:1057000000952249144808F0FBFF1649124809F099
:1057100071F94FF6FF71104808F0AEFA0095E623D4
:1057200042F20E721A490C4808F0EAFF0095F52380
:1057300042F20E721749084808F0E2FF00954FF454
:10574000827342F20E721449034808F0D9FF0C49E3
:10575000014809F04FF9ADE5041AFF1F1C1E0200B5
:10576000301E0200D02E0200441E0200681E0200FD
:105770008C1E0200B41E0200D01E0200F81E0200A1
:1057800048330200B0190200E8160200F41C0200BF
:10579000001D0200081F02002C1F020070B5104EF1
:1057A00082B001F10A030C4605460093A1F10A02FA
:1057B00000F10A03A0F10A01304608F0D7FB6B1D87
:1057C0002246691F3046009408F0FAFC631D0093DE
:1057D0003046621F2B46294608F0F2FC02B070BD2D
:1057E000041AFF1F2DE9F047DFF8BCA0274F82B055
:1057F0004FF00009FF231A461946254808F02CFAF5
:10580000DAF80030CDF8009042F20E7221492048BB
:1058100008F076FF1D4809F005FB0028FAD01C4867
:10582000DAF80030CDF8009042F20E721A490026E4
:1058300008F066FF15483446354641F2883809F0CD
:10584000F1FAF0B1454511480DD1144B1449154AF0
:10585000A3FB0404A3FB0603240B1B0B0C601360C7
:1058600002B0BDE8F08709F075FBB7F90020B7F981
:1058700002300648013514441E4409F0D3FA0028CA
:10588000E0D141F288339D42B4D1DEE7AC27FF1F5F
:10589000041AFF1F3C1F0200481F02005917B7D10E
:1058A000E818FF1FF026FF1F0820FF1F70B5FF2319
:1058B00082B005460E46144619461A461C4808F0A2
:1058C000CBF931462846FFF769FF00231A46FF212E
:1058D000174808F0D5F9FFF785FFFF231A46194648
:1058E000134808F0B9F9134B13491B6810480022FC
:1058F000009242F20E7208F003FF50231A46194636
:105900000B4808F0A9F931462846FFF747FF0B4836
:105910000B4A0C490C4B0068126841F8240043F80C
:1059200024200A4809F07EFA0028FAD102B070BD9E
:10593000041AFF1F0820FF1F541F0200E818FF1F52
:10594000F026FF1FEC18FF1F0C19FF1FAC27FF1FCD
:1059500008B5084809F066FA0028FAD1054809F0A8
:1059600061FA0028FAD0034809F05CFA0028FAD15D
:1059700008BD00BFAC27FF1F0F4970B44C22302672
:10598000782555240023CA720E704D708C720B73EB
:1059900001F10902013100F00F03092B03F1370473
:1059A00096BF303314701370013A8A424FEA1010D8
:1059B000F1D170BC704700BF8C24FF1F30B50023AD
:1059C000784D794883B01A46FF2108F045F92B68D5
:1059D000754800220D21013B0091114608F054FB4F
:1059E000FF231A461946704808F036F900231A4674
:1059F000FF216D4808F044F92B686B480E22002106
:105A00000C46013B009208F0DBFB012342F20E72D0
:105A100066496548009408F073FE234622462146F5
:105A2000614808F02DF92B680094DC2B4FF01E0321
:105A300071D042F20E725E495B4808F061FE32237B
:105A400022465C495848009408F05AFE3E232246FC
:105A500059495548009408F053FE4A2322465749B5
:105A60005148009408F04CFE5623224654494E48B3
:105A7000009408F045FE6223224652494A480094A9
:105A800008F03EFE6E2322464F494748009408F036
:105A900037FE862322464D494348009408F030FEE5
:105AA000922322464A494048009408F029FEAA233E
:105AB000224648493C48009408F022FEB62322467C
:105AC00045493948009408F01BFE4FF49173224673
:105AD00042493548009408F013FE4FF4977322466C
